:020000040800F2
:1000000068040020F52D0008B5030008B7030008B8
:10001000BB030008BF030008C30300080000000082
:10002000000000000000000000000000C7030008FE
:10003000C903000800000000CB030008CD0300083E
:100040000F2E00080F2E00080F2E00080F2E00089C
:100050000F2E00080F2E00080F2E00080F2E00088C
:100060000F2E00080F2E00080F2E00080F2E00087C
:100070000F2E00080F2E00080F2E00080F2E00086C
:100080000F2E00080F2E00080F2E00080F2E00085C
:100090000F2E00080F2E00080F2E00080F2E00084C
:1000A0000F2E00080F2E00080F2E00080F2E00083C
:1000B0000F2E00080F2E00080F2E00080F2E00082C
:1000C0000F2E00080F2E00080F2E00080F2E00081C
:1000D0000F2E00080F2E00080F2E00080F2E00080C
:1000E0000F2E00080F2E00080F2E00080F2E0008FC
:1000F0000F2E00080F2E00080F2E00080F2E0008EC
:100100000F2E00080F2E00080F2E00080F2E0008DB
:100110000F2E00080F2E00080F2E00080F2E0008CB
:100120000F2E00080F2E00080F2E00080F2E0008BB
:10013000DFF80CD002F0F6FE004800473B03000851
:10014000680400200CB50020019000906B48006806
:1001500040F480306949086000BF6848006800F4D6
:10016000003000900198401C0190009818B9019847
:10017000B0F5A06FF1D16148006810F4003F02D0E3
:100180000120009001E0002000900098012842D159
:100190005B48006840F01000594908600846006854
:1001A00020F0030008600846006840F00200086084
:1001B00052484068514948600846406848600846CF
:1001C000406840F4806048600846406820F47C1035
:1001D00048600846406840F4E810486008460068F7
:1001E00040F08070086000BF4448006810F0007F55
:1001F000FAD04248406820F0030040494860084671
:10020000406840F00200486000BF3C48406800F091
:100210000C000828F9D10CBD10B5FFF793FF10BDF5
:1002200010B53648006840F00100344908600846BF
:1002300040683449084031494860084600683249FE
:1002400008402E4908600846006820F480200860B5
:100250000846406820F4FE0048604FF41F008860A4
:10026000FFF7DAFF4FF000602849086010BD10B5B5
:10027000002100200022214B5B6803F00C0121B11A
:10028000042906D0082928D107E0214B214C2360FE
:1002900027E01F4B1F4C236023E0184B5B6803F4DF
:1002A0007010164B5B6803F48032022303EB90401E
:1002B00022B9194B4343174C23600DE00F4B5B6889
:1002C00013F4003F04D0144B4343124C236003E06B
:1002D0000F4B43430F4C236003E00D4B0D4C236049
:1002E00000BF00BF054B5B68C3F303130B4CE15C1D
:1002F000084B1B68CB40074C236010BD0010024028
:10030000002002400000FFF8FFFFF6FE08ED00E0CD
:1003100000127A000000002000093D0004000020C7
:100320004FF4FA7006E041F2883100E0491E0029DE
:10033000FCDC401E0028F6DC70471FB500F022FAF6
:1003400000F040FB00F04DFC42F217001749088016
:10035000052088700720C870282008711620487171
:10036000462088710020C871084600F001F91CE0A1
:1003700000200F49086014E0FFF7D2FF0620022199
:1003800004220023CDE90032CDE90210032301222B
:100390000A21104600F0A1FC05480068401C0449F1
:1003A0000860034800686E28E6DBE1E72E000020C5
:1003B00014000020704700BFFEE700BFFEE700BF4B
:1003C000FEE700BFFEE770477047704770470021A7
:1003D00006E00A2100BF0A00A1F1010399B2FAD197
:1003E0000200A0F1010398B2F3D1704770B5054641
:1003F0000C4600F003FAD02000F064FA28B9284631
:1004000000F060FA204600F05DFA00F01BFA70BDC3
:1004100070B5044600F0F2F9D02000F053FA68B944
:10042000204600F04FFA00F0E9F9D12000F04AFA36
:1004300000F092FA0546012000F020FA00F002FADE
:10044000284670BD2DE9F04180460D4616461F46F0
:1004500027B300F0D3F9D02000F034FAD8B94046E1
:1004600000F030FA00F0CAF9D12000F02BFA002495
:100470000FE000F071FA2870701EA04203D1012035
:1004800000F0FCF902E0002000F0F8F96D1C601C9F
:10049000C4B2B442EDDB00F0D5F914E000F0AEF9DF
:1004A000D02000F00FFA60B9404600F00BFA0024AB
:1004B00005E0287800F006FA6D1C601CC4B2B44256
:1004C000F7DB00F0BFF9BDE8F0811CB5044664B36A
:1004D0000123072269460020FFF7B4FF9DF80000C2
:1004E00000F07F00A149C8719DF8010000F07F0075
:1004F00088719DF8020000F03F0048719DF80300EC
:1005000000F00700C8709DF8040000F03F0008717B
:100510009DF8050000F01F0088709DF8060042F26B
:10052000150108439149088021E09048C0798DF871
:1005300000008E4880798DF801008C4840798DF854
:1005400002008A48C0788DF80300884800798DF849
:100550000400864880788DF80500844800788DF87E
:1005600006000023072269461846FFF76BFF1CBDF3
:1005700010B50446E0797E490870A079487060792A
:100580008870E078C87020790871A0784871207868
:100590008871002307221846FFF754FF00210E2020
:1005A000FFF724FF00210F20FFF720FF10BD10B53B
:1005B0000F20FFF72DFF10F0800F01D0012010BD9C
:1005C0000E20FFF725FF10F0800F01D00120F6E785
:1005D0000020F4E710B50120FFF777FF6348C079EA
:1005E000302101EB2010634988716048C07900F028
:1005F0000F003030C8715D488079302101EB201048
:100600005C49C8705948807900F00F00303008719B
:1006100056484079302101EB201056490870534864
:10062000407900F00F003030487050480079302198
:1006300001EB2010504908724C48007900F00F007F
:100640003030487249488078302101EB20104A4907
:1006500048714648807800F00F0030308871434878
:100660000088302101EB2030434908703F48008862
:10067000C0F30320303048703C480088302101EB43
:1006800020103D4988703948007800F00F00303064
:10069000C8703648C07800F00F003030C87210BD06
:1006A0002DE9F04104461120FFF7B2FE0546122065
:1006B000FFF7AEFE861115F0800F07D0E843C5B2F4
:1006C000F043401CC6B22D20207001E02020207095
:1006D000304602F0D7FB80464FF07A5102F09CFB87
:1006E000074605F070054FF47A7095FBF0F100FBBA
:1006F0001150642190FBF1F030306070642095FB64
:10070000F0F100FB11500A2190FBF1F03030A070A5
:100710000A2095FBF0F100FB11503030E0702E20E4
:1007200020711649384602F077FB804602F0AFFB95
:10073000303060711249384602F06EFB804602F09C
:10074000A6FBC0B20A2190FBF1F201FB120030308F
:10075000A0716078302801D120206070A078302806
:1007600001D12020A070BDE8F08100002E00002003
:10077000360000201800002020000020000020414A
:100780000000C84208B50121082002F0C7F84FF464
:100790004060ADF8000010208DF8030003208DF8B4
:1007A00002006946144801F003FE08BD08B50121A6
:1007B000082002F0B3F84FF40060ADF800001020FC
:1007C0008DF8030003208DF8020069460A4801F005
:1007D000EFFD08BD08B50121082002F09FF84FF495
:1007E0000060ADF8000048208DF80300694602481B
:1007F00001F0DEFD08BD0000000C014010B5FFF760
:10080000D5FF4FF400616E4801F07DFE0220FFF736
:10081000DEFD4FF480616A4801F075FE0220FFF7AB
:10082000D6FD4FF40061664801F06FFE0220FFF72D
:10083000CEFD4FF48061624801F067FE0220FFF7B1
:10084000C6FD10BD10B5FFF7B1FF4FF400615C4865
:1008500001F05BFE0220FFF7BAFD4FF480615848BB
:1008600001F053FE0220FFF7B2FD4FF4006154483F
:1008700001F049FE0220FFF7AAFD10BD10B50446A5
:10088000FFF794FF2CB14FF400614D4801F03BFE9F
:1008900004E04FF400614A4801F037FE0220FFF700
:1008A00096FD4FF48061464801F02DFE0220FFF7CF
:1008B0008EFD4FF48061424801F027FE0220FFF7D1
:1008C00086FD10BD70B504460026FFF76FFF0025BA
:1008D00021E014F0800F05D04FF40061384801F09A
:1008E00012FE04E04FF40061354801F00EFE0220D4
:1008F000FFF76DFD4FF48061314801F004FE0220E6
:10090000FFF765FD4FF480612D4801F0FEFD6006A4
:10091000040E681CC5B2082DDBDB4FF400612848CB
:1009200001F0F1FDFFF756FF0220FFF750FD4FF4F5
:100930008061234801F0E7FD0220FFF748FD4FF4F6
:1009400000611F4801F0C5FD06434FF480611C485B
:1009500001F0DBFD304670BD70B500244FF400613E
:10096000174801F0D0FDFFF735FF00251EE06006B7
:10097000040E0220FFF72BFD4FF48061104801F0B8
:10098000C2FD0220FFF723FD4FF400610C4801F087
:10099000A0FD08B144F001044FF48061084801F063
:1009A000B4FD0220FFF713FD681CC5B2082DDEDB85
:1009B0004FF48061024801F0A8FD204670BD0000A0
:1009C000000C014000B585B0012144F2040001F0A3
:1009D000A5FF4FF40070ADF8100018208DF813003B
:1009E00003208DF8120004A9744801F0E1FC4FF4D3
:1009F0008060ADF8100004208DF8130004A96F4842
:100A000001F0D6FC4FF4165000900020ADF8040021
:100A1000ADF80600ADF80800ADF80C000C20ADF8FC
:100A20000A006946664802F024F80121644802F091
:100A3000ACF805B000BD70B504460D46E1B26048A3
:100A400002F010F900BF5E48008810F0800FFAD065
:100A5000204670BDF0B503460D46164600272946D0
:100A60000A2E03D0002008702846F0BD33B930208C
:100A700001F8010B002008702846F6E7002B03DA86
:100A80002D2001F8010B5B4242F210720DE093FB46
:100A9000F2F404B937B104F1300001F8010B04FBA2
:100AA000123301270A2092FBF0F2002AEFDC00202B
:100AB00008702846D9E70FB470B586B006460CA872
:100AC000019073E00B9800785C281CD10B98401CB7
:100AD0000B9000786E2809D072280FD10D21304676
:100AE00002F0C0F80B98401C0B900BE00A21304636
:100AF00002F0B8F80B98401C0B9003E00B98401CD8
:100B00000B9000BF4BE00B980078252840D10B9844
:100B1000401C0B900078642818D0732833D10198BA
:100B200010C801900BE02178304602F09BF800BF1E
:100B30004021304602F004F90028F9D0641C2078E6
:100B40000028F0D10B98401C0B9020E0019820C8A1
:100B500001900A2202A92846FFF77CFF02AC0BE0B5
:100B60002178304602F07EF800BF4021304602F086
:100B7000E7F80028F9D0641C20780028F0D10B9801
:100B8000401C0B9003E00B98401C0B9000BF06E04C
:100B90000B9810F8011B0B90304602F063F800BF71
:100BA0004021304602F0CCF80028F9D00B980078AC
:100BB000002887D106B070BC5DF814FB0008014026
:100BC00000380140002106E0962100BF0A00A1F193
:100BD000010399B2FAD10200A0F1010398B2F3D156
:100BE000704708B501211C2001F098FE47F2F8304B
:100BF000ADF8000003208DF8020010208DF80300EE
:100C00006946FE4801F0D4FB4FF46040ADF80000A7
:100C100003208DF8020010208DF803006946F84883
:100C200001F0C6FB49F6FF00ADF8000003208DF887
:100C3000020010208DF803006946F24801F0B8FB6D
:100C400047F2E031ED4801F05EFC4FF4C051ED4851
:100C500001F059FC4FF48041E94801F054FCFF21B8
:100C6000E84801F052FC0A20FFF7ACFF47F2E03100
:100C7000E24801F04AFC4FF4C051E24801F045FC63
:100C80004FF48041DE4801F040FC08BD10B547F24A
:100C9000E031DA4801F037FC4FF4C051D94801F097
:100CA00032FC4FF48041D64801F02DFCFF21D5489D
:100CB00001F02BFC0120FFF785FF47F2E031CF4820
:100CC00001F023FC4FF4C051CE4801F01EFC4FF45C
:100CD0008041CB4801F019FC10BD2DE9F05F0446BE
:100CE0000D4616461F46DDE90CABDDE90A89FFF724
:100CF000CDFF0020C4490880C4490880C449088049
:100D0000C4490880C4490880C4490880C44908808F
:100D1000C4490880C4490880C4490880C44908807F
:100D20000B2C23D2DFE804F006233E597491AECB9E
:100D3000E8FDFC00B448008840F00100B24908809A
:100D40004FF48071AD4801F0DEFBAF480188AD483B
:100D500001F0D9FB0120FFF735FF4FF48071A74860
:100D600001F0D3FBFF21A74801F0CFFB1EE1A7480C
:100D7000008840F00100A549088080219F4801F0CB
:100D8000C2FBA24801889F4801F0BDFB0120FFF78C
:100D900019FF8021994801F0B8FBFF21994801F023
:100DA000B4FB03E19A48008840F0010098490880AC
:100DB0004021924801F0A7FB95480188914801F035
:100DC000A2FB0120FFF7FEFE40218C4801F09DFBB5
:100DD000FF218C4801F099FBE8E08E48008840F044
:100DE00001008C4908802021844801F08CFB89484F
:100DF0000188844801F087FB0120FFF7E3FE2021F2
:100E00007E4801F082FBFF217E4801F07EFBCDE0B1
:100E10008148008840F001007F4908804FF48041FC
:100E2000764801F070FB7C480188764801F06BFB46
:100E30000120FFF7C7FE4FF48041704801F065FBC9
:100E4000FF21704801F061FBB0E07448008840F079
:100E50000100724908804FF48051684801F053FB4B
:100E60006E480188674801F04EFB0120FFF7AAFE9B
:100E70004FF48051614801F048FBFF21614801F0C7
:100E800044FB93E06648008840F080006449088095
:100E90004FF40051594801F036FB61480188594828
:100EA00001F031FB0120FFF78DFE4FF40051534854
:100EB00001F02BFBFF21534801F027FB76E0594856
:100EC000008840F00100574908804FF480414C48A9
:100ED00001F019FB534801884A4801F014FB012036
:100EE000FFF770FE4FF48041454801F00EFBFF21F3
:100EF000444801F00AFB59E04B48008840F00200EA
:100F0000494908804FF400613E4801F0FCFA464828
:100F100001883C4801F0F7FA0120FFF753FE01E099
:100F200027E009E04FF40061364801F0EEFAFF21B6
:100F3000344801F0EAFA39E03C48008840F001000A
:100F40003A4908804FF480512E4801F0DCFA3748C6
:100F500001882C4801F0D7FA0120FFF733FE4FF447
:100F60008051284801F0D1FAFF21264801F0CDFA3E
:100F70001CE02F48008840F001002D4908804FF404
:100F800000711E4801F0BFFA294801881D4801F090
:100F9000BAFA0120FFF716FE4FF40071174801F06E
:100FA000B4FAFF21174801F0B0FA00BF00BF0B2DC3
:100FB00023D2DFE805F0063F5A7590ADCAE7FDFC85
:100FC000FB001148008840F002000F4908804FF4F0
:100FD00080710A4801F097FA0B480188094801F02E
:100FE00092FA0120FFF7EEFD4FF48071034801F003
:100FF0008CFAFF21034801F088FA3BE1000C014024
:1010000000100140000801403E0000204000002088
:10101000420000204400002046000020480000203C
:101020004A0000204C0000204E000020500000200C
:1010300052000020F748008840F00200F54908807F
:101040008021F54801F05FFAF2480188F34801F089
:101050005AFA0120FFF7B6FD8021EF4801F055FA5A
:10106000FF21EE4801F051FA04E1ED48008840F01C
:101070000200EB4908804021E74801F044FAE848C3
:101080000188E64801F03FFA0120FFF79BFD40216F
:10109000E14801F03AFAFF21E04801F036FAE9E0D0
:1010A000E048008840F00200DE4908802021DA484C
:1010B00001F029FADB480188D84801F024FA012020
:1010C000FFF780FD2021D44801F01FFAFF21D3480B
:1010D00001F01BFACEE0D448008840F00200D2496B
:1010E00008804FF48041CC4801F00DFACE480188C9
:1010F000CA4801F008FA0120FFF764FD4FF480416F
:10110000C54801F002FAFF21C44801F0FEF9B1E040
:10111000C648008840F00200C44908804FF480515E
:10112000BD4801F0F0F9C1480188BC4801F0EBF975
:101130000120FFF747FD4FF48051B74801F0E5F972
:10114000FF21B64801F0E1F994E0B948008840F089
:101150004000B74908804FF40051AF4801F0D3F97F
:10116000B3480188AD4801F0CEF90120FFF72AFD10
:101170004FF40051A84801F0C8F94021A74801F0F8
:10118000C4F977E0AB48008840F01000A949088016
:101190004FF48041A84801F0B6F9A64801889F485D
:1011A00001F0B1F90120FFF70DFD02E045E027E075
:1011B00009E04FF48041A04801F0A7F9FF219748CA
:1011C00001F0A3F956E09D48008840F080009B495B
:1011D00008804FF40061914801F095F99748018823
:1011E0008E4801F090F90120FFF7ECFC4FF400610C
:1011F0008A4801F08AF9FF21884801F086F939E030
:101200008F48008840F002008D4908804FF48051DB
:10121000824801F078F98A480188804801F073F922
:101220000120FFF7CFFC4FF480517C4801F06DF9AD
:10123000FF217A4801F069F91CE08248008840F0FB
:101240000200804908804FF40071734801F05BF997
:101250007C480188714801F056F90120FFF7B2FC83
:101260004FF400716C4801F050F9FF216B4801F018
:101270004CF900BF00BF0B2E23D2DFE806F0062397
:101280003E597491AEEBE9E8E7006F48008840F002
:1012900004006D4908804FF480715F4801F033F914
:1012A000694801885D4801F02EF90120FFF78AFCAA
:1012B0004FF48071584801F028F9FF21574801F098
:1012C00024F93BE15348008840F00400514908806C
:1012D0008021514801F017F94E4801884F4801F02C
:1012E00012F90120FFF76EFC80214B4801F00DF947
:1012F000FF214A4801F009F920E14948008840F0FF
:101300000400474908804021434801F0FCF8444864
:101310000188424801F0F7F80120FFF753FC402113
:101320003D4801F0F2F8FF213C4801F0EEF805E1FC
:101330003C48008840F004003A49088020213648A3
:1013400001F0E1F837480188344801F0DCF8012069
:10135000FFF738FC2021304801F0D7F8FF212F4853
:1013600001F0D3F8EAE03048008840F004002E494C
:1013700008804FF48041284801F0C5F82A480188C8
:10138000264801F0C0F80120FFF71CFC4FF4804113
:10139000214801F0BAF8FF21204801F0B6F8CDE06D
:1013A0002248008840F00400204908804FF4805112
:1013B000194801F0A8F81D480188184801F0A3F861
:1013C0000120FFF7FFFB4FF48051134801F09DF817
:1013D000FF21124801F099F8B0E01548008840F06C
:1013E0002000134908804FF400510B4801F08BF89E
:1013F0000F480188094801F086F80120FFF7E2FB59
:101400004FF40051044801F080F8FF21034801F037
:101410007CF893E040000020000C014000080140EF
:101420004200002044000020460000204800002028
:101430004A0000204C000020001001404E00002017
:1014400050000020520000203E00002059E03BE008
:101450001DE0FFE7FE48008840F04000FC4908809E
:101460004FF48041FB4801F04EF8F9480188FA48F2
:1014700001F049F80120FFF7A5FB4FF48041F54842
:1014800001F043F8FF21F44801F03FF856E0F3483B
:10149000008840F04000F14908804FF40061EE48B8
:1014A00001F031F8ED480188EB4801F02CF80120FB
:1014B000FFF788FB4FF40061E74801F026F8FF21B1
:1014C000E54801F022F839E0E548008840F00400E2
:1014D000E34908804FF48051DF4801F014F8E048F8
:1014E0000188DD4801F00FF80120FFF76BFB4FF496
:1014F0008051D94801F009F8FF21D74801F005F8DB
:101500001CE0D848008840F00400D64908804FF419
:101510000071D54800F0F7FFD2480188CE4800F0AE
:10152000F2FF0120FFF74EFB4FF40071CE4800F0B0
:10153000ECFFFF21C84800F0E8FF00BF00BF0B2F01
:1015400023D2DFE807F006233E597491AECBE8FDC5
:10155000FC00C648008840F00800C44908804FF4E9
:101560008071C14800F0CFFFC0480188BA4800F040
:10157000CAFF0120FFF726FB4FF48071BA4800F044
:10158000C4FFFF21B44800F0C0FF1EE1B848008846
:1015900040F00800B64908808021B34800F0B3FF4E
:1015A000B3480188AC4800F0AEFF0120FFF70AFB0A
:1015B0008021AD4800F0A9FFFF21A74800F0A5FF5A
:1015C00003E1AC48008840F00800AA4908804021A7
:1015D000A54800F098FFA74801889F4800F093FFB6
:1015E0000120FFF7EFFA40219F4800F08EFFFF2116
:1015F000994800F08AFFE8E09F48008840F0080022
:101600009D4908802021984800F07DFF9A48018874
:10161000914800F078FF0120FFF7D4FA202192488A
:1016200000F073FFFF218C4800F06FFFCDE093487E
:10163000008840F01000914908804FF480418A48AA
:1016400000F061FF8D480188834800F05CFF0120B5
:10165000FFF7B8FA4FF48041834800F056FFFF21AE
:101660007D4800F052FFB0E08548008840F0080057
:10167000834908804FF480517B4800F044FF804844
:101680000188754800F03FFF0120FFF79BFA4FF4F7
:101690008051754800F039FFFF216F4800F035FF99
:1016A00093E07848008840F01000764908804FF4B5
:1016B00000516D4800F027FF72480188664800F02D
:1016C00022FF0120FFF77EFA4FF40051664800F038
:1016D0001CFFFF21604800F018FF76E05C4800889E
:1016E00040F008005A4908804FF48041594800F002
:1016F0000AFF57480188584800F005FF0120FFF70E
:1017000061FA4FF48041534800F0FFFEFF21524838
:1017100000F0FBFE59E05148008840F008004F49B6
:1017200008804FF400614C4800F0EDFE4B48018802
:10173000494800F0E8FE0120FFF744FA01E027E005
:1017400009E04FF40061444800F0DFFEFF21424809
:1017500000F0DBFE39E04248008840F008004049D4
:1017600008804FF480513C4800F0CDFE3C48018891
:10177000394800F0C8FE0120FFF724FA4FF48051E9
:10178000354800F0C2FEFF21334800F0BEFE1CE0E9
:101790003448008840F00800324908804FF4007156
:1017A000314800F0B0FE2F4801882B4800F0ABFE16
:1017B0000120FFF707FA4FF400712B4800F0A5FE57
:1017C000FF21254800F0A1FE00BF00BFB8F10B0FBC
:1017D00023D2DFE808F006235C7792AFCCE9FDFC6A
:1017E000FB002248008840F01000204908804FF498
:1017F00080711D4800F087FE1C480188164800F0E3
:1018000082FE0120FFF7DEF94FF48071164800F0E8
:101810007CFEFF21104800F078FE3DE1144800886E
:1018200040F010001249088080210F4800F06BFE44
:101830000F480188084800F066FE0120FFF7C2F952
:101840008021094800F061FEFF2103481CE00000F0
:101850004C00002000100140000801404E00002014
:101860005000002052000020000C01403E000020EB
:1018700040000020420000204400002046000020DC
:10188000480000204A00002000F03FFE04E1FB4831
:10189000008840F02000F94908804021F84800F015
:1018A00032FEF6480188F74800F02DFE0120FFF7D0
:1018B00089F94021F24800F028FEFF21F14800F0AC
:1018C00024FEE9E0F048008840F04000EE4908803E
:1018D0002021EB4800F017FEEB480188E94800F0B2
:1018E00012FE0120FFF76EF92021E54800F00DFE01
:1018F000FF21E44800F009FECEE0E448008840F013
:101900000800E24908804FF48041DD4800F0FBFD0B
:10191000DE480188DB4800F0F6FD0120FFF752F9B0
:101920004FF48041D64800F0F0FDFF21D54800F08B
:10193000ECFDB1E0D648008840F01000D4490880A2
:101940004FF48051CE4800F0DEFDD1480188CD48EB
:1019500000F0D9FD0120FFF735F94FF48051C84858
:1019600000F0D3FDFF21C74800F0CFFD94E0C94847
:10197000008840F00800C74908804FF40051C04873
:1019800000F0C1FDC3480188BE4800F0BCFD012045
:10199000FFF718F94FF40051B94800F0B6FDFF21E8
:1019A000B84800F0B2FD77E0BB48008840F0020084
:1019B000B94908804FF48041B84800F0A4FDB6480A
:1019C0000188B04800F09FFD012002E047E029E0D7
:1019D0000BE0FFF7F7F84FF48041B04800F095FDB9
:1019E000FF21A84800F091FD56E0AD48008840F086
:1019F0002000AB4908804FF40061A24800F083FD4D
:101A0000A74801889F4800F07EFD0120FFF7DAF823
:101A10004FF400619B4800F078FDFF21994800F0E9
:101A200074FD39E09F48008840F010009D4908800F
:101A30004FF48051934800F066FD9A480188914820
:101A400000F061FD0120FFF7BDF84FF480518D4893
:101A500000F05BFDFF218B4800F057FD1CE0924831
:101A6000008840F01000904908804FF400718448CD
:101A700000F049FD8C480188824800F044FD0120B7
:101A8000FFF7A0F84FF400717D4800F03EFDFF2104
:101A90007C4800F03AFD00BF00BFB9F10B0F23D224
:101AA000DFE809F006233E597491AECBEAE9E8007D
:101AB0007E48008840F020007C4908804FF4807107
:101AC0006F4800F020FD794801886E4800F01BFD4A
:101AD0000120FFF777F84FF48071694800F015FD99
:101AE000FF21684800F011FD3BE17148008840F09B
:101AF00020006F4908808021614800F004FD6C4897
:101B00000188604800F0FFFC0120FFF75BF88021AE
:101B10005B4800F0FAFCFF215A4800F0F6FC20E197
:101B20005648008840F0100054490880402154482D
:101B300000F0E9FC51480188524800F0E4FC012023
:101B4000FFF740F840214E4800F0DFFCFF214D48F0
:101B500000F0DBFC05E14C48008840F010004A49E9
:101B600008802021464800F0CEFC474801884548BF
:101B700000F0C9FC0120FFF725F82021404800F0C3
:101B8000C4FCFF213F4800F0C0FCEAE03F48008869
:101B900040F020003D4908804FF48041384800F073
:101BA000B2FC3A480188374800F0ADFC0120FFF74D
:101BB00009F84FF48041324800F0A7FCFF2131487A
:101BC00000F0A3FCCDE03248008840F0200030490E
:101BD00008804FF480512A4800F095FC2C48018879
:101BE000284800F090FC0120FEF7ECFF4FF48051F4
:101BF000234800F08AFCFF21224800F086FCB0E078
:101C00002448008840F00400224908804FF4005125
:101C10001B4800F078FC1F4801881A4800F073FC4C
:101C20000120FEF7CFFF4FF40051154800F06DFC86
:101C3000FF21144800F069FC93E01748008840F049
:101C40002000154908804FF48041144800F05BFCE7
:101C5000114801880B4800F056FC0120FEF7B2FF46
:101C60004FF480410D4800F050FCFF21054800F082
:101C70004CFC76E058E03AE01CE000004200002016
:101C8000000C0140000801404400002046000020F4
:101C9000480000204A0000204C00002000100140B5
:101CA0004E00002050000020520000203E00002086
:101CB00040000020FE48008840F01000FC490880E9
:101CC0004FF40061FB4800F01EFCF9480188F94818
:101CD00000F019FC0120FEF775FF4FF40061F54894
:101CE00000F013FCFF21F34800F00FFC39E0F2484C
:101CF000008840F02000F04908804FF48051ED4802
:101D000000F001FCEC480188EA4800F0FCFB0120EF
:101D1000FEF758FF4FF48051E64800F0F6FBFF2134
:101D2000E44800F0F2FB1CE0E448008840F02000AA
:101D3000E24908804FF40071E14800F0E4FBDF481D
:101D40000188DC4800F0DFFB0120FEF73BFF4FF489
:101D50000071DB4800F0D9FBFF21D64800F0D5FB2D
:101D600000BF00BFBAF10B0F23D2DFE80AF0062351
:101D70003E597491AECBE8FDFC00D248008840F09B
:101D80004000D04908804FF48071CD4800F0BBFB83
:101D9000CC480188C74800F0B6FB0120FEF712FFCF
:101DA0004FF48071C64800F0B0FBFF21C14800F03D
:101DB000ACFB1EE1C448008840F04000C2490880E6
:101DC0008021BF4800F09FFBBF480188B94800F060
:101DD0009AFB0120FEF7F6FE8021B94800F095FB42
:101DE000FF21B44800F091FB03E1B848008840F0BF
:101DF0004000B64908804021B14800F084FBB34858
:101E00000188AC4800F07FFB0120FEF7DBFE40219B
:101E1000AB4800F07AFBFF21A64800F076FBE8E033
:101E2000AB48008840F02000A94908802021A44840
:101E300000F069FBA64801889E4800F064FB012081
:101E4000FEF7C0FE20219E4800F05FFBFF2199486D
:101E500000F05BFBCDE09F48008840F040009D49CA
:101E600008804FF48041964800F04DFB9948018866
:101E7000904800F048FB0120FEF7A4FE4FF480419B
:101E80008F4800F042FBFF218A4800F03EFBB0E0A3
:101E90009148008840F040008F4908804FF48051FD
:101EA000874800F030FB8C480188824800F02BFB0B
:101EB0000120FEF787FE4FF48051814800F025FB9A
:101EC000FF217C4800F021FB93E08448008840F02B
:101ED0000200824908804FF40051794800F013FB5A
:101EE0007E480188734800F00EFB0120FEF76AFE71
:101EF0004FF40051724800F008FBFF216D4800F0DC
:101F000004FB76E07648008840F080007449088041
:101F10004FF48041734800F0F6FA71480188654833
:101F200000F0F1FA0120FEF74DFE4FF480416D48BC
:101F300000F0EBFAFF215F4800F0E7FA59E05C4857
:101F4000008840F004005A4908804FF40061594865
:101F500000F0D9FA56480188564800F0D4FA01201A
:101F6000FEF730FE01E027E009E04FF40061514840
:101F700000F0CBFAFF214F4800F0C7FA39E04E4895
:101F8000008840F040004C4908804FF48051494897
:101F900000F0B9FA48480188464800F0B4FA012038
:101FA000FEF710FE4FF48051424800F0AEFAFF21D8
:101FB000404800F0AAFA1CE04048008840F0400089
:101FC0003E4908804FF400713D4800F09CFA3B48C0
:101FD0000188384800F097FA0120FEF7F3FD4FF42E
:101FE0000071374800F091FAFF21324800F08DFA75
:101FF00000BF00BFBBF10B0F23D2DFE80BF00623BD
:102000003E7590ADCAE7FDFCFB002E48008840F00D
:1020100080002C4908804FF48071294800F073FA41
:1020200028480188234800F06EFA0120FEF7CAFD17
:102030004FF48071224800F068FAFF211D4800F03B
:1020400064FA3BE12048008840F080001E49088087
:1020500080211B4800F057FA1B480188154800F002
:1020600052FA0120FEF7AEFD8021154800F04DFA2E
:10207000FF21104800F049FA20E11448008840F0A0
:1020800080001249088040210D4800F03CFA0F48BA
:102090000188084800F037FA0120FEF793FD40213F
:1020A000074800F032FAFF21024800F02EFA05E15D
:1020B0004E00002000080140500000205200002087
:1020C000000C01403E0000204000002042000020A3
:1020D0004400002046000020480000204A00002064
:1020E0004C000020001001407648008840F080003D
:1020F000744908802021744800F005FA714801886D
:10210000724800F000FA0120FEF75CFD20216E48C5
:1021100000F0FBF9FF216D4800F0F7F9CEE06C48C4
:10212000008840F080006A4908804FF4804166488A
:1021300000F0E9F966480188644800F0E4F90120FC
:10214000FEF740FD4FF480415F4800F0DEF9FF21CB
:102150005E4800F0DAF9B1E05E48008840F08000A7
:102160005C4908804FF48051574800F0CCF9594839
:102170000188564800F0C7F90120FEF723FD4FF40F
:102180008051514800F0C1F9FF21504800F0BDF9DD
:1021900094E05148008840F001004F4908804FF416
:1021A0000051494800F0AFF94B480188474800F01A
:1021B000AAF90120FEF706FD4FF40051424800F055
:1021C000A4F9FF21414800F0A0F977E043480088D6
:1021D00040F00400414908804FF48041404800F03D
:1021E00092F93E480188394800F08DF90120FEF748
:1021F000E9FC02E045E027E009E04FF4804138487F
:1022000000F083F9FF21314800F07FF956E03548AE
:10221000008840F00100334908804FF400612B48EA
:1022200000F071F92F480188284800F06CF901206E
:10223000FEF7C8FC4FF40061244800F066F9FF2166
:10224000224800F062F939E02748008840F0800019
:10225000254908804FF480511C4800F054F9224869
:1022600001881A4800F04FF90120FEF7ABFC4FF44B
:102270008051164800F049F9FF21144800F045F953
:102280001CE01A48008840F08000184908804FF48C
:1022900000710D4800F037F9144801880B4800F030
:1022A00032F90120FEF78EFC4FF40071064800F071
:1022B0002CF9FF21054800F028F900BF00BFBDE858
:1022C000F09F000044000020000C01400008014085
:1022D00046000020480000204A0000204C0000205A
:1022E000001001404E00002050000020520000204D
:1022F00010B50446CA48844208D10121042000F0E8
:1023000027FB0021042000F023FB46E0C54884425F
:1023100008D10121082000F01BFB0021082000F05B
:1023200017FB3AE0C048844208D10121102000F098
:102330000FFB0021102000F00BFB2EE0BB48844275
:1023400008D10121202000F003FB0021202000F013
:10235000FFFA22E0B648844208D10121402000F073
:10236000F7FA0021402000F0F3FA16E0B148844269
:1023700008D10121802000F0EBFA0021802000F03C
:10238000E7FA0AE0AC48844207D10121801500F049
:10239000DFFA0021A01500F0DBFA10BD10B5012115
:1023A000084600F0D5FA0021012000F0D1FA10BD56
:1023B0002DE9F041024600250026002000230024DC
:1023C000002791F803C00CF00F0591F803C01CF032
:1023D000100F03D091F802C04CEA050591F800C037
:1023E000BCF1000F31D0146800202BE04FF0010C3D
:1023F0000CFA00F3B1F800C00CEA03069E4220D1AB
:1024000083004FF00F0C0CFA03F7BC4305FA03FCF2
:102410004CEA040491F803C0BCF1280F06D14FF038
:10242000010C0CFA00FCC2F814C00AE091F803C0D9
:10243000BCF1480F05D14FF0010C0CFA00FCC2F8BA
:1024400010C0401C0828D1D31460B1F800C0BCF102
:10245000FF0F34DD546800202EE000F1080C4FF02F
:10246000010808FA0CF3B1F800C00CEA03069E421A
:1024700021D183004FF00F0C0CFA03F7BC4305FA8F
:1024800003FC4CEA040491F803C0BCF1280F05D109
:1024900000F1080C08FA0CF8C2F8148091F803C097
:1024A000BCF1480F07D100F1080C4FF0010808FA01
:1024B0000CF8C2F81080401C0828CED35460BDE848
:1024C000F0814FF6FF710180022181700421C170FB
:1024D00070470246002093680B4201D0012000E0C3
:1024E000002070470146886880B27047024600208D
:1024F000D3680B4201D0012000E000207047014664
:10250000C86880B2704701617047416170470AB185
:10251000016100E041617047C16070474FF4803253
:102520000A438261816182618269826970470246E1
:102530000020424B18684FF68073184040EA0210A2
:1025400008433E4B186070473D49C8617047F0B57D
:102550000A46002300240021002500F00046B6F1C1
:10256000004F02D1354EF16901E0344E7168C0F37D
:10257000034583B200F44016B6F5401F08D121F0A0
:1025800070612E4E766826F070662C4F7E6012E0E9
:1025900000F48016B6F5801F06D1032606FA05F46E
:1025A000A14341F0706106E0460D360103FA06F6DC
:1025B000B14341F0706122B1460D360103FA06F6CF
:1025C000314300F00046B6F1004F02D11B4EF161DD
:1025D00001E01A4E7160F0BD30B500228B071C0F70
:1025E0000F2303FA04F2154B08338C1053F82430F0
:1025F0009343124C08348D1044F8253023468C1038
:1026000053F824308C07240F00FA04F423430B4CB6
:1026100008348D1044F8253030BD0A4908607047F1
:1026200000080140000C014000100140001401406E
:1026300000180140001C0140002001400000014042
:1026400000002042DC002042DD48006840F001002C
:10265000DB49086008464068DA490840D8494860C4
:1026600008460068D8490840D5490860084600680F
:1026700020F4802008600846406820F4FE0048608E
:102680004FF41F0088607047CD49096821F48031FC
:10269000CB4A11601146096821F480211160B0F520
:1026A000803F03D0B0F5802F0ED106E0C449096801
:1026B00041F48031C24A116007E0C149096841F420
:1026C000A021BF4A116000E000BF00BF704710B5F5
:1026D00001460022002300204A11012A02D1B84CF1
:1026E000236806E0022A02D1B54C236A01E0B44C0B
:1026F000636A01F01F02012494401C4201D00120B2
:1027000000E0002010BD38B5002000900024002516
:1027100000BF3120FFF7DBFF05460098401C00900A
:102720000098B0F5A06F01D0002DF2D03120FFF756
:10273000CEFF08B1012400E00024204638BD014648
:1027400000209F4A106820F0F80040EAC1001060A5
:1027500070479E490860704702460020984B5868B1
:1027600020F47C1042EA01031843954B58607047EF
:1027700096490866704701460020914A506820F04B
:1027800003000843506070478D48406800F00C001B
:102790007047014600208A4A506820F0F000084344
:1027A0005060704701460020854A506820F4E06080
:1027B00008435060704701460020814A506820F469
:1027C000605040EAC1005060704729B17C4A527A9B
:1027D00002437B4B5A7204E0794A527A8243784B27
:1027E0005A7270477A490860704701460020744A5F
:1027F000506820F440400843506070470021754AFB
:1028000011706F4A82F82010012802D0042808D1E4
:1028100003E001216F4A117004E005216D4A117037
:1028200000E000BF00BF70476B4908607047644913
:10283000096A0143624A1162704767494439086076
:10284000704730B500210022002400235C4D6D68E4
:1028500005F00C0121B1042905D0082923D105E098
:102860005E4D056022E05D4D05601FE0544D6D68D2
:1028700005F47012524D6D6805F48034022505EBA5
:1028800092421CB9564D554305600BE04C4D6D68A6
:1028900015F4003F03D0524D5543056002E04F4D03
:1028A0005543056002E04D4D056000BF00BF444D3B
:1028B0006D6805F0F00109094A4D6B5C0568DD4063
:1028C00045603F4D6D6805F4E061090A454D6B5C5C
:1028D0004568DD4085603A4D6D6805F46051C90A70
:1028E000404D6B5C4568DD40C560354D6D6805F455
:1028F0004041890B3C4D6B5CC568B5FBF3F5056148
:1029000030BD29B12E4A526902432D4B5A6104E071
:102910002B4A526982432A4B5A61704729B1284A8F
:1029200092690243264B9A6104E0254A92698243E8
:10293000234B9A61704729B1214AD2690243204B47
:10294000DA6104E01E4AD26982431D4BDA617047A6
:1029500029B11B4AD2680243194BDA6004E0184AD5
:10296000D2688243164BDA60704729B1144A126963
:102970000243134B1A6104E0114A12698243104B5F
:102980001A61704714494039086070470F49C8649C
:1029900070470B49C87170470948406A40F0807021
:1029A00007494862704701460020054A92680A427A
:1029B00001D0012000E00020704701498872704773
:1029C000001002400000FFF8FFFFF6FE0000424248
:1029D000D8004242201002408004424200127A0095
:1029E00000093D00540000206400002010B504469A
:1029F000FB48844209D101218803FFF7A9FF002188
:102A00004FF48040FFF7A4FF32E0F648844209D13A
:102A100001214804FFF7A9FF00214FF40030FFF720
:102A2000A4FF25E0F048844209D101218804FFF782
:102A30009CFF00214FF48020FFF797FF18E0EB4840
:102A4000844209D10121C804FFF78FFF00214FF410
:102A50000020FFF78AFF0BE0E548844208D10121FE
:102A60000805FFF782FF00214FF48010FFF77DFF7C
:102A700010BD2DE9F04786B005460E460024A2465B
:102A800000BFA1460027B08900B100BF2F462C8AA5
:102A90004CF6FF700440F08804432C82AC894EF65B
:102AA000F3100440B0883189084371890843044316
:102AB000AC81AC8A4FF6FF400440B0890443AC823D
:102AC00001A8FFF7BEFEC648874202D1DDF810A07C
:102AD00001E0DDF80CA0A88910F4004F08D00AEB43
:102AE000CA0000EB0A1031684900B0FBF1F807E0BA
:102AF0000AEBCA0000EB0A1031688900B0FBF1F85C
:102B00006420B8FBF0F004012009642101FB108966
:102B1000A88910F4004F08D0322000EBC900B0FBA8
:102B2000F1F000F00700044308E0322000EB091048
:102B30006421B0FBF1F000F00F0004432C8106B0DB
:102B4000BDE8F0874FF41651016000218180C180FB
:102B500001810C21418100218181704710B502461D
:102B60000020108A4FF2FF0318400B884C88234343
:102B70008C882343CC8823431843108210BD002146
:102B8000018041808180C180704721B1828942F4F7
:102B90000052828104E082894DF6FF731A408281DF
:102BA0007047F0B503460024002600250020A1F55B
:102BB00010676A3F00D100BF1846C1F3421401F00C
:102BC0001F06012707FA06F5012C01D10C3004E09D
:102BD000022C01D1103000E014301AB107682F43E5
:102BE000076002E00768AF430760F0BD1AB1838A4F
:102BF0000B43838202E0838A8B4383827047028A7D
:102C00004FF6F0731A400282028A0A43028270472A
:102C100082894FF2FF731A40828182890A4382813E
:102C2000704721B1828942F00202828104E08289E8
:102C30004FF6FD731A4082817047028A4FF6DF73A8
:102C40001A400282028A0A430282704721B1028A34
:102C500042F48042028204E0028A4BF6FF731A407B
:102C600002827047C1F3080282807047014688885B
:102C7000C0F308007047818941F0010181817047EC
:102C8000028BD2B20283028B42EA01220283704796
:102C9000028B02F47F420283028B0A430283704755
:102CA00021B1828A42F02002828204E0828A4FF6B9
:102CB000DF731A408282704721B1828A42F010028B
:102CC000828204E0828A4FF6EF731A408282704754
:102CD00021B1828A42F00802828204E0828A4FF6A1
:102CE000F7731A408282704721B1828942F4004210
:102CF000828103E08289C2F30E028281704721B192
:102D0000828A42F40062828204E0828A4FF2FF7378
:102D10001A4082827047828A4FF6FB731A40828281
:102D2000828A0A438282704721B1828A42F002027B
:102D3000828204E0828A4FF6FD731A4082827047D5
:102D400002460020B1F5007F00D100BF13880B427E
:102D500001D0012000E00020704701F40072B2F5BC
:102D6000007F00D100BFCA430280704770B50246A1
:102D70000024002300250020A1F510666A3E00D142
:102D800000BFC1F3421501F01F03012606FA03F349
:102D9000012D02D19689334006E0022D02D1168A18
:102DA000334001E0968A33400C12012606FA04F4FF
:102DB0001688344013B10CB1012000E0002070BD32
:102DC00010B500220023A1F510646A3C00D100BFB9
:102DD0000A1201249440A3B2DC43048010BD000019
:102DE000003801400044004000480040004C0040D2
:102DF000005000400648804706480047FEE7FEE7CF
:102E0000FEE7FEE7FEE7FEE7FEE7FEE7FEE7FEE79A
:102E1000210200083101000880EA010210B502F029
:102E20000043400026D04A0023D04FEA106101EB56
:102E30001261C0F35600C2F3560240F4000042F49F
:102E40000002A0FB0220A1F17F014FEA0040140420
:102E500001D000F1010050EA124001D44000491EA7
:102E6000C2B20C0604EBD010401C4008802A02D0ED
:102E700003E0002010BD20F00100002900DA00204E
:102E8000184310BD96230022114600F01DB820F013
:102E90000040C10DC0F3160040F400007F2901DAA4
:102EA00000207047962903DCC1F19601C8407047A5
:102EB0009639884070470029A8BF7047401C4900D8
:102EC00008BF20F00100704710B4B0FA80FC00FA8F
:102ED0000CF050EA010404BF10BC704749B1CCF1BA
:102EE000200421FA04F411FA0CF118BF0121214346
:102EF0000843A3EB0C01CB1D0106000A002BBEBF4B
:102F0000002010BC704700EBC35010440029A4BF40
:102F100010BC7047401C490008BF20F0010010BCE5
:102F200070470000064C074D06E0E06840F00103E2
:102F300094E8070098471034AC42F6D3FDF7FCF84C
:102F4000682F0008882F000802E008C8121F08C177
:102F5000002AFAD170477047002001E001C1121F1A
:102F6000002AFBD170470000882F000800000020D5
:102F700068000000482F0008F02F000868000020BB
:102F800000040000582F000800A24A0400000000BE
:102F90000000000001020304060708090000000009
:102FA00030303A30303A3030323031332F31302F08
:102FB0003230203757000000000000000000000001
:102FC0000000000000000000000000000000000001
:102FD00000000000000000000000000000000000F1
:102FE000010203040102030406070809020406089B
:0400000508000131BD
:00000001FF
