:020000040800F2
:1000000070040020F93100088D0300088F030008F8
:1000100093030008970300089B03000800000000FA
:100020000000000000000000000000009F03000826
:10003000A103000800000000A3030008A5030008B6
:10004000133200081332000813320008133200087C
:10005000133200081332000813320008133200086C
:10006000133200081332000813320008133200085C
:10007000133200081332000813320008133200084C
:10008000133200081332000813320008133200083C
:10009000133200081332000813320008133200082C
:1000A000133200081332000813320008133200081C
:1000B000133200081332000813320008133200080C
:1000C00013320008133200081332000813320008FC
:1000D00013320008133200081332000813320008EC
:1000E00013320008133200081332000813320008DC
:1000F00013320008133200081332000813320008CC
:1001000013320008133200081332000813320008BB
:1001100013320008133200081332000813320008AB
:10012000133200081332000813320008133200089B
:10013000DFF80CD003F0F8F8004800473B03000854
:10014000700400200CB50020019000906B480068FE
:1001500040F480306949086000BF6848006800F4D6
:10016000003000900198401C0190009818B9019847
:10017000B0F5A06FF1D16148006810F4003F02D0E3
:100180000120009001E0002000900098012842D159
:100190005B48006840F01000594908600846006854
:1001A00020F0030008600846006840F00200086084
:1001B00052484068514948600846406848600846CF
:1001C000406840F4806048600846406820F47C1035
:1001D00048600846406840F4E810486008460068F7
:1001E00040F08070086000BF4448006810F0007F55
:1001F000FAD04248406820F0030040494860084671
:10020000406840F00200486000BF3C48406800F091
:100210000C000828F9D10CBD10B5FFF793FF10BDF5
:1002200010B53648006840F00100344908600846BF
:1002300040683449084031494860084600683249FE
:1002400008402E4908600846006820F480200860B5
:100250000846406820F4FE0048604FF41F008860A4
:10026000FFF7DAFF4FF000602849086010BD10B5B5
:10027000002100200022214B5B6803F00C0121B11A
:10028000042906D0082928D107E0214B214C2360FE
:1002900027E01F4B1F4C236023E0184B5B6803F4DF
:1002A0007010164B5B6803F48032022303EB90401E
:1002B00022B9194B4343174C23600DE00F4B5B6889
:1002C00013F4003F04D0144B4343124C236003E06B
:1002D0000F4B43430F4C236003E00D4B0D4C236049
:1002E00000BF00BF054B5B68C3F303130B4CE15C1D
:1002F000084B1B68CB40074C236010BD0010024028
:10030000002002400000FFF8FFFFF6FE08ED00E0CD
:1003100000127A000000002000093D0004000020C7
:100320004FF4FA7006E041F2883100E0491E0029DE
:10033000FCDC401E0028F6DC704700F00FFA00F0ED
:100340002DFB00F03AFC42F217000F49088005200F
:1003500088700120C8702920087123204871192055
:1003600088710020C8710DE000F020F9064BDA79A1
:100370009979587902F058F9034BDA7999795879D3
:1003800002F0CAF8F0E700002A000020704700BF22
:10039000FEE700BFFEE700BFFEE700BFFEE77047D5
:1003A000704770477047002106E00A2100BF0A002D
:1003B000A1F1010399B2FAD10200A0F1010398B2B0
:1003C000F3D1704770B505460C4600F003FAD02013
:1003D00000F064FA28B9284600F060FA204600F0E0
:1003E0005DFA00F01BFA70BD70B5044600F0F2F93A
:1003F000D02000F053FA68B9204600F04FFA00F020
:10040000E9F9D12000F04AFA00F092FA05460120FD
:1004100000F020FA00F002FA284670BD2DE9F04104
:1004200080460D4616461F4627B300F0D3F9D0206C
:1004300000F034FAD8B9404600F030FA00F0CAF9BA
:10044000D12000F02BFA00240FE000F071FA2870A0
:10045000701EA04203D1012000F0FCF902E0002050
:1004600000F0F8F96D1C601CC4B2B442EDDB00F082
:10047000D5F914E000F0AEF9D02000F00FFA60B921
:10048000404600F00BFA002405E0287800F006FA58
:100490006D1C601CC4B2B442F7DB00F0BFF9BDE8CC
:1004A000F0811CB5044664B301230722694600208D
:1004B000FFF7B4FF9DF8000000F07F00A149C8716C
:1004C0009DF8010000F07F0088719DF8020000F0A7
:1004D0003F0048719DF8030000F00700C8709DF8C8
:1004E000040000F03F0008719DF8050000F01F00B7
:1004F00088709DF8060042F2150108439149088072
:1005000021E09048C0798DF800008E4880798DF800
:1005100001008C4840798DF802008A48C0788DF837
:100520000300884800798DF80400864880788DF8AB
:100530000500844800788DF80600002307226946EC
:100540001846FFF76BFF1CBD10B50446E0797E49E5
:100550000870A079487060798870E078C870207958
:100560000871A07848712078887100230722184606
:10057000FFF754FF00210E20FFF724FF00210F207A
:10058000FFF720FF10BD10B50F20FFF72DFF10F073
:10059000800F01D0012010BD0E20FFF725FF10F0C5
:1005A000800F01D00120F6E70020F4E710B501200C
:1005B000FFF777FF6348C079302101EB20106349D2
:1005C00088716048C07900F00F003030C8715D4814
:1005D0008079302101EB20105C49C870594880793E
:1005E00000F00F003030087156484079302101EB9F
:1005F0002010564908705348407900F00F00303001
:10060000487050480079302101EB201050490872A1
:100610004C48007900F00F0030304872494880782B
:10062000302101EB20104A4948714648807800F09B
:100630000F003030887143480088302101EB2030B2
:10064000434908703F480088C0F3032030304870A9
:100650003C480088302101EB20103D498870394822
:10066000007800F00F003030C8703648C07800F0D5
:100670000F003030C87210BD2DE9F0410446112042
:10068000FFF7B2FE05461220FFF7AEFE861115F009
:10069000800F07D0E843C5B2F043401CC6B22D20FE
:1006A000207001E020202070304602F0EDFD8046F1
:1006B0004FF07A5102F0B2FD074605F070054FF495
:1006C0007A7095FBF0F100FB1150642190FBF1F082
:1006D00030306070642095FBF0F100FB11500A216E
:1006E00090FBF1F03030A0700A2095FBF0F100FB98
:1006F00011503030E0702E2020711649384602F03B
:100700008DFD804602F0C5FD3030607112493846DB
:1007100002F084FD804602F0BCFDC0B20A2190FBCD
:10072000F1F201FB12003030A0716078302801D165
:1007300020206070A078302801D12020A070BDE872
:10074000F08100002A000020320000201400002068
:100750001C000020000020410000C84208B5012113
:10076000082002F0DDFA4FF44060ADF800001020E0
:100770008DF8030003208DF802006946144802F04A
:1007800019F808BD08B50121082002F0C9FA4FF494
:100790000060ADF8000010208DF8030003208DF8F4
:1007A000020069460A4802F005F808BD08B50121B3
:1007B000082002F0B5FA4FF40060ADF800004820C0
:1007C0008DF803006946024801F0F4FF08BD0000FF
:1007D000000C014010B5FFF7D5FF4FF400616E48E3
:1007E00002F093F80220FFF7DEFD4FF480616A48C3
:1007F00002F08BF80220FFF7D6FD4FF40061664847
:1008000002F085F80220FFF7CEFD4FF480616248C8
:1008100002F07DF80220FFF7C6FD10BD10B5FFF70E
:10082000B1FF4FF400615C4802F071F80220FFF75D
:10083000BAFD4FF48061584802F069F80220FFF7D2
:10084000B2FD4FF40061544802F05FF80220FFF758
:10085000AAFD10BD10B50446FFF794FF2CB14FF46C
:1008600000614D4802F051F804E04FF400614A483D
:1008700002F04DF80220FFF796FD4FF480614648E4
:1008800002F043F80220FFF78EFD4FF480614248EA
:1008900002F03DF80220FFF786FD10BD70B504465A
:1008A0000026FFF76FFF002521E014F0800F05D030
:1008B0004FF40061384802F028F804E04FF400617A
:1008C000354802F024F80220FFF76DFD4FF48061F7
:1008D000314802F01AF80220FFF765FD4FF48061FD
:1008E0002D4802F014F86006040E681CC5B2082DED
:1008F000DBDB4FF40061284802F007F8FFF756FFF2
:100900000220FFF750FD4FF48061234801F0FDFF06
:100910000220FFF748FD4FF400611F4801F0DBFFA4
:1009200006434FF480611C4801F0F1FF304670BD72
:1009300070B500244FF40061174801F0E6FFFFF79F
:1009400035FF00251EE06006040E0220FFF72BFD98
:100950004FF48061104801F0D8FF0220FFF723FD1B
:100960004FF400610C4801F0B6FF08B144F00104F7
:100970004FF48061084801F0CAFF0220FFF713FD21
:10098000681CC5B2082DDEDB4FF48061024801F01F
:10099000BEFF204670BD0000000C014000B585B0D0
:1009A000012144F2040002F0BBF94FF40070ADF8ED
:1009B000100018208DF8130003208DF8120004A9F0
:1009C000744801F0F7FE4FF48060ADF81000042089
:1009D0008DF8130004A96F4801F0ECFE4FF4165097
:1009E00000900020ADF80400ADF80600ADF8080056
:1009F000ADF80C000C20ADF80A006946664802F01C
:100A00003AFA0121644802F0C2FA05B000BD70B59F
:100A100004460D46E1B2604802F026FB00BF5E4886
:100A2000008810F0800FFAD0204670BDF0B5034664
:100A30000D461646002729460A2E03D000200870CE
:100A40002846F0BD33B9302001F8010B00200870B2
:100A50002846F6E7002B03DA2D2001F8010B5B4254
:100A600042F210720DE093FBF2F404B937B104F1D5
:100A7000300001F8010B04FB123301270A2092FB1E
:100A8000F0F2002AEFDC002008702846D9E70FB406
:100A900070B586B006460CA8019073E00B980078FC
:100AA0005C281CD10B98401C0B9000786E2809D054
:100AB00072280FD10D21304602F0D6FA0B98401C57
:100AC0000B900BE00A21304602F0CEFA0B98401C46
:100AD0000B9003E00B98401C0B9000BF4BE00B9871
:100AE0000078252840D10B98401C0B900078642892
:100AF00018D0732833D1019810C801900BE02178E9
:100B0000304602F0B1FA00BF4021304602F01AFB35
:100B10000028F9D0641C20780028F0D10B98401CE4
:100B20000B9020E0019820C801900A2202A92846D3
:100B3000FFF77CFF02AC0BE02178304602F094FA1C
:100B400000BF4021304602F0FDFA0028F9D0641CB5
:100B500020780028F0D10B98401C0B9003E00B98F4
:100B6000401C0B9000BF06E00B9810F8011B0B9087
:100B7000304602F079FA00BF4021304602F0E2FA36
:100B80000028F9D00B980078002887D106B070BCF7
:100B90005DF814FB0008014000380140002106E028
:100BA000962100BF0A00A1F1010399B2FAD1020017
:100BB000A0F1010398B2F3D1704708B501211C20C0
:100BC00002F0AEF847F2F830ADF8000003208DF8DF
:100BD000020010208DF803006946FB4801F0EAFD91
:100BE0004FF46040ADF8000003208DF802001020A3
:100BF0008DF803006946F54801F0DCFD49F6FF0079
:100C0000ADF8000003208DF8020010208DF80300DD
:100C10006946EF4801F0CEFD47F2E031EA4801F0C5
:100C200074FE4FF4C051EA4801F06FFE4FF480416A
:100C3000E64801F06AFEFF21E54801F068FE0A205F
:100C4000FFF7ACFF47F2E031DF4801F060FE4FF400
:100C5000C051DF4801F05BFE4FF48041DB4801F0FA
:100C600056FE08BD10B547F2E031D74801F04DFE01
:100C70004FF4C051D64801F048FE4FF48041D348AC
:100C800001F043FEFF21D24801F041FE0120FFF7B1
:100C900085FF47F2E031CC4801F039FE4FF4C051F6
:100CA000CB4801F034FE4FF48041C84801F02FFEDC
:100CB00010BD2DE9F05F04460D4616461F46DDE9DE
:100CC0000CABDDE90A89FFF7CDFF0020C1490880A0
:100CD000C1490880C1490880C1490880C1490880CC
:100CE000C1490880C1490880C1490880C1490880BC
:100CF000C1490880C14908800C2C23D2DFE804F0E8
:100D000006233E597491AECBE8FEFDFCB148008845
:100D100040F00100AF4908804FF48071AA4801F00B
:100D2000F4FDAC480188AA4801F0EFFD0120FFF76F
:100D300035FF4FF48071A44801F0E9FDFF21A4487C
:100D400001F0E5FD3CE1A448008840F00100A24923
:100D5000088080219C4801F0D8FD9F4801889C486C
:100D600001F0D3FD0120FFF719FF8021964801F023
:100D7000CEFDFF21964801F0CAFD21E19748008889
:100D800040F001009549088040218F4801F0BDFDE9
:100D9000924801888E4801F0B8FD0120FFF7FEFE61
:100DA0004021894801F0B3FDFF21894801F0AFFDE2
:100DB00006E18B48008840F0010089490880202125
:100DC000814801F0A2FD86480188814801F09DFD1F
:100DD0000120FFF7E3FE20217B4801F098FDFF2171
:100DE0007B4801F094FDEBE07E48008840F0010074
:100DF0007C4908804FF48041734801F086FD7948B2
:100E00000188734801F081FD0120FFF7C7FE4FF410
:100E100080416D4801F07BFDFF216D4801F077FDB9
:100E2000CEE07148008840F001006F4908804FF41F
:100E30008051654801F069FD6B480188644801F004
:100E400064FD0120FFF7AAFE4FF480515E4801F0D7
:100E50005EFDFF215E4801F05AFDB1E06348008865
:100E600040F08000614908804FF40051564801F07D
:100E70004CFD5E480188564801F047FD0120FFF710
:100E80008DFE4FF40051504801F041FDFF215048C4
:100E900001F03DFD94E05648008840F001005449BF
:100EA00008804FF48041494801F02FFD50480188E7
:100EB000474801F02AFD0120FFF770FE4FF4804102
:100EC000424801F024FDFF21414801F020FD77E078
:100ED0004848008840F00200464908804FF400610D
:100EE0003B4801F012FD43480188394801F00DFDEF
:100EF0000120FFF753FE02E045E027E009E04FF450
:100F00000061334801F003FDFF21314801F0FFFC8F
:100F100056E03948008840F00100374908804FF416
:100F200080512B4801F0F1FC33480188284801F03A
:100F3000ECFC0120FFF732FE4FF48051244801F011
:100F4000E6FCFF21224801F0E2FC39E02B48008852
:100F500040F00100294908804FF400711A4801F05F
:100F6000D4FC264801881A4801F0CFFC0120FFF785
:100F700015FE4FF40071144801F0C9FCFF2114481C
:100F800001F0C5FC1CE01D48008840F001001B4931
:100F900008804FF400710C4801F0B7FC1748018835
:100FA0000B4801F0B2FC0120FFF7F8FD4FF400718F
:100FB000054801F0ACFCFF21054801F0A8FC00BF8A
:100FC00000BF0B2D40D21BE0000C0140001001407F
:100FD00000080140400000204200002044000020A2
:100FE00046000020480000204A0000204C0000205D
:100FF0004E0000205000002052000020540000202D
:10100000DFE805F006233E597491AECBE8FDFC0005
:10101000F748008840F00200F54908804FF48071DD
:10102000F44801F072FCF2480188F34801F06DFCCD
:101030000120FFF7B3FD4FF48071EE4801F067FC2B
:10104000FF21ED4801F063FC1EE1EC48008840F010
:101050000200EA4908808021E64801F056FCE74892
:101060000188E54801F051FC0120FFF797FD802140
:10107000E04801F04CFCFF21DF4801F048FC03E1AF
:10108000DF48008840F00200DD4908804021D9484F
:1010900001F03BFCDA480188D74801F036FC01201A
:1010A000FFF77CFD4021D34801F031FCFF21D248FD
:1010B00001F02DFCE8E0D348008840F00200D1495F
:1010C00008802021CB4801F020FCCE480188CA4886
:1010D00001F01BFC0120FFF761FD2021C54801F054
:1010E00016FCFF21C44801F012FCCDE0C648008880
:1010F00040F00200C44908804FF48041BD4801F02F
:1011000004FCC1480188BC4801F0FFFB0120FFF747
:1011100045FD4FF48041B74801F0F9FBFF21B64887
:1011200001F0F5FBB0E0B948008840F00200B74993
:1011300008804FF48051AF4801F0E7FBB3480188C5
:10114000AD4801F0E2FB0120FFF728FD4FF480518C
:10115000A84801F0DCFBFF21A74801F0D8FB93E091
:10116000AB48008840F04000A94908804FF4005186
:10117000A04801F0CAFBA64801889F4801F0C5FBC2
:101180000120FFF70BFD4FF400519A4801F0BFFB1F
:101190004021994801F0BBFB76E09E48008840F072
:1011A00010009C4908804FF480419B4801F0ADFB42
:1011B00098480188904801F0A8FB0120FFF7EEFC59
:1011C0004FF48041944801F0A2FBFF218A4801F0CE
:1011D0009EFB59E09148008840F080008F490880CC
:1011E0004FF40061844801F090FB8C4801888248EC
:1011F00001F08BFB0120FFF7D1FC01E027E009E0C3
:101200004FF400617C4801F082FBFF217A4801F035
:101210007EFB39E08248008840F002008049088067
:101220004FF48051744801F070FB7D48018872488A
:1012300001F06BFB0120FFF7B1FC4FF480516E48C9
:1012400001F065FBFF216C4801F061FB1CE0754873
:10125000008840F00200734908804FF4007165482F
:1012600001F053FB6F480188634801F04EFB0120F9
:10127000FFF794FC4FF400715E4801F048FBFF213A
:101280005D4801F044FB00BF00BF0B2E23D2DFE816
:1012900006F006233E597491CBE8FCFBFA00544853
:1012A000008840F00400524908804FF48071514892
:1012B00001F02BFB4E4801884F4801F026FB01202E
:1012C000FFF76CFC4FF480714A4801F020FBFF21CE
:1012D000494801F01CFB3CE14848008840F004000C
:1012E000464908808021434801F00FFB43480188AC
:1012F000414801F00AFB0120FFF750FC80213D48E6
:1013000001F005FBFF213C4801F001FB21E13C48D5
:10131000008840F004003A4908804021354801F037
:10132000F4FA37480188344801F0EFFA0120FFF75A
:1013300035FC40212F4801F0EAFAFF212E4801F048
:10134000E6FA06E12F48008840F004002D490880A5
:101350002021284801F0D9FA2A480188264801F0BE
:10136000D4FA0120FFF71AFC2021224801F0CFFA1D
:10137000FF21214801F0CBFAEBE02348008840F040
:101380000400214908804FF480411A4801F0BDFA59
:101390001D480188184801F0B8FA0120FFF7FEFB4C
:1013A0004FF48041134801F0B2FAFF21124801F0D6
:1013B000AEFACEE01548008840F0040013490880DA
:1013C0004FF480510B4801F0A0FA104801880A48F8
:1013D00001F09BFA0120FFF7E1FB4FF48051054833
:1013E00001F095FAFF21044801F091FAB1E0000004
:1013F00040000020000C0140000801404200002095
:101400004400002046000020480000204A00002040
:101410004C0000204E000020001001405000002031
:101420005200002054000020FE48008840F02000B8
:10143000FC4908804FF40051FB4801F066FAF94876
:101440000188FA4801F061FA0120FFF7A7FB4FF489
:101450000051F54801F05BFAFF21F44801F057FA1A
:1014600077E0F348008840F04000F14908804FF4ED
:101470008041F04801F049FAED480188EB4801F05D
:1014800044FA012002E047E029E00BE0FFF786FB89
:101490004FF48041E74801F03AFAFF21E34801F0B8
:1014A00036FA56E0E448008840F04000E2490880FF
:1014B0004FF40061DD4801F028FADF480188DB487D
:1014C00001F023FA0120FFF769FB4FF40061D748D0
:1014D00001F01DFAFF21D54801F019FA39E0D7488B
:1014E000008840F00400D54908804FF48051CF486F
:1014F00001F00BFAD1480188CC4801F006FA01202E
:10150000FFF74CFB4FF48051C84801F000FAFF216F
:10151000C64801F0FCF91CE0C948008840F004000E
:10152000C74908804FF40071BF4801F0EEF9C44884
:101530000188BE4801F0E9F90120FFF72FFB4FF4C5
:101540000071B94801F0E3F9FF21B84801F0DFF973
:1015500000BF00BF0B2F23D2DFE807F006233E5960
:101560007491AECBE8FDFC00B648008840F008005E
:10157000B44908804FF48071AB4801F0C6F9B14816
:101580000188AA4801F0C1F90120FFF707FB4FF4D9
:101590008071A54801F0BBF9FF21A44801F0B7F91B
:1015A0001EE1A948008840F00800A7490880802172
:1015B0009D4801F0AAF9A44801889C4801F0A5F9CA
:1015C0000120FFF7EBFA8021974801F0A0F9FF21F5
:1015D000964801F09CF903E19C48008840F008001F
:1015E0009A4908804021904801F08FF99748018876
:1015F0008E4801F08AF90120FFF7D0FA40218A488D
:1016000001F085F9FF21894801F081F9E8E090486F
:10161000008840F008008E4908802021824801F0AF
:1016200074F98B480188814801F06FF90120FFF7B8
:10163000B5FA20217C4801F06AF9FF217B4801F0CE
:1016400066F9CDE08348008840F0100081490880A9
:101650004FF48041744801F058F97E48018873487E
:1016600001F053F90120FFF799FA4FF480416E48D9
:1016700001F04DF9FF216D4801F049F9B0E07648DD
:10168000008840F00800744908804FF48051664893
:1016900001F03BF970480188644801F036F90120F7
:1016A000FFF77CFA4FF480515F4801F030F9FF21D9
:1016B0005E4801F02CF993E05A48008840F0100091
:1016C000584908804FF40051574801F01EF9554819
:1016D0000188564801F019F90120FFF75FFA4FF42D
:1016E0000051514801F013F9FF21504801F00FF962
:1016F00076E04F48008840F008004D4908804FF4DC
:1017000080414C4801F001F949480188474801F0FF
:10171000FCF80120FFF742FA4FF48041454801F000
:10172000F6F8FF21414801F0F2F859E042480088FC
:1017300040F00800404908804FF400613B4801F048
:10174000E4F83D480188394801F0DFF80120FFF74F
:1017500025FA01E027E009E04FF40061334801F089
:10176000D6F8FF21314801F0D2F839E0334800883B
:1017700040F00800314908804FF480512B4801F0B7
:10178000C4F82E480188294801F0BFF80120FFF76E
:1017900005FA4FF48051254801F0B9F8FF2123489C
:1017A00001F0B5F81CE02648008840F00800244904
:1017B00008804FF400711C4801F0A7F82048018808
:1017C0001A4801F0A2F80120FFF7E8F94FF4007180
:1017D000154801F09CF8FF21144801F098F800BF6B
:1017E00000BFB8F10B0F40D2DFE808F006405B768F
:1017F00091AECBE8FEFDFC001248008840F01000DE
:10180000104908804FF48071074801F07EF80D48B8
:101810000188064801F079F80120FFF7BFF94FF47D
:1018200080711BE04C000020000C014000080140CA
:101830004E00002000100140500000205200002007
:1018400054000020400000204200002044000020FE
:1018500046000020480000204A000020FC4801F01B
:1018600056F8FF21FB4801F052F81FE1FA480088C2
:1018700040F01000F84908808021F54801F045F853
:10188000F5480188F34801F040F80120FFF786F998
:101890008021EF4801F03BF8FF21EE4801F037F8D6
:1018A00004E1EE48008840F02000EC490880402127
:1018B000E74801F02AF8E9480188E64801F025F8F0
:1018C0000120FFF76BF94021E14801F020F8FF21EA
:1018D000E04801F01CF8E9E0E148008840F04000F1
:1018E000DF4908802021DA4801F00FF8DC48018840
:1018F000D84801F00AF80120FFF750F92021D44818
:1019000001F005F8FF21D34801F001F8CEE0D548F9
:10191000008840F00800D34908804FF48041CC484B
:1019200000F0F3FFCF480188CA4800F0EEFF012025
:10193000FFF734F94FF48041C54800F0E8FFFF217C
:10194000C44800F0E4FFB1E0C748008840F0100050
:10195000C54908804FF48051BD4800F0D6FFC24809
:101960000188BC4800F0D1FF0120FFF717F94FF4C0
:101970008051B74800F0CBFFFF21B64800F0C7FF09
:1019800094E0BA48008840F00800B84908804FF455
:101990000051AF4800F0B9FFB4480188AD4800F0ED
:1019A000B4FF0120FFF7FAF84FF40051A84800F007
:1019B000AEFFFF21A74800F0AAFF77E0AC480088FF
:1019C00040F00200AA4908804FF48041A94800F085
:1019D0009CFFA74801889F4800F097FF0120FFF770
:1019E000DDF802E045E027E009E04FF48041A1483E
:1019F00000F08DFFFF21974800F089FF56E09E48D8
:101A0000008840F020009C4908804FF40061914814
:101A100000F07BFF984801888E4800F076FF012097
:101A2000FFF7BCF84FF400618A4800F070FFFF2117
:101A3000884800F06CFF39E09048008840F01000C2
:101A40008E4908804FF48051824800F05EFF8B4839
:101A50000188804800F059FF0120FFF79FF84FF4FC
:101A600080517C4800F053FFFF217A4800F04FFF7F
:101A70001CE08348008840F01000814908804FF442
:101A80000071734800F041FF7D480188714800F003
:101A90003CFF0120FFF782F84FF400716C4800F022
:101AA00036FFFF216B4800F032FF00BF00BFB9F1E5
:101AB0000B0F23D2DFE809F006233E597491AEEBF9
:101AC000E9E8CB006F48008840F020006D490880AD
:101AD0004FF480715E4800F018FF6A4801885D4845
:101AE00000F013FF0120FFF759F84FF480715848B8
:101AF00000F00DFFFF21574800F009FF3BE1564879
:101B0000008840F02000544908808021504800F0AF
:101B1000FCFE514801884F4800F0F7FE0120FFF716
:101B20003DF880214A4800F0F2FEFF21494800F0CC
:101B3000EEFE20E14948008840F010004749088047
:101B40004021434800F0E1FE44480188414800F04C
:101B5000DCFE0120FFF722F840213D4800F0D7FECF
:101B6000FF213C4800F0D3FE05E13D48008840F0ED
:101B700010003B4908802021354800F0C6FE384857
:101B80000188344800F0C1FE0120FFF707F820214A
:101B90002F4800F0BCFEFF212E4800F0B8FEEAE01E
:101BA0003048008840F020002E4908804FF48041E2
:101BB000274800F0AAFE2B480188264800F0A5FE21
:101BC0000120FEF7EBFF4FF48041214800F09FFE1B
:101BD000FF21204800F09BFECDE02348008840F024
:101BE0002000214908804FF48051194800F08DFEF3
:101BF0001D480188174800F088FE0120FEF7CEFF3F
:101C00004FF48051124800F082FEFF21114800F08D
:101C10007EFEB0E01548008840F0040013490880BB
:101C20004FF400510A4800F070FE1048018809483E
:101C300000F06BFE0120FEF7B1FF4FF400510448A5
:101C400000F065FEFF21034800F061FE93E075E0BF
:101C5000000C014000080140420000204400002028
:101C600046000020480000204A0000204C000020D0
:101C70004E000020001001405000002052000020C3
:101C800054000020400000203BE01DE0FFE7FE483C
:101C9000008840F02000FC4908804FF48041FB4858
:101CA00000F033FEF8480188F94800F02EFE0120CC
:101CB000FEF774FF4FF48041F44800F028FEFF2146
:101CC000F34800F024FE56E0F248008840F010008F
:101CD000F04908804FF40061ED4800F016FEED4831
:101CE0000188EB4800F011FE0120FEF757FF4FF48A
:101CF0000061E74800F00BFEFF21E54800F007FE19
:101D000039E0E548008840F02000E34908804FF4BE
:101D10008051DF4800F0F9FDDF480188DC4800F021
:101D2000F4FD0120FEF73AFF4FF48051D84800F04F
:101D3000EEFDFF21D64800F0EAFD1CE0D748008800
:101D400040F02000D54908804FF40071D44800F0DD
:101D5000DCFDD2480188CE4800F0D7FD0120FEF717
:101D60001DFF4FF40071CE4800F0D1FDFF21C8489F
:101D700000F0CDFD00BF00BFBAF10B0F23D2DFE8AA
:101D80000AF006233E597491AECBE8FDFC00C5482D
:101D9000008840F04000C34908804FF48071C0487B
:101DA00000F0B3FDBF480188B94800F0AEFD012046
:101DB000FEF7F4FE4FF48071B94800F0A8FDFF2152
:101DC000B34800F0A4FD1EE1B748008840F0400091
:101DD000B54908808021B24800F097FDB2480188DB
:101DE000AB4800F092FD0120FEF7D8FE8021AC4800
:101DF00000F08DFDFF21A64800F089FD03E1AB480E
:101E0000008840F04000A94908804021A44800F023
:101E10007CFDA64801889E4800F077FD0120FEF772
:101E2000BDFE40219E4800F072FDFF21984800F061
:101E30006EFDE8E09E48008840F020009C49088044
:101E40002021974800F061FD99480188904800F0F2
:101E50005CFD0120FEF7A2FE2021914800F057FD15
:101E6000FF218B4800F053FDCDE09248008840F000
:101E70004000904908804FF48041894800F045FDBA
:101E80008C480188824800F040FD0120FEF786FE64
:101E90004FF48041824800F03AFDFF217C4800F079
:101EA00036FDB0E08448008840F040008249088058
:101EB0004FF480517A4800F028FD7F48018874482B
:101EC00000F023FD0120FEF769FE4FF480517448B5
:101ED00000F01DFDFF216E4800F019FD93E07748EA
:101EE000008840F00200754908804FF400516C48AA
:101EF00000F00BFD71480188654800F006FD0120E7
:101F0000FEF74CFE4FF40051654800F000FDFF2144
:101F10005F4800F0FCFC76E05B48008840F0800001
:101F2000594908804FF48041584800F0EEFC56486B
:101F30000188574800F0E9FC0120FEF72FFE4FF41E
:101F40008041524800F0E3FCFF21514800F0DFFCE3
:101F500059E05048008840F004004E4908804FF492
:101F600000614B4800F0D1FC4A480188484800F025
:101F7000CCFC0120FEF712FE01E027E009E04FF45F
:101F80000061434800F0C3FCFF21414800F0BFFC62
:101F900039E04148008840F040003F4908804FF454
:101FA00080513B4800F0B1FC3B480188384800F0C4
:101FB000ACFC0120FEF7F2FD4FF48051344800F0F4
:101FC000A6FCFF21324800F0A2FC1CE03348008848
:101FD00040F04000314908804FF40071304800F073
:101FE00094FC2E4801882A4800F08FFC0120FEF75F
:101FF000D5FD4FF400712A4800F089FCFF212448E8
:1020000000F085FC00BF00BFBBF10B0F23D2DFE85F
:102010000BF006235B7691AECBE8FCFBFA0021487F
:10202000008840F080001F4908804FF480711C48F0
:1020300000F06BFC1B480188154800F066FC01208D
:10204000FEF7ACFD4FF48071154800F060FCFF21F5
:102050000F4800F05CFC3CE11348008840F0800031
:102060001149088080210E4800F04FFC0E4801887D
:10207000074800F04AFC0120FEF790FD8021084847
:1020800000F045FCFF211BE04E0000200010014045
:1020900000080140500000205200002054000020A1
:1020A000000C0140400000204200002044000020BD
:1020B00046000020480000204A0000204C0000207C
:1020C000FE4800F024FC04E1FD48008840F0800058
:1020D000FB4908804021FB4800F017FCF8480188C4
:1020E000F64800F012FC0120FEF758FD4021F548AB
:1020F00000F00DFCFF21F14800F009FCE9E0F24896
:10210000008840F08000F04908802021ED4800F070
:10211000FCFBED480188E94800F0F7FB0120FEF7E1
:102120003DFD2021E74800F0F2FBFF21E34800F0ED
:10213000EEFBCEE0E548008840F08000E3490880EF
:102140004FF48041DF4800F0E0FBE0480188DB48C5
:1021500000F0DBFB0120FEF721FD4FF48041D94860
:1021600000F0D5FBFF21D54800F0D1FBB1E0D84805
:10217000008840F08000D64908804FF48051D14853
:1021800000F0C3FBD2480188CC4800F0BEFB012020
:10219000FEF704FD4FF48051CA4800F0B8FBFF2160
:1021A000C64800F0B4FB94E0CA48008840F0010043
:1021B000C84908804FF40051C24800F0A6FBC5484A
:1021C0000188BE4800F0A1FB0120FEF7E7FC4FF4B8
:1021D0000051BC4800F09BFBFF21B84800F097FB82
:1021E00077E0BD48008840F00400BB4908804FF408
:1021F0008041BA4800F089FBB7480188AF4800F039
:1022000084FB012002E047E029E00BE0FEF7C6FC7A
:102210004FF48041B14800F07AFBFF21A74800F05D
:1022200076FB56E0AE48008840F00100AC490880DB
:102230004FF40061A14800F068FBA94801889F485D
:1022400000F063FB0120FEF7A9FC4FF400619B48FE
:1022500000F05DFBFF21994800F059FB39E0A148EF
:10226000008840F080009F4908804FF480519348D7
:1022700000F04BFB9B480188904800F046FB012092
:10228000FEF78CFC4FF480518C4800F040FBFF219E
:102290008A4800F03CFB1CE09348008840F0800036
:1022A000914908804FF40071864800F02EFB8E485B
:1022B0000188824800F029FB0120FEF76FFC4FF4F3
:1022C0000071804800F023FBFF217C4800F01FFBD9
:1022D00000BF00BFBDE8F09F2DE9FF5F04460E2C54
:1022E00038DC0025814850F82400814990FBF1F644
:1022F0007E4850F8240090FBF1F201FB120042F2FC
:10230000107190FBF1F7794850F8240090FBF1F23E
:1023100001FB12004FF47A7190FBF1F8734850F80A
:10232000240090FBF1F201FB1200642190FBF1F913
:102330006E4850F8240090FBF1F201FB12000A21D4
:1023400090FBF1FA694850F8240090FBF1F201FB90
:10235000120B7DE0232C41DC644850F824006549D1
:1023600090FBF1F5614850F8240090FBF1F201FB7D
:1023700012005F4990FBF1F65C4850F8240090FB96
:10238000F1F201FB120042F2107190FBF1F7574895
:1023900050F8240090FBF1F201FB12004FF47A7127
:1023A00090FBF1F8514850F8240090FBF1F201FB4A
:1023B0001200642190FBF1F94C4850F8240090FB86
:1023C000F1F201FB12000A2190FBF1FA474850F8A4
:1023D000240090FBF1F201FB120B39E0232C37DDD6
:1023E0000A25424850F82400414990FBF1F63F4845
:1023F00050F8240090FBF1F201FB120042F2107140
:1024000090FBF1F7394850F8240090FBF1F201FB02
:1024100012004FF47A7190FBF1F8344850F8240020
:1024200090FBF1F201FB1200642190FBF1F92F48BF
:1024300050F8240090FBF1F201FB12000A2190FBFE
:10244000F1FA2A4850F8240090FBF1F201FB120B3C
:102450003B4632460A2128468DE8000FFEF729FC4C
:10246000BDE8FF9F2DE9F14F84B000244CE02046E9
:10247000FFF732FF4FF42F70FEF790FB062094FB1E
:10248000F0F7072094FBF0F8052094FBF0F9062004
:1024900094FBF0FA052094FBF0FB25462646E01756
:1024A00004EB90708010E11704EB9171CDE9009876
:1024B000CDE90270881053465A461DE000080140DD
:1024C00044000020000C014046000020480000208D
:1024D0004A0000204C0000204E0000200010014067
:1024E0005000002052000020540000206C330008EF
:1024F000A086010040420F000A21FEF7DAFB4FF4EC
:102500002F70FEF74BFB641C262CB0DB0498FFF702
:10251000E3FE05B0BDE8F08F2DE9F04F85B004462D
:102520000E4615462046E21704EB12721211A4EB78
:1025300002122146E31704EB13731B110A2707FB52
:1025400003243046F21706EB12721211A6EB0212A8
:102550003146F31706EB13731B1107FB03262846BE
:10256000EA1705EB12721211A5EB02122946EB17BE
:1025700005EB13731B1107FB03250C2C20DD0A2030
:1025800095FBF0F100FB115795FBF0F896FBF0F18D
:1025900000FB116996FBF0FAA4F10C000A2190FBF4
:1025A000F1F201FB120B90FBF1F05B460246CDE924
:1025B00000A9CDE9028704900120FEF77AFB1FE015
:1025C0000A2095FBF0F100FB115004900A2095FBC6
:1025D000F0F796FBF0F100FB116896FBF0F994FB25
:1025E000F0F100FB114A94FBF0FB049853465A4665
:1025F0000A21CDE90098CDE902700020FEF759FBD1
:102600003B2D0ED13A480068FFF72CFF3848006890
:10261000401C3749086008460068262801D1002080
:10262000086005B0BDE8F08F2DE9F04F85B0054694
:102630000E4614462846EA1705EB12721211A5EB56
:1026400002122946EB1705EB13731B110A2707FB30
:1026500003253046F21706EB12721211A6EB021296
:102660003146F31706EB13731B1107FB03262046B5
:10267000E21704EB12721211A4EB02122146E317C7
:1026800004EB13731B1107FB03240A2094FBF0F1E6
:1026900000FB114794FBF0F896FBF0F100FB116989
:1026A00096FBF0FA95FBF0F100FB115B95FBF0F067
:1026B00004900A20534602465946CDE90090CDE9E0
:1026C00002870498FEF7F5FA3B2C0ED10848006803
:1026D000FFF7C8FE06480068401C05490860084628
:1026E0000068262801D10020086005B0BDE8F08F01
:1026F0003C00002010B50446CA48844208D101219C
:10270000042000F027FB0021042000F023FB46E01A
:10271000C548844208D10121082000F01BFB00219C
:10272000082000F017FB3AE0C048844208D101219C
:10273000102000F00FFB0021102000F00BFB2EE01A
:10274000BB48844208D10121202000F003FB002176
:10275000202000F0FFFA22E0B648844208D101218F
:10276000402000F0F7FA0021402000F0F3FA16E0D4
:10277000B148844208D10121802000F0EBFA002109
:10278000802000F0E7FA0AE0AC48844207D101213A
:10279000801500F0DFFA0021A01500F0DBFA10BD73
:1027A00010B50121084600F0D5FA0021012000F003
:1027B000D1FA10BD2DE9F041024600250026002087
:1027C00000230024002791F803C00CF00F0591F8B6
:1027D00003C01CF0100F03D091F802C04CEA0505AD
:1027E00091F800C0BCF1000F31D0146800202BE03C
:1027F0004FF0010C0CFA00F3B1F800C00CEA03062C
:102800009E4220D183004FF00F0C0CFA03F7BC431B
:1028100005FA03FC4CEA040491F803C0BCF1280F4C
:1028200006D14FF0010C0CFA00FCC2F814C00AE00B
:1028300091F803C0BCF1480F05D14FF0010C0CFA20
:1028400000FCC2F810C0401C0828D1D31460B1F8B5
:1028500000C0BCF1FF0F34DD546800202EE000F111
:10286000080C4FF0010808FA0CF3B1F800C00CEAAC
:1028700003069E4221D183004FF00F0C0CFA03F7A0
:10288000BC4305FA03FC4CEA040491F803C0BCF114
:10289000280F05D100F1080C08FA0CF8C2F81480D2
:1028A00091F803C0BCF1480F07D100F1080C4FF0BC
:1028B000010808FA0CF8C2F81080401C0828CED392
:1028C0005460BDE8F0814FF6FF71018002218170F4
:1028D0000421C17070470246002093680B4201D06A
:1028E000012000E0002070470146886880B27047F0
:1028F00002460020D3680B4201D0012000E00020F6
:1029000070470146C86880B27047016170474161F5
:1029100070470AB1016100E041617047C1607047D2
:102920004FF480320A4382618161826182698269E7
:10293000704702460020424B18684FF680731840DB
:1029400040EA021008433E4B186070473D49C86199
:102950007047F0B50A46002300240021002500F04E
:102960000046B6F1004F02D1354EF16901E0344E18
:102970007168C0F3034583B200F44016B6F5401FFA
:1029800008D121F070612E4E766826F070662C4FCB
:102990007E6012E000F48016B6F5801F06D1032693
:1029A00006FA05F4A14341F0706106E0460D3601D8
:1029B00003FA06F6B14341F0706122B1460D3601CB
:1029C00003FA06F6314300F00046B6F1004F02D19B
:1029D0001B4EF16101E01A4E7160F0BD30B500226E
:1029E0008B071C0F0F2303FA04F2154B08338C10CE
:1029F00053F824309343124C08348D1044F825309A
:102A000023468C1053F824308C07240F00FA04F46A
:102A100023430B4C08348D1044F8253030BD0A494F
:102A20000860704700080140000C014000100140A0
:102A30000014014000180140001C0140002001402A
:102A40000000014000002042DC002042DD48006818
:102A500040F00100DB49086008464068DA49084058
:102A6000D849486008460068D8490840D5490860F8
:102A70000846006820F4802008600846406820F47A
:102A8000FE0048604FF41F0088607047CD49096818
:102A900021F48031CB4A11601146096821F480216C
:102AA0001160B0F5803F03D0B0F5802F0ED106E065
:102AB000C449096841F48031C24A116007E0C14944
:102AC000096841F4A021BF4A116000E000BF00BFC7
:102AD000704710B501460022002300204A11012A48
:102AE00002D1B84C236806E0022A02D1B54C236A11
:102AF00001E0B44C636A01F01F02012494401C42BF
:102B000001D0012000E0002010BD38B50020009069
:102B10000024002500BF3120FFF7DBFF05460098A9
:102B2000401C00900098B0F5A06F01D0002DF2D0AD
:102B30003120FFF7CEFF08B1012400E00024204639
:102B400038BD014600209F4A106820F0F80040EA96
:102B5000C100106070479E4908607047024600201F
:102B6000984B586820F47C1042EA01031843954BB7
:102B70005860704796490866704701460020914AA0
:102B8000506820F003000843506070478D4840684B
:102B900000F00C007047014600208A4A506820F07F
:102BA000F00008435060704701460020854A506895
:102BB00020F4E06008435060704701460020814ADD
:102BC000506820F4605040EAC1005060704729B15D
:102BD0007C4A527A02437B4B5A7204E0794A527A19
:102BE0008243784B5A7270477A49086070470146B1
:102BF0000020744A506820F44040084350607047F9
:102C00000021754A11706F4A82F82010012802D005
:102C1000042808D103E001216F4A117004E0052166
:102C20006D4A117000E000BF00BF70476B4908603B
:102C300070476449096A0143624A116270476749F3
:102C400044390860704730B5002100220024002379
:102C50005C4D6D6805F00C0121B1042905D00829EF
:102C600023D105E05E4D056022E05D4D05601FE06B
:102C7000544D6D6805F47012524D6D6805F4803442
:102C8000022505EB92421CB9564D554305600BE0F9
:102C90004C4D6D6815F4003F03D0524D554305600F
:102CA00002E04F4D5543056002E04D4D056000BF09
:102CB00000BF444D6D6805F0F00109094A4D6B5C99
:102CC0000568DD4045603F4D6D6805F4E061090A27
:102CD000454D6B5C4568DD4085603A4D6D6805F497
:102CE0006051C90A404D6B5C4568DD40C560354D9B
:102CF0006D6805F44041890B3C4D6B5CC568B5FBC4
:102D0000F3F5056130BD29B12E4A526902432D4BBE
:102D10005A6104E02B4A526982432A4B5A61704738
:102D200029B1284A92690243264B9A6104E0254A58
:102D300092698243234B9A61704729B1214AD26933
:102D40000243204BDA6104E01E4AD26982431D4BE4
:102D5000DA61704729B11B4AD2680243194BDA6025
:102D600004E0184AD2688243164BDA60704729B1F2
:102D7000144A12690243134B1A6104E0114A1269A2
:102D80008243104B1A6170471449403908607047FC
:102D90000F49C86470470B49C87170470948406AB9
:102DA00040F0807007494862704701460020054A9C
:102DB00092680A4201D0012000E0002070470149DA
:102DC00088727047001002400000FFF8FFFFF6FE17
:102DD00000004242D8004242201002408004424299
:102DE00000127A0000093D00560000206600002015
:102DF00010B50446FB48844209D101218803FFF73E
:102E0000A9FF00214FF48040FFF7A4FF32E0F6480D
:102E1000844209D101214804FFF7A9FF00214FF4A2
:102E20000030FFF7A4FF25E0F048844209D10121DA
:102E30008804FFF79CFF00214FF48020FFF797FFE5
:102E400018E0EB48844209D10121C804FFF78FFF45
:102E500000214FF40020FFF78AFF0BE0E548844291
:102E600008D101210805FFF782FF00214FF48010EF
:102E7000FFF77DFF10BD2DE9F04786B005460E46F1
:102E80000024A24600BFA1460027B08900B100BFC0
:102E90002F462C8A4CF6FF700440F08804432C82A5
:102EA000AC894EF6F3100440B0883189084371892B
:102EB00008430443AC81AC8A4FF6FF400440B0891C
:102EC0000443AC8201A8FFF7BEFEC648874202D188
:102ED000DDF810A001E0DDF80CA0A88910F4004F87
:102EE00008D00AEBCA0000EB0A1031684900B0FBB9
:102EF000F1F807E00AEBCA0000EB0A10316889001C
:102F0000B0FBF1F86420B8FBF0F004012009642163
:102F100001FB1089A88910F4004F08D0322000EB83
:102F2000C900B0FBF1F000F00700044308E03220D4
:102F300000EB09106421B0FBF1F000F00F00044336
:102F40002C8106B0BDE8F0874FF4165101600021D6
:102F50008180C18001810C214181002181817047E4
:102F600010B502460020108A4FF2FF0318400B886C
:102F70004C8823438C882343CC88234318431082F6
:102F800010BD0021018041808180C180704721B146
:102F9000828942F40052828104E082894DF6FF73F7
:102FA0001A4082817047F0B50346002400260025B0
:102FB0000020A1F510676A3F00D100BF1846C1F399
:102FC000421401F01F06012707FA06F5012C01D172
:102FD0000C3004E0022C01D1103000E014301AB1A2
:102FE00007682F43076002E00768AF430760F0BD42
:102FF0001AB1838A0B43838202E0838A8B438382E4
:103000007047028A4FF6F0731A400282028A0A431E
:103010000282704782894FF2FF731A40828182894F
:103020000A438281704721B1828942F00202828183
:1030300004E082894FF6FD731A4082817047028A4C
:103040004FF6DF731A400282028A0A4302827047F7
:1030500021B1028A42F48042028204E0028A4BF6E5
:10306000FF731A4002827047C1F3080282807047E2
:1030700001468888C0F308007047818941F001014A
:1030800081817047028BD2B20283028B42EA012215
:1030900002837047028B02F47F420283028B0A4351
:1030A0000283704721B1828A42F02002828204E0CA
:1030B000828A4FF6DF731A408282704721B1828A7A
:1030C00042F01002828204E0828A4FF6EF731A40C7
:1030D0008282704721B1828A42F00802828204E033
:1030E000828A4FF6F7731A408282704721B1828933
:1030F00042F40042828103E08289C2F30E0282819F
:10310000704721B1828A42F40062828204E0828A9E
:103110004FF2FF731A4082827047828A4FF6FB7328
:103120001A408282828A0A438282704721B1828A4F
:1031300042F00202828204E0828A4FF6FD731A4056
:103140008282704702460020B1F5007F00D100BFA7
:1031500013880B4201D0012000E00020704701F4E9
:103160000072B2F5007F00D100BFCA4302807047F1
:1031700070B502460024002300250020A1F510664A
:103180006A3E00D100BFC1F3421501F01F030126C2
:1031900006FA03F3012D02D19689334006E0022D91
:1031A00002D1168A334001E0968A33400C12012680
:1031B00006FA04F41688344013B10CB1012000E083
:1031C000002070BD10B500220023A1F510646A3CF8
:1031D00000D100BF0A1201249440A3B2DC43048052
:1031E00010BD00000038014000440040004800408D
:1031F000004C004000500040064880470648004709
:10320000FEE7FEE7FEE7FEE7FEE7FEE7FEE7FEE796
:10321000FEE7FEE7210200083101000880EA010212
:1032200010B502F00043400026D04A0023D04FEAF8
:10323000106101EB1261C0F35600C2F3560240F474
:10324000000042F40002A0FB0220A1F17F014FEA3E
:103250000040140401D000F1010050EA124001D4F2
:103260004000491EC2B20C0604EBD010401C4008BE
:10327000802A02D003E0002010BD20F001000029C8
:1032800000DA0020184310BD96230022114600F0FA
:103290001DB820F00040C10DC0F3160040F400003E
:1032A0007F2901DA00207047962903DCC1F19601DD
:1032B000C84070479639884070470029A8BF7047BA
:1032C000401C490008BF20F00100704710B4B0FA5C
:1032D00080FC00FA0CF050EA010404BF10BC7047F7
:1032E00049B1CCF1200421FA04F411FA0CF118BF11
:1032F000012121430843A3EB0C01CB1D0106000A69
:10330000002BBEBF002010BC704700EBC350104420
:103310000029A4BF10BC7047401C490008BF20F022
:10332000010010BC70470000064C074D06E0E06845
:1033300040F0010394E8070098471034AC42F6D3FC
:10334000FCF7FAFE043400082434000802E008C840
:10335000121F08C1002AFAD170477047002001E00F
:1033600001C1121F002AFBD17047000090B608006F
:1033700087B608002BFC070023FC0700DBF80600DB
:10338000D2F80600C7F80600573F06004C3F06007B
:1033900023250500F51A0500B92505002F25050090
:1033A000D302050000000000BA3F1100FE3E1100EC
:1033B000DD3E11001400100017001000EE02100096
:1033C0009800100022E72700A6122E00DD3D2E00F7
:1033D0001F9130007EC32F0029753300A3AA33004C
:1033E000D0F93300E8EE36005DF53700F9FF430011
:1033F000FAFF430076224500FDF8420095330400B1
:10340000D4FA020024340008000000206C00000000
:103410004C330008903400086C00002004040000C5
:103420005C33000800A24A04000000000000000015
:10343000010203040607080930303A30303A3030D0
:10344000323031332F31302F3230203757000000E7
:10345000000000000000000000000000000000006C
:10346000000000000000000000000000000000005C
:103470000000000000000000000000000000010249
:1034800003040102030406070809020406080000F9
:0400000508000131BD
:00000001FF
