:020000040800F2
:10000000F00C002045020008E91A0008CD1900088C
:10001000711A0008A515000831380008000000001A
:10002000000000000000000000000000DD240008C7
:10003000A91500080000000071200008D52600085E
:100040005F0200085F0200085F0200085F0200080C
:100050005F0200085F0200085F0200085F020008FC
:100060005F0200085F0200085F0200085F020008EC
:100070005F0200085F0200085F0200085F020008DC
:100080005F0200085F0200085F0200085F020008CC
:100090005F0200085F0200085F020008AD1500085B
:1000A0005F0200085F0200085F0200085F020008AC
:1000B000792900085F020008392A00085F02000859
:1000C0005F0200085F0200085F0200085F0200088C
:1000D0005F02000829340008B13400085F020008FC
:1000E0005F0200085F0200085F0200085F0200086C
:1000F0005F0200085F0200085F0200085F0200085C
:100100005F0200085F0200085F0200085F0200084B
:100110005F0200085F0200085F0200085F0200083B
:100120005F0200085F0200085F0200085F0200082B
:1001300000F002F800F076F80AA090E8000C824483
:100140008344AAF10107DA4501D100F06BF8AFF260
:10015000090EBAE80F0013F0010F18BFFB1A43F0A5
:1001600001031847A87B0000C87B00000A444FF039
:10017000000C10F8013B13F0070408BF10F8014B06
:100180001D1108BF10F8015B641E05D010F8016B4B
:10019000641E01F8016BF9D113F0080F1EBF10F8AF
:1001A000014BAD1C0C1B09D16D1E58BF01F801CBD2
:1001B000FAD505E014F8016B01F8016B6D1EF9D555
:1001C0009142D6D37047000000230024002500266A
:1001D000103A28BF78C1FBD8520728BF30C148BFAA
:1001E0000B607047662906F0BA86642900F0A88083
:1001F000752900F0A580782900F0DE80632900F0E1
:100200003F84732900F04484002070471FB500F03C
:1002100055FC04000020002105F08CFEE0601FBDAD
:1002200010B510BD00F062FD1146FFF7EFFF03F0BF
:100230006BFD00F080FD03B4FFF7F2FF03BC03F099
:1002400014FB00000948804709480047FEE7FEE725
:10025000FEE7FEE7FEE7FEE7FEE7FEE7FEE7FEE776
:1002600004480549054A064B70470000D926000896
:1002700031010008F0060020F00C0020F0080020FA
:10028000F0080020704700000FB4044910B503AA1D
:10029000029800F001FC10BC5DF814FB2400002063
:1002A00070B5044685690068C10601D5302600E0B6
:1002B0002026C00707D070BDD4E901213046904701
:1002C000206A401C20626D1EF6D570BD70B50446D4
:1002D00085690078C00707D170BDD4E901212020CD
:1002E0009047206A401C20626D1EF6D570BD70B527
:1002F0000C460546012A05D02878800600D5EA6913
:10030000002302E0012305E05B1C934202D2E05C83
:100310000028F9D1A869E618C01AA861286A18440B
:1003200028622846FFF7BCFF04E0D5E9012114F854
:10033000010B9047B442F8D32846FFF7C7FF70BDC2
:100340002DE9F0410646002410687529314616A5AE
:1003500010D0AFF30080002802DA404213A507E076
:1003600031688A0701D512A502E0490704D511A515
:10037000012401E0AFF3008000210A2206F12407E6
:1003800009E0B0FBF2FCB0FBF2F302FB1C003030E2
:1003900078541846491C0028F3D123462A46304693
:1003A000BDE8F04100F0FCB8000000002D000000A6
:1003B0002B0000002000000070B504460D462146C9
:1003C0001068AFF300802188090502D50F4A7A44EE
:1003D00002E00E4A7A440E32002104F1240305E0C3
:1003E00000F00F060009965D5E54491C0028F7D105
:1003F00020780023000704D5702D02D009B1022314
:1004000011322046BDE8704000F0CAB8906B000081
:100410002DE9F05F894604464FF0000ADFF874B119
:10042000FB44C0F820A02046E1688847002874D02B
:10043000252806D0D4E901219047206A401C20627B
:10044000F1E700265F462046E168884720280546F8
:1004500007DB312D05D2781910F8200C08B10643BE
:10046000F1E7B00701D526F00406C4F81CA0002768
:10047000C4F818A02A2D09D0284603F0EFF938B3A4
:1004800004EB8708303DC8F8185019E059F8041BF0
:10049000204604EB87029161E1688847012F0546F9
:1004A00018D1E069002820DA26F020061DE0D8F8EF
:1004B000180000EB800005EB40003038C8F8180049
:1004C0002046E1688847054603F0C8F90028EED1C8
:1004D000012F0AD02E2D08D12046E16888477F1CC5
:1004E0000546022F46F02006C4DBA069002803DA87
:1004F000404246F00106A061F00701D026F0100648
:100500006C2D0BD0682D09D04C2D39D06A2D35D0EB
:10051000742D35D07A2D33D016E038E0E1682F46BF
:1005200020468847B842054609D16C2F26D04FF4A3
:100530008060E168064320468847054604E06C2F4A
:100540001AD04FF4807006430DB3A5F1410019286D
:1005500002D8203546F400664A46294620462660E1
:100560004E46FFF73FFE80B101280BD0F61D26F066
:10057000070000F1080956E74020E4E78020D8E7AB
:100580000020D6E706F104094DE7284652E7206A25
:10059000BDE8F09F666B000070477047704770477A
:1005A0002DE9F0470D4699469246044600F124088D
:1005B0000168880604D5E06921F01001216000E09F
:1005C0000120A84201DD471B00E00027A1697A193C
:1005D00002EB0900081AA0612078C00602D4204668
:1005E000FFF75EFE002608E0D4E901211AF80600B4
:1005F0009047206A401C761C20624E45F4DB207830
:10060000C0060AD52046FFF74BFE06E0D4E90121DB
:1006100030209047206A401C2062381EA7F1010755
:10062000F4DC07E0D4E9012118F805009047206ABE
:10063000401C2062281EA5F10105F3DC2046FFF7CF
:1006400045FE2078000602D50220BDE8F087012093
:10065000FBE770472DE9FF4F0C461E464FF0FF3772
:100660008BB0D2E90001DDF860800A908A46C1F3C0
:100670000A5505B93D46002108464FF00000BAF181
:10068000000F00F4400005DA00EB80004FF4400159
:1006900001EA50004FEA9059B9F1010F00DDB94667
:1006A0000A9850EA4A000ED044F61050A5F2FF35E1
:1006B00045432F14B8F1000F1ED07542291E1EDDD0
:1006C000C9F100021CE0B8F1010F4FF0000001D0A9
:1006D000302103E0F24305E02154401CB042FBDB33
:1006E00030460022002121540B99C1F80880C1E94D
:1006F00000200FB0BDE8F08FBD1B6D1CDEE74A4641
:1007000000DA694206A800F07BFA06AB93E807001E
:1007100003AB83E8070050460A9900F053FB8DE8CD
:100720000700A0F500501F3800900398002D09DD48
:1007300042F21F014A46084403A90390684600F0AC
:10074000B2FD08E0A0F500504A461F3803A9039007
:10075000684600F0BCFD8DE807000004000C03D0E3
:100760004FF0FF30410800E01046B8F1000F03D011
:100770000022009215461EE0751E05D400F0A2F975
:10078000303262556D1EF9D5B3460122084302D0BE
:1007900000227F1C04E02078302801D100227F1E37
:1007A000002A099786D01DE0112D07DA00F08AF99A
:1007B000303262556D1C50EA0102F5D1084302D077
:1007C0000098C8B10EE00021681E05E0235C625C61
:1007D00063542254401E491C8142F7DBAB46A81BE0
:1007E000401E0990002004F80B000B98099AC0F8ED
:1007F0000880C0E9002B7CE711264FF0000859E77C
:100800002DE9F04F88460446D21D22F0070191B031
:10081000D1E90001CDE90A0103F00CF802460B987A
:10082000C00F01D02D2007E02068810701D52B20C3
:1008300002E0202101EAC000032A099001D0072A22
:1008400005DB03464146204600F09AF90BE120788B
:10085000800601D5E06900E00620B8F1650F814609
:1008600006D0B8F1660F18D0B8F1670F70D131E03B
:100870000020B9F1110F009001DB112301E009F113
:1008800001030AAA01A90CA8FFF7E4FEDDE90C7038
:10089000002609F10105834647E001204B46009000
:1008A0004FF000470AAA01A90CA8FFF7D3FEDDE923
:1008B0000DB00C995D46002610B909F101000D1824
:1008C000B9EB050003D4C0F1FF3609F10105A5EB32
:1008D00009002BE0B9F1010F01DA4FF00109002006
:1008E000B9F1110F0090484601DD112300E00346E5
:1008F0000AAA01A90CA8FFF7ADFEDDE90C704D4670
:1009000000268346207800070AD4AB4500DA5D460E
:1009100001A8012D04DD411911F8011C302907D06F
:100920004F4502DA17F1040F04DA012082460FE086
:100930006D1EEEE7002F02DCED1B3E4403E0781C49
:10094000A84200DD7D1CB81B00F1010A4FF00047F2
:100950002078000703D4AA4501DB4FF0FF3A0021BD
:10096000B7F1004F0DF143088DF8431024D0022059
:100970002B23002F01DA7F422D230A21021EA0F132
:10098000010000DC5FB197FBF1FC97FBF1F201FB8A
:100990001C7C17460CF1300C08F801CDEEE7A8F1ED
:1009A000010003702188090501D5452100E065217A
:1009B000A0F1010800F8011C09980FA9A1EB080794
:1009C000FF1D00B10120411901EBEA70A169384413
:1009D000081A401EA0612078C00602D42046FFF706
:1009E0005FFC099828B1D4E901219047206A401C96
:1009F00020622078C00622D52046FFF751FC1EE079
:100A0000002E04DBB34502DD01A8805D00E030204C
:100A1000D4E901219047206A401C2062761CAAF18B
:100A200001005FEA000A0AD100F048F8C0680168D6
:100A3000405CD4E901219047206A401C2062281EB6
:100A4000A5F10105DCDC07E0D4E9012118F8010B70
:100A50009047206A401C2062381EA7F10107F3DC92
:100A60002046FFF733FC032011B043E610B543697D
:100A700013B1AFF3008001E0FFF739FC012010BD96
:100A8000127800F124010A7000224A700122EDE779
:100A900011684FF0FF32E9E7074B70B50D467B4414
:100AA00000F05BF80446284600F018F910B14FF04A
:100AB000FF3070BD204670BDA72F00000048704772
:100AC000B006002030B5B0F10A024FEA900E71F185
:100AD00000034EEA817EB0EB0E0061EB91014FEA1C
:100AE000101E4EEA017E10EB0E0041EB11114FEA91
:100AF000102E4EEA016E10EB0E0041EB11214FEA71
:100B0000104E4EEA014E10EB0E0041EB1141401821
:100B100041F100014FEAD00040EA41704FEAD101B3
:100B200010EB80054FEA810444EA907444EB010421
:100B30006D1944EB0404521BA3414FF0000348BF5E
:100B40000A3200D530BD401C41F1000130BD00002B
:100B500001694A1C02610878704700B58FB0CDE981
:100B600001310021059105497944CDE90310114671
:100B70006846FFF74DFC0FB000BD0000E5FFFFFF2A
:100B80002DE9F0411F46044603260168072A01F4B7
:100B9000006004DB08B116A505E016A503E008B166
:100BA00015A500E015A521F010002060A069C01E69
:100BB000A0610FB1401EA0612046FFF771FB4FB14D
:100BC000D4E9012138469047206A401C2062C01CAD
:100BD000206206E0206AFAE7D4E9012115F8010B4A
:100BE0009047761EF8D22046FFF770FBBDE8F081F3
:100BF0004E414E006E616E00494E4600696E6600C1
:100C00002DE9F047814616468AB0334878440DC82E
:100C10008DE80D0030487844801C03AC0DC884E892
:100C20000D0041F69B300844372190FBF1F290FB18
:100C3000F1F5A5F1800501FB12041B3C02D56442CD
:100C4000012000E00020DFF890A080460027FA4451
:100C5000AAF1BE0A0DE0E00709D03246684607EB6C
:100C600047010AEB810100F032FB8DE807006410B8
:100C70007F1C002CEFD1184F7F44AC3F18E0E807F1
:100C800014D007EB04100DF1180A90E80E008AE862
:100C90000E00C068F04201D198190890324606A9AA
:100CA00003A800F014FB03AB83E807006D10641C7D
:100CB000002DE4D132466946B8F1000F03A802D0F6
:100CC00000F0F1FA01E000F002FBC9E90001C9F807
:100CD00008200AB0BDE8F08708640000007B00F03F
:100CE0008000704700487047900600207546FFF767
:100CF000F9FFAE4605006946534620F007008546D9
:100D000018B020B5FFF7ACFABDE820404FF0000660
:100D10004FF000074FF000084FF0000B21F00701E3
:100D2000AC46ACE8C009ACE8C009ACE8C009ACE826
:100D3000C0098D4670470446AFF300802046FFF798
:100D40007AFA00004FF0013C50F8042B51F8043BB4
:100D50009A4221D1A2EB0C03934313EACC1317D18F
:100D600050F8042B51F8043B9A4215D1A2EB0C0326
:100D7000934313EACC130BD150F8042B51F8043BE6
:100D80009A4209D1A2EB0C03934313EACC13DBD0B4
:100D90004FF00000704700BFD01A01BAB1FA81F1DC
:100DA00001F0180122FA01F0CB40C1F12001DBB2C1
:100DB000C0B2C01A2CFA01F3D11A914311EAC3113F
:100DC000E6D170475FEA400C08BF91F0000F4FEA90
:100DD0008C234FEAC12243EA51514FEA1C5018BFFD
:100DE00000F5F0404FEA300018BF41F000415FEAE3
:100DF0006C5C00F02980BCF1FF3F08BF40F08040F0
:100E00007047130C06BF12044FF0100C4FF0000C8B
:100E1000130E04BF12020CF1080C130F04BF1201D1
:100E20000CF1040C930F04BF92000CF1020CD30FD1
:100E300004BF52000CF1010C11464FF00002A0F16A
:100E40001F00A0EB0C00704711F0004F08BF704767
:100E500031F000413FF4D5AF0B0C06BF09044FF051
:100E6000100C4FF0000C0B0E04BF09020CF1080C23
:100E70000B0F04BF09010CF1040C8B0F04BF890098
:100E80000CF1020CCB0F04BF49000CF1010CCCF1AA
:100E90002003A0EB0C0022FA03F302FA0CF241EA61
:100EA000030100F10100704720F07F4C80EA03004D
:100EB00023F07F47ACEB070303F57C5300F00040C1
:100EC00003F1FF032DE980494FEA154B09B44FEABE
:100ED000144325EA0B4E24EA03480FF2042606EBDE
:100EE000132749083E785FEA320203FB0667C7F51D
:100EF000000707FB06F64FEA54374FEAD64606F1DD
:100F0000020607FB066CCCF1005C4FEA1C472CEA9A
:100F1000074C07FB06F40CFB06F504EB15464FEAFD
:100F2000961634BF00204FF000404FEAD13706FB41
:100F300007FC4FEA1C4C0CFB0BF7D21B03FB0CF716
:100F400061EB07010CFB0EF7B0EB074072EB1742A9
:100F50000CFB08F734BFA2EB0742B2EB074261EB90
:100F600017414FEA0C444FEA910706FB07FC4FEA92
:100F70001C4C0CFB0BF7B0EBC74072EB573203FB7A
:100F80000CF734BFA2EBC742B2EBC74261EB57315B
:100F90000CFB0EF7B0EBC70072EB57720CFB08F7B7
:100FA00034BFA2EBC702B2EBC70261EB5771039FDC
:100FB0004FEA816141EA921104EBCC044FEAD13748
:100FC0004FEA826206FB07FC42EA90124FEA806019
:100FD0004FEA1C4C0CFB0BF7D21B03FB0CF761EB2D
:100FE00007010CFB0EF7B0EB074072EB17420CFB4E
:100FF00008F734BFA2EB0742B2EB074261EB17419F
:101000004FEA8C554FEA910704EB9C2406FB07FC42
:101010004FEA1C4C0CFB0BF7B0EBC74072EB57329E
:1010200003FB0CF734BFA2EBC742B2EBC74261EB44
:1010300057310CFB0EF7B0EBC70072EB57720CFB8D
:1010400008F734BFA2EBC702B2EBC70261EB5771DE
:1010500015EB4C254FEA816141EA92114FEA826219
:101060004FEAD13742EA901206FB07FC44F1000434
:101070004FEA80604FEA1C4C0CFB0BF7D21B03FBC2
:101080000CF761EB07010CFB0EF7B0EB074072EBBE
:1010900017420CFB08F734BFA2EB0742B2EB074242
:1010A00061EB174115EB1C154FEA813141EA924182
:1010B0004FEA823242EA90424FEA80304FEA0C76A1
:1010C00044F1000448EA03434EEA0B484FF0000E97
:1010D000B2EB080C71EB030724BF624639464EEBB6
:1010E0000E0E4FF0000B0018524149414BEB0B0B19
:1010F000B2EB080C71EB03077BF1000B24BF6246D7
:1011000039464EEB0E0E4FF0000B0018524149418C
:101110004BEB0B0BB2EB080C71EB03077BF1000BF5
:1011200024BF624639464EEB0E0E51EA020718BF45
:1011300046F0010616EB0E7655F1000254F100015F
:1011400003D5BDE88901BDE80088BDE88901BDE897
:101150000048B619524141EB0101A3F10103704768
:1011600080807F7E7D7C7B7A7978777676757473E4
:10117000727171706F6E6E6D6C6C6B6A6A696868A3
:10118000676666656464636362616160605F5F5E39
:101190005E5D5D5C5C5B5B5A5A59595858575756AF
:1011A0005655555554545353525252515150505014
:1011B0004F4F4F4E4E4D4D4D4C4C4C4B4B4B4A4A66
:1011C0004A494949484848474747474646464545AA
:1011D00045444444444343434342424242414141E3
:1011E000002B26D4770021D01CB54FEA370703B473
:1011F0004FF010004FF010014FF000000FBCBDE8A1
:1012000010400BF1010BBBF1010F08BF5FEA17079C
:1012100022BF12F1010211F101014FF0004143F12F
:10122000000300F0004043EA00007047F9D357087C
:10123000DAE746EA064613F1400F4FEA16461FDD8D
:1012400013F1200FDFBF16430A46002120335B4213
:10125000C8D0C3F1200746EA064602FA07F74FEA6C
:10126000164646EA0706C3F1200722FA03F201FAFE
:1012700007F721FA03F14FF0000342EA0702B1E752
:1012800046EA020646EA06464FEA164646EA0106DE
:10129000BCBF46EA0646360C4FF000034FF0000292
:1012A0004FF000019EE72DE9C048934630B491E825
:1012B000380007C831EA400C48BF34EA430C03D574
:1012C000FFF7F2FDFFF78CFFF0BCBDE800882DE9C9
:1012D000C048934630B491E8380007C810F0804FFA
:1012E00008BF13F0804F03D100F005F8FFF778FF37
:1012F000F0BCBDE8008820F07F4780EA030023F0BF
:101300007F4C07EB0C03A3F57C5300F00040A3F1E6
:10131000FE0392F0000F00F0B38095F0000F00F094
:1013200077802DE901494FEA11404FEA144621EA3E
:10133000004800FB06FC24EA064708FB06F607FB0C
:1013400008F800FB07F718EB06484CEB164C4FEA81
:10135000124B18EB07484FEA15464CEB174022EAB0
:101360000B4E0BFB06FC25EA06470EFB06F607FBB9
:101370000EFE0BFB07F71EEB064E4CEB164C4FF028
:1013800000061EEB074E4CEB174B18EB0B0840F119
:10139000000018EB0E0B58EB000840F100008F1A0C
:1013A0004FF000013CBFC943661B14BFB5EB040CF2
:1013B00000213CBFC943F61B4FEA17444EEA8E0E8C
:1013C00027EA04454FEA1C4704FB07622CEA074C56
:1013D00005FB07F70CFB05F604FB0CFC16EB0746B8
:1013E00042EB174216EB0C4642EB1C421BEB060687
:1013F00058EB0202414146EA9E0601D5BDE801894B
:10140000B619524141EB0101A3F10103BDE8018985
:101410004FEA14454FEA114724EA054621EA074CF2
:1014200005FB07F406FB07F70CFB06F105FB0CFCBC
:1014300011EB074144EB17444FEA124711EB0C4103
:1014400044EB1C4422EA074C05FB07F206FB07F7B6
:101450000CFB06F605FB0CFC16EB074642EB1742AD
:1014600016EB0C4642EB1C456A1854F1000148BFCC
:101470007047B619524141EB0101A3F101037047D6
:1014800095F0000F37D04FEA11424FEA144721EA96
:10149000024624EA074C02FB07F106FB07F70CFBA8
:1014A00006F402FB0CFC14EB074441EB17414FEA36
:1014B000154714EB0C4441EB1C4125EA074C02FB99
:1014C00007F506FB07F70CFB06F602FB0CFC16EB18
:1014D000074645EB174516EB0C4645EB1C42121927
:1014E00051F1000148BF7047B619524141EB01016B
:1014F000A3F1010370474FEA14454FEA114724EA6C
:10150000054621EA074C05FB07F106FB07F70CFB34
:1015100006F24FF0000605FB0CFC12EB074241EB14
:10152000174112EB0C4251EB1C4148BF7047921817
:1015300041EB0101A3F101037047000010B5002049
:101540001049086010490860104908601049086097
:101550001049114802F0F6F81049114802F034F928
:101560000848006800F010F90748006800F090FF94
:101570000648006802F0A2FB0548006802F0D4FFAC
:1015800010BD0000480400204C040020500400203E
:101590005404002024060020EC050020480600200A
:1015A0000806002000BFFEE77047000010B50A20C3
:1015B00002F024FA0021074801F06BFA00F05AFD0E
:1015C00005A0FEF761FE002009490860202000F018
:1015D00011F810BD00040040CFB5CDB3CDA3D6B9EE
:1015E000A3A1C7EBD6D8D0C2C9CFB5E70D0A00007A
:1015F0000800002001490860704700001404014001
:10160000002123498279002A3AD00A4612680368E9
:101610009A430B461A600A1D126803689A430B1D11
:101620001A60027911440A6803681A430A60184A6A
:101630000832126803689A43154B08331A601A1D62
:10164000126803689A43124B0C331A604279102ACD
:101650000ED11A1F126803681A430D4B08331A6023
:101660001A1D126803681A43094B0C331A600DE007
:101670000749427911440A6803681A430A6005E081
:10168000027911440A6803689A430A6070470000AF
:101690000004014030B589B005460C460121082000
:1016A00000F07CFE0121084600F068FE10208DF855
:1016B00017000001ADF8140003208DF8160005A9ED
:1016C000284800F0A7F828208DF817000220ADF870
:1016D000140003208DF8160005A9234800F09AF89D
:1016E0000221214800F021F9ADF80850ADF804407E
:1016F0000020ADF80A00ADF8060001A94FF08040C7
:1017000001F0E6FB0420ADF818000020ADF81A0047
:101710000120ADF81C000020ADF81E00ADF820003F
:1017200006A94FF0804001F0D5F91C208DF810007B
:1017300005208DF811008DF8120001208DF813009E
:1017400004A800F0D3F901220521880701F018FA56
:101750000121880701F09DF904A0FEF795FD09B06D
:1017600030BD0000000C014000080140B3ACC9F9D5
:10177000B2A8C4A3BFE9B3F5CABCBBAFCDEAB1CF31
:10178000A3A1A3A1210D0A0010B5044604F178001D
:10179000A02804DC642802DB0C4908600EE004F198
:1017A0007800A02803DBA0200849086006E004F1C7
:1017B0007800642802DC642004490860034800883B
:1017C00081B2034801F04DFB10BD00004804002029
:1017D0000004004030B500228B071C0F0F2303FAD2
:1017E00004F20B4B8C1053F824309343084C8D10AB
:1017F00044F8253023468C1053F824308C07240FEE
:1018000000FA04F42343024C8D1044F8253030BD17
:10181000080001402DE9F041024600250026002085
:1018200000230024002791F803C00CF00F0591F865
:1018300003C00CF0100CBCF1000F03D091F802C0F3
:101840004CEA050591F800C0BCF1000F31D01468D6
:1018500000202BE04FF0010C0CFA00F3B1F800C0AF
:101860000CEA03069E4220D183004FF00F0C0CFAC5
:1018700003F7BC4305FA03FC4CEA040491F803C0E7
:10188000BCF1280F06D14FF0010C0CFA00FCC2F895
:1018900014C00AE091F803C0BCF1480F05D14FF025
:1018A000010C0CFA00FCC2F810C0401C0828D1D36F
:1018B0001460B1F800C0BCF1FF0F34DD54680020A3
:1018C0002EE000F1080C4FF0010808FA0CF3B1F813
:1018D00000C00CEA03069E4221D183004FF00F0C9A
:1018E0000CFA03F7BC4305FA03FC4CEA040491F834
:1018F00003C0BCF1280F05D100F1080C08FA0CF860
:10190000C2F8148091F803C0BCF1480F07D100F170
:10191000080C4FF0010808FA0CF8C2F81080401CBF
:101920000828CED35460BDE8F08141617047016161
:10193000704700002DE9FC5F00F046FE0A2002F02F
:1019400037F81D48007800F08000002831D01A4890
:10195000007800F03F00C51704464FF480360021A0
:101960002046A0FB062705FB067304FB0135144641
:1019700012480088241845F100052046294604F045
:1019800073FD80460022B30304F0D0FB064600221C
:101990000B4B04F0CBFB824600220A4B04F0F2FD15
:1019A000CDE9000104F0DCFA074908600020024993
:1019B0000870BDE8FC9F0000740000207600002045
:1019C00080842E4100C077407000002000BFFEE7F9
:1019D00008B50121082000F0E1FC10208DF803007B
:1019E0000002ADF8000003208DF8020069460948A6
:1019F000FFF710FF4FF40050ADF8000069460548AE
:101A0000FFF708FF00200449086001200349C1F8DE
:101A1000B40108BD000C0140B08121420080214288
:101A2000C82803DC642801DB014908607047000016
:101A300058040020C82803DC642801DB0149086041
:101A40007047000060040020C82803DC642801DB24
:101A500001490860704700005C040020C82803DCCE
:101A6000642801DB0149086070470000640400201D
:101A700000BFFEE71FB50121082000F08FFC012107
:101A8000084600F08BFC03208DF802002020ADF802
:101A9000000028208DF8030069461248FFF7BAFEBF
:101AA00005210120FFF796FE2020029000208DF8EE
:101AB0000C0008208DF80D0001208DF80E0002A802
:101AC000FFF79EFD17208DF8040006208DF8050015
:101AD0008DF8060001208DF8070001A800F006F837
:101AE0001FBD0000000C01407047000070B50021D0
:101AF00000230F22C47804B3154C246804F4E06476
:101B0000C4F5E064210AC1F10403CA40447804FA30
:101B100003F184781440214309010E4C0678A15545
:101B2000047804F01F050124AC4005786D11AD0068
:101B300005F1E025C5F8004109E0047804F01F052F
:101B40000124AC40044D0678761145F8264070BD5E
:101B50000CED00E000E400E080E100E00249014318
:101B6000024A1160704700000000FA050CED00E029
:101B70002DE9F04104460D464FF000086560D4E9B8
:101B8000000105F077F9A060A06804F0E3FE21F001
:101B9000004106460022094B04F0B8FC06D2A168B9
:101BA000606904F003FF60614FF07E58D4E90210D1
:101BB00005F094F8A061A069BDE8F0810000244020
:101BC0002DE9F04104460D464FF000086560D4E968
:101BD000000105F04FF9A060A06804F0BBFE21F001
:101BE000004106460022094B04F090FC06D2A16891
:101BF000606904F0DBFE60614FF07E58D4E90210AA
:101C000005F06CF8A061A069BDE8F08100002440F7
:101C10002DE9F04104460D46164625606660D4E97C
:101C2000000105F027F9A060A168A06904F0BEFEDC
:101C3000A061D4E9021005F051F8074605F01AF842
:101C40002062A068E061206ABDE8F0812DE9F041E2
:101C500004460D46164625606660D4E9000105F08D
:101C600009F9A060A168A06904F0A0FEA061D4E910
:101C7000021005F033F8074604F0FCFF2062A0686C
:101C8000E061206ABDE8F0812DE9FC4700250026CF
:101C9000A946AA4601F0ECFD002418E0644801685A
:101CA000284604F083FE054662480168304604F089
:101CB0007DFE064660480168484604F077FE81468E
:101CC0005E480168504604F071FE8246641C052C93
:101CD000E4DB284604F03EFE07460022584B04F0A1
:101CE00025FACDE9000104F03BF90546304604F041
:101CF00031FE07460022524B04F018FACDE90001EC
:101D000004F02EF90646484604F024FE0746002259
:101D10004B4B04F00BFACDE9000104F021F98146A8
:101D2000504604F017FE07460022454B04F0FEF92A
:101D3000CDE9000104F014F9824600204149886091
:101D4000C8603B48006808600020C86108464560DC
:101D50003D480861400248613C48886100203C4998
:101D600088600846C0F8009000204861324800684A
:101D700048604FF0804008613348C8600020354912
:101D80008860084606602B4800684860002048616B
:101D9000C8600861304988600846C0F800A000208B
:101DA00048612648006848604FF080400861264836
:101DB000C860002029498860C86188612848B0F956
:101DC000000004F073FF25494860002008602548A2
:101DD000C8601D4808614861002023498860C861C7
:101DE000886108602148B0F9000004F05FFF1E49D7
:101DF00048601F4848611B48C8601E4808610020B1
:101E00001D498860C8600860C8611C48B0F90000BE
:101E100004F04CFF184948601248086115484861B1
:101E20001348886116A0FEF72FFABDE8FC87000072
:101E30007000002048000020440000204C000020DA
:101E400000001440AC0500200000A040000040400D
:101E5000D0050020EC050020080600202406002004
:101E60005E000020CDCC4C3D480600205C000020E8
:101E70000AD7A33C8FC2F53C6C060020600000200E
:101E8000504944CFE0B9D8B2CECAFDB3F5CABCBB05
:101E9000AFCDEAB1CFA3A10D0A0000002DE9F047B4
:101EA00007460C4615461E4629463846FFF760FE93
:101EB0008146324649462046FFF7AAFE8046404604
:101EC000BDE8F0872DE9F04707460C4615461E464B
:101ED00029463846FFF774FE814632464946204679
:101EE000FFF7B4FE80464046BDE8F08730B589B0C4
:101EF00005460C460121022000F040FA0121042091
:101F000000F04CFA0121082000F048FA18208DF862
:101F10002300C020ADF8200003208DF8220008A97E
:101F20003048FFF777FC0320ADF8200008A92E48C1
:101F3000FFF770FCA8B2ADF81800A0B2ADF814001D
:101F40000020ADF81600ADF81A0005A9274800F0EA
:101F5000BFFF6020ADF804000020ADF80C000120A8
:101F6000ADF806000020ADF80A0001A91F4800F0F6
:101F700011FE01A91D4800F063FE01A91B4800F0F5
:101F8000CBFE01A9194800F021FF0821174800F0F5
:101F90004DFE0821154800F0B2FE0821134800F05C
:101FA0000BFF0821114800F04FFF01210F4800F0FE
:101FB00061FD01210D4800F06CFD00210B4800F08F
:101FC00050FF0021094800F04EFF0021074800F0B3
:101FD0004CFF0021054800F04AFF05A0FEF754F928
:101FE00009B030BD00080140000C01400004004071
:101FF00050574DB3F5CABCBBAFCDEAB1CFA3A1A337
:10200000A1A3A10D0A00000010B5C821174800F0D7
:1020100028FFC821154800F026FFC821134800F00A
:1020200024FFC821114800F022FF4FF47A7001F01C
:10203000BFFC4FF47A7001F0BBFC64210B4800F048
:1020400010FF6421094800F00EFF6421074800F0EA
:102050000CFF6421054800F00AFF4FF47A7001F08C
:10206000A7FC4FF47A7001F0A3FC10BD00040040FF
:102070007047000070B55A49C86804F06BFC04460C
:1020800022460B4657A0FEF7FFF85549086904F0B1
:1020900061FC044622460B4658A0FEF7F5F85D4960
:1020A000C86804F057FC044622460B465AA0FEF7C7
:1020B000EBF85849086904F04DFC044622460B46EB
:1020C0005BA0FEF7E1F86049C86804F043FC0446F1
:1020D00022460B465DA0FEF7D7F85B49086904F07D
:1020E00039FC044622460B465EA0FEF7CDF8634954
:1020F000086904F02FFC044622460B4660A0FEF758
:10210000C3F85E49486904F025FC044622460B46A4
:1021100060A0FEF7B9F85949886904F01BFC044631
:1021200022460B4660A0FEF7AFF86449C86804F089
:1021300011FC044622460B4661A0FEF7A5F85F4954
:10214000086904F007FC044622460B4662A0FEF72D
:102150009BF85A49486904F0FDFB044622460B46A9
:1021600063A0FEF791F86849C86804F0F3FB0446E1
:1021700022460B4665A0FEF787F86349086904F01C
:10218000E9FB044622460B4665A0FEF77DF85E4952
:10219000486904F0DFFB044622460B4665A0FEF7C3
:1021A00073F86949086904F0D5FB044622460B46DA
:1021B00066A0FEF769F86449486904F0CBFB044661
:1021C00022460B4665A0FEF75FF85F49886904F078
:1021D000C1FB044622460B4664A0FEF755F870BDCD
:1021E000D00500207961775F65787465726E616CE7
:1021F0005F4B703A25660D0A000000007961775F39
:1022000065787465726E616C5F4B693A25660D0A7C
:1022100000000000EC05002070697463685F657859
:102220007465726E616C5F4B703A25660D0A000032
:1022300070697463685F65787465726E616C5F4B1A
:10224000693A25660D0A000008060020726F6C6C62
:102250005F65787465726E616C5F4B703A25660DD0
:102260000A000000726F6C6C5F65787465726E6155
:102270006C5F4B693A25660D0A0000006C06002071
:102280007961775F696E736964655F4B703A256643
:102290000D0A00007961775F696E736964655F4B51
:1022A000693A25660D0A00007961775F696E736986
:1022B00064655F4B643A25660D0A00002406002021
:1022C00070697463685F696E736964655F4B703AC7
:1022D00025660D0A0000000070697463685F696E0E
:1022E000736964655F4B693A25660D0A000000005A
:1022F00070697463685F696E736964655F4B643AA3
:1023000025660D0A0000000048060020726F6C6C04
:102310005F696E736964655F4B703A25660D0A00EC
:10232000726F6C6C5F696E736964655F4B693A25A7
:10233000660D0A00726F6C6C5F696E736964655F2D
:102340004B643A25660D0A00AC0500206869676891
:102350005F4B703A25660D0A0000000068696768E7
:102360005F4B693A25660D0A0000000068696768DE
:102370005F4B643A25660D0A0000000029B1064A49
:10238000D2690243044BDA6104E0034AD269824312
:10239000014BDA61704700000010024029B1064A83
:1023A00092690243044B9A6104E0034A92698243B2
:1023B000014B9A61704700000010024030B50021C7
:1023C0000022002400232D4D6D6805F00C0121B181
:1023D000042905D0082923D105E0294D056022E014
:1023E000274D05601FE0254D6D6805F47012234DE3
:1023F0006D6805F48034022505EB92421CB9214D2D
:10240000554305600BE01D4D6D6805F400351DB1A9
:102410001C4D5543056002E0194D5543056002E02F
:10242000174D056000BF00BF144D6D6805F0F00149
:102430000909154D6B5C0568DD4045600F4D6D6801
:1024400005F4E061090A104D6B5C4568DD4085606C
:102450000A4D6D6805F46051C90A0B4D6B5C456807
:10246000DD40C560054D6D6805F44041890B074DA1
:102470006B5CC568B5FBF3F5056130BD001002402B
:1024800000127A0000093D002A0000203A000020D6
:1024900010B5044604F17800A02804DC642802DBAF
:1024A0000C4908600EE004F17800A02803DBA020AE
:1024B0000849086006E004F17800642802DC642022
:1024C000044908600348008881B2034800F0CBFC4F
:1024D00010BD00004C04002000040040704710B5FF
:1024E00000F002F810BD00000CB500200190009033
:1024F0003348006840F480303149086000BF3048FC
:10250000006800F4003000900198401C0190009891
:1025100018B90198B0F5A06FF1D12948006800F40E
:10252000003010B10120009001E0002000900098E0
:10253000012843D12348006840F010002149086079
:102540000846006820F0030008600846006840F074
:10255000020008601A484068194948600846406807
:1025600048600846406840F480604860084640681B
:1025700020F47C1048600846406840F4E810486049
:102580000846006840F08070086000BF0C48006892
:1025900000F000700028F9D00948406820F00300DE
:1025A000074948600846406840F00200486000BFA4
:1025B0000348406800F00C000828F9D10CBD000069
:1025C000001002400020024010B54FF480710A480C
:1025D000FFF7ABF90A2001F011FA4FF480710648B9
:1025E000FFF7A5F90A2001F009FA4FF480710248BB
:1025F000FFF79BF910BD0000000C014001200149CC
:10260000086070470400002010B564210B4800F0FA
:1026100028FC6421094800F026FC6421074800F0EA
:1026200024FC6421054800F022FCFFF723FD04A0F0
:10263000FDF72AFE00200849086010BD0004004094
:10264000CFB5CDB3CDA3D6B9A3A1C7EBD6D8D0C251
:10265000C9CFB5E70D0A00000800002010B5002220
:10266000002104E00A48405C0244481CC1B208480A
:102670000078801E8842F5DCD3B205480078801EC1
:10268000034C205C834201D1012010BD0020FCE7F7
:10269000480500200448006808B9012000E0002037
:1026A000014908607047000000000020042808D19C
:1026B0004FF0E021096941F004014FF0E02211617F
:1026C00007E04FF0E021096921F004014FF0E0221A
:1026D000116170477047000010B51348006840F062
:1026E00001001149086008464068104908400E4939
:1026F0004860084600680E4908400B4908600846D3
:10270000006820F4802008600846406820F4FE003D
:1027100048604FF41F008860FFF7E1FE4FF0006053
:102720000449086010BD0000001002400000FFF8DE
:10273000FFFFF6FE08ED00E0F0B50C46154600225E
:102740000021068C4FF6FE773E400684028B018CFA
:102750004FF60C7632407E1C06EA03162E433243B7
:10276000104EB0420ED0104EB0420BD0B0F1804FA0
:1027700008D00E4EB04205D00D4EB04202D00D4EE4
:10278000B04206D14FF6FD76314044F001063143A8
:1027900005E04FF6F576314044F0010631430283FF
:1027A0000184F0BD002C01400034014000040040D1
:1027B00000080040000C0040F0B50C461546002211
:1027C00000210026078C4FF6EF7C07EA0C070784F0
:1027D000028B018C4FF6FF7707EA041640F6FF479D
:1027E0003A404FF6FF7707EA03373A434FF6FF7751
:1027F00007EA05273A43114FB8420ED0104FB842AE
:102800000BD0B0F1804F08D00E4FB84205D00E4F1C
:10281000B84202D00D4FB84206D14FF6DF773940AB
:1028200046F01007394305E04FF65F77394044F032
:102830001007394302830184F0BD0000002C0140E1
:10284000003401400004004000080040000C00403B
:10285000F0B50C461546002200210026078C4FF6E5
:10286000FF6C07EA0C070784828B018C4FF6FF7719
:1028700007EA04264FF60C773A404FF6FF7707EA4F
:1028800003172F433A43114FB8420ED0104FB842AE
:102890000BD0B0F1804F08D00E4FB84205D00E4F8C
:1028A000B84202D00D4FB84206D14FF6FF5739401B
:1028B00046F48077394305E04FF2FF57394044F43E
:1028C0008077394382830184F0BD0000002C0140F1
:1028D000003401400004004000080040000C0040AB
:1028E000F0B50C461546002200210026078C4EF656
:1028F000FF7C07EA0C070784828B018C4FF6FF7779
:1029000007EA043640F6FF473A404FF6FF7707EAFA
:1029100005273A434FF6FF7707EA03373A43114F4B
:10292000B8420ED0104FB8420BD0B0F1804F08D053
:102930000E4FB84205D00E4FB84202D00D4FB842EC
:1029400006D14DF6FF77394046F48057394305E00C
:1029500047F6FF57394044F4805739438283018456
:10296000F0BD0000002C0140003401400004004094
:1029700000080040000C004010B52D48007800F021
:10298000800000284FD10121880700F091F8D0B1D4
:102990002748007800F04000A8B12548007800F0F2
:1029A0003F003F280AD12248007840F080002049AB
:1029B00008704FF6FF701F49088004E01C4800783B
:1029C000401C1B4908700421080700F071F850B33F
:1029D0001748007800F0400088B11548007840F0B2
:1029E0008000134908704FF0804000F05EF81149F4
:1029F000088000214FF0804000F074F913E00020BF
:102A00000B4908700B49088000214FF0804000F00E
:102A100031FA0748007840F040000549087002216B
:102A2000480700F05FF90521880700F02FF810BD76
:102A3000740000207600002010B50C48008800F0DB
:102A4000010058B10A49086980470020074914313C
:102A500008804FF47A7005491C31088003480088CB
:102A600020F001000149088010BD0000100800405E
:102A70005403002021B1028842F08002028004E069
:102A800002884FF67F731A4002807047CA43028261
:102A9000704721B1028842F00102028004E00288FE
:102AA0004FF6FE731A40028070470146088F704748
:102AB00030B50246002000230024158A05EA0103F0
:102AC000958905EA010413B10CB1012000E0002052
:102AD00030BD000070B505460C46244885420ED036
:102AE000234885420BD0B5F1804F08D0214885425C
:102AF00005D02148854202D02048854200D100E01F
:102B000000BF208850B92389A28861882846FFF732
:102B100013FEE188284600F0AFF925E0208804285C
:102B20000AD12389A28861882846FFF745FEE188FB
:102B3000284600F0AAF917E0208808280AD123893E
:102B4000A28861882846FFF783FEE188284600F0C6
:102B5000A9F909E02389A28861882846FFF7C0FE09
:102B6000E188284600F0A7F970BD0000002C014064
:102B7000003401400004004000080040000C004008
:102B80001AB183890B43838102E083898B4383815C
:102B90007047000070B5002400220023058C4FF61A
:102BA000FE7635400584028C8388048B4FF68F7542
:102BB0002C40B51E2C400D882C43751E2A400D89D3
:102BC0002A434D882A43144DA8420BD0134DA842E6
:102BD00008D0134DA84205D0124DA84202D0124D84
:102BE000A84213D14FF6F7752A404D892A434FF674
:102BF000FB752A408D882A434FF6FF652B404FF620
:102C0000FF552B408D892B43CD892B438380048333
:102C1000CD888586028470BD002C014000340140BF
:102C20000040014000440140004801400A460021A4
:102C3000018B4FF6F7731940114301837047000071
:102C400070B5002400220023058C4FF6EF76354046
:102C50000584028C8388048B48F6FF752C404FF660
:102C6000FF452C400D884FF6FF7606EA05252C43DC
:102C70004FF6DF752A400D8906EA05152A434D886F
:102C800006EA05152A43154DA84202D0144DA84264
:102C90001DD14FF67F752A404D894FF6FF7606EA23
:102CA00005152A434FF6BF752A408D8806EA05159B
:102CB0002A434FF6FF352B404FF2FF752B408D898D
:102CC00006EA85052B43CD8906EA85052B438380DB
:102CD0000483CD880587028470BD0000002C01406C
:102CE000003401400A460021018C4FF6DF73194081
:102CF0004FF6FF7303EA02131943018470470A4633
:102D00000021018B4FF2FF7319404FF6FF7303EA66
:102D1000022319430183704770B500240022002369
:102D2000058C4FF6FF6635400584028C8388848BC2
:102D30004FF68F752C404FF6FC752C400D882C43B8
:102D40004FF6FF552A400D894FF6FF7606EA052516
:102D50002A434D8806EA05252A43154DA84202D08C
:102D6000144DA8421DD14FF2FF752A404D894FF6F0
:102D7000FF7606EA05252A434FF6FF352A408D885F
:102D800006EA05252A434EF6FF752B404DF6FF75E2
:102D90002B408D8906EA05152B43CD8906EA0515DA
:102DA0002B4383808483CD888587028470BD000097
:102DB000002C0140003401400A460021818B4FF66F
:102DC000F7731940114381837047000070B50022EA
:102DD00000230024058C4EF6FF7635400584038CD5
:102DE0008488828B48F6FF752A404FF6FF452A40BB
:102DF0000D884FF6FF7606EA05252A434DF6FF7546
:102E00002B400D8906EA05352B434D8806EA05352A
:102E10002B430B4DA84202D00A4DA84208D14BF6D5
:102E2000FF752C408D894FF6FF7606EA85152C43F9
:102E300084808283CD88A0F84050038470BD000058
:102E4000002C0140003401400A460021818B4FF2E2
:102E5000FF7319404FF6FF7303EA0223194381837E
:102E60007047818670470187704781877047A0F857
:102E70004010704781847047028B4FF6F3731A40FD
:102E80000283028B0A4302837047028B4FF2FF33A7
:102E90001A400283028B4FF6FF7303EA01231A43A1
:102EA00002837047828B4FF6F3731A408283828BC2
:102EB0000A4382837047828B4FF2FF331A4082832A
:102EC000828B4FF6FF7303EA01231A438283704714
:102ED000002202881D4B98420ED01D4B98420BD009
:102EE000B0F1804F08D01B4B984205D01A4B984246
:102EF00002D01A4B984204D14FF68F731A404B8878
:102F00001A43174B984207D0164B984204D04FF6FD
:102F1000FF431A40CB881A4302808B8883850B8835
:102F200003850A4B98420BD0094B984208D00E4BB0
:102F3000984205D00D4B984202D00D4B984201D1DA
:102F40000B7A03860123838270470000002C014026
:102F5000003401400004004000080040000C004024
:102F600000100040001400400040014000440140B7
:102F7000004801407FB505460C4601210420FFF7BB
:102F8000FDF9ADF80850ADF804400020ADF80A0096
:102F9000ADF8060001A90D48FFF79AFF0122412173
:102FA0000A48FFF7EDFD1E208DF8000003208DF884
:102FB00001008DF8020001208DF803006846FEF73D
:102FC00095FD01210148FFF764FD7FBD0008004029
:102FD00010B50D48007800F04000A0B10A48007814
:102FE00020F0400008490870FFF738FB58B1074847
:102FF0004078A12801D100F00BF804484078A228BD
:1030000001D100F0B9F810BD4100002048050020B2
:1030100070B5002450488478200204B24E48C0782D
:10302000044304F4004020B1C4F30E00404204B253
:1030300001E0C4F30E04204603F038FE054647497C
:1030400003F022FD46490860002443480479200229
:1030500004B241484079044304F4004020B1C4F371
:103060000E00404204B201E0C4F30E04204603F017
:103070001DFE0546394903F007FD3A490860002462
:1030800035488479200204B23348C079044304F4FB
:10309000004020B1C4F30E00404204B201E0C4F38A
:1030A0000E04204603F002FE05462C4903F0ECFC1A
:1030B0002D49086000242848047A200204B22648DA
:1030C000407A044304F4004020B1C4F30E004042AF
:1030D00004B201E0C4F30E04204603F0E7FD054608
:1030E0001E4903F0D1FC2149086000241A48847A63
:1030F000200204B21848C07A044304F4004020B10E
:10310000C4F30E00404204B201E0C4F30E042046B2
:1031100003F0CCFD0546114903F0B6FC14490860E4
:1031200000240D48047B200204B20B48407B04437A
:1031300004F4004020B1C4F30E00404204B201E0A8
:10314000C4F30E04204603F0B1FD0546034903F025
:10315000C5FD0849086070BD4805002000002041F9
:1031600044000020480000204C00002050000020B7
:1031700054000020580000202DE9FC5F4FF0000AA9
:103180009E4890F802A04FEA0A200FFA80FA9B4866
:10319000C07840EA0A0A0AF4004028B1CAF30E00D7
:1031A00040420FFA80FA01E0CAF30E0A504603F0DB
:1031B00044F90022924BCDE9000103F0E1FA804688
:1031C00003F00CF94FEA400B584603F036F9064677
:1031D00000228B4B02F0AAFF044603F0FFF800B276
:1031E000884908804FF0000A844890F804A04FEA0C
:1031F0000A200FFA80FA8148407940EA0A0A0AF464
:10320000004028B1CAF30E0040420FFA80FA01E0F4
:10321000CAF30E0A504603F010F906460022784B16
:1032200003F0AEFA044603F0D9F84FEA400B5846D3
:1032300003F003F90022724BCDE9000102F076FFA2
:10324000804603F0CBF800B26F4908804FF0000AC7
:103250006A4890F806A04FEA0A200FFA80FA6748F9
:10326000C07940EA0A0A0AF4004028B1CAF30E0005
:1032700040420FFA80FA01E0CAF30E0A504603F00A
:10328000DCF8804600225E4B03F07AFA064603F033
:10329000A5F84FEA400B584603F0CFF80446002249
:1032A000574B02F043FFCDE9000103F097F800B25D
:1032B000564908804FF0000A504890F808A04FEA9D
:1032C0000A200FFA80FA4D48407A40EA0A0A0AF4C6
:1032D000004028B1CAF30E0040420FFA80FA01E024
:1032E000CAF30E0A4A48A0F800A04FF0000A43486B
:1032F00090F80AA04FEA0A200FFA80FA3F48C07AF5
:1033000040EA0A0A0AF4004028B1CAF30E0040421B
:103310000FFA80FA01E0CAF30E0A3E48A0F800A0B6
:103320004FF0000A354890F80CA04FEA0A200FFA37
:1033300080FA3248407B40EA0A0A0AF4004028B189
:10334000CAF30E0040420FFA80FA01E0CAF30E0AF7
:103350003148A0F800A04FF0000A284890F80EA0CD
:103360004FEA0A200FFA80FA2448C07B40EA0A0A92
:103370000AF4004028B1CAF30E0040420FFA80FA66
:1033800001E0CAF30E0A2548A0F800A04FF0000A99
:103390001A4890F810A04FEA0A200FFA80FA17484E
:1033A000407C40EA0A0A0AF4004028B1CAF30E0041
:1033B00040420FFA80FA01E0CAF30E0A1848A0F85A
:1033C00000A04FF0000A0D4890F812A04FEA0A2022
:1033D0000FFA80FA0948C07C40EA0A0A0AF4004061
:1033E00028B1CAF30E0040420FFA80FA01E0CAF396
:1033F0000E0A0C48A0F800A0BDE8FC9F480500207C
:103400000000E0405C0000205E0000206000002022
:103410006200002064000020660000206800002098
:103420006A0000206C00002010B540F225511D48B4
:1034300000F0C7F810B31B4800F07EF9C4B21A4878
:10344000008800F40040C8B91748008800F48040A4
:1034500060B10A2C03D000201349088020E01248F4
:10346000008840F400401049088019E00D2C06D176
:103470000D48008840F480400B49088010E00A485D
:103480000088C0F30D0009490C5407480088401C0F
:103490000549088008460088C72801DD002008800B
:1034A00010BD0000003801402800002080040020EA
:1034B00010B540F22551304800F083F8002859D06B
:1034C0002D4800F039F9C4B2A52C0DD12B48007855
:1034D00040F080002949087029490878411C284A91
:1034E000117028490C5437E05A2C1CD1234800781D
:1034F00000F0800048B10020214908701F48007882
:1035000020F040001D49087006E01D490878411C64
:103510001B4A11701B490C541848007820F0800099
:103520001649087018E016490878411C144A1170B1
:1035300014490C541148007820F080000F4908709D
:103540001048007811460978884205D10B48007868
:1035500040F040000949087009480078642804D107
:1035600007480078401E0649087040F22551064879
:1035700000F00CF810BD00000044004041000020A5
:1035800040000020480500200038014010B500220E
:10359000002340F66A14A14200D100BF0A120124A0
:1035A0009440A3B2DC43048010BD21B1828942F46F
:1035B0000052828104E082894DF6FF731A408281B5
:1035C000704770B50246002400230025002040F615
:1035D0006A16B14200D100BFC1F3421501F01F03CA
:1035E000012606FA03F3012D02D19689334006E045
:1035F000022D02D1168A334001E0968A33400C1224
:10360000012606FA04F41688344013B10CB10120E7
:1036100000E0002070BDF0B5034600240026002520
:10362000002040F66A17B94200D100BF1846C1F326
:10363000421401F01F06012707FA06F5012C01D1FB
:103640000C3004E0022C01D1103000E014301AB12B
:1036500007682F43076002E00768AF430760F0BDCB
:103660002DE9F04786B005460E460024A24600BF6D
:10367000A1460027B08900B100BF2F462C8A4CF626
:10368000FF700440F08804432C82AC894EF6F3109E
:103690000440B08831890843718908430443AC81F0
:1036A000AC8A4FF6FF400440B0890443AC8201A8C5
:1036B000FEF784FE1F48874202D1DDF810A001E02A
:1036C000DDF80CA0A88900F4004040B10AEBCA0064
:1036D00000EB0A1031684900B0FBF1F807E00AEB93
:1036E000CA0000EB0A1031688900B0FBF1F86420D1
:1036F000B8FBF0F004012009642101FB1089A889BE
:1037000000F4004040B1322000EBC900B0FBF1F002
:1037100000F00700044308E0322000EB09106421A8
:10372000B0FBF1F000F00F0004432C8106B0BDE8BF
:10373000F08700000038014001468888C0F3080087
:10374000704700002DE9F04105460E461649B1F9D3
:103750000010164AB2F90020881A03F0A7FA0746AB
:10376000134801681348006803F084FB80463B4619
:10377000424631462846FEF791FB04460E48006853
:10378000001B0D4908600D48006820440B49086083
:103790000B480068001B0A4908600A48006820447A
:1037A00008490860BDE8F081640000207A04002028
:1037B0007004002048000020480400204C04002031
:1037C00050040020540400202DE9F04105460E4627
:1037D0001148B0F9000003F069FA07463B460F486C
:1037E000314602682846FEF76DFB04460C48006827
:1037F00020440B4908600B480068001B0949086019
:1038000009480068001B084908600848006820440F
:1038100006490860BDE8F081620000204C000020ED
:10382000480400204C0400205004002054040020D0
:1038300000BFFEE7490050EAC12018BF04204A0D2E
:1038400018BF40F0010040F2FF72B2EB515F08BFB9
:1038500040F00200012808BF0520704730380A28D0
:1038600001D20120704700207047014600BF704719
:1038700010B520A0FCF708FD16E0002126480068DE
:1038800003F0C4F90BD100212448006803F0BEF90D
:1038900005D100212248006803F0B8F900D004E007
:1038A000FFF796FBFEF746F8E7E700BF1B48006806
:1038B0001C4908601A4800681B49086016480068DF
:1038C0001A4908601A4800681A4908601A48B0F98D
:1038D00000001A4908801A48B0F900001949088008
:1038E0001948B0F900001949088019A0FCF7CCFC70
:1038F00010BD0000D5FDD4DAB3F5CABCBBAF4D5046
:103900005536303530A3ACC7EBB5C8B4FD2E2E2EDE
:103910002E2E2E0D0A00000044000020480000203A
:103920004C00002070040020740400206C0400206F
:10393000700000206804002062000020780400204D
:10394000640000207A040020660000207C0400202F
:103950004D505536303530B3F5CABCBBAFCDEAB1AA
:10396000CFA3A1A3A1A3A10D0A00000010B56FF081
:103970000400FEF79BFE0A4800680A49B0FBF1F01C
:10398000094908700846007800EB4001C1EBC010FF
:103990004FF6FF7101EAC0000449088010BD000025
:1039A0000C00002000127A002000002022000020DD
:1039B0000146114A12884A434FF0E0235A6100221F
:1039C0009A611A46126942F001021A6100BF4FF073
:1039D000E022106900F001021AB100F48032002ADE
:1039E000F5D04FF0E022126922F001024FF0E023FF
:1039F0001A6100229A617047220000200146114A94
:103A000012784A434FF0E0235A6100229A611A4625
:103A1000126942F001021A6100BF4FF0E022106902
:103A200000F001021AB100F48032002AF5D04FF004
:103A3000E022126922F001024FF0E0231A61002215
:103A40009A6170472000002000BF054A128802F0EA
:103A50004002002AF9D0C2B2014B1B1D1A807047E8
:103A6000003801400149086070470000AC050020A3
:103A70000149086070470000EC050020014908601A
:103A800070470000080600200149086070470000E8
:103A9000D00500202DE9F0410749886902F05AFF5E
:103AA00006460022054B02F08DFA044602F058FA51
:103AB00001498861BDE8F081AC0500200000F03FBD
:103AC0002DE9F0410749886902F044FF06460022CB
:103AD000054B02F055FE044602F042FA01498861A6
:103AE000BDE8F081AC0500200000F03F2DE9F04179
:103AF0000749886902F02EFF0646064A064B02F087
:103B000061FA044602F02CFA01498861BDE8F081AF
:103B1000AC0500207B14AE47E17A843F2DE9F041EB
:103B20000749886902F016FF0646064A064B02F06E
:103B300027FE044602F014FA01498861BDE8F081CD
:103B4000AC0500207B14AE47E17A843F2DE9F041BB
:103B50000749486902F0FEFE06460022054B02F0C6
:103B600031FA044602F0FCF901494861BDE8F081F0
:103B7000AC0500200000F03F2DE9F04107494869FD
:103B800002F0E8FE06460022054B02F0F9FD04466D
:103B900002F0E6F901494861BDE8F081AC0500207A
:103BA0000000F03F2DE9F0410749486902F0D2FEDC
:103BB0000646064A064B02F005FA044602F0D0F922
:103BC00001494861BDE8F081AC0500207B14AE4797
:103BD000E17A843F2DE9F0410749486902F0BAFED5
:103BE0000646064A064B02F0CBFD044602F0B8F941
:103BF00001494861BDE8F081AC0500207B14AE4767
:103C0000E17A843F2DE9F0410749086902F0A2FEFC
:103C100006460022054B02F0D5F9044602F0A0F951
:103C200001490861BDE8F081AC0500200000F03FCB
:103C30002DE9F0410749086902F08CFE0646002292
:103C4000054B02F09DFD044602F08AF90149086126
:103C5000BDE8F081AC0500200000F03F2DE9F04107
:103C60000749086902F076FE0646064A064B02F04E
:103C7000A9F9044602F074F901490861BDE8F08130
:103C8000AC0500207B14AE47E17A843F2DE9F0417A
:103C90000749086902F05EFE0646064A064B02F036
:103CA0006FFD044602F05CF901490861BDE8F0814E
:103CB000AC0500207B14AE47E17A843F10B5044682
:103CC00004F17800A02804DC642802DB0C490860B9
:103CD0000EE004F17800A02803DBA020084908606A
:103CE00006E004F17800642802DC642004490860DE
:103CF0000348008881B20348FFF7B7F810BD000001
:103D000050040020000400401FB54FF0000A4FF49B
:103D1000A060FDF723FFFFF729FE4FF4E13000F02C
:103D200047FE4FF4E13000F0F1FD4FF47A70FFF7F9
:103D30003FFE4FF47A70FFF73BFE4FF47A70FFF7C7
:103D400037FE4FF47A70FFF733FE4FF47A70FFF7C7
:103D50002FFE77A0FCF798FA40F2CF2140F2CF7007
:103D6000FEF7C4F847214FF6FF70FDF793FC794842
:103D700000687949B0FBF1F0C4B278484168204648
:103D8000884777A0FCF780FAFDF774FEFDF720FE68
:103D9000FDF77AFFFEF738F979A0FCF775FA7DA0F8
:103DA000FCF772FA7F49086802F0D4FD0446224607
:103DB0000B467DA0FCF768FA8049086802F0CAFD4E
:103DC00004460D467E49086802F0C4FD06460F46CB
:103DD0007C49086802F0BEFD804642460B467AA048
:103DE000CDE90067CDE90245FCF74EFA81A0FCF76A
:103DF0004BFA88A0FCF748FA94A0FCF745FA9EA07D
:103E0000FCF742FA03E0A648006800B100E0FAE7D8
:103E100000BF8CE0A34800680028FAD0FFF7D8F86C
:103E2000FDF788FDA048006810B1FDF787FB17E09B
:103E30009E48008881B29E48FFF713F89D4800888D
:103E400081B29B48FFF70FF89B48008881B29848E1
:103E5000FFF70BF89948008881B29548FFF707F8FB
:103E6000BAF1640F61DD9648006802F073FD044604
:103E700022460B4693A0FCF707FA9548006802F02B
:103E800069FD044622460B4692A0FCF7FDF99548D1
:103E9000006802F05FFD044622460B4692A0FCF744
:103EA000F3F99548006802F055FD044622460B469A
:103EB00092A0FCF7E9F99548B0F9001094A0FCF73E
:103EC000E3F99548B0F9001094A0FCF7DDF99548A6
:103ED000B0F9001094A0FCF7D7F99548016895A0B7
:103EE000FCF7D2F99748016897A0FCF7CDF99A48FA
:103EF00001689AA0FCF7C8F99C4801689CA0FCF7EF
:103F0000C3F99F48006808B9012000E000209C49DF
:103F100008609C48D0F8B40108B9012000E00020F6
:103F20009749091D08604FF0000A0AF1010A71E77C
:103F3000B7C9BFD8CFB5CDB3B3F5CABCBBAF2E2E72
:103F40002E2E2E2E2E2E2E2E2E3131312E2E2E0DA9
:103F50000A0000000C00002040420F005403002023
:103F600075736D617274D7E9BCFEB3F5CABCBBAFA3
:103F7000CDEAB1CFA3A1A3A1A3A10D0A0000000027
:103F8000B5E7B5F7D2D1BDE2CBF8A3A10D0A0D0A72
:103F90000D0A0000B3F5CABCBBAFCDEAB1CF210D0D
:103FA0000A000000AC050020B3F5CABCB8DFB6C8F3
:103FB000CEAAA3BA25660D0A00000000080600205C
:103FC000EC050020D0050020B3F5CABCD7CBCCACA3
:103FD000207961773A25302E3266207069746368E3
:103FE0003A25302E326620726F6C6C3A25302E32B4
:103FF000660D0A00C7EBCAE4C8EB20537461727403
:10400000282920BDE2B3FDB7C9D0D0C6F7CBF8B69A
:10401000A80D0A00C7EBCAE4C8EB205377697463A4
:10402000685F4175746F5F6F725F4D616E75616C33
:10403000282920BDF8C8EB504944D7D4B6AFBFD823
:10404000D6C6C4A3CABD0D0A00000000C7EBCAE46F
:10405000C8EB2068656C7020BDF8C8EB75736D61A6
:104060007274B0EFD6FABDE7C3E6B2E9D1AFD6B805
:10407000C1EE0D0A00000000C7EBCAE4C8EB2050F7
:1040800072696E745F504944282920B9DBB2ECB2E2
:10409000CECAFDC9E8D6C3C7E9BFF60D0A000000C5
:1040A0000400002008000020000000205804002028
:1040B000000400405C040020600400206404002030
:1040C000440000207961773A25302E32660D0A00CF
:1040D0004800002070697463683A25302E32660DFE
:1040E0000A0000004C000020726F6C6C3A25302EE4
:1040F00032660D0A000000007000002068696768E1
:104100003A25302E32660D0A0000000062000020C1
:1041100067783A25640D0A006400002067793A2523
:10412000640D0A0066000020677A3A25640D0A00D3
:104130004804002066726F6E745F76616C3A256485
:104140000D0A00004C040020726561745F76616C9A
:104150003A25640D0A000000540400207269676863
:10416000745F76616C3A25640D0A000050040020EB
:104170006C6566745F76616C3A25640D0A00000018
:10418000B0812142008021422DE9F04107490869B0
:1041900002F0E0FB06460022054B01F013FF044647
:1041A00001F0DEFE01490861BDE8F081EC05002068
:1041B0000000F03F2DE9F0410749086902F0CAFB11
:1041C00006460022054B02F0DBFA044601F0C8FE69
:1041D00001490861BDE8F081EC0500200000F03FD6
:1041E0002DE9F0410749086902F0B4FB0646064A8A
:1041F000064B01F0E7FE044601F0B2FE01490861FA
:10420000BDE8F081EC0500207B14AE47E17A843FE5
:104210002DE9F0410749086902F09CFB0646064A71
:10422000064B02F0ADFA044601F09AFE014908611E
:10423000BDE8F081EC0500207B14AE47E17A843FB5
:104240002DE9F0410749C86802F084FB06460022C8
:10425000054B01F0B7FE044601F082FE0149C8603B
:10426000BDE8F081EC0500200000F03F2DE9F041B1
:104270000749C86802F06EFB06460022054B02F0B3
:104280007FFA044601F06CFE0149C860BDE8F08188
:10429000EC0500200000F03F2DE9F0410749C86817
:1042A00002F058FB0646064A064B01F08BFE044618
:1042B00001F056FE0149C860BDE8F081EC05002020
:1042C0007B14AE47E17A843F2DE9F0410749C86885
:1042D00002F040FB0646064A064B02F051FA04463D
:1042E00001F03EFE0149C860BDE8F081EC05002008
:1042F0007B14AE47E17A843F2DE9F04107494869D4
:1043000002F028FB06460022054B01F05BFE044646
:1043100001F026FE01494861BDE8F0812406002035
:104320000000F03F2DE9F0410749486902F012FB17
:1043300006460022054B02F023FA044601F010FE67
:1043400001494861BDE8F081240600200000F03FEB
:104350002DE9F0410749486902F0FCFA0646064A91
:10436000064B01F02FFE044601F0FAFD01494861B9
:10437000BDE8F081240600207B14AE47E17A843F3B
:104380002DE9F0410749486902F0E4FA0646064A79
:10439000064B02F0F5F9044601F0E2FD01494861DF
:1043A000BDE8F081240600207B14AE47E17A843F0B
:1043B0002DE9F0410749086902F0CCFA06460022CF
:1043C000054B01F0FFFD044601F0CAFD01490861FB
:1043D000BDE8F081240600200000F03F2DE9F04107
:1043E0000749086902F0B6FA06460022054B02F0BA
:1043F000C7F9044601F0B4FD01490861BDE8F08148
:10440000240600200000F03F2DE9F041074908692B
:1044100002F0A0FA0646064A064B01F0D3FD044618
:1044200001F09EFD01490861BDE8F08124060020ED
:104430007B14AE47E17A843F2DE9F04107490869D2
:1044400002F088FA0646064A064B02F099F904463D
:1044500001F086FD01490861BDE8F08124060020D5
:104460007B14AE47E17A843F2DE9F0410749C868E3
:1044700002F070FA06460022054B01F0A3FD044647
:1044800001F06EFD0149C860BDE8F08124060020FE
:104490000000F03F2DE9F0410749C86802F05AFAE0
:1044A00006460022054B02F06BF9044601F058FD68
:1044B0000149C860BDE8F081240600200000F03FFB
:1044C0002DE9F0410749C86802F044FA0646064A59
:1044D000064B01F077FD044601F042FD0149C8603A
:1044E000BDE8F081240600207B14AE47E17A843FCA
:1044F0002DE9F0410749C86802F02CFA0646064A41
:10450000064B01F05FFD044601F02AFD0149C86039
:10451000BDE8F081240600207B14AE47E17A843F99
:10452000014608687047000010B5044604F17800A1
:10453000A02804DC642802DB0C4908600EE004F1CA
:104540007800A02803DBA0200849086006E004F1F9
:104550007800642802DC642004490860034800886D
:1045600081B20348FEF783FC10BD00005404002014
:10457000000400402DE9F0410749086902F0EAF91A
:1045800006460022054B01F01DFD044601F0E8FC43
:1045900001490861BDE8F081080600200000F03FF5
:1045A0002DE9F0410749086902F0D4F906460022D6
:1045B000054B02F0E5F8044601F0D2FC0149086120
:1045C000BDE8F081080600200000F03F2DE9F04131
:1045D0000749086902F0BEF90646064A064B01F093
:1045E000F1FC044601F0BCFC01490861BDE8F08122
:1045F000080600207B14AE47E17A843F2DE9F041A4
:104600000749086902F0A6F90646064A064B02F079
:10461000B7F8044601F0A4FC01490861BDE8F08147
:10462000080600207B14AE47E17A843F2DE9F04173
:104630000749C86802F08EF906460022054B01F0D2
:10464000C1FC044601F08CFC0149C860BDE8F08162
:10465000080600200000F03F2DE9F0410749C86836
:1046600002F078F906460022054B02F089F804466C
:1046700001F076FC0149C860BDE8F0810806002021
:104680000000F03F2DE9F0410749C86802F062F9E7
:104690000646064A064B01F095FC044601F060FC14
:1046A0000149C860BDE8F081080600207B14AE47D0
:1046B000E17A843F2DE9F0410749C86802F04AF9E0
:1046C0000646064A064B02F05BF8044601F048FC39
:1046D0000149C860BDE8F081080600207B14AE47A0
:1046E000E17A843F2DE9F0410749486902F032F947
:1046F00006460022054B01F065FC044601F030FC43
:1047000001494861BDE8F081480600200000F03F03
:104710002DE9F0410749486902F01CF906460022DC
:10472000054B02F02DF8044601F01AFC01494861DE
:10473000BDE8F081480600200000F03F2DE9F0417F
:104740000749486902F006F90646064A064B01F099
:1047500039FC044601F004FC01494861BDE8F081E0
:10476000480600207B14AE47E17A843F2DE9F041F2
:104770000749486902F0EEF80646064A064B01F082
:10478000FFFF044601F0ECFB01494861BDE8F08100
:10479000480600207B14AE47E17A843F2DE9F041C2
:1047A0000749086902F0D6F806460022054B01F0D9
:1047B00009FC044601F0D4FB01490861BDE8F08121
:1047C000480600200000F03F2DE9F0410749086944
:1047D00002F0C0F806460022054B01F0D1FF044666
:1047E00001F0BEFB01490861BDE8F08148060020E8
:1047F0000000F03F2DE9F0410749086902F0AAF8EE
:104800000646064A064B01F0DDFB044601F0A8FB14
:1048100001490861BDE8F081480600207B14AE47DD
:10482000E17A843F2DE9F0410749086902F092F8E6
:104830000646064A064B01F0A3FF044601F090FB32
:1048400001490861BDE8F081480600207B14AE47AD
:10485000E17A843F2DE9F0410749C86802F07AF80F
:1048600006460022054B01F0ADFB044601F078FB43
:104870000149C860BDE8F081480600200000F03F13
:104880002DE9F0410749C86802F064F806460022A5
:10489000054B01F075FF044601F062FB0149C86059
:1048A000BDE8F081480600200000F03F2DE9F0410E
:1048B0000749C86802F04EF80646064A064B01F062
:1048C00081FB044601F04CFB0149C860BDE8F08162
:1048D000480600207B14AE47E17A843F2DE9F04181
:1048E0000749C86802F036F80646064A064B01F04A
:1048F00069FB044601F034FB0149C860BDE8F08162
:10490000480600207B14AE47E17A843F10B586B09C
:10491000044601210420FDF741FD01214804FDF773
:104920002DFD0420ADF8140018208DF81700032089
:104930008DF8160005A91C48FCF76CFF04208DF8C3
:1049400017000820ADF8140005A91748FCF762FF0E
:1049500001940020ADF80800ADF80A00ADF80C0095
:10496000ADF810000C20ADF80E0001A90F48FEF7BD
:1049700077FE01210D48FEF718FE012240F2255175
:104980000A48FEF748FE26208DF8000005208DF825
:1049900001008DF8020001208DF803006846FDF744
:1049A000A5F806B010BD000000080140004400401A
:1049B00010B586B00446012144F20400FDF7EEFC78
:1049C0004FF40070ADF8140003208DF81600182085
:1049D0008DF8170005A91C48FCF71CFF4FF48060F8
:1049E000ADF8140004208DF8170005A91648FCF74F
:1049F00011FF25208DF8000004208DF801008DF8AE
:104A0000020001208DF803006846FDF76FF801945D
:104A10000020ADF80800ADF80A00ADF80C00ADF8C4
:104A200010000C20ADF80E0001A90848FEF718FE92
:104A3000012240F225510548FEF7EDFD0121034812
:104A4000FEF7B3FD06B010BD00080140003801407C
:104A500030B595B0054613AB12AA09A9284600F057
:104A60003FFA044614B1204615B030BD0020149022
:104A700026E0224909689DF8502001EBC20113ABE2
:104A800011AA486801A900F02BFA04460CB120468F
:104A9000EAE709A901A800F0DDFC60B99DF844002F
:104AA0009DF84810884201DD0220DDE79DF85000A6
:104AB000124988750AE09DF85000401CC0B214905D
:104AC0000E48007D9DF850108842D2DC00BF0B4894
:104AD000007D9DF85010884201D10420C4E714A93C
:104AE000284600F0DDFA04460CB12046BCE79DF8EC
:104AF0005000024948750020B6E70000540300202A
:104B00002DE9F0419AB09C48847D007DA04202DCF2
:104B10001AB0BDE8F0819849096801EBC40106AB01
:104B200007AA486808A900F0DBF908A993A0FBF7D9
:104B3000ABFB002644E09048008B0121B1400840C7
:104B4000D8B122218FA0FBF79FFB304600F02EFB4F
:104B500089492431471839468BA0FBF795FB222160
:104B600088A0FBF791FB304600F020FB82492431FE
:104B7000084410A941F8260018E0304600F016FB62
:104B80007D492431085810A941F826007A48C07D93
:104B900030B910A850F826107CA0FBF775FB05E093
:104BA00010A850F826107AA0FBF76EFB9DF81C00A9
:104BB000401EB04202D078A0FBF766FB701CC6B264
:104BC0009DF81C008642B6DB74A0FBF75DFB00F08D
:104BD0003DFB6948407D0B280DD2DFE800F0060D53
:104BE000151E27323F4E5F7287006349096851F8EE
:104BF00034008047054690E05F4A126852F834104E
:104C000010988847054688E05B4B1B6853F83420B2
:104C1000DDE91001904705467FE0574F3F6857F8A0
:104C2000343010A807C89847054676E0DFF848C139
:104C3000DCF800C05CF8347010A80FC8B84705460F
:104C40006BE01498DFF830C10090DCF800C05CF82D
:104C5000347010A80FC8B84705465EE0DDE91401BE
:104C6000DFF814C1CDE90001DCF800C05CF8347055
:104C700010A80FC8B84705464FE0DDE91412169892
:104C8000DFF8F4C0CDE900120290DCF800C05CF857
:104C9000347010A80FC8B84705463EE0DDE914237C
:104CA000DDE91610DFF8D0C0CDE90023CDE9021010
:104CB000DCF800C05CF8347010A80FC8B84705468F
:104CC0002BE0DDE91523DDE91710CDE90123CDE95E
:104CD00003101498DFF8A0C00090DCF800C05CF866
:104CE000347010A80FC8B847054616E0DDE9162352
:104CF000DDE91810CDE90223CDE90410DDE9140146
:104D0000DFF874C0CDE90001DCF800C05CF8347055
:104D100010A80FC8B847054600BF00BF00F056FAFC
:104D20009DF8180001280CD11348C07D20B92946F0
:104D30001BA0FBF7A9FA07E029461BA0FBF7A4FA82
:104D400002E018A0FBF7A0FA0B4890F8EC0088B13D
:104D50000948D0F8F0000A21B0FBF1F201FB12077C
:104D60000548D0F8F000B0FBF1F83A46414611A0F2
:104D7000FBF78AFA00BFCBE6540300200D0A257327
:104D8000280000002563000025730000256C6400E6
:104D900030582558000000002C00000029000000B9
:104DA0003D256C753B0D0A003D305825583B0D0ADA
:104DB0000000000046756E6374696F6E2052756E58
:104DC0002054696D653A25642E2531646D730D0A92
:104DD00000000000F0B50346154600200022002622
:104DE00000245BE01F782C2F01D104B901221F7829
:104DF000292F01D01F780FB904B950E0002E3AD105
:104E00001F78302F02DB1F78392F17DD1F782D2FE9
:104E100014D01F782B2F11D01F78612F02DB1F7841
:104E2000662F0BDD1F78412F02DB1F78462F05DD33
:104E30001F78582F02D01F78782F0CD102B12EE0A6
:104E40001F78612F03DB1F78203F0F7001E01F7870
:104E50000F70491C1FE01F78222F04D102B11EE001
:104E60000126012417E01F78202F14D01F782C2F43
:104E700011D0FF2613E01F78222F00D1002402B1A9
:104E80000DE044B11F785C2F02D15B1C471CF8B2C7
:104E90001F780F70491C471CF8B25B1CA2E700BFCB
:104EA00000270F702E70F0BD10B504460020107062
:104EB0000BE020780870641C491C1078401C1070AE
:104EC0001078984201DB012010BD2078202802D004
:104ED00020780028EDD10020087000BFF4E7000022
:104EE0002DE9FF4F85B080468946002700200490B9
:104EF0000390012002904FF0000B002544461DE076
:104F00002078202816D005F07F00052812DA0DB988
:104F100045F0800505F07F00042803D120782A2879
:104F200000D00EE0207805F07F010DF80100681C2C
:104F3000C5B202E0852D00D103E0641C2078002872
:104F4000DED100BF8DB1002005F07F010DF801001A
:104F500051A1684600F07EFA18B900210898017046
:104F600002E001210898017000254FF0000A444634
:104F700014E0641C0AF1010000F0FF0A20782028E8
:104F800002D020782A2809D1204600F0D5F906461B
:104F9000282E03D02A2E01D0CDF810A02078282862
:104FA00002D020780028E4D14446049810B1049837
:104FB000401C04444FF0000A002654E0207810B949
:104FC0004FF0010A50E02078282803D116B9781C48
:104FD000C7B213E02078292808D13EB917B1781E4E
:104FE000C7B201E04FF0010A47B93DE0207822281E
:104FF00004D10EB9012000E00020064647B9207810
:1050000020282FD0207889F8000009F1010929E033
:1050100020782C2804D101200290681CC5B214E02D
:105020002078202811D0207828280ED04DB9BBF147
:10503000050F06DA20780DF80B000BF1010000F0E7
:10504000FF0B0298401CC0B20290012F0AD10298B7
:10505000022807D10298401CC0B202900398401C5D
:10506000C0B20390641CA9E700BF0398012809D1CE
:1050700000200DF80B0008A1684600F0EBF908B914
:1050800000200390079903980870002089F8000019
:10509000504609B0BDE8F08F766F696400000000EB
:1050A0002DE9F043B5B005460F460024002604E084
:1050B00000213D488155701CC6B20A2EF8DB06E07F
:1050C0006D1C287818B9012035B0BDE8F083287828
:1050D0002828F5D16D1C61E034AA69462846FFF7FF
:1050E00079FE064635449DF8D00020B1012827D02E
:1050F000FF284CD149E09DF8000000B333A9684671
:1051000000F025F906460EB10220DDE7204600F04A
:105110004DF825490A31339A0A50A1F12400008B39
:105120000121A140884320491A39088304211E48DF
:105130000155601CC4B20A2C01DD0320C4E726E03F
:10514000684600F0A3F9401C00F0FF08204600F07C
:105150002DF815490A3100EB01094946684600F06F
:105160008AF911481A38018B0120A040014388B206
:105170000D491A3908830C4800F80480601CC4B239
:105180000A2C01DD03209FE701E002209CE700BF1D
:105190002878292801D0287800B900E09CE700BFD2
:1051A0003C70002090E700006E03002002460020C3
:1051B000002105E0044B5B5C0344D8B24B1CD9B220
:1051C0009142F7DB704700006E0300200D48008815
:1051D00000F0010040B10C48D0F8F0004FF6FF712C
:1051E00008440949C1F8F0000748D0F8F000054923
:1051F0001431098808440449C1F8F0000846D0F881
:10520000F0007047100800405403002010B5044619
:1052100004EBC40000EB04100122C2EB800081B259
:105220004FF47A70FDF7A6FE01200149C87510BD44
:105230005403002010B50246012000E050430B004B
:10524000A1F10104E1B2F9D110BD000009480088C4
:1052500020F00100074908804FF6FF7005491C3116
:10526000088000200349143108800349C1F8F00088
:1052700070470000100800405403002070B51D481E
:10528000008800F40040002833D01A480578002038
:1052900019494855194881681748884704461CB978
:1052A0001649C868804721E0134800F0FBF805461E
:1052B000012D00D02C46CCB1012C06D0022C08D0F8
:1052C000032C0AD0042C10D10BE00DA0FAF7DCFF60
:1052D0000BE00EA0FAF7D8FF07E00FA0FAF7D4FF13
:1052E00003E010A0FAF7D0FF00BF00BF0020014983
:1052F000088070BD28000020800400205403002096
:10530000BAAFCAFDB4EDCEF3210D0A00B2CECAFD8C
:10531000B4EDCEF3210D0A00B2CECAFDCCABB6E09F
:10532000210D0A00CEB4D5D2B5BDC6A5C5E4B5C41D
:10533000BAAFCAFD210D0A000146491C00E0491C14
:105340000878202801D10029F9D1087870472DE983
:10535000F04F05460F4600264FF00A09B3462C468B
:105360000020386034E02078392802DC20783028AA
:1053700011DA28782D2802D028782B2800D156B1B0
:105380002078462802DC2078412804DA2078582842
:1053900017D1012E15D12078412801DB4FF01009DB
:1053A00028782D2803D14FF0020B6D1C0FE02878D0
:1053B0002B2803D14FF0010B6D1C08E0701CC6B206
:1053C00005E0207800B904E00120BDE8F08F641CFE
:1053D000C9E700BF2C46B9F1100F0FD1032E01DA37
:1053E0000220F2E72078302806D16078582803D1CF
:1053F000A41CB01EC6B204E00320E6E70EB90420E8
:10540000E3E71BE00EB1701EC6B22078392806DC37
:105410002078302803DB2078A0F1300A02E02078E1
:10542000A0F1370A31464846FFF704FF39680AFB06
:1054300000103860641C207800B900E0E2E700BF8B
:10544000BBF1020F04D13868C0F10008C7F8008032
:105450000020BAE702460AE010780B78984201D0A3
:1054600001207047107800B902E0521C491CF3E794
:1054700000BF0020F5E706E002780A70027802B962
:1054800002E0401C491CF7E700BF704701460020BE
:1054900005E00A7802B903E0421CD0B2491CF8E7E3
:1054A00000BF704710B58CB004461E230BAA03A999
:1054B0002046FFF7F9FC0090009810B101200CB0D5
:1054C00010BD9DF82C00044400200B900EE04048D5
:1054D0009DF82C2050F8221003A8FFF7BBFF00B95D
:1054E00008E09DF82C00401CC0B20B909DF82C00E9
:1054F0000728ECD300BF9DF82C00072863D2DFE813
:1055000000F004053C5E6564630000BF31A0FAF75B
:10551000BBFE31A0FAF7B8FE3FA0FAF7B5FE4EA0E9
:10552000FAF7B2FE5CA0FAF7AFFE6BA0FAF7ACFE9A
:1055300079A0FAF7A9FE87A0FAF7A6FE8CA0FAF7E1
:10554000A3FE94A0FAF7A0FE98A0FAF79DFE9DA0F6
:10555000FAF79AFEA2A0FAF797FEA8A0FAF794FE2F
:10556000B4A0FAF791FEC1A0FAF78EFECCA0FAF72C
:105570008BFED8A0FAF788FEA2E216A0FAF784FE06
:10558000E4A0FAF781FE00200B900EE0F1480068DD
:105590009DF82C2000EBC2004168EFA0FAF774FEE2
:1055A0009DF82C00401CC0B20B90EA48007D9DF88D
:1055B0002C108842EADC07A0FAF766FE80E205A01C
:1055C000FAF762FECCE179E24DE221E2F4E100007B
:1055D000780000200D0A00002D2D2D2D2D2D2D2DB4
:1055E0002D2D2D2D2D2D2D2D2D2D2D2D2D2D2D2DEB
:1055F00055534D4152542056332E322D2D2D2D2DE5
:105600002D2D2D2D2D2D2D2D2D2D2D2D2D2D2D2DCA
:105610002D2D2D200D0A00002020202055534D4116
:105620005254CAC7D3C9414C49454E54454BBFAAF1
:10563000B7A2B5C4D2BBB8F6C1E9C7C9B5C4B4AE48
:10564000BFDAB5F7CAD4BBA5BDBBD7E9BCFE2CCD2C
:10565000A8B9FD200D0A0000CBFC2CC4E3BFC9D2C1
:10566000D4CDA8B9FDB4AEBFDAD6FACAD6B5F7D351
:10567000C3B3CCD0F2C0EFC3E6B5C4C8CEBACEBA7D
:10568000AFCAFD2CB2A2D6B4D0D02ED2F2B4CB2C5D
:10569000C4E3BFC90D0A0000D2D4CBE6D2E2B8FC05
:1056A000B8C4BAAFCAFDB5C4CAE4C8EBB2CECAFD2D
:1056B00028D6A7B3D6CAFDD7D62831302F3136BD6C
:1056C000F8D6C62CD6A7B3D6B8BACAFD29A1A2D798
:1056D000D6B7FBB4AE0D0A00A1A2BAAFCAFDC8EBA3
:1056E000BFDAB5D8D6B7B5C8D7F7CEAAB2CECAFDFD
:1056F000292CB5A5B8F6BAAFCAFDD7EEB6E0D6A745
:10570000B3D63130B8F6CAE4C8EBB2CECAFD2CB27B
:10571000A2D6A7B3D60D0A00BAAFCAFDB7B5BBD89B
:10572000D6B5CFD4CABE2ED6A7B3D6B2CECAFDCF79
:10573000D4CABEBDF8D6C6C9E8D6C3B9A6C4DC2C47
:10574000D6A7B3D6BDF8D6C6D7AABBBBB9A6C4DC0C
:105750002E0D0A00BCBCCAF5D6A7B3D63A77777728
:105760002E6F70656E6564762E636F6D0D0A000096
:1057700055534D415254D3D037B8F6CFB5CDB3C3FE
:10578000FCC1EE28B1D8D0EBD0A1D0B4293A0D0A93
:10579000000000003F3A202020202020BBF1C8A1BB
:1057A000B0EFD6FAD0C5CFA20D0A000068656C70C4
:1057B0003A202020BBF1C8A1B0EFD6FAD0C5CFA2C5
:1057C0000D0A00006C6973743A202020BFC9D3C34E
:1057D000B5C4BAAFCAFDC1D0B1ED0D0A0A000000D0
:1057E00069643A2020202020BFC9D3C3BAAFCAFDC4
:1057F000B5C44944C1D0B1ED0D0A0A006865783AD4
:1058000020202020B2CECAFD3136BDF8D6C6CFD476
:10581000CABE2CBAF3B8FABFD5B8F12BCAFDD7D699
:10582000BCB4D6B4D0D0BDF8D6C6D7AABBBB0D0A7F
:105830000A0000006465633A20202020B2CECAFD31
:105840003130BDF8D6C6CFD4CABE2CBAF3B8FABF31
:10585000D5B8F12BCAFDD7D6BCB4D6B4D0D0BDF8DC
:10586000D6C6D7AABBBB0D0A0A00000072756E74BB
:10587000696D653A312CBFAAC6F4BAAFCAFDD4CB64
:10588000D0D0BCC6CAB13B302CB9D8B1D5BAAFCA9A
:10589000FDD4CBD0D0BCC6CAB13B0D0A0A00000073
:1058A000C7EBB0B4D5D5B3CCD0F2B1E0D0B4B8F139
:1058B000CABDCAE4C8EBBAAFCAFDC3FBBCB0B2CE26
:1058C000CAFDB2A2D2D4BBD8B3B5BCFCBDE1CAF804
:1058D0002E0D0A002D2D2D2D2D2D2D2D2D2D2D2D67
:1058E0002D2D2D2D2D2D2D2D2D2D2D2D2D2D414CB5
:1058F00049454E54454B2D2D2D2D2D2D2D2D2D2D26
:105900002D2D2D2D2D2D2D2D2D2D2D2D2D2D2D20D4
:105910000D0A00002D2D2D2D2D2D2D2D2D2D2D2D54
:105920002D2D2D2D2D2D2D2D2D2D2D2D2DBAAFCAFB
:10593000FDC7E5B5A52D2D2D2D2D2D2D2D2D2D2D75
:105940002D2D2D2D2D2D2D2D2D2D2D2D2D2D2D2D87
:10595000200D0A005403002025730D0A00000000EA
:1059600059A0FAF791FC00200B901AE066490968EB
:105970009DF82C2001EBC20101AB02AA486803A9E3
:10598000FFF7AEFA604800689DF82C1050F83120FF
:1059900003A95EA0FAF778FC9DF82C00401CC0B269
:1059A0000B905948007D9DF82C108842DEDCAFF248
:1059B000DC30FAF769FC83E0AFF2E830FAF764FC18
:1059C0000BAA03A92046FFF705FA9DF82C00C8B9D9
:1059D000694603A8FFF7BBFC0B909DF82C0020B98B
:1059E0004FA00099FAF750FC0EE09DF82C00042817
:1059F00001D0022063E54DA0FAF746FC01204249A0
:105A0000C87501E002205AE547A0FAF73DFC57E0CF
:105A100045A0FAF739FC0BAA03A92046FFF7DAF9EB
:105A20009DF82C00C8B9694603A8FFF790FC0B90BD
:105A30009DF82C0020B942A00099FAF725FC0EE051
:105A40009DF82C00042801D0022038E53FA0FAF789
:105A50001BFC00202C49C87501E002202FE532A074
:105A6000FAF712FC2CE030A0FAF70EFC0BAA03A9FF
:105A70002046FFF7AFF99DF82C00C8B9694603A886
:105A8000FFF765FC0B909DF82C0078B91E49009833
:105A900081F8EC00084690F8EC0018B130A0FAF755
:105AA000F3FB07E035A0FAF7EFFB03E0022006E581
:105AB000022004E51CA0FAF7E7FB01E00120FEE468
:105AC00000BF0020FBE400002D2D2D2D2D2D2D2DB0
:105AD0002D2D2D2D2D2D2D2D2D2D2D2D2D2D2D2DF6
