:020000040800F2
:1000000028070020D5010008AD050008A505000857
:10001000A905000889040008930E000800000000EC
:1000200000000000000000000000000019070008A8
:100030008D04000800000000210600086508000883
:10004000EF010008EF010008EF010008EF010008D0
:10005000EF010008EF010008EF010008EF010008C0
:10006000EF010008EF010008EF010008EF010008B0
:10007000EF010008EF010008EF010008EF010008A0
:10008000EF010008EF010008EF010008EF01000890
:10009000EF010008EF010008EF010008EF01000880
:1000A000EF010008EF010008EF010008EF01000870
:1000B000EF010008EF010008EF010008EF01000860
:1000C000EF010008EF010008EF010008EF01000850
:1000D000EF010008050C0008EF010008EF0100081F
:1000E000EF010008EF010008EF010008EF01000830
:1000F000EF010008EF010008EF010008EF01000820
:10010000EF010008EF010008EF010008EF0100080F
:10011000EF010008EF010008EF010008EF010008FF
:10012000EF010008EF010008EF010008EF010008EF
:1001300000F002F800F03FF80AA090E8000C8244BA
:100140008344AAF10107DA4501D100F034F8AFF297
:10015000090EBAE80F0013F0010F18BFFB1A43F0A5
:1001600001031847EC1100000C120000103A24BFE4
:1001700078C878C1FAD8520724BF30C830C144BF0C
:1001800004680C607047000000230024002500264E
:10019000103A28BF78C1FBD8520728BF30C148BFEA
:1001A0000B607047642900F07780002070471FB50E
:1001B0001FBD10B510BD00F037F91146FFF7F7FF6E
:1001C00000F09CFE00F055F903B4FFF7F2FF03BC0A
:1001D00000F061FE0948804709480047FEE7FEE756
:1001E000FEE7FEE7FEE7FEE7FEE7FEE7FEE7FEE7E7
:1001F00004480549054A064B704700006908000895
:1002000031010008280100202807002028030020D1
:1002100028030020704700000FB4044910B503AA5A
:10022000029800F0D3F810BC5DF814FB1800002011
:100230002DE9F0410E460446002020622046E16888
:10024000884730B3252805D0D4E901219047206A9A
:10025000401CF2E7E168204600278847050018D0D7
:10026000A5F14100192802D820354FF40067324625
:10027000294620462760FFF795FF40B1012804D0AA
:10028000F61D26F007060836D8E7361DD6E72846BD
:10029000DAE7206ABDE8F0812DE9F0410646002446
:1002A00010687529314616A510D0AFF300800028DC
:1002B00002DA404213A507E031688A0701D512A58A
:1002C00002E0490704D511A5012401E0AFF3008045
:1002D00000210A2206F1240709E0B0FBF2FCB0FB82
:1002E000F2F302FB1C00303078541846491C0028F9
:1002F000F3D123462A463046BDE8F04100F00CB861
:10030000000000002D0000002B0000002000000075
:1003100070477047704770472DE9F0470D46994682
:100320009246044600F124080168880604D5E06975
:1003300021F01001216000E00120A84201DD471BEF
:1003400000E00027A1697A1902EB0900081AA061F0
:100350002078C00602D42046AFF30080002608E0D3
:10036000D4E901211AF806009047206A401C761C47
:1003700020624E45F4DB2078C0060AD52046AFF354
:10038000008006E0D4E9012130209047206A401C1B
:100390002062381EA7F10107F4DC07E0D4E901214F
:1003A00018F805009047206A401C2062281EA5F11D
:1003B0000105F3DC2046AFF300802078000602D56B
:1003C0000220BDE8F0870120FBE70000074B70B575
:1003D0000D467B4400F011F80446284600F020F852
:1003E00010B14FF0FF3070BD204670BD0B0B000008
:1003F00001694A1C02610878704700B58FB0CDE9E9
:1004000001310021059105497944CDE903101146D8
:100410006846FFF70DFF0FB000BD0000E5FFFFFFCE
:10042000007B00F080007047754600F029F8AE466A
:1004300005006946534620F00700854618B020B5F0
:10044000FFF7D6FEBDE820404FF000064FF0000752
:100450004FF000084FF0000B21F00701AC46ACE86C
:10046000C009ACE8C009ACE8C009ACE8C0098D46D9
:1004700070470446AFF300802046FFF7A5FE00005A
:1004800000487047C400002000BFFEE770472DE918
:10049000F04102460025002600200023002400270A
:1004A00091F803C00CF00F0591F803C00CF0100C8C
:1004B000BCF1000F03D091F802C04CEA050591F899
:1004C00000C0BCF1000F31D0146800202BE04FF0C9
:1004D000010C0CFA00F3B1F800C00CEA03069E42CE
:1004E00020D183004FF00F0C0CFA03F7BC4305FA40
:1004F00003FC4CEA040491F803C0BCF1280F06D1B8
:100500004FF0010C0CFA00FCC2F814C00AE091F89C
:1005100003C0BCF1480F05D14FF0010C0CFA00FCF0
:10052000C2F810C0401C0828D1D31460B1F800C034
:10053000BCF1FF0F34DD546800202EE000F1080C00
:100540004FF0010808FA0CF3B1F800C00CEA0306FA
:100550009E4221D183004FF00F0C0CFA03F7BC43ED
:1005600005FA03FC4CEA040491F803C0BCF1280F1F
:1005700005D100F1080C08FA0CF8C2F8148091F8C3
:1005800003C0BCF1480F07D100F1080C4FF001087F
:1005900008FA0CF8C2F81080401C0828CED354602A
:1005A000BDE8F08100BFFEE700BFFEE77047000036
:1005B00070B5002100230F22C47804B3154C2468C1
:1005C00004F4E064C4F5E064210AC1F10403CA4004
:1005D000447804FA03F184781440214309010E4C55
:1005E0000678A155047804F01F050124AC40057875
:1005F0006D11AD0005F1E025C5F8004109E0047872
:1006000004F01F050124AC40044D0678761145F82E
:10061000264070BD0CED00E000E400E080E100E069
:100620007047000029B1064A92690243044B9A615F
:1006300004E0034A92698243014B9A6170470000CB
:100640000010024030B500210022002400232D4D6F
:100650006D6805F00C0121B1042905D0082923D1CA
:1006600005E0294D056022E0274D05601FE0254D7E
:100670006D6805F47012234D6D6805F48034022511
:1006800005EB92421CB9214D554305600BE01D4D11
:100690006D6805F400351DB11C4D5543056002E041
:1006A000194D5543056002E0174D056000BF00BFBE
:1006B000144D6D6805F0F0010909154D6B5C056876
:1006C000DD4045600F4D6D6805F4E061090A104D8D
:1006D0006B5C4568DD4085600A4D6D6805F46051CE
:1006E000C90A0B4D6B5C4568DD40C560054D6D6802
:1006F00005F44041890B074D6B5CC568B5FBF3F50C
:10070000056130BD0010024000127A0000093D0072
:100710001E0000202E000020704710B500F002F8E7
:1007200010BD00000CB50020019000903348006817
:1007300040F480303149086000BF3048006800F460
:10074000003000900198401C0190009818B9019861
:10075000B0F5A06FF1D12948006800F4003010B165
:100760000120009001E0002000900098012843D172
:100770002348006840F010002149086008460068DE
:1007800020F0030008600846006840F0020008609E
:100790001A48406819494860084640684860084659
:1007A000406840F4806048600846406820F47C104F
:1007B00048600846406840F4E81048600846006811
:1007C00040F08070086000BF0C48006800F00070C6
:1007D0000028F9D00948406820F003000749486024
:1007E0000846406840F00200486000BF0348406887
:1007F00000F00C000828F9D10CBD000000100240E8
:100800000020024010B50022002104E00A48405CAC
:100810000244481CC1B208480078801E8842F5DCBA
:10082000D3B205480078801E034C205C834201D17E
:10083000012010BD0020FCE760000020042808D142
:100840004FF0E021096941F004014FF0E02211610D
:1008500007E04FF0E021096921F004014FF0E022A8
:10086000116170477047000010B51348006840F0F0
:1008700001001149086008464068104908400E49C7
:100880004860084600680E4908400B490860084661
:10089000006820F4802008600846406820F4FE00CC
:1008A00048604FF41F008860FFF737FF4FF000608B
:1008B0000449086010BD0000001002400000FFF86D
:1008C000FFFFF6FE08ED00E010B50D48007800F0DF
:1008D0004000A0B10A48007820F0400008490870A4
:1008E000FFF790FF58B107484078A12801D100F0E8
:1008F0000BF804484078A22801D100F0B9F810BDE7
:10090000350000206000002070B500245048847835
:10091000200204B24E48C078044304F4004020B1E1
:10092000C4F30E00404204B201E0C4F30E042046BA
:1009300000F02AFC0546474900F064FB4649086080
:10094000002443480479200204B24148407904431A
:1009500004F4004020B1C4F30E00404204B201E0B0
:10096000C4F30E04204600F00FFC0546394900F0A0
:1009700049FB3A490860002435488479200204B2D2
:100980003348C079044304F4004020B1C4F30E009E
:10099000404204B201E0C4F30E04204600F0F4FB30
:1009A00005462C4900F02EFB2D49086000242848FC
:1009B000047A200204B22648407A044304F400403A
:1009C00020B1C4F30E00404204B201E0C4F30E04AF
:1009D000204600F0D9FB05461E4900F013FB2149D3
:1009E000086000241A48847A200204B21848C07AA9
:1009F000044304F4004020B1C4F30E00404204B2AA
:100A000001E0C4F30E04204600F0BEFB0546114988
:100A100000F0F8FA1449086000240D48047B200215
:100A200004B20B48407B044304F4004020B1C4F3FB
:100A30000E00404204B201E0C4F30E04204600F070
:100A4000A3FB0546034900F0B7FB0849086070BDE9
:100A50006000002000002041480000204C000020E1
:100A60005000002054000020580000205C000020AE
:100A700000205A498878010208B25849C9780843C9
:100A800000F4004121B1C0F30E01494208B201E077
:100A9000C0F30E0052490880002050490879010235
:100AA00008B24E494979084300F4004121B1C0F32E
:100AB0000E01494208B201E0C0F30E004949088026
:100AC000002046498879010208B24449C97908439F
:100AD00000F4004121B1C0F30E01494208B201E027
:100AE000C0F30E004049088000203C49087A01020A
:100AF00008B23A49497A084300F4004121B1C0F3F1
:100B00000E01494208B201E0C0F30E0037490880E7
:100B100000203249887A010208B23049C97A084374
:100B200000F4004121B1C0F30E01494208B201E0D6
:100B3000C0F30E002E49088000202849087B0102DE
:100B400008B22649497B084300F4004121B1C0F3B3
:100B50000E01494208B201E0C0F30E0025490880A9
:100B600000201E49887B010208B21C49C97B08434A
:100B700000F4004121B1C0F30E01494208B201E086
:100B8000C0F30E001C49088000201449087C0102B3
:100B900008B21249497C084300F4004121B1C0F376
:100BA0000E01494208B201E0C0F30E00134908806B
:100BB00000200A49887C010208B20849C97C084320
:100BC00000F4004121B1C0F30E01494208B201E036
:100BD000C0F30E000A490880704700006000002042
:100BE00036000020380000203A0000203C000020A1
:100BF0003E00002040000020420000204400002071
:100C00004600002010B540F22551304800F081F830
:100C1000002859D02D4800F037F9C4B2A52C0DD1C9
:100C20002B48007840F0800029490870294908784D
:100C3000411C284A117028490C5437E05A2C1CD109
:100C40002348007800F0800048B100202149087056
:100C50001F48007820F040001D49087006E01D493B
:100C60000878411C1B4A11701B490C541848007825
:100C700020F080001649087018E016490878411CD9
:100C8000144A117014490C541148007820F0800067
:100C90000F4908701048007811460978884205D13C
:100CA0000B48007840F04000094908700948007876
:100CB000642804D107480078401E0649087040F2B5
:100CC0002551024800F00AF810BD0000003801402C
:100CD00035000020340000206000002010B5002204
:100CE000002340F66A14A14200D100BF0A12012479
:100CF0009440A3B2DC43048010BD21B1828942F448
:100D00000052828104E082894DF6FF731A4082818D
:100D1000704770B50246002400230025002040F6ED
:100D20006A16B14200D100BFC1F3421501F01F03A2
:100D3000012606FA03F3012D02D19689334006E01D
:100D4000022D02D1168A334001E0968A33400C12FC
:100D5000012606FA04F41688344013B10CB10120C0
:100D600000E0002070BDF0B50346002400260025F9
:100D7000002040F66A17B94200D100BF1846C1F3FF
:100D8000421401F01F06012707FA06F5012C01D1D4
:100D90000C3004E0022C01D1103000E014301AB104
:100DA00007682F43076002E00768AF430760F0BDA4
:100DB0002DE9F04786B005460E460024A24600BF46
:100DC000A1460027B08900B100BF2F462C8A4CF6FF
:100DD000FF700440F08804432C82AC894EF6F31077
:100DE0000440B08831890843718908430443AC81C9
:100DF000AC8A4FF6FF400440B0890443AC8201A89E
:100E0000FFF720FC1F48874202D1DDF810A001E067
:100E1000DDF80CA0A88900F4004040B10AEBCA003C
:100E200000EB0A1031684900B0FBF1F807E00AEB6B
:100E3000CA0000EB0A1031688900B0FBF1F86420A9
:100E4000B8FBF0F004012009642101FB1089A88996
:100E500000F4004040B1322000EBC900B0FBF1F0DB
:100E600000F00700044308E0322000EB0910642181
:100E7000B0FBF1F000F00F0004432C8106B0BDE898
:100E8000F08700000038014001468888C0F3080060
:100E9000704700BFFEE7014600BF704710B56FF016
:100EA0000400FFF7CBFC0A4800680A49B0FBF1F0E8
:100EB000094908700846007800EB4001C1EBC010FA
:100EC0004FF6FF7101EAC0000449088010BD000020
:100ED0000000002000127A001400002016000020FC
:100EE00000BF054A128802F04002002AF9D0C2B2BF
:100EF000014B1B1D1A80704700380140FFF7CEFFE1
:100F00004FF4E13000F02EF813E0FFF7DDFC094864
:100F1000B0F9001008A0FFF77FF90A48B0F90010F7
:100F200009A0FFF779F90B48B0F900100AA0FFF704
:100F300073F9EAE736000020090A61783D25640963
:100F40000A00000038000020090A61793D25640983
:100F50000A0000003A000020090A617A3D25640970
:100F60000A00000010B586B00446012144F20400D6
:100F7000FFF758FB4FF40070ADF8140003208DF814
:100F8000160018208DF8170005A91C48FFF77FFAF6
:100F90004FF48060ADF8140004208DF8170005A907
:100FA0001648FFF774FA25208DF8000003208DF80D
:100FB00001008DF8020001208DF803006846FFF75C
:100FC000F7FA01940020ADF80800ADF80A00ADF87A
:100FD0000C00ADF810000C20ADF80E0001A9084877
:100FE000FFF7E6FE012240F225510548FFF7BBFE60
:100FF00001210348FFF781FE06B010BD0008014043
:10100000003801404FF47F0C1CEAD0121EBF1CEACE
:10101000D11392EA0C0F93EA0C0F00F0858090EA4E
:10102000010F48BF42F4807240F4000C41F400000C
:101030002CF07F4120F07F4000B58142A2EB0302FB
:101040000FF2081CACEB504EC0F100009EF800E01F
:101050004FEA4E0E00FB0EFC38BF49004FEA2C1C35
:1010600002F5FA020CFB0EF34FEACE1E4FEA112CEA
:101070004FEAC1210EEB635E42EB22420EFB0CFCF9
:101080004FEA1C5300FB03114FEA112C4FEA0131C8
:101090000EFB0CFC4FEADC4C00FB0C11C14228BFDC
:1010A00009184CEB03335DF804EB10EB410143EB03
:1010B000C250B2F57C0F38BF704729D512F0F00F3F
:1010C0001CBF00F1C04000F00040704700818283E7
:1010D0008485868788898B8C8D8E8F919293959647
:1010E00097999A9C9D9FA0A2A3A5A7A8AAACAEB0D1
:1010F000B2B3B5B7B9BCBEC0C2C5C7C9CCCED1D4D6
:10110000D7D9DCDFE2E6E9ECF0F3F7FAFE00000005
:101110004FEA400C0CF1807CBCF17E4F28BF704739
:10112000B0F1C04000F00FB990EA010F0CEAD11302
:1011300048BF42F48072624538BF634507D213F45A
:101140007F0F16D080EA010000F00040704710B514
:1011500000F0B3F8097EFC3E00F005B880EA01001B
:1011600000F00040704780EA010000F0004000F00D
:10117000EAB812F47F0F04BF0248704780EA01000A
:1011800000F0E1B80000C07F10F0004148BF4042CD
:10119000B0FA80F310FA03F2C3F19D030BD051EAC9
:1011A000C35101EB1220530638BF704700F1010014
:1011B00008BF20F0010070474FF47F0C1CEAD012EA
:1011C0001EBF1CEAD11392EA0C0F93EA0C0F00F039
:1011D000478090EA010F48BF42F480724FF0004C04
:1011E0004CEA00204CEA012102EB0302A0FB0113B0
:1011F000A2F50002002918BF43F001035B0028BFDD
:101200004FEA330342EB22425FEA132C4CEBC2500D
:101210002EBFBCEB436FB2F57C0F70474FEA036CF7
:10122000BCF1004F08BF20F00100B2F57C0F38BFC1
:1012300070470BD582F0FF0212F5803FC8BF7047A0
:1012400000F1C040D8BF00F00040704700F5000C2E
:101250005FEA4C0C48BF7047B0F1C04000F073B873
:1012600090EA010F0CEAD11348BF42F48072624544
:1012700038BF634504D280EA010000F000407047A7
:1012800010B500F01AF800BF8900013E00F007B861
:1012900000F009B85FEA410C5FEA1C6C08D080EAF4
:1012A000010000F050B85FEA400C5FEA1C6CF6D118
:1012B0004FF00040A0F5800070470EF1020E2EF0B6
:1012C000030E5EF8044B244204D44FEA4102B2F10B
:1012D0007F4F11D84FEA4003B3F17F4F0CD80ED1A6
:1012E0004FEAD07CB2F17F4F0CEB4C0C0CF1020CAE
:1012F00008BF4CEBD17C04E04FF0080C01E04FEA52
:10130000D17C0CEB4C0324FA03F404F00704B4F191
:10131000040C06D20EEB840CBDE810404CF0010C1E
:101320006047DFE80CF0070802024FF00040A0F52C
:10133000800010BD0846420018BFD2F1807288BFFD
:1013400000F0004010BDFF2141EAD050C0057047B9
:101350007013000800000020600000006C0100080D
:10136000D013000860000020C806000088010008B3
:1013700000A24A0400000000000000000102030473
:10138000060708090000000000000000000000003F
:101390000000010203040102030406070809020415
:1013A000060800000000000000000000000000002F
:1013B000000000000000000000000000000000002D
:1013C000000000000000000000000000000000001D
:04000005080001D519
:00000001FF
