:020000040800F2
:1000000040090020410800081506000817060008EE
:100010001B0600081F060008230600080000000059
:10002000000000000000000000000000270600089B
:1000300029060008000000002B0600082D06000815
:100040005B0800085B0800085B0800085B08000804
:100050005B0800085B0800089B3100085B0800088B
:100060003F320008D3320008FD3200085B08000868
:100070005B0800085B0800085B0800085B080008D4
:100080005B0800085B0800085B0800085B080008C4
:100090005B0800085B0800085B0800085B080008B4
:1000A0005B0800085B0800085B0800085B080008A4
:1000B0005B0800085B080008153400085B080008AE
:1000C0005B0800085B0800085B0800085B08000884
:1000D0005B080008152B00085B0800085B08000897
:1000E0005B0800085B0800085B0800085B08000864
:1000F0005B0800085B0800085B0800085B08000854
:100100005B0800085B080008953400085B080008DD
:100110005B0800085B0800085B0800085B08000833
:100120005B0800085B0800085B0800085B08000823
:100130005B0800085B0800085B0800085B08000813
:100140005B0800085B0800085B0800085B08000803
:100150005B0800085B0800085B0800085B080008F3
:100160005B0800085B0800085B0800085B080008E3
:100170005B0800085B0800085B0800085B080008D3
:100180005B0800085B08000800F002F800F06CF85B
:100190000AA090E8000C82448344AAF10107DA45E2
:1001A00001D100F061F8AFF2090EBAE80F0013F0C8
:1001B000010F18BFFB1A43F001031847D85800007D
:1001C000F85800000A444FF0000C10F8013B13F0FF
:1001D000070408BF10F8014B1D1108BF10F8015BA0
:1001E000641E05D010F8016B641E01F8016BF9D193
:1001F00013F0080F1EBF10F8014BAD1C0C1B09D1EA
:100200006D1E58BF01F801CBFAD505E014F8016B5B
:1002100001F8016B6D1EF9D59142D6D370470000ED
:100220000023002400250026103A28BF78C1FBD8FF
:10023000520728BF30C148BF0B607047662904F0E1
:10024000C887642903F0CA83002070471FB504F0F3
:10025000B6FF03F023FF04000020002104F060FC3F
:10026000E0601FBD10B510BD04F014F81146FFF793
:10027000EDFF00F009F804F032F803B4FFF7F2FFE5
:1002800003BC02F0E7FB00002DED0A8B8CB000BF31
:1002900000BF00BF4FF4A06000F0F2FAA82002F007
:1002A00057FB4FF4E13002F0E3FB02F0CBFD03F02B
:1002B000AFFA4FF47A7002F0ADFB02F0FFFE02F0ED
:1002C0006FFC02F0ABFC42F2CF0142F20F7003F080
:1002D00075F842F2CF01632003F0B0F8532142F2E7
:1002E0000F7002F0DDFDA72142F20F7002F023FE35
:1002F000A72140F2F31002F06AFE42F21070994911
:100300000860994908604FF4FA7098490860002124
:10031000974801F03CFD0021964801F038FD9148D6
:1003200000689549B1FBF0F0944908608E48006878
:100330009149B1FBF0F09249086092A20021082097
:1003400003F0DFF94FF47A7002F064FB03F037F941
:1003500006E11421052002F0CBFC044614210620FE
:1003600002F0DDFC054600EE104AB8EE400A10EE41
:10037000100A04F0B3FE9FED860B53EC102B04F033
:10038000AFFD41EC1A0B00EE105AB8EE400A10EE29
:10039000100A04F0A3FE9FED7E0B53EC102B04F02B
:1003A0009FFD41EC190BB0EE491AF0EE691AB0EE60
:1003B0004A0AF0EE6A0A02F0C9FC6C49096801EBCE
:1003C0008101480004F079FD9FED730B53EC102B75
:1003D00004F086FD04F0BAFB06467148008800EE82
:1003E000100AF8EE400A5F4890ED000AB8EE401A95
:1003F00080EE810ADFED6B0A20EE208A6A480088D1
:1004000000EE100AF8EE400A574890ED000AB8EEE8
:10041000400A80EE801A9FED630A61EE008A0A208E
:1004200002F0F8FA61480068002861D0012804D081
:10043000022819D003287AD138E000231A465CA19B
:1004400002A803F0B7FA02AA0021082003F059F924
:1004500000231A465AA102A803F0ACFA02AA02210C
:10046000082003F04EF962E018EE100A04F036FEA0
:1004700041EC1B0B8DED00BB404855A1026802A862
:1004800003F098FA02AA0021082003F03AF99FED40
:10049000550B8DED000B002254A102A803F08AFA3F
:1004A00002AA0221082003F02CF940E09FED4D0B39
:1004B0008DED000B002246A102A803F07BFA02AAF0
:1004C0000021082003F01DF918EE900A04F006FE42
:1004D00041EC1B0B8DED00BB294844A1026802A82A
:1004E00003F068FA02AA0221082003F00AF91EE0CC
:1004F000BDEEC80A10EE103A20482DA1026802A8ED
:1005000003F058FA02AA0021082003F0FAF8BDEE21
:10051000E80A10EE103A1A4829A1026802A803F06E
:1005200049FA02AA0221082003F0EBF800BF00BF3D
:10053000304604F0D3FD41EC1B0B53EC1B2B30A1D8
:1005400002A803F037FA02AA0421082003F0D9F820
:100550002F48006808B9012000E000202C490860FD
:10056000F7E60000300000203400002038000020B2
:10057000002000400048014040420F00440000209D
:1005800048000020496E69742054657374000000AF
:100590006666666666664A3FFCA9F1D24D62503FC8
:1005A0003C0000200000C8423E0000205000002017
:1005B00050574D31202564487A20256425250000B8
:1005C00050574D32202564487A20256425250000A7
:1005D00050574D31202564487A2025302E3266252B
:1005E00025000000000000000000000050574D32C0
:1005F000202564487A2025302E326625250000000B
:100600006379636C653A25302E3166730000000013
:10061000A4824242704700BFFEE700BFFEE700BF72
:10062000FEE700BFFEE77047704770477047000065
:100630000CB50020019000907648006840F48030AE
:100640007449086000BF7348006800F400300090EF
:100650000198401C0190009818B90198B0F5A04F7E
:10066000F1D16C48006800F4003010B10120009016
:1006700001E0002000900098012846D165484030F4
:10068000006840F08050634940310860624800686B
:1006900040F44040604908605E48083000685D49A9
:1006A000083108600846006840F4004008600846C9
:1006B000006840F4A05008605848091F0860081FEF
:1006C000006840F08070091F086000BF5148006852
:1006D00000F000700028F9D040F205705049086021
:1006E0004C480830006820F003004A49083108608F
:1006F0000846006840F00200086000BF4548083026
:10070000006800F00C000828F8D10CBD10B5454871
:10071000006840F47000434908603E48006840F0BB
:1007200001003C49086000203A4908310860394816
:1007300000683D490840374908603C48091D086089
:10074000081F006820F48020091F0860002031493C
:100750000C310860FFF76CFF4FF0006031498039C1
:10076000086010BD70B50020002202230024022181
:10077000284D08352D6805F00C0020B1042806D05E
:10078000082834D107E02A4D2A4E356033E02A4D3F
:10079000284E35602FE01F4D2D1D2D68C5F3805468
:1007A0001C4D2D1D2D6805F03F0154B1224DB5FBA8
:1007B000F1F5184E361D3668C6F3881605FB06F2AD
:1007C00009E01B4DB5FBF1F5124E361D3668C6F338
:1007D000881605FB06F20F4D2D1D2D68C5F301454A
:1007E0006D1C6B00B2FBF3F5124E356003E0104D4B
:1007F000104E356000BF00BF064D08352D68C5F3AB
:1008000003150E4E705D0B4D2D68C540094E3560C9
:1008100070BD0000003802400070004008544007DE
:10082000003C024088ED00E0FFFFF6FE103000249F
:100830000024F4000000002000127A0004000020D0
:100840000948804709480047FEE7FEE7FEE7FEE764
:10085000FEE7FEE7FEE7FEE7FEE7FEE704480549A0
:10086000054A064B704700000D0700088901000883
:1008700040030020400900204005002040050020E2
:1008800032490143324A1160704770B5002100239C
:100890000F22C4781CB32E4C246804F4E064C4F521
:1008A000E064C4F30721C1F10404E3B20A414478CF
:1008B0009C40E1B28478144021430C07210E254C62
:1008C00005786155047804F01F050124AC400578D3
:1008D0006D11AD0005F1E025C5F8004109E004788F
:1008E00004F01F050124AC401B4D0678761145F835
:1008F000264070BD194A0A400243154B1B1F1A605F
:10090000704739B1124A121D12680243104B1B1D69
:100910001A6006E00E4A121D126882430C4B1B1D22
:100920001A607047042808D14FF0E021096941F0AE
:1009300004014FF0E022116107E04FF0E021096966
:1009400021F004014FF0E022116170470000FA0528
:100950000CED00E000E400E080E100E080FFFF1F1C
:1009600010B50121080200F088FE00214FF48070CC
:1009700000F083FE10BD30B5024600200023506811
:10098000F84C20400D790C6844EA0524204350605F
:100990009068F54C2040D1E903542C438D682C43DA
:1009A0004D7944EA450420439060D06A20F47000F9
:1009B0000C7D641EE4B2234340EA0350D06230BD94
:1009C00000210160017141718160C16001610121FB
:1009D000017570470021E54A1168E54A1140D0E9E8
:1009E00000231A4383681A43C3681A431143E14A38
:1009F000C2F8041370470021016041608160C1604A
:100A0000704721B1826842F00102826003E082688F
:100A100022F00102826070470A4600214168D64BED
:100A200019401143416070474162826270470A4633
:100A30000021416821F01F0111434160704738B126
:100A4000CA49096841F40001CA4AC2F8041306E021
:100A5000C649096821F40001C64AC2F80413704768
:100A600038B1C249096841F48001C24AC2F804138E
:100A700006E0BE49096821F48001BE4AC2F80413A9
:100A80007047F0B504460D4600200021092D11DD08
:100A9000E068A5F10A0606EB4607072606FA07F105
:100AA0008843A5F10A0606EB460603FA06F1084359
:100AB000E0600CE0206905EB4507072606FA07F120
:100AC000884305EB450603FA06F108432061072A2F
:100AD0000FDA606B561E06EB86071F2606FA07F133
:100AE0008843561E06EB860605FA06F10843606346
:100AF00022E00D2A0FDA206BD61F06EB86071F2691
:100B000006FA07F18843D61F06EB860605FA06F1BA
:100B10000843206310E0E06AA2F10D0606EB8607A9
:100B20001F2606FA07F18843A2F10D0606EB86069A
:100B300005FA06F10843E062F0BD816841F08041AA
:100B400081607047014600208A6802F080420AB145
:100B5000012000E00020704721B1826842F48062E9
:100B6000826003E0826822F480628260704721B173
:100B7000826842F00202826003E0826822F0020290
:100B80008260704710B50A4600210023416821F4B5
:100B90006041531E41EA4331416010BD21B14268BA
:100BA00042F40062426003E0426822F40062426064
:100BB00070470146C86C80B270476C48001D0068E1
:100BC000704721B1826842F48072826003E08268DB
:100BD00022F480728260704721B1826842F4007210
:100BE000826003E0826822F400728260704738B14C
:100BF0005E49096841F400515E4AC2F8041306E0F8
:100C00005A49096821F400515A4AC2F8041370473E
:100C1000F0B504461546002000220026092911DD02
:100C2000E068A1F10A0707EB470C072707FA0CF267
:100C30009043A1F10A0707EB470703FA07F21043B5
:100C4000E0600CE0206901EB410C072707FA0CF289
:100C5000904301EB410703FA07F210432061A06BB8
:100C6000C0F30156EF1C06F1010CA7EB0C0707EBD4
:100C7000870C1F2707FA0CF29043EF1C06F1010CBA
:100C8000A7EB0C0707EB870701FA07F21043A063F5
:100C9000F0BD10B50A4600210023816B21F44011FC
:100CA000531E41EA0351816310BD08B50023009330
:100CB0000090009B0B440093009B1A6008BD0A46FD
:100CC0000021816821F470211143816070470A4638
:100CD0000021816821F440111143816070478168CF
:100CE00041F4800181607047014600208A6802F467
:100CF00080020AB1012000E00020704721B1426863
:100D000042F48062426003E0426822F48062426002
:100D1000704721B1426842F48052426003E0426869
:100D200022F480524260704708B5024600200090CD
:100D3000009201F12800009B184400900098006880
:100D400080B208BD10B50B460021D9B2012404FAC7
:100D500001F11AB144680C43446002E044688C43DA
:100D6000446010BDFFFEFFFCFDF7FFC004230140FF
:100D7000E030FCFF00200140FFFD3FFF0246002065
:100D800013680B400BB1012000E000207047CA43FC
:100D90000260704770B502460020002300240B1249
:100DA000556801268E4005EA060415681D4015B1F8
:100DB0000CB1012000E0002070BD00220A12D343D4
:100DC00003607047002041490860091D0860091D43
:100DD0000860091D08603E483C49143108607047AE
:100DE00000213A498279002A3AD00A4612680368FB
:100DF0009A430B461A600A1D126803689A430B1D3A
:100E00001A60027911440A6803681A430A602F4A7B
:100E10000832126803689A432C4B08331A601A1D73
:100E2000126803689A43294B0C331A604279102ADE
:100E30000ED11A1F126803681A43244B08331A6034
:100E40001A1D126803681A43204B0C331A600DE018
:100E50001E49427911440A6803681A430A6005E092
:100E6000027911440A6803689A430A6070470021B6
:100E7000016001710C21417100218171704713499A
:100E8000103109680143114A103211607047014660
:100E900000200E4A143212680A400AB1012000E014
:100EA000002070470949143108607047014600204E
:100EB000064A143212680A400AB1012000E00020FC
:100EC000704702491431086070470000003C01403F
:100ED000FFFF7F0010B504469848844208D10121E5
:100EE000084600F086FB0021012000F082FB76E03E
:100EF0009348844208D10121022000F07AFB0021AE
:100F0000022000F076FB6AE08E48844208D101217D
:100F1000042000F06EFB0021042000F06AFB5EE07C
:100F20008948844208D10121082000F062FB002199
:100F3000082000F05EFB52E08448844208D1012181
:100F4000102000F056FB0021102000F052FB46E07C
:100F50007F48844208D10121202000F04AFB002173
:100F6000202000F046FB3AE07A48844208D1012173
:100F7000402000F03EFB0021402000F03AFB2EE034
:100F80007548844208D10121802000F032FB002105
:100F9000802000F02EFB22E07048844208D101211D
:100FA000801500F026FB0021A01500F022FB16E0C2
:100FB0006B48844208D10121401500F01AFB002142
:100FC000601500F016FB0AE06648844207D1012153
:100FD000001500F00EFB0021201500F00AFB10BDEB
:100FE000F0B50A4600210023002400BF3DE00125A2
:100FF00005FA01F3156805EA03049C4234D105683B
:101000004F000326BE40B543056015794E00B5403C
:101010000668354305601579012D02D01579022D3A
:1010200016D185684F000326BE40B54385605579CB
:101030004E00B540866835438560456801268E4080
:10104000B5434560456896798E40B6B235434560F4
:10105000C5684F000326BE40B543C560D5794E0034
:10106000B540C6683543C560491C1029BFD3F0BDE3
:101070004FF6FF7101600021017141718171C171F1
:10108000704708B54FF480320092009A0A430092EC
:10109000009AC261C161009AC261C2690092C269CC
:1010A000009208BD0246002013690B400BB10120DD
:1010B00000E0002070470146086980B27047024690
:1010C000002053690B400BB1012000E00020704765
:1010D0000146486980B27047018370474183704779
:1010E0000AB1018300E04183704741617047426962
:1010F0004A4042617047F0B5002300244D07ED0ED1
:1011000002FA05F3CE1000F1200555F826504E07DF
:10111000F70E0F26BE40B543CF1000F1200646F86B
:101120002750CE1000F1200555F8265045EA03045B
:10113000CE1000F1200545F82640F0BD0000024029
:101140000004024000080240000C0240001002406F
:101150000014024000180240001C0240002002401F
:101160000024024000280240F948006840F00100D5
:10117000F74908600020F64908310860F448006823
:10118000F4490840F2490860F348091D0860F34833
:10119000EF4984310860F0481038091D0860EC48B8
:1011A000006820F48020EA4908600020E8490C31FA
:1011B0000860E7498C31086070470021E44A921CBE
:1011C000117011460870704710B5014600220023C7
:1011D00000204A11012A02D1DD4C236808E0022ACE
:1011E00003D1DB4C7034236802E0D94C743423689B
:1011F00001F01F02012494401C400CB1012000E0CA
:10120000002010BD38B5002000900024002500BF4C
:101210003120FFF7D9FF05460098401C0090009848
:10122000B0F5A04F01D0002DF2D03120FFF7CCFF58
:1012300008B1012400E00024204638BD014600200A
:10124000C34A106820F0F80040EAC10010607047FF
:10125000C349086070470021BD4A70321170117097
:10126000012802D004280AD104E00121B84A7032D2
:10127000117005E00521B64A7032117000E000BF20
:1012800000BF7047B7490860704770B5049C41EAD9
:1012900082150126C6EB530645EA0645054345EA95
:1012A0000465AB4E361D356070BDAD4908667047AC
:1012B000820142EA0172A64B84331A607047A84942
:1012C0008866704710B5830143EA016343EA0273FD
:1012D0009F4C8834236010BDA14908677047A0491E
:1012E000C864704702460020994B0833186820F004
:1012F000EC6042EA01031843954B083318607047CD
:1013000002460020924B0833186820F0784042EAE9
:10131000010318438E4B08331860704701460020C4
:101320008B4A0832106820F00300084310607047B1
:1013300087480830006800F00C0070470146002024
:10134000834A0832106820F0F000084310607047AC
:10135000014600207E4A0832106820F4E05008431D
:101360001060704701460020794A0832106820F466
:10137000604040EAC10010607047F0B500210022D3
:101380000024022500260223714F08373F6807F02A
:101390000C0121B1042905D0082937D105E0724F8D
:1013A000076036E0714F076033E0694F3F1D3F68CB
:1013B000C7F38056664F3F1D3F6807F03F036EB18D
:1013C0006A4FB7FBF3F7DFF888C10CF1040CDCF8C7
:1013D00000C0CCF3881C07FB0CF40CE0624FB7FB99
:1013E000F3F7DFF86CC10CF1040CDCF800C0CCF3AF
:1013F000881C07FB0CF4564F3F1D3F68C7F301479D
:101400007F1C7D00B4FBF5F7076002E0564F0760D4
:1014100000BF00BF4E4F08373F6807F0F0010909D1
:10142000534F7A5C0768D7404760494F08373F6899
:1014300007F4E051890A4E4F7A5C4768D7408760CD
:10144000434F08373F6807F46041490B484F7A5CC7
:101450004768D740C760F0BD002100F44072B2F584
:10146000407F0AD13A4A0832116821F4F811414A02
:1014700002401143364A08321160354A7032126810
:10148000C0F30B031A43324B70331A60704735496F
:10149000443908607047334940390860704736491D
:1014A0000860704701460020294A8C32106820F0FD
:1014B0001F004A1E1043264A8C32106070470146B6
:1014C0000020234A8C32106820F4F8504A1E40EA6B
:1014D00002201F4A8C3210607047014600201C4ACF
:1014E0008C32106820F440100843106070470146A9
:1014F0000020174A8C32106820F440000843106026
:10150000704701460020124A8C32106820F44030A7
:1015100008431060704719490860704739B10C4A98
:101520003032126802430A4B30331A6006E0084A30
:10153000303212688243064B30331A607047F9B17B
:10154000034A343212680243014B34331A601CE000
:1015500000380240FFFFF6EA10300024003000207F
:1015600000004742800E47420024F40000127A0037
:1015700014000020FFFCFF0F5C014742E0114742CE
:101580008F4A126882438E4B1A60704739B18C4A79
:10159000121D126802438A4B1B1D1A6006E0884A1E
:1015A000121D12688243864B1B1D1A60704739B1A9
:1015B000834A0C3212680243814B0C331A6006E0F6
:1015C0007F4A0C32126882437D4B0C331A6070479D
:1015D00039B17B4A103212680243794B10331A60DA
:1015E00006E0774A103212688243754B10331A6056
:1015F000704739B1724A243A12680243704B243B57
:101600001A6006E06E4A243A126882436C4B243B0F
:101610001A60704739B16A4A203A12680243684B2F
:10162000203B1A6006E0664A203A12688243644B07
:10163000203B1A60704739B1614A1C3A1268024374
:101640005F4B1C3B1A6006E05D4A1C3A12688243FD
:101650005B4B1C3B1A60704739B1594A143A126807
:101660000243574B143B1A6006E0554A143A12687D
:101670008243534B143B1A60704739B1504A103AB9
:10168000126802434E4B103B1A6006E04C4A103A77
:10169000126882434A4B103B1A60704739B1484A7E
:1016A0001C3212680243464B1C331A6006E0444A5F
:1016B0001C3212688243424B1C331A60704739B1A6
:1016C0003F4A2032126802433D4B20331A6006E045
:1016D0003B4A203212688243394B20331A607047EC
:1016E00039B1374A243212680243354B24331A6029
:1016F00006E0334A243212688243314B24331A60A5
:10170000704739B12E4A2C32126802432C4B2C33CD
:101710001A6006E02A4A2C3212688243284B2C3386
:101720001A60704739B1264A303212680243244B9E
:1017300030331A6006E0224A303212688243204B6E
:1017400030331A607047012808D11D493C310968BF
:1017500041F008011A4A3C32116007E018493C3157
:10176000096821F00801164A3C321160704739B10E
:10177000134A273A12780243114B273B1A7006E0AE
:101780000F4A273A127882430D4B273B1A70704755
:101790000B484030006840F08070094940310860D3
:1017A000704701460020064A283A12680A400AB1EA
:1017B000012000E000207047014926390870704779
:1017C0003438024010B501218803FFF756FF00218D
:1017D0004FF48040FFF751FF10BD1C49086070476F
:1017E0001B490862704730B500228B071C0F0F237E
:1017F00003FA04F2154B08338C1053F8243093434A
:10180000124C08348D1044F8253023468C1053F8C0
:1018100024308C07240F00FA04F423430B4C0834C3
:101820008D1044F8253030BD0949DC31086070471F
:10183000084908607047002004492031096801F414
:10184000807109B1012000E000207047003801409C
:10185000000027420004274210B50446FE48844297
:1018600008D101210846FFF708FF00210120FFF7FA
:1018700004FF9DE0B4F1804F08D101210846FFF735
:10188000EBFE00210120FFF7E7FE91E0F3488442E0
:1018900008D101210220FFF7DFFE00210220FFF71F
:1018A000DBFE85E0EE48844208D101210420FFF7E9
:1018B000D3FE00210420FFF7CFFE79E0E9488442FF
:1018C00008D101210820FFF7C7FE00210820FFF7FB
:1018D000C3FE6DE0E448844208D101211020FFF7E7
:1018E000BBFE00211020FFF7B7FE61E0DF48844215
:1018F00008D101212020FFF7AFFE00212020FFF7B3
:10190000ABFE55E0DA48844208D101210220FFF7FE
:10191000B4FE00210220FFF7B0FE49E0D548844222
:1019200009D101210804FFF7A8FE00214FF48030FF
:10193000FFF7A3FE3CE0D048844209D101214804CE
:10194000FFF79BFE00214FF40030FFF796FE2FE0DB
:10195000CA48844209D101218804FFF78EFE002184
:101960004FF48020FFF789FE22E0C548844208D169
:1019700001214020FFF770FE00214020FFF76CFEA0
:1019800016E0C048844208D101218020FFF764FEA0
:1019900000218020FFF760FE0AE0BB48844207D1A7
:1019A00001218015FFF758FE0021A015FFF754FE16
:1019B00010BD00220288A84B98420ED0AC4B984232
:1019C0000BD0B0F1804F08D0A44B984205D0A44B67
:1019D000984202D0A34B984204D14FF68F731A401D
:1019E0004B881A43A04B984207D0A04B984204D092
:1019F0004FF6FF431A400B891A4302804B68C362BB
:101A00000B880385944B984202D0994B984201D1A0
:101A10008B7A03860123838270474FF0FF31416048
:101A2000002101800181418081727047018582829D
:101A300070470A46002101884FF68F731940114301
:101A40000180704741627047C16270470146486A31
:101A500070470146088D704721B1028842F00202AA
:101A6000028004E002884FF6FD731A40028070473E
:101A700021B1028842F00402028004E002884FF69D
:101A8000FB731A400280704721B1028842F0800245
:101A9000028004E002884FF67F731A40028070478C
:101AA00002884FF6F7731A40028002880A430280C8
:101AB000704702884FF6FF431A40028002880A43AB
:101AC0000280704721B1028842F00102028004E0E6
:101AD00002884FF6FE731A400280704770B50024EA
:101AE00000220023058C4FF6FE7635400584028CDB
:101AF0008388048B4FF68F752C40B51E2C400D88C3
:101B00002C43751E2A408D892A434D882A43524D05
:101B1000A84202D0564DA84213D14FF6F7752A407D
:101B2000CD892A434FF6FB752A408D882A434FF60C
:101B3000FF652B404FF6FF552B400D8A2B434D8AF6
:101B40002B43838004838D684563028470BD70B528
:101B5000002400220023058C4FF6EF7635400584E3
:101B6000028C8388048B48F6FF752C404FF6FF45A6
:101B70002C400D884FF6FF7606EA05252C434FF6DC
:101B8000DF752A408D8906EA05152A434D8806EA45
:101B900005152A43304DA84202D0354DA8421DD12B
:101BA0004FF67F752A40CD894FF6FF7606EA051578
:101BB0002A434FF6BF752A408D8806EA05152A4349
:101BC0004FF6FF352B404FF2FF752B400D8A06EA8A
:101BD00085052B434D8A06EA85052B4383800483C4
:101BE0008D688563028470BD70B5002400220023D7
:101BF000058C4FF6FF6635400584028C8388848B04
:101C00004FF68F752C404FF6FC752C400D882C43F9
:101C10004FF6FF552A408D894FF6FF7606EA0525D7
:101C20002A434D8806EA05252A430B4DA84202D0D7
:101C30000F4DA84238D14FF2FF752A40CD894FF69B
:101C4000FF7606EA05252A434FF6FF352A408D88A0
:101C500006EA05252A4319E000000140000400407F
:101C600000080040000C004000100040001400403C
:101C70000004014000400140004401400048014090
:101C800000180040001C0040002000404EF6FF7588
:101C90002B404DF6FF752B400D8A06EA05152B43A8
:101CA0004D8A06EA05152B43838084838D68C563BE
:101CB000028470BD70B5002200230024058C4EF60E
:101CC000FF7635400584038C8488828B48F6FF7547
:101CD0002A404FF6FF452A400D884FF6FF7606EA68
:101CE00005252A434DF6FF752B408D8906EA0535FB
:101CF0002B434D8806EA05352B43FE4DA84202D002
:101D0000FD4DA84208D14BF6FF752C400D8A4FF6C9
:101D1000FF7606EA85152C43848082838D680564EE
:101D2000038470BD002101804180818081608181B8
:101D3000C18101824182704770B5034600200024B2
:101D40001846183001258D40ACB21D8CA5431D846A
:101D500009B108290AD100EB610005684FF68F76BA
:101D6000354005600568154305600FE00D1FC5F39C
:101D70004E052844056848F6FF763540056005683D
:101D80004FF6FF7606EA02263543056070BD4163D3
:101D9000704781637047C1637047016470470A46AA
:101DA0000021018B4FF68F73194011430183704757
:101DB0000A460021018B48F6FF7319404FF6FF7366
:101DC00003EA02231943018370470A460021818BED
:101DD0004FF68F7319401143818370470A460021E3
:101DE000818B48F6FF7319404FF6FF7303EA022315
:101DF0001943818370470A460021018B4FF6F77320
:101E000019401143018370470A460021018B4FF2AC
:101E1000FF7319404FF6FF7303EA0223194301834E
:101E200070470A460021818B4FF6F7731940114322
:101E3000818370470A460021818B4FF2FF7319405E
:101E40004FF6FF7303EA02231943818370470A4662
:101E50000021018B4FF6FB7319401143018370473A
:101E60000A460021018B4FF6FF3319404FF6FF73EE
:101E700003EA02231943018370470A460021818B3C
:101E80004FF6FB7319401143818370470A460021C6
:101E9000818B4FF6FF3319404FF6FF7303EA02239D
:101EA0001943818370470A460021018B4FF67F73E7
:101EB00019401143018370470A460021018BC1F389
:101EC0000E014FF6FF7303EA0223194301837047A3
:101ED0000A460021818B4FF67F731940114381839D
:101EE00070470A460021818BC1F30E014FF6FF7344
:101EF00003EA02231943818370470A460021018CBB
:101F00004FF6FD7319401143018470470A460021C2
:101F1000018C4FF6F77319401143018470470A464C
:101F20000021018C4FF6DF7319404FF6FF7303EA6F
:101F300002131943018470470A460021018C4FF6B1
:101F40007F7319404FF6FF7303EA021319430184AC
:101F500070470A460021018C4FF6FF5319404FF697
:101F6000FF7303EA02231943018470470A460021E4
:101F7000018C4FF2FF7319404FF6FF7303EA0223FF
:101F80001943018470470A460021018C4DF6FF7306
:101F900019404FF6FF7303EA023319430184704777
:101FA00030B5002301248C40A3B2048C9C430484EC
:101FB000048C02FA01F5ADB22C43048430BD30B577
:101FC000002304248C40A3B2048C9C430484048C1E
:101FD00002FA01F5ADB22C43048430BD828B4FF27E
:101FE000FF331A408283828B4FF6FF7303EA01238B
:101FF0001A4382837047F0B50C4615460021002233
:102000000026078C4EF6FF7C07EA0C070784818BBD
:10201000028C4FF6FF7707EA043640F6FF47394057
:102020004FF6FF7707EA052739434FF6FF7707EAB0
:102030000337394345F6FF773A4046F480573A4331
:1020400081830284F0BD828B4FF6F3731A40828342
:10205000828B0A4382837047F0B50C4615460021F7
:1020600000220026078C4FF6FF6C07EA0C07078456
:10207000818B028C4FF6FF7707EA04264FF60C7728
:1020800039404FF6FF7707EA03172F4339434FF2E2
:10209000FF573A4046F480773A4381830284F0BD8B
:1020A000028B4FF2FF331A400283028B4FF6FF730D
:1020B00003EA01231A4302837047F0B50C46154624
:1020C000002100220026078C4FF6EF7C07EA0C0760
:1020D0000784018B028C4FF6FF7707EA041640F65F
:1020E000FF4739404FF6FF7707EA033739434FF68A
:1020F000FF7703E0000001400004014007EA0527E4
:1021000039434FF65F773A4046F010073A43018370
:102110000284F0BD028B4FF6F3731A400283028BE8
:102120000A4302837047F0B50C4615460021002291
:10213000068C4FF6FE773E400684018B028C4FF6EC
:102140000C7631407E1C06EA03162E4331434FF6CF
:10215000F576324044F00106324301830284F0BD3B
:1021600070B505460C46208850B92389A28861883D
:102170002846FFF7D8FFE1882846FFF7CBFF25E088
:10218000208804280AD12389A28861882846FFF77D
:1021900094FFE1882846FFF783FF17E0208808288E
:1021A0000AD12389A28861882846FFF755FFE18874
:1021B0002846FFF748FF09E02389A288618828465E
:1021C000FFF719FFE1882846FFF708FF70BD0021DF
:1021D00001804180012181800021C18001817047FF
:1021E0002DE9F04105460C4600260127608808B914
:1021F000022600E00026A088012801D1022700E085
:1022000001272088A0B92389A28861882846FFF782
:102210008AFFE1882846FFF77DFF23893A46314649
:102220002846FFF74AFFE1882846FFF739FF13E009
:102230002389A28861882846FFF73FFFE188284666
:10224000FFF72EFF23893A4631462846FFF76BFFFA
:10225000E1882846FFF75EFFBDE8F0810146486B44
:1022600070470146886B70470146C86B704701464E
:10227000086C70470A884B881A438B881A43CB88AE
:102280001A430B891A434B891A438B891A43A0F8C6
:10229000442070470021018041808180C1800181FC
:1022A00041818181704731B1B0F8442042F400424D
:1022B000A0F8442005E0B0F84420C2F30E02A0F8D4
:1022C0004420704721B1828842F00402828004E0F9
:1022D00082884FF6FB731A408280704721B1828852
:1022E00042F00102828004E082884FF6FE731A40B9
:1022F000828070471AB183890B43838102E083890E
:102300008B43838170478182704702460020138A85
:102310000B400BB1012000E000207047CA4302824D
:10232000704730B50246002000230024158A05EAD4
:102330000103958905EA010413B10CB1012000E005
:10234000002030BDCA430282704741EA0203A0F870
:10235000483070471AB183890B43838102E0838937
:102360008B438381704721B1828842F008028280CA
:1023700004E082884FF6F7731A4082807047018923
:102380004FF6F8721140018170470A460021018919
:102390004FF68F73194011430181704730B50446E1
:1023A0000D4629462046FFF7F0FF208940F0070040
:1023B000208130BD2DE9F04104460D4616461F46EA
:1023C000602D06D13B46012231462046FFF775FEBF
:1023D00005E03B46012231462046FFF7A4FE294690
:1023E0002046FFF7D2FF208940F007002081BDE89A
:1023F000F08130B50C4600210189C9B24FF6FF7556
:1024000005EA0325154325432943018130BD2DE904
:10241000F04105460E4617469846002443463A4684
:1024200031462846FFF7E5FF2C894FF6F870044047
:1024300044F007044FF68F70044044F070042C8180
:10244000BDE8F081F0B504460D4616461F463B46F2
:10245000324629462046FFF7CCFF208940F48040D1
:102460002081F0BD82884FF68F731A408280828867
:102470000A438280704702894FF6F8731A4002813E
:1024800002890A430281704702894FF67F731A401E
:10249000028102890A4302817047F0B50C46154655
:1024A0001E460021002200230189028B038C4FF677
:1024B000F877394021434FF6FC473A4040F2011784
:1024C0003A434FF6DD773B404FF6FF7707EA0617B2
:1024D0002F433B43018102830384F0BD21B18288F5
:1024E00042F08002828004E082884FF67F731A40B7
:1024F00082807047A0F850107047000010B5044665
:10250000FA48844208D101211020FFF7B6F80021D3
:102510001020FFF7B2F857E0F548844209D10121B5
:102520004804FFF799F800214FF40030FFF794F8C2
:102530004AE0F048844209D101218804FFF78CF871
:1025400000214FF48020FFF787F83DE0EA488442FD
:1025500009D10121C804FFF77FF800214FF40020C2
:10256000FFF77AF830E0E548844209D101210805F7
:10257000FFF772F800214FF48010FFF76DF823E0A9
:10258000DF48844208D101212020FFF776F800219E
:102590002020FFF772F817E0DA48844209D10121C0
:1025A0008807FFF759F800214FF08040FFF754F8F3
:1025B0000AE0D548844207D101214005FFF74CF8D5
:1025C00000216005FFF748F810BD2DE9FF470546DB
:1025D0000E460024A14600BFA046B08900B100BF4E
:1025E0002C8A24F44054F08804432C82AC8941F2B4
:1025F0000C608443B08831890843718908430443DF
:10260000AC81AC8A24F44074B0890443AC8268463F
:10261000FEF7B3FEB548854202D0B948854202D1E3
:10262000DDF80C9001E0DDF80890A88900F4004086
:1026300040B109EBC90000EB091031684900B0FB5B
:10264000F1F707E009EBC90000EB091031688900D8
:10265000B0FBF1F76420B7FBF0F00401200964211E
:1026600001FB1078A88900F4004040B1322000EB53
:10267000C800B0FBF1F000F00700044308E032208E
:1026800000EB08106421B0FBF1F000F00F000443F0
:102690002C81BDE8FF874FF4165101600021818035
:1026A000C18001810C21418100218181704710B5D9
:1026B00002460020108A20F470600B884C88234367
:1026C0008C882343CC8823431843108210BD0021FB
:1026D000018041808180C180704721B1828942F4AC
:1026E0000052828104E082894DF6FF731A40828194
:1026F0007047028B02F47F420283028B0A430283FB
:10270000704721B1828942F40042828103E08289CC
:10271000C2F30E028281704721B1828A42F40062C4
:10272000828204E0828A4FF2FF731A4082827047ED
:10273000C1F308028280704701468888C0F3080010
:102740007047028A4FF6F0731A400282028A0A43E7
:102750000282704721B1828942F00202828104E044
:1027600082894FF6FD731A408281704782894FF249
:10277000FF731A40828182890A4382817047028AEC
:102780004FF6DF731A400282028A0A4302827047C0
:1027900021B1028A42F48042028204E0028A4BF6AE
:1027A000FF731A4002827047818941F001018181E3
:1027B000704721B1828A42F00802828204E0828A54
:1027C0004FF6F7731A4082827047028BD2B20283AF
:1027D000028B42EA01220283704721B1828A42F0D1
:1027E0002002828204E0828A4FF6DF731A408282DE
:1027F000704721B1828A42F01002828204E0828A0C
:102800004FF6EF731A4082827047828A4FF6FB734D
:102810001A408282828A0A438282704721B1828A68
:1028200042F00202828204E0828A4FF6FD731A406F
:10283000828270471AB1838A0B43838202E0838AC3
:102840008B4383827047F0B50346002400260025A1
:10285000002040F66A17B94200D100BF1846C1F304
:10286000421401F01F06012707FA06F5012C01D1D9
:102870000C3004E0022C01D1103000E014301AB109
:1028800007682F43076002E00768AF430760F0BDA9
:1028900002460020B1F5007F00D100BF13880B4035
:1028A0000BB1012000E00020704701F40072B2F586
:1028B000007F00D100BFCA430280704770B5024656
:1028C000002400230025002040F66A16B14200D102
:1028D00000BFC1F3421501F01F03012606FA03F3FE
:1028E000012D13D19689334017E0000000100140FC
:1028F0000044004000480040004C004000500040B0
:102900000014014000780040007C0040022D02D1FC
:10291000168A334001E0968A33400C12012606FAEB
:1029200004F41688344013B10CB1012000E00020FB
:1029300070BD10B50022002340F66A14A14200D1F8
:1029400000BF0A1201249440A3B2DC43048010BDEE
:1029500010B504466FF00400FDF7E4FFE11704EB47
:102960005171C1F3C701394A11701046007800EB6C
:102970004001C1EBC0104FF6FF7101EAC0003449BD
:10298000088010BD0146314A12784A434FF0E023D7
:102990005A6100229A611A46126942F001021A61D4
:1029A00000BF4FF0E022106900F001021AB100F4FC
:1029B0008032002AF5D04FF0E022126922F00102A5
:1029C0004FF0E0231A6100229A6170470146204AC5
:1029D00012884A434FF0E0235A6100229A611A4656
:1029E000126942F001021A6100BF4FF0E022106943
:1029F00000F001021AB100F48032002AF5D04FF045
:102A0000E022126922F001024FF0E0231A61002255
:102A10009A61704770B504464FF4077094FBF0F06C
:102A2000C6B24FF4077094FBF0F100FB114085B281
:102A300005E04FF40770FFF7C9FF701EC6B2002E05
:102A4000F7D115B12846FFF7C1FF70BD2400002063
:102A500026000020014600BF704700BF4C4A128884
:102A600002F04002002AF9D0C2B2494B9A80704766
:102A700010B588B0044601210846FEF74FFD01213C
:102A80001020FEF7A5FD072209214248FEF733FB7F
:102A900007220A213F48FEF72EFB4FF4C060069044
:102AA00002208DF81C008DF81D0000208DF81E00FE
:102AB00001208DF81F0006A93648FEF791FA02940E
:102AC0000020ADF80C00ADF80E00ADF81000ADF828
:102AD00014000C20ADF8120002A92D48FFF775FD77
:102AE00001212B48FFF7F9FD012240F2255128482A
:102AF000FFF7A9FE25208DF8040003208DF80500BE
:102B00008DF8060001208DF8070001A8FDF7BDFE35
:102B100008B010BD10B540F225511D48FFF7CEFE9C
:102B200010B31B48FFF708FEC4B21B48008800F42E
:102B30000040C8B91848008800F4804060B10A2CF1
:102B400003D000201449088020E01348008840F496
:102B500000401149088019E00D2C06D10E4800886C
:102B600040F480400C49088010E00B480088C0F316
:102B70000D000A490C5408480088401C064908808A
:102B800008460088C72801DD0020088010BD00002D
:102B900000100140000002402C0000201402002020
:102BA00000B58DB001210846FEF7B8FC01210802EE
:102BB000FEF70EFD20200B9003208DF83000002042
:102BC0008DF833000BA99048FEF70AFA012108029C
:102BD000FEF753FD00214FF48070FEF74EFD0020FC
:102BE00007900A9009904FF48030089007A8FDF7ED
:102BF000F1FE002001908DF808008DF80900039087
:102C0000059001208DF8180001A98048FDF7B3FE5A
:102C100001217E48FDF7F5FE0DB000BD00B58DB079
:102C200001210846FEF77AFC01214802FEF7D0FC9C
:102C300040200B9003208DF8300000208DF83300E9
:102C40000BA97148FEF7CCF901214802FEF715FDEA
:102C500000214FF40070FEF710FD002007900A904D
:102C600009904FF48030089007A8FDF7B3FE0020CC
:102C700001908DF808008DF809000390059001205F
:102C80008DF8180001A96248FDF775FE0121604822
:102C9000FDF7B7FE0DB000BD10B5044607230122B5
:102CA00021465A48FDF7EDFE5848FDF746FF00BFA4
:102CB00002215648FEF762F80028F9D05348FDF784
:102CC00078FF10BD10B50446072301222146504865
:102CD000FDF7D7FE4E48FDF730FF00BF02214C48FC
:102CE000FEF74CF80028F9D04948FDF762FF10BD07
:102CF0002DE9F04107460C460025002608E038463D
:102D0000FFF7CAFF05440520FFF784FE701CC6B21A
:102D1000A642F4DBB5FBF4F080B2BDE8F0812DE90A
:102D2000F04107460C460025002608E03846FFF72C
:102D3000C9FF05440520FFF76DFE701CC6B2A64210
:102D4000F4DBB5FBF4F080B2BDE8F08110B52DEDF9
:102D50000C8BB0EE408AF0EE608AB0EE419AF0EE55
:102D6000619A9FED2C0B53EC102B51EC180B01F0DA
:102D70001FFF41EC1A0B9FED270B53EC102B51EC6E
:102D8000190B01F015FF41EC1B0B24480068A8B992
:102D90002348006802F091F841EC1D0B53EC1A2B0C
:102DA00002F09EF841EC1C0B02F05AF81D49088015
:102DB000084601881C48FEF7EAFF14E01B4800683B
:102DC00002F07BF841EC1D0B53EC1A2B02F088F853
:102DD00041EC1C0B02F044F81549088008460188B4
:102DE0001448FEF7D4FF53EC1B2B9FED130B51EC53
:102DF000100B02F075F841EC1C0B02F031F8104991
:102E00000860BDEC0C8B10BD0000024000200140AA
:102E1000002101406666666666660A404C00002036
:102E2000300000203C000020002000403400002042
:102E30003E000020004801400000000000407F40AC
:102E4000380000201CB501212020FEF767FB01207F
:102E50008DF8040000208DF806004FF4C06000904B
:102E600002208DF8070003208DF805006946094807
:102E7000FEF7B6F80020084908600849C1F8A80222
:102E80006420FFF7C7FD0120034908600349C1F82A
:102E9000A8021CBD00140240A482424200804242AB
:102EA00030B58BB005460C4601210802FEF77FFBCA
:102EB00001210846FEF732FB092207216948FEF787
:102EC0001AF98020049003208DF8150002208DF857
:102ED000140001208DF8170000208DF8160004A9B9
:102EE0006048FEF77DF80295A0B2ADF8040000201E
:102EF000ADF80C00ADF8060001A95B48FEF759FDDE
:102F00006020ADF818000120ADF81A000020ADF8DF
:102F1000260006A95448FEF7E1FD08215248FEF7B5
:102F20006AFF01215048FEF7AFFD01214E48FEF730
:102F3000C9FD0BB030BD30B58BB005460C46012144
:102F40008804FEF745FB01210220FEF7E7FA032281
:102F500009214648FEF7CFF84FF400700490032093
:102F60008DF8150002208DF8140001208DF817004F
:102F700000208DF8160004A93C48FEF731F80295B0
:102F8000A0B2ADF804000020ADF80C00ADF80600CA
:102F900001A93748FEF70DFD6020ADF818000120AB
:102FA000ADF81A000020ADF8260006A93048FEF75B
:102FB00095FD08212E48FEF71EFF01212C48FEF743
:102FC00063FD01212A48FEF77DFD0BB030BD30B511
:102FD0008BB005460C4601210220FEF7E8FA0121DC
:102FE0000220FEF79BFA022201212048FEF783F817
:102FF0000220049003208DF8150002208DF81400A3
:1030000001208DF8170000208DF8160004A917483C
:10301000FDF7E6FF0295A0B2ADF804000020ADF880
:103020000C00ADF8060001A91248FEF7C2FC6020B2
:10303000ADF818000120ADF81A000220ADF8260006
:1030400006A90C48FEF736FE08210A48FEF7F2FEF4
:1030500001210848FEF718FD01210648FEF732FD60
:103060000BB030BD000002400020004000040240D0
:1030700000480140000400401CB501211120FEF76A
:103080004DFA1C20009000208DF8040003208DF8DC
:10309000050001208DF8070069460648FDF7A0FFEE
:1030A0000120009002208DF8070069460248FDF7D4
:1030B00097FF1CBD00100240000002400EB5FFF754
:1030C000DBFF01218803FEF783FA02210420FEF7CB
:1030D0008AFB03210420FEF786FB04210846FEF745
:1030E00082FB00210846FEF77EFB012000900020B5
:1030F0008DF8040008208DF8050001208DF80600E9
:103100006846FDF76DFE1C20009000208DF804003D
:103110000C208DF8050001208DF806006846FDF7AB
:103120005FFE06208DF8080000208DF809000220BF
:103130008DF80A0001208DF80B0002A8FDF7A5FB11
:1031400008208DF8080003208DF8090002208DF872
:103150000A0001208DF80B0002A8FDF796FB09205C
:103160008DF8080002208DF809008DF80A00012072
:103170008DF80B0002A8FDF788FB0A208DF80800E7
:1031800001208DF8090002208DF80A0001208DF839
:103190000B0002A8FDF779FB0EBD10B50A20FFF762
:1031A00039FC01217A48FDF77DFF012843D1794898
:1031B000006868B900217848FEF784FC0021774850
:1031C000FEF780FC73480068401C7249086032E0DA
:1031D0007048006801280DD101216F48FEF772FC8C
:1031E00000216E48FEF76EFC6A480068401C694981
:1031F000086020E06748006802280DD10021664879
:10320000FEF760FC01216548FEF75CFC6148006840
:10321000401C604908600EE05E48006803280AD13F
:1032200001215D48FEF74EFC01215C48FEF74AFC97
:103230000020584908600120FDF743FE10BD0EB57F
:103240000A20FFF7E7FB04215548FDF72BFF002874
:103250003BD154480068E0B953480068643852498B
:10326000086008460068514991FBF0F05049086039
:1032700008460068401E01905320ADF80000002071
:10328000ADF80200ADF8080069464348FEF791FB2F
:103290001BE04848006864384649086008460068F2
:1032A000424991FBF0F04449086008460068401E1E
:1032B0000190A720ADF800000020ADF80200ADF8A5
:1032C000080069463548FEF774FB0420FDF7F9FD58
:1032D0000EBD10B50A20FFF79DFB08213048FDF711
:1032E000E1FE38B92F48006808B9012000E000204D
:1032F0002C4908600820FDF7E4FD10BD0EB50A203A
:10330000FFF788FB10212648FDF7CCFE00283BD1B3
:1033100024480068E0B92448006864302249086005
:1033200008460068214991FBF0F0214908600846F1
:103330000068401E01905320ADF800000020ADF859
:103340000200ADF8080069461348FEF732FB1BE0A7
:103350001848006864301749086008460068134937
:1033600091FBF0F01449086008460068401E019087
:10337000A720ADF800000020ADF80200ADF808006D
:1033800069460648FEF715FB1020FDF79AFD0EBDB5
:103390000000024050000020002000400048014092
:1033A000001002404C0000204400002040420F006A
:1033B0003000002048000020340000207FB5054682
:1033C0000C4601210420FEF7F2F80295A0B2ADF8F8
:1033D00004000020ADF80600ADF80C0001A93D483E
:1033E000FEF7E7FA012211463A48FEF783FF012172
:1033F0003848FEF767FB1E208DF8000005208DF889
:1034000001008DF8020001208DF803006846FDF7E9
:103410003CFA7FBD10B501212E48FEF782FF01283E
:1034200007D12D48006808B9012000E000202A4992
:10343000086001212748FEF785FF10BD7FB50546CE
:103440000C4601210820FEF7B2F80295A0B2ADF8B3
:1034500004000020ADF80600ADF80C0001A91F48DB
:10346000FEF7A7FA012211461C48FEF743FF01218F
:103470001A48FEF727FB32208DF8000006208DF851
:1034800001008DF8020001208DF803006846FDF769
:10349000FCF97FBD10B501211048FEF742FF01285D
:1034A00012D10F480088401C0D4908800846018849
:1034B0000C48FEF772FC0A4800880B4909688842EC
:1034C00002D900200649088001210448FEF73AFF8E
:1034D00010BD000000080040A8824242000C0040DD
:1034E00040000020000400403800002070B5044671
:1034F0000E4626B12021FE48FDF7EEFD03E0202117
:10350000FB48FDF7EBFD0821F948FDF7E7FD002535
:1035100017E04021F648FDF7E1FD04F0800020B1FE
:103520008021F348FDF7D8FD03E08021F048FDF746
:10353000D5FD4021EE48FDF7CFFD6006040E681C66
:10354000C5B2082DE5DB0821E948FDF7C5FD2021BE
:10355000E748FDF7C1FD70BD70B504460D4605F1A5
:10356000B001C8B20021FFF7C1FF102141EA1410D9
:103570000021FFF7BBFF04F00F0141F00100002123
:10358000FFF7B4FF70BD10B500218D20FFF7AEFF2F
:1035900000211420FFF7AAFF0021AF20FFF7A6FFAC
:1035A00010BD10B500218D20FFF7A0FF00211020D5
:1035B000FFF79CFF0021AE20FFF798FF10BD70B50C
:1035C000002419E004F1B001C8B20021FFF78EFF1A
:1035D00000210220FFF78AFF00211020FFF786FF5D
:1035E000002505E001210020FFF780FF681CC5B21F
:1035F000802DF7DB601CC4B2082CE3DB70BD2DE925
:10360000F04107460E46904600250024A8F1200010
:10361000C5B27F2F02DD0027B01CC6B23146384646
:10362000FFF79AFF002408E004EB0511B14A505C53
:103630000121FFF75BFF601CC4B2082CF4DB701C97
:10364000C1B23846FFF788FF002409E004EB0511FA
:103650000831A84A505C0121FFF748FF601CC4B242
:10366000082CF3DBBDE8F08110B50246012000E034
:1036700050430B00A1F10104E1B2F9D110BD2DE9D5
:10368000FF5F074691461D460E9E4FF0000A00243C
:1036900033E0281B401EC1B20A20FFF7E5FFB9FB4B
:1036A000F0F00A21B0FBF1F201FB1208BAF1000FB1
:1036B00013D1681EA04210DDB8F1000F0BD1B34644
:1036C00006EBDB71491001FB0471C8B2202201999D
:1036D000FFF795FF0FE04FF0010AB34606EBDB71F1
:1036E000491001FB0471C8B208F13001CAB2019956
:1036F000FFF785FF00BF601CC4B2AC42C9DBBDE868
:10370000FF9F2DE9F04104460F46154600260EE0C6
:10371000AA5D39462046FFF772FF04F10800C4B2E3
:10372000782C02DD0024B81CC7B2701CC6B2A85D9C
:103730000028EDD1BDE8F0812DE9F04180460E462C
:103740001546002731464046FFF706FF00240AE0F1
:10375000694A02EB8511085D0121FFF7C7FE781C5D
:10376000C7B2601CC4B2102CF2DB701CC1B2404660
:10377000FFF7F2FE00240CE06900491C5E4A02EBF0
:103780004111085D0121FFF7B1FE781CC7B2601C32
:10379000C4B2102CF0DBBDE8F0812DE9F05F0646E5
:1037A0000F4690461C46DDF828A04FF0000BE117AD
:1037B00004EB5171C910A4EBC10131B92046E117E6
:1037C00004EB5171C1F3C70506E02046E11704EB95
:1037D0005171C910491CCDB23D4615E0294630460D
:1037E000FFF7BAFEB1460BE059460BF1010B1AF890
:1037F00001000121FFF77AFE09F1010000F0FF0945
:10380000C145F1DB681CC5B2A542E7DBBDE8F09F0E
:103810001CB501214A20FDF781FE4FF4FC70009099
:1038200001208DF8040000208DF8060003208DF89B
:10383000050069462E48FDF7D3FB4FF4FC712C4878
:10384000FDF74AFC0320009069462C48FDF7C8FBB1
:1038500003212A48FDF740FC4FF4004000906946E0
:103860002748FDF7BDFB4FF400412548FDF734FC28
:1038700010211F48FDF730FC6420FFF7CBF8102122
:103880001B48FDF72BFC6420FFF7C4F810211848F3
:10389000FDF722FC0021AE20FFF728FE00210220C8
:1038A000FFF724FE00211020FFF720FE002140201A
:1038B000FFF71CFE00218120FFF718FE0021CF201A
:1038C000FFF714FE0021A120FFF710FE0021C82001
:1038D000FFF70CFE0021A620FFF708FE0021A8201C
:1038E000FFF704FE00213F20FFF700FE002109E062
:1038F000000C0240FE530008540000200008024063
:10390000001802408120FFF7F1FD0021FF20FFF7A2
:10391000EDFD0021D320FFF7E9FD00210846FFF768
:10392000E5FD0021D520FFF7E1FD00218020FFF714
:10393000DDFD0021D920FFF7D9FD0021F120FFF79F
:10394000D5FD0021DA20FFF7D1FD00211220FFF77D
:10395000CDFD0021DB20FFF7C9FD00214020FFF74E
:10396000C5FD00212020FFF7C1FD00210220FFF747
:10397000BDFD00218D20FFF7B9FD00211420FFF7C8
:10398000B5FD0021A420FFF7B1FD0021A620FFF71F
:10399000ADFD0021AF20FFF7A9FD0021AF20FFF70B
:1039A000A5FDFFF70CFE00210846FFF7D5FD1CBD65
:1039B000704700000FB41CB5074B06AA7B4469464C
:1039C0000090059800F051FB0020694600F060FB74
:1039D0001CBC5DF814FB0000D10600002DE9F0418D
:1039E0000646002410687529314616A510D0AFF39D
:1039F0000080002802DA404213A507E031688A07F8
:103A000001D512A502E0490704D511A5012401E062
:103A1000AFF3008000210A2206F1240709E0B0FB81
:103A2000F2FCB0FBF2F302FB1C0030307854184675
:103A3000491C0028F3D123462A463046BDE8F04110
:103A400000F0A8B8000000002D0000002B000000CE
:103A5000200000002DE9F05F894604464FF0000A7F
:103A6000DFF824B1FB44C0F820A02046E168884775
:103A700000287DD0252806D0D4E901219047206A6E
:103A8000401C2062F1E700255F462046E168884738
:103A90002028064607DB312E05D2B81910F8200C75
:103AA00008B10543F1E7A80701D525F00405C4F8DE
:103AB0001CA00027C4F818A02A2E09D0304601F017
:103AC00028F838B304EB8708303EC8F8186019E0CE
:103AD00059F8041B204604EB87029161E16888478E
:103AE000012F064618D1E069002820DA25F02005CC
:103AF0001DE0D8F8180000EB800006EB40003038DD
:103B0000C8F818002046E1688847064601F001F829
:103B10000028EED1012F0AD02E2E08D12046E168D0
:103B200088477F1C0646022F45F02005C4DBA069AC
:103B3000002803DA404245F00105A061E80701D002
:103B400025F01005A6B1A6F14100192802D82036AB
:103B500045F400654A463146204625604D46FCF74F
:103B60006DFB60B1012807D0ED1D25F0070000E0D6
:103B700007E000F1080978E705F1040975E7304628
:103B80007AE7206ABDE8F09F861F00007047704703
:103B9000704770472DE9F0470D4699469246044616
:103BA00000F124080168880604D5E06921F01001BD
:103BB000216000E00120A84201DD471B00E0002752
:103BC000A1697A1902EB0900081AA0612078C006E1
:103BD00002D42046AFF30080002608E0D4E901219A
:103BE0001AF806009047206A401C761C20624E4559
:103BF000F4DB2078C0060AD52046AFF3008006E04B
:103C0000D4E9012130209047206A401C2062381EF0
:103C1000A7F10107F4DC07E0D4E9012118F8050059
:103C20009047206A401C2062281EA5F10105F3DCA4
:103C30002046AFF300802078000602D50220BDE8C0
:103C4000F0870120FBE770472DE9FF4F0C461E4629
:103C50004FF0FF378BB0D2E90001DDF860800A90A9
:103C60008A46C1F30A5505B93D46002108464FF082
:103C70000000BAF1000F00F4400005DA00EB80000C
:103C80004FF4400101EA50004FEA9059B9F1010F99
:103C900000DDB9460A9850EA4A000ED044F61050AA
:103CA000A5F2FF3545432F14B8F1000F1ED0754221
:103CB000291E1EDDC9F100021CE0B8F1010F4FF012
:103CC000000001D0302103E0F24305E02154401C04
:103CD000B042FBDB30460022002121540B99C1F891
:103CE0000880C1E900200FB0BDE8F08FBD1B6D1C3E
:103CF000DEE74A4600DA694206A800F059FA06AB48
:103D000093E8070003AB83E8070050460A9900F0E8
:103D10002DFB8DE80700A0F500501F380090039898
:103D2000002D09DD42F21F014A46084403A9039011
:103D3000684600F08CFD08E0A0F500504A461F38A8
:103D400003A90390684600F096FD8DE80700000483
:103D5000000C03D04FF0FF30410800E01046B8F1EE
:103D6000000F03D00022009215461EE0751E05D4F8
:103D700000F098F9303262556D1EF9D5B346012234
:103D8000084302D000227F1C04E02078302801D1B3
:103D900000227F1E002A099786D01DE0112D07DA28
:103DA00000F080F9303262556D1C50EA0102F5D105
:103DB000084302D00098C8B10EE00021681E05E05B
:103DC000235C625C63542254401E491C8142F7DB31
:103DD000AB46A81B401E0990002004F80B000B986E
:103DE000099AC0F80880C0E9002B7CE711264FF043
:103DF000000859E72DE9F04F88460446D21D22F00D
:103E0000070191B0D1E90001CDE90A0100F069FE96
:103E100002460B98C00F01D02D2007E020688107D3
:103E200001D52B2002E0202101EAC000032A0990DD
:103E300001D0072A05DB03464146204600F078F909
:103E40000BE12078800601D5E06900E00620B8F19A
:103E5000650F814606D0B8F1660F18D0B8F1670F2C
:103E600070D131E00020B9F1110F009001DB112376
:103E700001E009F101030AAA01A90CA8FFF7E4FE79
:103E8000DDE90C70002609F10105834647E00120B9
:103E90004B4600904FF000470AAA01A90CA8FFF773
:103EA000D3FEDDE90DB00C995D46002610B909F18D
:103EB00001000D18B9EB050003D4C0F1FF3609F17C
:103EC0000105A5EB09002BE0B9F1010F01DA4FF074
:103ED00001090020B9F1110F0090484601DD1123BE
:103EE00000E003460AAA01A90CA8FFF7ADFEDDE930
:103EF0000C704D4600268346207800070AD4AB4557
:103F000000DA5D4601A8012D04DD411911F8011CFC
:103F1000302907D04F4502DA17F1040F04DA0120E7
:103F200082460FE06D1EEEE7002F02DCED1B3E44E3
:103F300003E0781CA84200DD7D1CB81B00F1010ADB
:103F40004FF000472078000703D4AA4501DB4FF06B
:103F5000FF3A0021B7F1004F0DF143088DF84310EF
:103F600024D002202B23002F01DA7F422D230A21A7
:103F7000021EA0F1010000DC5FB197FBF1FC97FB92
:103F8000F1F201FB1C7C17460CF1300C08F801CD56
:103F9000EEE7A8F1010003702188090501D545214C
:103FA00000E06521A0F1010800F8011C09980FA9A3
:103FB000A1EB0807FF1D00B10120411901EBEA70D8
:103FC000A1693844081A401EA0612078C00602D4B6
:103FD0002046AFF30080099828B1D4E90121904729
:103FE000206A401C20622078C00622D52046AFF30C
:103FF00000801EE0002E04DBB34502DD01A8805DD9
:1040000000E03020D4E901219047206A401C206262
:10401000761CAAF101005FEA000A0AD100F03EF81E
:10402000C0680168405CD4E901219047206A401CC7
:104030002062281EA5F10105DCDC07E0D4E901219E
:1040400018F8010B9047206A401C2062381EA7F127
:104050000107F3DC2046AFF30080032011B043E6F4
:1040600001694A1C02610878704700B58FB0CDE93C
:1040700001310021059105497944CDE9031011462C
:104080006846FFF7E7FC0FB000BD0000E5FFFFFF4B
:104090000A6802F8010B0A60704700000048704788
:1040A000FC02002030B5B0F10A024FEA900E71F127
:1040B00000034EEA817EB0EB0E0061EB91014FEA06
:1040C000101E4EEA017E10EB0E0041EB11114FEA7B
:1040D000102E4EEA016E10EB0E0041EB11214FEA5B
:1040E000104E4EEA014E10EB0E0041EB114140180C
:1040F00041F100014FEAD00040EA41704FEAD1019E
:1041000010EB80054FEA810444EA907444EB01040B
:104110006D1944EB0404521BA3414FF0000348BF48
:104120000A3200D530BD401C41F1000130BD000015
:104130002DE9F0411F46044603260168072A01F4D1
:10414000006004DB08B116A505E016A503E008B180
:1041500015A500E015A521F010002060A069C01E83
:10416000A0610FB1401EA0612046AFF300804FB1A7
:10417000D4E9012138469047206A401C2062C01CC7
:10418000206206E0206AFAE7D4E9012115F8010B64
:104190009047761EF8D22046AFF30080BDE8F0814C
:1041A0004E414E006E616E00494E4600696E6600DB
:1041B0002DE9F047814616468AB0334878440DC849
:1041C0008DE80D0030487844801C03AC0DC884E8AD
:1041D0000D0041F69B300844372190FBF1F290FB33
:1041E000F1F5A5F1800501FB12041B3C02D56442E8
:1041F000012000E00020DFF890A080460027FA446C
:10420000AAF1BE0A0DE0E00709D03246684607EB86
:1042100047010AEB810100F02EFB8DE807006410D6
:104220007F1C002CEFD1184F7F44AC3F18E0E8070B
:1042300014D007EB04100DF1180A90E80E008AE87C
:104240000E00C068F04201D198190890324606A9C4
:1042500003A800F010FB03AB83E807006D10641C9B
:10426000002DE4D132466946B8F1000F03A802D010
:1042700000F0EDFA01E000F0FEFAC9E90001C9F82A
:1042800008200AB0BDE8F087BC180000004870475D
:10429000DC0200207546FFF7F9FFAE4605006946CF
:1042A000534620F00700854618B020B5FCF7D6FA33
:1042B000BDE820404FF000064FF000074FF0000827
:1042C0004FF0000B21F00701AC46ACE8C009ACE8A8
:1042D000C009ACE8C009ACE8C0098D467047044687
:1042E000AFF300802046FBF7C8FF00004FF0013C11
:1042F00050F8042B51F8043B9A4221D1A2EB0C0355
:10430000934313EACC1317D150F8042B51F8043B14
:104310009A4215D1A2EB0C03934313EACC130BD1B1
:1043200050F8042B51F8043B9A4209D1A2EB0C033C
:10433000934313EACC13DBD04FF00000704700BF6B
:10434000D01A01BAB1FA81F101F0180122FA01F094
:10435000CB40C1F12001DBB2C0B2C01A2CFA01F38C
:10436000D11A914311EAC311E6D170475FEA400CBC
:1043700008BF91F0000F4FEA8C234FEAC12243EAB5
:1043800051514FEA1C5018BF00F5F0404FEA300081
:1043900018BF41F000415FEA6C5C00F02980BCF17D
:1043A000FF3F08BF40F080407047130C06BF120467
:1043B0004FF0100C4FF0000C130E04BF12020CF162
:1043C000080C130F04BF12010CF1040C930F04BF6F
:1043D00092000CF1020CD30F04BF52000CF1010C3F
:1043E00011464FF00002A0F11F00A0EB0C00704737
:1043F00011F0004F08BF704731F000413FF4D5AFD6
:104400000B0C06BF09044FF0100C4FF0000C0B0E04
:1044100004BF09020CF1080C0B0F04BF09010CF1D9
:10442000040C8B0F04BF89000CF1020CCB0F04BFEE
:1044300049000CF1010CCCF12003A0EB0C0022FA96
:1044400003F302FA0CF241EA030100F101007047A4
:1044500020F07F4C80EA030023F07F47ACEB07039A
:1044600003F57C5300F0004003F1FF032DE9804980
:104470004FEA154B09B44FEA144325EA0B4E24EAE0
:1044800003480FF2042606EB132749083E785FEA3B
:10449000320203FB0667C7F5000707FB06F64FEA83
:1044A00054374FEAD64606F1020607FB066CCCF1FC
:1044B000005C4FEA1C472CEA074C07FB06F40CFB98
:1044C00006F504EB15464FEA961634BF00204FF070
:1044D00000404FEAD13706FB07FC4FEA1C4C0CFBAF
:1044E0000BF7D21B03FB0CF761EB07010CFB0EF77C
:1044F000B0EB074072EB17420CFB08F734BFA2EB9E
:104500000742B2EB074261EB17414FEA0C444FEA16
:10451000910706FB07FC4FEA1C4C0CFB0BF7B0EBBA
:10452000C74072EB573203FB0CF734BFA2EBC74214
:10453000B2EBC74261EB57310CFB0EF7B0EBC70093
:1045400072EB57720CFB08F734BFA2EBC702B2EB59
:10455000C70261EB5771039F4FEA816141EA9211F3
:1045600004EBCC044FEAD1374FEA826206FB07FC2A
:1045700042EA90124FEA80604FEA1C4C0CFB0BF7AA
:10458000D21B03FB0CF761EB07010CFB0EF7B0EB42
:10459000074072EB17420CFB08F734BFA2EB07424F
:1045A000B2EB074261EB17414FEA8C554FEA910796
:1045B00004EB9C2406FB07FC4FEA1C4C0CFB0BF79E
:1045C000B0EBC74072EB573203FB0CF734BFA2EBE2
:1045D000C742B2EBC74261EB57310CFB0EF7B0EBB1
:1045E000C70072EB57720CFB08F734BFA2EBC7028F
:1045F000B2EBC70261EB577115EB4C254FEA8161B5
:1046000041EA92114FEA82624FEAD13742EA9012B0
:1046100006FB07FC44F100044FEA80604FEA1C4CA3
:104620000CFB0BF7D21B03FB0CF761EB07010CFB38
:104630000EF7B0EB074072EB17420CFB08F734BFE4
:10464000A2EB0742B2EB074261EB174115EB1C15D9
:104650004FEA813141EA92414FEA823242EA904286
:104660004FEA80304FEA0C7644F1000448EA0343F5
:104670004EEA0B484FF0000EB2EB080C71EB03074B
:1046800024BF624639464EEB0E0E4FF0000B001869
:10469000524149414BEB0B0BB2EB080C71EB03079A
:1046A0007BF1000B24BF624639464EEB0E0E4FF0F5
:1046B000000B0018524149414BEB0B0BB2EB080CBD
:1046C00071EB03077BF1000B24BF624639464EEBCA
:1046D0000E0E51EA020718BF46F0010616EB0E76E1
:1046E00055F1000254F1000103D5BDE88901BDE890
:1046F0000088BDE88901BDE80048B619524141EB88
:104700000101A3F10103704780807F7E7D7C7B7A6D
:104710007978777676757473727171706F6E6E6D6D
:104720006C6C6B6A6A696868676666656464636313
:1047300062616160605F5F5E5E5D5D5C5C5B5B5A99
:104740005A59595858575756565555555454535306
:1047500052525251515050504F4F4F4E4E4D4D4D61
:104760004C4C4C4B4B4B4A4A4A49494948484847AC
:1047700047474746464645454544444444434343EA
:104780004342424242414141002B26D4770021D08E
:104790001CB54FEA370703B44FF010004FF010017B
:1047A0004FF000000FBCBDE810400BF1010BBBF156
:1047B000010F08BF5FEA170722BF12F1010211F1D2
:1047C00001014FF0004143F1000300F0004043EAD3
:1047D00000007047F9D35708DAE746EA064613F1B6
:1047E000400F4FEA16461FDD13F1200FDFBF1643BF
:1047F0000A46002120335B42C8D0C3F1200746EAB5
:10480000064602FA07F74FEA164646EA0706C3F1DC
:10481000200722FA03F201FA07F721FA03F14FF019
:10482000000342EA0702B1E746EA020646EA064604
:104830004FEA164646EA0106BCBF46EA0646360C73
:104840004FF000034FF000024FF000019EE72DE90A
:10485000C048934630B491E8380007C831EA400CAC
:1048600048BF34EA430C03D5FFF7F2FDFFF78CFF96
:10487000F0BCBDE800882DE9C048934630B491E80B
:10488000380007C810F0804F08BF13F0804F03D1E5
:1048900000F005F8FFF778FFF0BCBDE8008820F0D5
:1048A0007F4780EA030023F07F4C07EB0C03A3F55E
:1048B0007C5300F00040A3F1FE0392F0000F00F0E3
:1048C000B38095F0000F00F077802DE901494FEAA1
:1048D00011404FEA144621EA004800FB06FC24EA96
:1048E000064708FB06F607FB08F800FB07F718EB7E
:1048F00006484CEB164C4FEA124B18EB07484FEAB0
:1049000015464CEB174022EA0B4E0BFB06FC25EA42
:1049100006470EFB06F607FB0EFE0BFB07F71EEB2A
:10492000064E4CEB164C4FF000061EEB074E4CEBC0
:10493000174B18EB0B0840F1000018EB0E0B58EB6F
:10494000000840F100008F1A4FF000013CBFC9433E
:10495000661B14BFB5EB040C00213CBFC943F61B1A
:104960004FEA17444EEA8E0E27EA04454FEA1C47E9
:1049700004FB07622CEA074C05FB07F70CFB05F666
:1049800004FB0CFC16EB074642EB174216EB0C46F9
:1049900042EB1C421BEB060658EB0202414146EA81
:1049A0009E0601D5BDE80189B619524141EB0101CE
:1049B000A3F10103BDE801894FEA14454FEA11470D
:1049C00024EA054621EA074C05FB07F406FB07F736
:1049D0000CFB06F105FB0CFC11EB074144EB174403
:1049E0004FEA124711EB0C4144EB1C4422EA074CFE
:1049F00005FB07F206FB07F70CFB06F605FB0CFCB4
:104A000016EB074642EB174216EB0C4642EB1C45F1
:104A10006A1854F1000148BF7047B619524141EB82
:104A20000101A3F10103704795F0000F37D04FEA61
:104A300011424FEA144721EA024624EA074C02FBDE
:104A400007F106FB07F70CFB06F402FB0CFC14EB6A
:104A5000074441EB17414FEA154714EB0C4441EB77
:104A60001C4125EA074C02FB07F506FB07F70CFB88
:104A700006F602FB0CFC16EB074645EB174516EB5A
:104A80000C4645EB1C42121951F1000148BF70471A
:104A9000B619524141EB0101A3F1010370474FEAFE
:104AA00014454FEA114724EA054621EA074C05FB65
:104AB00007F106FB07F70CFB06F24FF0000605FBBB
:104AC0000CFC12EB074241EB174112EB0C4251EB8D
:104AD0001C4148BF7047921841EB0101A3F101034B
:104AE000704703B401984100009850EAC12018BFF4
:104AF00004204A0D18BF40F0010040F2FF72B2EBF3
:104B0000515F08BF40F00200012808BF052002B035
:104B1000704730380A2801D20120704700207047C2
:104B200010B500290AD00878002807D00548784435
:104B3000FFF7DCFB002801D0002010BD02487844BC
:104B400010BD0000860F00007E0F000021F0004223
:104B5000A2F16052B2F5801F01F0004328BFD2F1EC
:104B60007F6C0BD95FEA001C43EAC20242EB507033
:104B700018BF704728BF20F001007047B2F5801FB2
:104B8000BCBF184670474FEA410C1CF5001F02D20B
:104B9000084600F019BB70B500F04CFA000000891F
:104BA000FFF7F6BF4FF00040A0F58000704700000F
:104BB0002DE9C04130B4DFF8A0C23CEA111418BF9F
:104BC0003CEA131400F0EC8081EA03051CEA11149E
:104BD00044EAD57418BF1CEA131500F0C780A4EB93
:104BE00005044FF0004545EAC12145EAC32341EAE7
:104BF000505143EA525304F17F74994204F5003452
:104C00004FEAC0204FEAC22208BF904200F09C80C9
:104C10004FEA13650FF24016765D4FEA134506FB27
:104C200005F7C7F1807706FB07F74FEAD737A7FBF1
:104C300003687642C8F58038A7FB06CE38BFA8F1D6
:104C4000010807FB08E64FF0000EA6FB028CE6FB0E
:104C500003CEDCF1000CCEF1004E38BFAEF1010EF8
:104C6000A6FB0C584FF000074FF00005E6FB0E873F
:104C7000A1FB08C6A0FB07CE16EB0E0645F100050A
:104C8000E1FB076515F1E04E7EBFA4F580345FEAD5
:104C900046066D4116F1800745F100054FEA1727DA
:104CA0004FEA066647EA0567A6F1DE46B6F1805F81
:104CB0004FEA15251FD9384624F0010C05EBC471C5
:104CC000BCF1FE6F01EB0C1102D8F0BCBDE8008115
:104CD00024425CBF01F5801E9EEAC47F02D4F0BC72
:104CE000BDE80081244238D4F0BCA1F1C041BDE848
:104CF000004100F0EDB94FEAD22242EA43524FEAB6
:104D0000D323A7FB02864FEAD02040EA415007FB9D
:104D100003661EEA0E0F4FEAD12105FB026658BF5B
:104D2000A6EB0056B6EB00564FEA520E4EEAC37E93
:104D300018EB0E0E56EB530EBDD518EB02085E4174
:104D40007F1C55F10005B6E74FF480154FF00007C2
:104D50004FF000064FF00008ADE7F0BC4FF0000048
:104D600001F1C04101F00041BDE8008111EA0C1FD2
:104D70000CEA131500D00CE013EA0C1F00F025809C
:104D80004FF00000F0BC81EA030101F00041BDE8F2
:104D90000081F0BCBDE8004181EA030100F098B950
:104DA000F0BCBDE8004170B500F044F9097EFC3E5E
:104DB00000F007B881EA03014FF0000001F0004164
:104DC000704781EA030100F083B9F0BCBDE80041FF
:104DD0004FF0000021497047FFFDFBF9F7F5F4F2B1
:104DE000F0EEEDEBE9E8E6E4E3E1E0DEDDDBDAD886
:104DF000D7D5D4D3D1D0CFCDCCCBCAC8C7C6C5C4E4
:104E0000C2C1C0BFBEBDBCBBBAB9B8B7B6B5B4B3FA
:104E1000B2B1B0AFAEADACABAAA9A8A8A7A6A5A4E5
:104E2000A3A3A2A1A09F9F9E9D9C9C9B9A999998A9
:104E30009797969595949393929191908F8F8E8E4C
:104E40008D8C8C8B8B8A89898888878786858584D9
:104E500084838382828181800000FF070000F87FC5
:104E60004FEA1153A3F58063D3F11E03A8BFD3F11A
:104E7000200C08DB4FF0004242EAC12252EA5052B5
:104E800032FA03F0704709420BD4102BC4BF002044
:104E9000704703F5787CBCF1FF3F05D04FF0FF3041
:104EA00070474FF00000704770B500F0C3F800BFC6
:104EB0004992248000207047F0E7B0FA80F310FA9E
:104EC00003F10AD0C3F11D0303F580634FEA41509B
:104ED0004FEA035202EBD12170474FF000007047B8
:104EE000DFF848C170B51CEA111E1EBF1CEA13157D
:104EF0009EEA0C0F95EA0C0F00F06F8081EA030424
:104F000023EA4C134EEAD47E21EA4C1141F480117D
:104F100043F48013AE44A1FB024CA0FB0365AEF149
:104F20007F7E361955EB0C05A1FB034C4CF10003B9
:104F3000A0FB021C16EB0C06654153F1000309426D
:104F400018BF46F0010613F4007F0BD14FEA03317E
:104F50004FEA0530340341EA155140EA16506FF02C
:104F600003020AE04FEAC3214FEAC520F40241EAF6
:104F7000555140EA56506FF0020202EB2E4201EB0F
:104F8000025585EACE710AD05FEA440C18BF24F0BE
:104F9000004450F1000041F1000120EAD47040F2D9
:104FA000FE7C624500D270BDA84214BF4FF0804421
:104FB0004FF04044002E08BF0024BEF1806FA8BF10
:104FC000A1F1C041BDE8704080F282804FF0000046
:104FD00001F1C04101F0004170479EEA0C0F0CEA5C
:104FE000131518BF95EA0C0F06D04FF0000081EAA8
:104FF000030E0EF0004170BD00F01CF88900013E68
:1050000000F007B800F009B84FEA430C5FEA5C5CB7
:1050100008D081EA030100F05BB84FEA410C5FEA77
:105020005C5CF6D14FF00000014970470000FF07BB
:105030000000F87F0EF1020E2EF0030E5EF8046BF6
:10504000364205D4012A43EB030515F5001F12D89B
:10505000012841EB010C1CF5001F0CD80ED14FEAC2
:10506000D17C15F5001F0CEB4C0C0CF1020C08BFA9
:105070004CEBD37C04E04FF0080C01E04FEAD37C0A
:105080000CEB4C0526FA05F606F00706B6F1040C03
:1050900006D20EEB860CBDE870404CF0010C604768
:1050A000DFE80CF0090B02024FF000414FF0000066
:1050B000A1F5002170BD19461046012851EB0104ED
:1050C00018BFD4F5001484BF002001F0004170BD6A
:1050D0000808A0F500114FEA3101704743004FEA7C
:1050E000D30C4FEA3C0C43401FBF40070CF160510A
:1050F00013F0FE4F70471CF0006F03D100200CF03E
:10510000004170470CF0004343EA507010B540EA8C
:10511000CC0000F00EF800BF000000924FEA000142
:10512000FFF7D6BF4FF000414FF00000A1F500217E
:1051300070470EF1020E2EF0030E5EF8044B24426F
:1051400004D44FEA4102B2F17F4F11D84FEA400335
:10515000B3F17F4F0CD80ED14FEAD07CB2F17F4F24
:105160000CEB4C0C0CF1020C08BF4CEBD17C04E0B6
:105170004FF0080C01E04FEAD17C0CEB4C0324FA11
:1051800003F404F00704B4F1040C06D20EEB840C13
:10519000BDE810404CF0010C6047DFE80CF0070858
:1051A00002024FF00040A0F5800010BD084642000A
:1051B00018BFD2F1807288BF00F0004010BD4FF0E0
:1051C0004070E1EE100A7047FF2141EAD050C0055F
:1051D0007047FEF70FBE0000000000000000002F27
:1051E000000000000700070000147F147F14002453
:1051F0002A7F2A1200626408132300364955225080
:1052000000000503000000001C22410000004122B4
:105210001C000014083E08140008083E080800009E
:1052200000A0600000080808080800006060000096
:10523000002010080402003E5149453E0000427F14
:105240004000004261514946002141454B31001860
:1052500014127F10002745454539003C4A49493022
:1052600000017109050300364949493600064949DC
:10527000291E0000363600000000563600000008E7
:1052800014224100001414141414000041221408C4
:1052900000020151090600324959513E007C1211A9
:1052A000127C007F49494936003E41414122007F3E
:1052B0004141221C007F49494941007F09090901F8
:1052C000003E4149497A007F0808087F0000417F7D
:1052D0004100002040413F01007F08142241007F2F
:1052E00040404040007F020C027F007F0408107F96
:1052F000003E4141413E007F09090906003E4151FF
:10530000215E007F091929460046494949310001BB
:10531000017F0101003F4040403F001F2040201F0F
:10532000003F4038403F00631408146300070870D2
:10533000080700615149454300007F414100005585
:105340002A552A55000041417F0000040201020451
:10535000004040404040000001020400002054543E
:105360005478007F4844443800384444442000388E
:105370004444487F00385454541800087E09010200
:105380000018A4A4A47C007F080404780000447DD5
:105390004000004080847D00007F10284400000011
:1053A000417F4000007C04180478007C08040478E5
:1053B00000384444443800FC2424241800182424D1
:1053C00018FC007C080404080048545454200004CD
:1053D0003F444020003C4040207C001C2040201CDA
:1053E000003C4030403C004428102844001CA0A051
:1053F000A07C004464544C4414141414141400008D
:10540000000000000000000000000000000000009C
:1054100000F8000000000000003330000000001021
:105420000C06100C0600000000000000000040C048
:105430007840C0784000043F04043F04040000703A
:1054400088FC08300000001820FF211E0000F00832
:10545000F000E018000000211C031E211E0000F0D7
:105460000888700000001E2123241927211010161F
:105470000E0000000000000000000000000000001E
:1054800000E018040200000000071820400000029D
:105490000418E00000000040201807000000404011
:1054A00080F0804040000202010F01020200000073
:1054B00000F0000000000101011F010101000000D7
:1054C00000000000000080B070000000000000003C
:1054D00000000000000000010101010101010000C5
:1054E000000000000000003030000000000000005C
:1054F000000080601804006018060100000000E051
:1055000010080810E000000F102020100F000010FD
:1055100010F8000000000020203F20200000007054
:10552000080808887000003028242221300000304C
:105530000888884830000018202020110E00000044
:10554000C02010F8000000070424243F240000F8C5
:105550000888880808000019212020110E0000E0AA
:10556000108888180000000F112020110E0000384C
:105570000808C83808000000003F00000000007064
:10558000880808887000001C222121221C0000E0ED
:1055900010080810E0000000312222110F00000066
:1055A00000C0C0000000000000303000000000001B
:1055B000008000000000000080600000000000008B
:1055C0008040201008000001020408102000404024
:1055D0004040404040000404040404040400000867
:1055E000102040800000002010080402010000701C
:1055F00048080808F0000000003036010000C03004
:10560000C828E810E0000718272423140B00000026
:10561000C038E0000000203C23020227382008F8B0
:10562000888888700000203F202020110E00C030A4
:10563000080808083800071820202010080008F87B
:1056400008080810E000203F202020100F0008F874
:105650008888E8081000203F20202320180008F840
:105660008888E8081000203F200003000000C030B8
:1056700008080838000007182020221E020008F839
:1056800008000008F808203F210101213F20000800
:1056900008F8080800000020203F2020000000003B
:1056A0000808F8080800C08080807F00000008F823
:1056B00088C028180800203F20012638200008F85C
:1056C000080000000000203F20202020300008F8C3
:1056D000F800F8F80800203F003F003F200008F8DD
:1056E00030C00008F808203F200007183F00E010F5
:1056F00008080810E0000F10202020100F0008F804
:1057000008080808F000203F210101010000E01016
:1057100008080810E0000F18242438504F0008F83B
:10572000888888887000203F2000030C302000709B
:105730008808080838000038202121221C00180899
:1057400008F8080818000000203F2000000008F8B2
:1057500008000008F808001F202020201F000878FB
:10576000880000C83808000007380E010000F8085B
:1057700000F80008F800033C0700073C0300081885
:1057800068808068180820302C03032C30200838EB
:10579000C800C83808000000203F200000001008A2
:1057A0000808C838080020382621202018000000EA
:1057B00000FE020202000000007F40404000000C9A
:1057C00030C000000000000000010638C0000002E8
:1057D0000202FE000000004040407F000000000088
:1057E00004020202040000000000000000000000AB
:1057F00000000000000080808080808080800002A7
:105800000204000000000000000000000000000092
:105810008080808000000019242222223F2008F886
:10582000008080000000003F112020110E000000C9
:10583000008080800000000E112020201100000058
:1058400000808088F800000E112020103F2000000A
:10585000808080800000001F22222222130000800E
:1058600080F0888888180020203F20200000000059
:10587000808080808000006B94949493600008F88E
:10588000008080800000203F210000203F20008019
:105890009898000000000020203F20200000000019
:1058A00000809898000000C08080807F000008F889
:1058B000000080808000203F24022D30200000085E
:1058C00008F8000000000020203F20200000808019
:1058D000808080808000203F20003F20003F80802B
:1058E000008080800000203F210000203F20000039
:1058F000808080800000001F202020201F008080EA
:1059000000808000000080FFA12020110E00000018
:10591000008080808000000E112020A0FF80808009
:1059200080008080800020203F21200001000000B6
:10593000808080808000003324242424190000808B
:1059400080E0808000000000001F20200000808098
:10595000000000808000001F202020103F20808059
:1059600080000080808000010E30080601008080E9
:105970000080008080800F300C030C300F0000800E
:105980008000808080000020312E0E312000808039
:1059900080000080808080818E7018060100008069
:1059A0008080808080000021302C22213000000087
:1059B0000000807C020200000000003F4040000028
:1059C0000000FF00000000000000FF0000000002D7
:1059D000027C800000000040403F00000000000604
:1059E00001010202040400000000000000000400A5
:1059F000000800000000000000020001000010008C
:105A000002400000000000A000000000054000006F
:105A1000000000C8000000000C4000000000409C96
:105A200000000000194000000020BCBE0000000083
:105A300034400000BFC91B8E00000004B5400000C8
:105A4000504BCFD06607E2CF010000006C41000050
:105A50003E8251AADFEEA73401000000D9420000C7
:105A6000DCB5A0E23A301F97FFFFFFFFB44500000E
:105A7000FD25A0C8E9A3C14FFFFFFFFFFF3F0000C6
:105A80000000008000000000FF3F000000000080D8
:105A900000000000D05A000800000020140200009E
:105AA000C40100089C5B0008140200202C070000C1
:105AB000200200081C00000043000000F8FFFFFF68
:105AC0000C0000000E0000000F0000002E0000007F
:105AD00011847A030A680901020304060708090C05
