:020000040800F2
:1000000040070020E5010008C51600083916000861
:10001000C11600086F1100081F260008000000002C
:10002000000000000000000000000000051A0008A9
:10003000BD110008000000004D170008311D000828
:10004000FF010008FF010008FF010008FF01000890
:10005000FF010008FF010008C11100080912000893
:1000600051120008FF010008FF010008FF0100080D
:10007000FF010008FF010008FF010008FF01000860
:10008000FF010008FF010008FF010008FF01000850
:10009000FF010008FF010008FF010008911200089D
:1000A000FF010008FF010008FF010008FF01000830
:1000B000FF010008951D0008FF010008FF0100086E
:1000C000FF010008FF010008FF010008FF01000810
:1000D000FF010008B9230008FF010008FF01000824
:1000E000FF010008FF010008FF010008FF010008F0
:1000F000FF010008FF010008FF010008FF010008E0
:10010000FF010008FF010008FF010008FF010008CF
:10011000FF010008FF010008FF010008FF010008BF
:10012000FF010008FF010008FF010008FF010008AF
:1001300000F002F800F047F80AA090E8000C8244B2
:100140008344AAF10107DA4501D100F03CF8AFF28F
:10015000090EBAE80F0013F0010F18BFFB1A43F0A5
:10016000010318475039000070390000103A24BFCD
:1001700078C878C1FAD8520724BF30C830C144BF0C
:1001800004680C607047000000230024002500264E
:10019000103A28BF78C1FBD8520728BF30C148BFEA
:1001A0000B607047662903F03884002070471FB544
:1001B00000F09EFA04000020002102F01BFCE06029
:1001C0001FBD10B510BD00F0ABFB1146FFF7EFFFF0
:1001D00002F0DEFA00F0C9FB03B4FFF7F2FF03BC44
:1001E00002F033FA0948804709480047FEE7FEE776
:1001F000FEE7FEE7FEE7FEE7FEE7FEE7FEE7FEE7D7
:1002000004480549054A064B70470000351D0008A3
:100210003101000840010020400700204003002079
:1002200040030020704700000FB4044910B503AA32
:10023000029800F04BFA10BC5DF814FB1800002087
:100240002DE9F0410E460446002020622046E16878
:10025000884730B3252805D0D4E901219047206A8A
:10026000401CF2E7E168204600278847050018D0C7
:10027000A5F14100192802D820354FF40067324615
:10028000294620462760FFF78DFF40B1012804D0A2
:10029000F61D26F007060836D8E7361DD6E72846AD
:1002A000DAE7206ABDE8F081704770477047704711
:1002B00070472DE9FF4F0C461E464FF0FF378BB0BD
:1002C000D2E90001DDF860800A908A46C1F30A5540
:1002D00005B93D46002108464FF00000BAF1000F75
:1002E00000F4400005DA00EB80004FF4400101EA21
:1002F00050004FEA9059B9F1010F00DDB9460A9854
:1003000050EA4A000ED044F61050A5F2FF3545439E
:100310002F14B8F1000F1ED07542291E1EDDC9F141
:1003200000021CE0B8F1010F4FF0000001D03021B5
:1003300003E0F24305E02154401CB042FBDB3046B1
:100340000022002121540B99C1F80880C1E9002046
:100350000FB0BDE8F08FBD1B6D1CDEE74A4600DA2A
:10036000694206A800F066FA06AB93E8070003AB03
:1003700083E8070050460A9900F03EFB8DE807002D
:10038000A0F500501F3800900398002D09DD42F2BF
:100390001F014A46084403A90390684600F09DFDEA
:1003A00008E0A0F500504A461F3803A903906846AC
:1003B00000F0A7FD8DE807000004000C03D04FF00B
:1003C000FF30410800E01046B8F1000F03D00022D2
:1003D000009215461EE0751E05D400F08DF93032EE
:1003E00062556D1EF9D5B3460122084302D00022A2
:1003F0007F1C04E02078302801D100227F1E002AD3
:10040000099786D01DE0112D07DA00F075F930321A
:1004100062556D1C50EA0102F5D1084302D00098E4
:10042000C8B10EE00021681E05E0235C625C6354E5
:100430002254401E491C8142F7DBAB46A81B401EDC
:100440000990002004F80B000B98099AC0F8088066
:10045000C0E9002B7CE711264FF0000859E72DE991
:10046000F04F88460446D21D22F0070191B0D1E931
:100470000001CDE90A0102F0D4F802460B98C00F42
:1004800001D02D2007E02068810701D52B2002E054
:10049000202101EAC000032A099001D0072A05DBC8
:1004A00003464146204600F085F90BE1207880069E
:1004B00001D5E06900E00620B8F1650F814606D05D
:1004C000B8F1660F18D0B8F1670F70D131E0002095
:1004D000B9F1110F009001DB112301E009F10103D3
:1004E0000AAA01A90CA8FFF7E4FEDDE90C700026BA
:1004F00009F10105834647E001204B4600904FF08B
:1005000000470AAA01A90CA8FFF7D3FEDDE90DB048
:100510000C995D46002610B909F101000D18B9EBE0
:10052000050003D4C0F1FF3609F10105A5EB090070
:100530002BE0B9F1010F01DA4FF001090020B9F108
:10054000110F0090484601DD112300E003460AAA7E
:1005500001A90CA8FFF7ADFEDDE90C704D460026A1
:100560008346207800070AD4AB4500DA5D4601A82F
:10057000012D04DD411911F8011C302907D04F4528
:1005800002DA17F1040F04DA012082460FE06D1E33
:10059000EEE7002F02DCED1B3E4403E0781CA8428E
:1005A00000DD7D1CB81B00F1010A4FF000472078E8
:1005B000000703D4AA4501DB4FF0FF3A0021B7F151
:1005C000004F0DF143088DF8431024D002202B2357
:1005D000002F01DA7F422D230A21021EA0F1010023
:1005E00000DC5FB197FBF1FC97FBF1F201FB1C7C97
:1005F00017460CF1300C08F801CDEEE7A8F1010028
:1006000003702188090501D5452100E06521A0F18D
:10061000010800F8011C09980FA9A1EB0807FF1DAC
:1006200000B10120411901EBEA70A1693844081AB0
:10063000401EA0612078C00602D42046AFF300809F
:10064000099828B1D4E901219047206A401C206212
:100650002078C00622D52046AFF300801EE0002E91
:1006600004DBB34502DD01A8805D00E03020D4E961
:1006700001219047206A401C2062761CAAF10100EB
:100680005FEA000A0AD100F033F8C0680168405CF4
:10069000D4E901219047206A401C2062281EA5F160
:1006A0000105DCDC07E0D4E9012118F8010B9047D3
:1006B000206A401C2062381EA7F10107F3DC2046A7
:1006C000AFF30080032011B043E60000074B70B584
:1006D0000D467B4400F05BF80446284600F018F90C
:1006E00010B14FF0FF3070BD204670BD0B200000F0
:1006F000004870470001002030B5B0F10A024FEA0F
:10070000900E71F100034EEA817EB0EB0E0061EBBA
:1007100091014FEA101E4EEA017E10EB0E0041EBF4
:1007200011114FEA102E4EEA016E10EB0E0041EB54
:1007300011214FEA104E4EEA014E10EB0E0041EB34
:100740001141401841F100014FEAD00040EA4170E8
:100750004FEAD10110EB80054FEA810444EA90741E
:1007600044EB01046D1944EB0404521BA3414FF008
:10077000000348BF0A3200D530BD401C41F10001E2
:1007800030BD000001694A1C02610878704700B55D
:100790008FB0CDE901310021059105497944CDE9BA
:1007A000031011466846FFF74BFD0FB000BD000077
:1007B000E5FFFFFF2DE9F0411F46044603260168CF
:1007C000072A01F4006004DB08B116A505E016A5B0
:1007D00003E008B115A500E015A521F01000206088
:1007E000A069C01EA0610FB1401EA0612046AFF3FA
:1007F00000804FB1D4E9012138469047206A401C5F
:100800002062C01C206206E0206AFAE7D4E90121D8
:1008100015F8010B9047761EF8D22046AFF3008002
:10082000BDE8F0814E414E006E616E00494E4600BB
:10083000696E66002DE9F047814616468AB0334856
:1008400078440DC88DE80D0030487844801C03AC16
:100850000DC884E80D0041F69B300844372190FB19
:10086000F1F290FBF1F5A5F1800501FB12041B3CB0
:1008700002D56442012000E00020DFF890A080460D
:100880000027FA44AAF1BE0A0DE0E00709D032467B
:10089000684607EB47010AEB810100F032FB8DE867
:1008A000070064107F1C002CEFD1184F7F44AC3F31
:1008B00018E0E80714D007EB04100DF1180A90E8CF
:1008C0000E008AE80E00C068F04201D19819089025
:1008D000324606A903A800F014FB03AB83E8070027
:1008E0006D10641C002DE4D132466946B8F1000F4A
:1008F00003A802D000F0F1FA01E000F002FBC9E920
:100900000001C9F808200AB0BDE8F087583200009D
:10091000007B00F08000704700487047E000002036
:100920007546FFF7F9FFAE4605006946534620F0CD
:100930000700854618B020B5FFF762FCBDE82040EF
:100940004FF000064FF000074FF000084FF0000B8B
:1009500021F00701AC46ACE8C009ACE8C009ACE83E
:10096000C009ACE8C0098D4670470446AFF300806B
:100970002046FFF731FC00004FF0013C50F8042BFB
:1009800051F8043B9A4221D1A2EB0C03934313EAA2
:10099000CC1317D150F8042B51F8043B9A4215D1CF
:1009A000A2EB0C03934313EACC130BD150F8042BA6
:1009B00051F8043B9A4209D1A2EB0C03934313EA8A
:1009C000CC13DBD04FF00000704700BFD01A01BA43
:1009D000B1FA81F101F0180122FA01F0CB40C1F126
:1009E0002001DBB2C0B2C01A2CFA01F3D11A914334
:1009F00011EAC311E6D170475FEA400C08BF91F0DD
:100A0000000F4FEA8C234FEAC12243EA51514FEACB
:100A10001C5018BF00F5F0404FEA300018BF41F0FD
:100A200000415FEA6C5C00F02980BCF1FF3F08BF29
:100A300040F080407047130C06BF12044FF0100CBA
:100A40004FF0000C130E04BF12020CF1080C130F30
:100A500004BF12010CF1040C930F04BF92000CF1BF
:100A6000020CD30F04BF52000CF1010C11464FF0E1
:100A70000002A0F11F00A0EB0C00704711F0004F26
:100A800008BF704731F000413FF4D5AF0B0C06BFF3
:100A900009044FF0100C4FF0000C0B0E04BF0902BC
:100AA0000CF1080C0B0F04BF09010CF1040C8B0FA7
:100AB00004BF89000CF1020CCB0F04BF49000CF1FC
:100AC000010CCCF12003A0EB0C0022FA03F302FA94
:100AD0000CF241EA030100F10100704720F07F4C65
:100AE00080EA030023F07F47ACEB070303F57C5358
:100AF00000F0004003F1FF032DE980494FEA154B58
:100B000009B44FEA144325EA0B4E24EA03480FF2D6
:100B1000042606EB132749083E785FEA320203FBFE
:100B20000667C7F5000707FB06F64FEA54374FEA9A
:100B3000D64606F1020607FB066CCCF1005C4FEAD4
:100B40001C472CEA074C07FB06F40CFB06F504EBEC
:100B500015464FEA961634BF00204FF000404FEA8A
:100B6000D13706FB07FC4FEA1C4C0CFB0BF7D21BE2
:100B700003FB0CF761EB07010CFB0EF7B0EB074032
:100B800072EB17420CFB08F734BFA2EB0742B2EB43
:100B9000074261EB17414FEA0C444FEA910706FB0D
:100BA00007FC4FEA1C4C0CFB0BF7B0EBC74072EB99
:100BB000573203FB0CF734BFA2EBC742B2EBC7427C
:100BC00061EB57310CFB0EF7B0EBC70072EB5772BD
:100BD0000CFB08F734BFA2EBC702B2EBC70261EB14
:100BE0005771039F4FEA816141EA921104EBCC04F3
:100BF0004FEAD1374FEA826206FB07FC42EA9012C5
:100C00004FEA80604FEA1C4C0CFB0BF7D21B03FB36
:100C10000CF761EB07010CFB0EF7B0EB074072EB32
:100C200017420CFB08F734BFA2EB0742B2EB0742B6
:100C300061EB17414FEA8C554FEA910704EB9C2476
:100C400006FB07FC4FEA1C4C0CFB0BF7B0EBC74054
:100C500072EB573203FB0CF734BFA2EBC742B2EB87
:100C6000C74261EB57310CFB0EF7B0EBC70072EBDC
:100C700057720CFB08F734BFA2EBC702B2EBC702F6
:100C800061EB577115EB4C254FEA816141EA9211F6
:100C90004FEA82624FEAD13742EA901206FB07FC24
:100CA00044F100044FEA80604FEA1C4C0CFB0BF748
:100CB000D21B03FB0CF761EB07010CFB0EF7B0EB4B
:100CC000074072EB17420CFB08F734BFA2EB074258
:100CD000B2EB074261EB174115EB1C154FEA81316E
:100CE00041EA92414FEA823242EA90424FEA803032
:100CF0004FEA0C7644F1000448EA03434EEA0B48FD
:100D00004FF0000EB2EB080C71EB030724BF6246F4
:100D100039464EEB0E0E4FF0000B00185241494180
:100D20004BEB0B0BB2EB080C71EB03077BF1000BE9
:100D300024BF624639464EEB0E0E4FF0000B0018F2
:100D4000524149414BEB0B0BB2EB080C71EB030723
:100D50007BF1000B24BF624639464EEB0E0E51EA82
:100D6000020718BF46F0010616EB0E7655F1000299
:100D700054F1000103D5BDE88901BDE80088BDE854
:100D80008901BDE80048B619524141EB0101A3F1C8
:100D90000103704780807F7E7D7C7B7A79787776CF
:100DA00076757473727171706F6E6E6D6C6C6B6A48
:100DB0006A696868676666656464636362616160E6
:100DC000605F5F5E5E5D5D5C5C5B5B5A5A59595863
:100DD00058575756565555555454535352525251CD
:100DE000515050504F4F4F4E4E4D4D4D4C4C4C4B23
:100DF0004B4B4A4A4A49494948484847474747466A
:100E000046464545454444444443434343424242A5
:100E100042414141002B26D4770021D01CB54FEA36
:100E2000370703B44FF010004FF010014FF00000EF
:100E30000FBCBDE810400BF1010BBBF1010F08BF67
:100E40005FEA170722BF12F1010211F101014FF011
:100E5000004143F1000300F0004043EA0000704706
:100E6000F9D35708DAE746EA064613F1400F4FEA8E
:100E700016461FDD13F1200FDFBF16430A4600217F
:100E800020335B42C8D0C3F1200746EA064602FA87
:100E900007F74FEA164646EA0706C3F1200722FA8B
:100EA00003F201FA07F721FA03F14FF0000342EAD7
:100EB0000702B1E746EA020646EA06464FEA164648
:100EC00046EA0106BCBF46EA0646360C4FF0000370
:100ED0004FF000024FF000019EE72DE9C048934615
:100EE00030B491E8380007C831EA400C48BF34EA12
:100EF000430C03D5FFF7F2FDFFF78CFFF0BCBDE814
:100F000000882DE9C048934630B491E8380007C8FE
:100F100010F0804F08BF13F0804F03D100F005F8A8
:100F2000FFF778FFF0BCBDE8008820F07F4780EA3B
:100F3000030023F07F4C07EB0C03A3F57C5300F078
:100F40000040A3F1FE0392F0000F00F0B38095F093
:100F5000000F00F077802DE901494FEA11404FEA78
:100F6000144621EA004800FB06FC24EA064708FB79
:100F700006F607FB08F800FB07F718EB06484CEBF2
:100F8000164C4FEA124B18EB07484FEA15464CEB4C
:100F9000174022EA0B4E0BFB06FC25EA06470EFB28
:100FA00006F607FB0EFE0BFB07F71EEB064E4CEB9F
:100FB000164C4FF000061EEB074E4CEB174B18EB90
:100FC0000B0840F1000018EB0E0B58EB000840F145
:100FD00000008F1A4FF000013CBFC943661B14BFCD
:100FE000B5EB040C00213CBFC943F61B4FEA174484
:100FF0004EEA8E0E27EA04454FEA1C4704FB0762BF
:101000002CEA074C05FB07F70CFB05F604FB0CFC70
:1010100016EB074642EB174216EB0C4642EB1C421E
:101020001BEB060658EB0202414146EA9E0601D53B
:10103000BDE80189B619524141EB0101A3F1010359
:10104000BDE801894FEA14454FEA114724EA0546F5
:1010500021EA074C05FB07F406FB07F70CFB06F13A
:1010600005FB0CFC11EB074144EB17444FEA124718
:1010700011EB0C4144EB1C4422EA074C05FB07F240
:1010800006FB07F70CFB06F605FB0CFC16EB074608
:1010900042EB174216EB0C4642EB1C456A1854F122
:1010A000000148BF7047B619524141EB0101A3F15D
:1010B0000103704795F0000F37D04FEA11424FEA15
:1010C000144721EA024624EA074C02FB07F106FB1B
:1010D00007F70CFB06F402FB0CFC14EB074441EB96
:1010E00017414FEA154714EB0C4441EB1C4125EA2C
:1010F000074C02FB07F506FB07F70CFB06F602FBA5
:101100000CFC16EB074645EB174516EB0C4645EB7A
:101110001C42121951F1000148BF7047B6195241E3
:1011200041EB0101A3F1010370474FEA14454FEA77
:10113000114724EA054621EA074C05FB07F106FBA7
:1011400007F70CFB06F24FF0000605FB0CFC12EB58
:10115000074241EB174112EB0C4251EB1C4148BFD7
:101160007047921841EB0101A3F10103704700BFE2
:10117000FEE7000010B504460E49204602F0A6FB2B
:1011800009D20D49204602F0A1FA04D24FF47A6048
:1011900000F0D0FC0DE00849204602F097FB04D88F
:1011A00041F6583000F0C6FC03E04FF47A7000F0CE
:1011B000C1FC10BD0000A0410000C8417047000004
:1011C00010B50A2001F066FA01210C4800F027FA58
:1011D00001280FD10A48008808B9012000E000204A
:1011E000074908800748006808B9012000E000208E
:1011F00004490860012000F005F910BD0008014015
:101200006C000020A881214210B50A2001F042FAAA
:1012100002210C4800F003FA01280FD10A48008887
:1012200008B9012000E0002007490880074800684D
:1012300008B9012000E0002004490860022000F005
:10124000E1F810BD000801406E000020AC81214291
:1012500010B50A2001F01EFA04210A4800F0DFF957
:1012600001280AD10848008838B90848006808B938
:10127000012000E0002005490860042000F0C2F8C9
:1012800010BD0000000801406E000020BC8121421A
:1012900010B50A2001F0FEF92021184800F0BFF92E
:1012A000012806D11648008818B94FF47A7000F06A
:1012B00041FC4021114800F0B2F9012806D1104844
:1012C000008818B94FF47A6000F034FC80210B4894
:1012D00000F0A5F9012806D10948008818B941F69F
:1012E000583000F027FC202000F08CF8402000F05F
:1012F00089F8802000F086F810BD0000000C014045
:101300006C0000200EB500F0A5F90121084600F0A0
:101310002FFA0021084600F0D7F8012001900020A4
:101320008DF8080008208DF8090001208DF80A00CA
:1013300001A800F06DF80121002000F0C5F802209E
:10134000019001A800F064F80221002000F0BCF830
:101350000420019001A800F05BF80521012000F0B5
:10136000B3F82020019001A800F052F806210120D6
:1013700000F0AAF84020019001A800F049F80721E8
:10138000012000F0A1F88020019001A800F040F8B1
:1013900017208DF8000002208DF801008DF8020062
:1013A00001208DF80300684600F08EF906208DF8C4
:1013B000000003208DF801008DF8020001208DF857
:1013C0000300684600F080F907208DF80000042033
:1013D0008DF801008DF8020001208DF803006846A9
:1013E00000F072F908208DF8000005208DF801004A
:1013F0008DF8020001208DF80300684600F064F9C2
:101400000EBD00000149086070470000140401404F
:10141000002123498279002A3AD00A4612680368DB
:101420009A430B461A600A1D126803689A430B1D03
:101430001A60027911440A6803681A430A60184A5C
:101440000832126803689A43154B08331A601A1D54
:10145000126803689A43124B0C331A604279102ABF
:101460000ED11A1F126803681A430D4B08331A6015
:101470001A1D126803681A43094B0C331A600DE0F9
:101480000749427911440A6803681A430A6005E073
:10149000027911440A6803689A430A6070470000A1
:1014A0000004014010B50748008820B14FF47A705D
:1014B00000F040FB05E001F045FA04462046FFF746
:1014C00059FE10BD3400002030B500228B071C0FE0
:1014D0000F2303FA04F20B4B8C1053F82430934380
:1014E000084C8D1044F8253023468C1053F82430D6
:1014F0008C07240F00FA04F42343024C8D1044F8A7
:10150000253030BD080001402DE9F041024600259C
:101510000026002000230024002791F803C00CF0CF
:101520000F0591F803C00CF0100CBCF1000F03D0B4
:1015300091F802C04CEA050591F800C0BCF1000F1B
:1015400031D0146800202BE04FF0010C0CFA00F3AE
:10155000B1F800C00CEA03069E4220D183004FF090
:101560000F0C0CFA03F7BC4305FA03FC4CEA040425
:1015700091F803C0BCF1280F06D14FF0010C0CFA12
:1015800000FCC2F814C00AE091F803C0BCF1480F97
:1015900005D14FF0010C0CFA00FCC2F810C0401C41
:1015A0000828D1D31460B1F800C0BCF1FF0F34DDBE
:1015B000546800202EE000F1080C4FF0010808FAF2
:1015C0000CF3B1F800C00CEA03069E4221D183005F
:1015D0004FF00F0C0CFA03F7BC4305FA03FC4CEA7E
:1015E000040491F803C0BCF1280F05D100F1080CE8
:1015F00008FA0CF8C2F8148091F803C0BCF1480F47
:1016000007D100F1080C4FF0010808FA0CF8C2F8F5
:101610001080401C0828CED35460BDE8F0810246FB
:10162000002093680B400BB1012000E000207047C0
:10163000416170470161704700BFFEE770B501F07E
:101640005DF8054602F00AF8C4B2204600F0F2F94F
:1016500070BD000008B50121442000F089F84FF466
:101660003870ADF8000028208DF80300694607485F
:10167000FFF74AFF0720ADF8000028208DF803008F
:1016800069460348FFF740FF08BD0000000C014019
:101690000008014008B50121082000F069F8102079
:1016A0008DF803004FF4F840ADF8000003208DF8EA
:1016B000020069460148FFF727FF08BD000C014002
:1016C00000BFFEE77047000070B5002100230F2225
:1016D000C47804B3154C246804F4E064C4F5E064F1
:1016E000210AC1F10403CA40447804FA03F1847862
:1016F0001440214309010E4C0678A155047804F0EA
:101700001F050124AC4005786D11AD0005F1E02501
:10171000C5F8004109E0047804F01F050124AC403D
:10172000044D0678761145F8264070BD0CED00E0BA
:1017300000E400E080E100E002490143024A116058
:10174000704700000000FA050CED00E07047000053
:1017500029B1064AD2690243044BDA6104E0034A24
:10176000D2698243014BDA617047000000100240E9
:1017700029B1064A92690243044B9A6104E0034A84
:1017800092698243014B9A61704700000010024049
:1017900030B500210022002400232D4D6D6805F096
:1017A0000C0121B1042905D0082923D105E0294DD8
:1017B000056022E0274D05601FE0254D6D6805F4AA
:1017C0007012234D6D6805F48034022505EB9242BA
:1017D0001CB9214D554305600BE01D4D6D6805F4A6
:1017E00000351DB11C4D5543056002E0194D5543B0
:1017F000056002E0174D056000BF00BF144D6D6825
:1018000005F0F0010909154D6B5C0568DD40456088
:101810000F4D6D6805F4E061090A104D6B5C456879
:10182000DD4085600A4D6D6805F46051C90A0B4DB5
:101830006B5C4568DD40C560054D6D6805F4404151
:10184000890B074D6B5CC568B5FBF3F5056130BDD1
:101850000010024000127A0000093D001E00002026
:101860002E00002008B501210420FFF781FF182079
:10187000ADF8000003208DF8020014208DF803005D
:1018800069460648FFF740FE10210448FFF7D2FEE4
:1018900008210248FFF7CEFE08BD00000008014005
:1018A00070B50446002610211C48FFF7C1FE082130
:1018B0001A48FFF7BDFE00251DE004F0800020B1AE
:1018C00008211648FFF7B6FE03E008211348FFF78A
:1018D000AFFE10211148FFF7ADFE502000F0C6FF0B
:1018E00010210E48FFF7A4FE502000F0BFFF600655
:1018F000040E681CC5B2082DDFDB10210748FFF776
:1019000099FE08210548FFF78AFE00B10126102143
:101910000248FFF78DFE304670BD00000008014010
:1019200070B5044610211C48FFF782FE08211A48B2
:10193000FFF77EFE00251DE004F0800020B10821A5
:101940001548FFF777FE03E008211348FFF770FE04
:1019500010211148FFF76EFE502000F087FF102184
:101960000D48FFF765FE502000F080FF6006040E72
:10197000681CC5B2082DDFDB10210748FFF75AFEAF
:101980000A2000F073FF10210348FFF751FE0A20E0
:1019900000F06CFF70BD00000008014070B500242D
:1019A000002512E06006040E10210A48FFF742FEEF
:1019B00008210848FFF733FE08B1601CC4B21021AB
:1019C0000448FFF735FE681CC5B2082DEADB204647
:1019D00070BD00000008014010B508210848FFF75D
:1019E00027FE10210648FFF725FE1E2000F03EFFCF
:1019F00008210348FFF71EFE1E2000F037FF10BD30
:101A0000000801407047000008B501210820FFF7D9
:101A1000AFFE10208DF80300C002ADF800000320D7
:101A20008DF8020069460248FFF76EFD08BD000010
:101A3000000C01405A2803DA0121034A116002E038
:101A40000021014A11607047BC81214210B500F0AD
:101A500001F810BD0CB500200190009033480068DB
:101A600040F480303149086000BF3048006800F41D
:101A7000003000900198401C0190009818B901981E
:101A8000B0F5A06FF1D12948006800F4003010B122
:101A90000120009001E0002000900098012843D12F
:101AA0002348006840F0100021490860084600689B
:101AB00020F0030008600846006840F0020008605B
:101AC0001A48406819494860084640684860084616
:101AD000406840F4806048600846406820F47C100C
:101AE00048600846406840F4E810486008460068CE
:101AF00040F08070086000BF0C48006800F0007083
:101B00000028F9D00948406820F0030007494860E0
:101B10000846406840F00200486000BF0348406843
:101B200000F00C000828F9D10CBD000000100240A4
:101B30000020024010B504462146164800F049FA3C
:101B4000B4F57A7F09D101201349086000201349B8
:101B5000C1F8B401104908310860B4F57A6F0AD1B0
:101B600001200D49091D086000200C49C1F8B00191
:101B700009490831086041F65830844209D10120F2
:101B800005490831086000200449C1F8B401024940
:101B9000086010BD00080040B08121420080214251
:101BA00070B53349B1F90010324AB2F90020881AF1
:101BB00001F074F921F00041044600222E4B01F09F
:101BC000D1FA21D32D49B1F900102D4AB2F90020E4
:101BD000881A01F063F921F0004104460022264BE7
:101BE00001F0C0FA10D32749B1F90010264AB2F922
:101BF0000020881A01F052F921F000410446002229
:101C00001D4B01F0AFFA05D2002020490880204981
:101C1000088005E01E480088401C00B21C4908806E
:101C20001B48B0F90000642805DD01201749088031
:101C30000020174908800F48008840B910480088E4
:101C400028B91148008810B90020104908800948B7
:101C5000B0F90000064908800948B0F900000749BA
:101C600008800948B0F900000649088070BD0000EE
:101C7000660000205400002000408F4068000020D3
:101C8000560000206A000020580000203400002088
:101C90003800002010B5502000F0E8FD08210B4866
:101CA000FFF7C8FC10210948FFF7C4FC1E2000F014
:101CB000DDFD08210548FFF7BBFC10210348FFF7B5
:101CC000B7FC1E2000F0D2FD10BD0000000801404E
:101CD00010B50022002104E00A48405C0244481C80
:101CE000C1B208480078801E8842F5DCD3B20548AE
:101CF0000078801E034C205C834201D1012010BD7E
:101D00000020FCE77C000020042808D14FF0E021EF
:101D1000096941F004014FF0E022116107E04FF042
:101D2000E021096921F004014FF0E02211617047C0
:101D30007047000010B51348006840F001001149D9
:101D4000086008464068104908400E494860084647
:101D500000680E4908400B4908600846006820F4F6
:101D6000802008600846406820F4FE0048604FF478
:101D70001F008860FFF76AFE4FF0006004490860AA
:101D800010BD0000001002400000FFF8FFFFF6FE4B
:101D900008ED00E010B50121104800F0A6F8E0B110
:101DA00001210E4800F092F80D480068401C0C49D3
:101DB0000860084600683C280FD1002008600948E8
:101DC0000068401C07490860084600683C2804D1A8
:101DD00005480068401C0449086010BD000400402C
:101DE0007800002074000020700000207FB50546B8
:101DF0000C4601210220FFF7ABFCADF80850ADF80E
:101E000004400020ADF80A00ADF8060001A90D4815
:101E100000F0E2F8012211460A4800F077F81D2090
:101E20008DF8000009208DF801008DF802000120D6
:101E30008DF803006846FFF747FC0121014800F0D8
:101E400048F87FBD0004004030B589B005460C4617
:101E500001210420FFF77CFC01210920FFF788FC09
:101E60004FF48070ADF8200018208DF82300032077
:101E70008DF8220008A91348FFF746FBADF818506B
:101E8000ADF814400020ADF81A00ADF8160005A911
:101E90000D4800F0A1F86020ADF804000120ADF875
:101EA00006000020ADF80C0001A9074800F038F842
:101EB0000821054800F084F80121034800F009F8E2
:101EC00009B030BD000C014000080040CA43028246
:101ED000704721B1028842F00102028004E00288CA
:101EE0004FF6FE731A400280704730B5024600205C
:101EF00000230024158A05EA0103958905EA0104F7
:101F000013B10CB1012000E0002030BD1AB183896B
:101F10000B43838102E083898B43838170470000F8
:101F200070B5002400220023058C4FF6FF66354073
:101F30000584028C8388848B4FF68F752C404FF676
:101F4000FC752C400D882C434FF6FF552A400D8917
:101F50004FF6FF7606EA05252A434D8806EA052551
:101F60002A43154DA84202D0144DA8421DD14FF26C
:101F7000FF752A404D894FF6FF7606EA05252A436C
:101F80004FF6FF352A408D8806EA05252A434EF68E
:101F9000FF752B404DF6FF752B408D8906EA051520
:101FA0002B43CD8906EA05152B4383808483CD8896
:101FB0008587028470BD0000002C01400034014080
:101FC0000A460021818B4FF6F77319401143818334
:101FD0007047818770470000002202881D4B98429D
:101FE0000ED01D4B98420BD0B0F1804F08D01B4B48
:101FF000984205D01A4B984202D01A4B984204D10D
:102000004FF68F731A404B881A43174B984207D0EC
:10201000164B984204D04FF6FF431A40CB881A4320
:1020200002808B8883850B8803850A4B98420BD0EE
:10203000094B984208D00E4B984205D00D4B984260
:1020400002D00D4B984201D10B7A03860123838283
:1020500070470000002C01400034014000040040A3
:1020600000080040000C0040001000400014004038
:1020700000400140004401400048014010B50D48B7
:10208000007800F04000A0B10A48007820F040003D
:1020900008490870FFF71CFE58B107484078A1288E
:1020A00001D100F00BF804484078A22801D100F0DB
:1020B000B9F810BD370000207C00002070B5002466
:1020C00050488478200204B24E48C078044304F497
:1020D000004020B1C4F30E00404204B201E0C4F35A
:1020E0000E04204601F0DAFA0546474901F0F4F9FA
:1020F00046490860002443480479200204B241485C
:102100004079044304F4004020B1C4F30E0040427F
:1021100004B201E0C4F30E04204601F0BFFA054604
:10212000394901F0D9F93A490860002435488479E1
:10213000200204B23348C079044304F4004020B1C3
:10214000C4F30E00404204B201E0C4F30E04204682
:1021500001F0A4FA05462C4901F0BEF92D490860AA
:1021600000242848047A200204B22648407A044316
:1021700004F4004020B1C4F30E00404204B201E078
:10218000C4F30E04204601F089FA05461E4901F009
:10219000A3F92149086000241A48847A200204B275
:1021A0001848C07A044304F4004020B1C4F30E0080
:1021B000404204B201E0C4F30E04204601F06EFA7E
:1021C0000546114901F088F91449086000240D48BA
:1021D000047B200204B20B48407B044304F400401B
:1021E00020B1C4F30E00404204B201E0C4F30E0477
:1021F000204601F053FA0546034901F09BFA0849CD
:10220000086070BD7C000020000020413C000020E0
:102210004000002044000020480000204C00002026
:102220005000002000205A498878010208B258491D
:10223000C978084300F4004121B1C0F30E014942BE
:1022400008B201E0C0F30E00524908800020504956
:102250000879010208B24E494979084300F4004167
:1022600021B1C0F30E01494208B201E0C0F30E00F3
:1022700049490880002046498879010208B244494A
:10228000C979084300F4004121B1C0F30E0149426D
:1022900008B201E0C0F30E004049088000203C492C
:1022A000087A010208B23A49497A084300F4004129
:1022B00021B1C0F30E01494208B201E0C0F30E00A3
:1022C0003749088000203249887A010208B2304933
:1022D000C97A084300F4004121B1C0F30E0149421C
:1022E00008B201E0C0F30E002E4908800020284902
:1022F000087B010208B22649497B084300F40041EB
:1023000021B1C0F30E01494208B201E0C0F30E0052
:102310002549088000201E49887B010208B21C491B
:10232000C97B084300F4004121B1C0F30E014942CA
:1023300008B201E0C0F30E001C49088000201449D7
:10234000087C010208B21249497C084300F40041AC
:1023500021B1C0F30E01494208B201E0C0F30E0002
:102360001349088000200A49887C010208B2084904
:10237000C97C084300F4004121B1C0F30E01494279
:1023800008B201E0C0F30E000A490880704700005F
:102390007C0000205400002056000020580000203F
:1023A0005A0000205C0000205E0000206000002039
:1023B000620000206400002010B540F225512D4835
:1023C00000F06CF8002854D02A4800F023F9C4B279
:1023D000A52C0DD12848007840F0800026490870CF
:1023E00026490878411C254A117025490C5437E0CC
:1023F0005A2C1CD12048007800F0800048B1002001
:102400001E4908701C48007820F040001A490870E6
:1024100006E01A490878411C184A117018490C54F2
:102420001548007820F080001349087018E013491F
:102430000878411C114A117011490C540E4800785B
:1024400020F080000C4908700D480078114609788A
:10245000884205D10848007840F0400006490870DD
:1024600006480078642804D104480078401E0349D7
:10247000087010BD003801403700002036000020F1
:102480007C00002021B1828942F40052828104E064
:1024900082894DF6FF731A408281704770B50246FB
:1024A000002400230025002040F66A16B14200D126
:1024B00000BFC1F3421501F01F03012606FA03F322
:1024C000012D02D19689334006E0022D02D1168AF1
:1024D000334001E0968A33400C12012606FA04F4D8
:1024E0001688344013B10CB1012000E0002070BD0B
:1024F000F0B50346002400260025002040F66A17A8
:10250000B94200D100BF1846C1F3421401F01F06C2
:10251000012707FA06F5012C01D10C3004E0022C4A
:1025200001D1103000E014301AB107682F43076062
:1025300002E00768AF430760F0BD00002DE9F047F7
:1025400086B005460E460024A24600BFA1460027DD
:10255000B08900B100BF2F462C8A4CF6FF700440B2
:10256000F08804432C82AC894EF6F3100440B08806
:1025700031890843718908430443AC81AC8A4FF622
:10258000FF400440B0890443AC8201A8FFF700F982
:102590001F48874202D1DDF810A001E0DDF80CA051
:1025A000A88900F4004040B10AEBCA0000EB0A1011
:1025B00031684900B0FBF1F807E00AEBCA0000EB14
:1025C0000A1031688900B0FBF1F86420B8FBF0F024
:1025D00004012009642101FB1089A88900F400404E
:1025E00040B1322000EBC900B0FBF1F000F0070071
:1025F000044308E0322000EB09106421B0FBF1F045
:1026000000F00F0004432C8106B0BDE8F087000005
:102610000038014001468888C0F30800704700BFB9
:10262000FEE7490050EAC12018BF04204A0D18BF38
:1026300040F0010040F2FF72B2EB515F08BF40F082
:102640000200012808BF05207047014600BF7047FF
:1026500010B56FF00400FFF757FB0A4800680A49FD
:10266000B0FBF1F0094908700846007800EB400122
:10267000C1EBC0104FF6FF7101EAC00004490880A9
:1026800010BD00000000002000127A00140000209D
:10269000160000200146114A12884A434FF0E023F9
:1026A0005A6100229A611A46126942F001021A61C7
:1026B00000BF4FF0E022106900F001021AB100F4EF
:1026C0008032002AF5D04FF0E022126922F0010298
:1026D0004FF0E0231A6100229A6170471600002033
:1026E00000BF054A128802F04002002AF9D0C2B2A7
:1026F000014B1B1D1A8070470038014010B50024A3
:1027000000F004F80446204610BD00002DE9FC5FEF
:102710000024FFF7BFFA8020FFF702F9F520FFF74A
:10272000FFF800BF142000F0A1F8FFF7B3FA8120F2
:10273000FFF7B6F80546012DF4D0FFF72FF98146D3
:10274000FFF72CF98246FFF747F944EA09000AEB44
:1027500000244FF6FC700440204600F0B6FB094A06
:10276000094BCDE9000100F0FFFB074600F058F9E6
:1027700006460649304601F0DBF883465846BDE878
:10278000FC9F00007644CF7701405F3F0000C040CF
:102790004FF4E13000F0DEF8FFF764F84FF4A0608A
:1027A000FEF7CAFFFFF730F9FEF7ACFD41F61F4117
:1027B00042F20F70FFF71AFB002141F61F40FFF7AE
:1027C00043FBFFF745FFFEF765FF01202149086045
:1027D0002149C1F8B0011F490C310860091D08608A
:1027E0001C49091D08604FF4FA70FFF753FF0020E1
:1027F00018490860174908310860091D0860091D5B
:1028000008601549C1F8AC0141F65830FFF792F95C
:1028100001201049143108600E490860091D086044
:1028200017E0FFF72BFCFFF7BBF90C48008808B155
:10283000FEF738FE0A48008808B1FEF7FFFE094897
:10284000006800F0AFFD044622460B4606A0FDF7E7
:10285000EBFCE6E7A8812142008021426C000020C9
:102860006E0000203C00002025660000014606E0C6
:10287000002002E000BF421CD0B26428FADB0A004C
:10288000A1F10103D9B2F3D1704700002DE9FF5F38
:102890000024FFF7FFF98020FFF742F8F320FFF74D
:1028A0003FF800BF1420FFF7E1FFFFF7F3F98120A5
:1028B000FEF7F6FF0546012DF4D01420FFF7D6FFF2
:1028C0001420FFF7D3FFFFF769F882461420FFF7C3
:1028D000CDFFFFF763F88346FFF77EF844EA0A006E
:1028E0000BEB00244FF6FC700440204600F0EDFA9C
:1028F000104A114BCDE9020100F036FB074600F00B
:102900008FF88146484600F04DFD074600220B4BEC
:1029100000F05EFC00220A4BCDE9000100F066F9F0
:10292000CDE9020100F07CF80646304604B0BDE86F
:10293000F09F0000C0B2D2A414749B3F00487D40B9
:102940000000244010B50024FFF7A0FF04462046F5
:1029500010BD000010B586B00446012144F2040009
:10296000FEF706FF4FF40070ADF8140003208DF859
:10297000160018208DF8170005A91C48FEF7C4FDA5
:102980004FF48060ADF8140004208DF8170005A9FD
:102990001648FEF7B9FD25208DF8000009208DF8B6
:1029A00001008DF8020001208DF803006846FEF753
:1029B0008BFE01940020ADF80800ADF80A00ADF8D8
:1029C0000C00ADF810000C20ADF80E0001A908486D
:1029D000FFF7B4FD012240F225510548FFF788FDBD
:1029E00001210348FFF74EFD06B010BD000801406D
:1029F0000038014010B500290AD00878002807D017
:102A000005487844FDF7B8FF002801D0002010BD2C
:102A10000248784410BD0000D2100000CA10000027
:102A200021F00042A2F16052B2F5801F01F0004394
:102A300028BFD2F17F6C0BD95FEA001C43EAC202C7
:102A400042EB507018BF704728BF20F0010070475C
:102A5000B2F5801FBCBF184670474FEA410C1CF509
:102A6000001F02D2084600F02CBF70B500F026FB14
:102A700000000089FFF7F6BF4FF00040A0F580008E
:102A80007047000010B591EA030F48BF83F0004380
:102A900000F1A683841A71EB030C05D2121943EBE3
:102AA0000C03001B61EB0C01DFF824E14FEA115429
:102AB000A4EB135C1EEA430F18BF9EEA445F73D079
:102AC00023EA0E03DCF1200E21EA045143F48013C3
:102AD00032D322FA0CFE10EB0E0023FA0CFE41EB6F
:102AE0000E01CCF1200E03FA0EFE10EB0E0051F198
:102AF0000001B1F5801FCCF1200E32D201EB045160
:102B000012FA0EF2BDE8104058BF7047401C38BFA3
:102B10005FEA420218BF7047002814BF20F001008E
:102B200041F100014FEA410313F5001F38BF704720
:102B3000A1F1C04100F010BB012A43EB0302ACF14C
:102B4000200CDCF11F0E32BF4FF0000E23FA0CF305
:102B500010EB030041EB0451B4EB115FD0D0A1EBBB
:102B6000045101F5801149085FEA300001EB04517E
:102B70000ED350F1000038BF12FA0EFE08D1BDE8A6
:102B80001040C9E7401C38BF5FEA4202CAD1C3E720
:102B9000BDE810404FEA410313F5001F38BF7047EE
:102BA000A1F1C04100F0D8BA9EEA445F08D011EA12
:102BB0005E0FBDE8104004BF01F0004100207047E7
:102BC000BDE8104070B500F079FA00BF64FBBE3E6E
:102BD0000000E0FF491058BFC1F140415B1058BFF1
:102BE000C3F140438B42EFF3008070472DE9C041B1
:102BF00030B4DFF8A0C23CEA111418BF3CEA131449
:102C000000F0EC8081EA03051CEA111444EAD57453
:102C100018BF1CEA131500F0C780A4EB05044FF0A1
:102C2000004545EAC12145EAC32341EA505143EA40
:102C3000525304F17F74994204F500344FEAC020E6
:102C40004FEAC22208BF904200F09C804FEA136511
:102C50000FF24016765D4FEA134506FB05F7C7F104
:102C6000807706FB07F74FEAD737A7FB0368764262
:102C7000C8F58038A7FB06CE38BFA8F1010807FBCE
:102C800008E64FF0000EA6FB028CE6FB03CEDCF15B
:102C9000000CCEF1004E38BFAEF1010EA6FB0C5871
:102CA0004FF000074FF00005E6FB0E87A1FB08C6BA
:102CB000A0FB07CE16EB0E0645F10005E1FB07650C
:102CC00015F1E04E7EBFA4F580345FEA46066D4103
:102CD00016F1800745F100054FEA17274FEA06660F
:102CE00047EA0567A6F1DE46B6F1805F4FEA152593
:102CF0001FD9384624F0010C05EBC471BCF1FE6FFE
:102D000001EB0C1102D8F0BCBDE8008124425CBF8D
:102D100001F5801E9EEAC47F02D4F0BCBDE80081AC
:102D2000244238D4F0BCA1F1C041BDE8004100F01C
:102D300013BA4FEAD22242EA43524FEAD323A7FB07
:102D400002864FEAD02040EA415007FB03661EEAA4
:102D50000E0F4FEAD12105FB026658BFA6EB0056C5
:102D6000B6EB00564FEA520E4EEAC37E18EB0E0E3B
:102D700056EB530EBDD518EB02085E417F1C55F192
:102D80000005B6E74FF480154FF000074FF000063E
:102D90004FF00008ADE7F0BC4FF0000001F1C0417A
:102DA00001F00041BDE8008111EA0C1F0CEA131587
:102DB00000D00CE013EA0C1F00F025804FF000005B
:102DC000F0BC81EA030101F00041BDE80081F0BCE4
:102DD000BDE8004181EA030100F0BEB9F0BCBDE8E6
:102DE000004170B500F06AF9097EFC3E00F007B8BA
:102DF00081EA03014FF0000001F00041704781EAD1
:102E0000030100F0A9B9F0BCBDE800414FF000009B
:102E100021497047FFFDFBF9F7F5F4F2F0EEEDEB19
:102E2000E9E8E6E4E3E1E0DEDDDBDAD8D7D5D4D3C8
:102E3000D1D0CFCDCCCBCAC8C7C6C5C4C2C1C0BF14
:102E4000BEBDBCBBBAB9B8B7B6B5B4B3B2B1B0AF1A
:102E5000AEADACABAAA9A8A8A7A6A5A4A3A3A2A1FE
:102E6000A09F9F9E9D9C9C9B9A99999897979695B9
:102E700095949393929191908F8F8E8E8D8C8C8B55
:102E80008B8A8989888887878685858484838382DD
:102E9000828181800000FF070000F87F10F000426F
:102EA00048BF4042B0FA80F310FA03F10AD0C3F1F0
:102EB0001D0303F580634FEA415002EB035202EB1E
:102EC000D12170474FF000007047B0FA80F310FA3C
:102ED00003F10AD0C3F11D0303F580634FEA4150AB
:102EE0004FEA035202EBD12170474FF000007047C8
:102EF00051EA030C17D41CF5801F58BFBCF5801F86
:102F000000F10680994218BF704708BF9042704791
:102F100007D711F5801F58BF13F5801F19D49942A8
:102F20007047894270471CF5801F08D5BCF5801F8B
:102F3000F7D58B4218BF704708BF824270474FF4E5
:102F4000001C1CEB410F38BF1CEB430F01D28B421E
:102F5000704770B500F0B2F8922449004FF000516C
:102F60004FF08053FFF736BEDFF848C170B51CEA5A
:102F7000111E1EBF1CEA13159EEA0C0F95EA0C0FDA
:102F800000F06F8081EA030423EA4C134EEAD47EFA
:102F900021EA4C1141F4801143F48013AE44A1FBAB
:102FA000024CA0FB0365AEF17F7E361955EB0C0594
:102FB000A1FB034C4CF10003A0FB021C16EB0C061A
:102FC000654153F10003094218BF46F0010613F4AE
:102FD000007F0BD14FEA03314FEA0530340341EA59
:102FE000155140EA16506FF003020AE04FEAC32180
:102FF0004FEAC520F40241EA555140EA56506FF0BD
:10300000020202EB2E4201EB025585EACE710AD094
:103010005FEA440C18BF24F0004450F1000041F175
:10302000000120EAD47040F2FE7C624500D270BDFF
:10303000A84214BF4FF080444FF04044002E08BF18
:103040000024BEF1806FA8BFA1F1C041BDE870406F
:1030500080F282804FF0000001F1C04101F0004198
:1030600070479EEA0C0F0CEA131518BF95EA0C0F77
:1030700006D04FF0000081EA030E0EF0004170BD53
:1030800000F01CF88900013E00F007B800F009B814
:103090004FEA430C5FEA5C5C08D081EA030100F070
:1030A0005BB84FEA410C5FEA5C5CF6D14FF0000080
:1030B000014970470000FF070000F87F0EF1020E83
:1030C0002EF0030E5EF8046B364205D4012A43EB62
:1030D000030515F5001F12D8012841EB010C1CF562
:1030E000001F0CD80ED14FEAD17C15F5001F0CEB58
:1030F0004C0C0CF1020C08BF4CEBD37C04E04FF0FD
:10310000080C01E04FEAD37C0CEB4C0526FA05F6DF
:1031100006F00706B6F1040C06D20EEB860CBDE8ED
:1031200070404CF0010C6047DFE80CF0090B020224
:103130004FF000414FF00000A1F5002170BD19468D
:103140001046012851EB010418BFD4F5001484BFC8
:10315000002001F0004170BD0808A0F500114FEA01
:103160003101704753EA010C17D41CF5801F58BF7A
:10317000BCF5801F00F106808B4218BF704708BF66
:103180008242704707D713F5801F58BF11F5801F83
:1031900019D48B4270479B4270471CF5801F08D59D
:1031A000BCF5801FF7D5994218BF704708BF904201
:1031B00070474FF4001C1CEB430F38BF1CEB410F52
:1031C00001D2994270470FB40CBC03BCFFF7C1BEDB
:1031D00010B591EA030F48BF83F000433FF55AACA6
:1031E000841A71EB030C07D212198CF0004C43EBDC
:1031F0000C03001B61EB0C01DFF8A4E14FEA115452
:10320000A4EB135C1EEA430F18BF9EEA445F00F074
:10321000B08023EA6E03524221EA0451C3EB6E03ED
:1032200038BF5B1EDCF1200E25D322FA0CFE10EB1A
:103230000E0043FA0CFE41EB0E01CCF1200E03FA16
:103240000EFE10EB0E0051F10001CCF1200E29D43E
:1032500012FA0EF201EB0451BDE8104058BF70475E
:10326000401C1CBFB2F1004F704700280CBF491C26
:1032700020F00100704712EB020E43EB030218BF6F
:103280004FF0010E4EEA4202ACF1200CDCF11E0EB2
:1032900054D943FA0CFE10EB0E0051F1FF31CCF182
:1032A0001E0ED5D50EF1010E12FA0EFE404141EB75
:1032B000010101EB445C5FEA5C5C10D910EBDE704D
:1032C00001EB045138BFBEF1004FBDE8104018BFFC
:1032D000704700280CBF491C20F00100704730D215
:1032E0004FEAD42C11F5001124F400641BD0B1FA7C
:1032F00081F20B3AA41AA41ED2F12003914030FAB5
:1033000003F31943904001EBCC71002C01EB045105
:10331000BDE81040A8BF704701F1C0414FF0000068
:1033200001F000417047B0FA80F310FA03F100D1C8
:1033300010BDE41A173C4805C90AE4E701EB045143
:1033400010BD491001EB0451BDE810404FEA3000B8
:1033500002E04FF0000170474A0008BF0042F8D079
:10336000B2F5001F28BF704701F000414FF0000088
:1033700070479EEA445F07D011EA5E0FBDE8104037
:1033800004BF002100207047BDE8104070B5FFF772
:1033900095FE00BF40DFF63E83F0004110467047C7
:1033A0000000E0FF43004FEAD30C4FEA3C0C4340DF
:1033B0001FBF40070CF1605113F0FE4F70471CF027
:1033C000006F03D100200CF0004170470CF0004367
:1033D00043EA507010B540EACC0000F02CFA00BF70
:1033E000000000924FEA0001FFF7B6BE4FF0004127
:1033F0004FF00000A1F500217047000090EA010F96
:1034000048BF81F0004100F19A82421A3CBF801A05
:1034100089184FEAD0524FF07F4C1CEA410FA2EBC3
:10342000D15318BF9CEA026F00F03B804FF0004C74
:103430004CEA00204CEA012121FA03FC10EB0C0CB1
:103440001ED202F1FF325FEA1C2040EBC25038BFAF
:1034500070471CF07F0F4FEA400C18BFBCF17F4F44
:1034600038BF7047C3F12003994008BF20F0010026
:10347000BCF17F4F38BF7047A0F1C04000F021BAC7
:103480004FEA3C00000A40EBC25028BF1CF0FF0F7F
:103490004FEA400CE6D018BFBCF17F4F38BF7047F1
:1034A000EAE79CEA026F05D010EA5C0F08BF00F063
:1034B0000040704710B500F0BEF900BF64FBBE3E8F
:1034C000401058BFC0F14040491058BFC1F14041C1
:1034D0008142EFF3008070474FF47F0C1CEAD0125A
:1034E0001EBF1CEAD11392EA0C0F93EA0C0F00F0F6
:1034F000858090EA010F48BF42F4807240F4000CCE
:1035000041F400002CF07F4120F07F4000B5814263
:10351000A2EB03020FF2081CACEB504EC0F100000E
:103520009EF800E04FEA4E0E00FB0EFC38BF49004B
:103530004FEA2C1C02F5FA020CFB0EF34FEACE1EEA
:103540004FEA112C4FEAC1210EEB635E42EB22429F
:103550000EFB0CFC4FEA1C5300FB03114FEA112C2D
:103560004FEA01310EFB0CFC4FEADC4C00FB0C1166
:10357000C14228BF09184CEB03335DF804EB10EB94
:10358000410143EBC250B2F57C0F38BF704729D5DB
:1035900012F0F00F1CBF00F1C04000F00040704777
:1035A000008182838485868788898B8C8D8E8F911C
:1035B0009293959697999A9C9D9FA0A2A3A5A7A840
:1035C000AAACAEB0B2B3B5B7B9BCBEC0C2C5C7C96C
:1035D000CCCED1D4D7D9DCDFE2E6E9ECF0F3F7FAD0
:1035E000FE0000004FEA400C0CF1807CBCF17E4FE5
:1035F00028BF7047B0F1C04000F063B990EA010FF6
:103600000CEAD11348BF42F48072624538BF63456B
:1036100007D213F47F0F16D080EA010000F00040BB
:10362000704710B500F007F9097EFC3E00F005B8C0
:1036300080EA010000F00040704780EA010000F0DD
:10364000004000F03EB912F47F0F04BF02487047FB
:1036500080EA010000F035B90000C07FC10DD1F152
:103660009E0206DB4FEA002343F0004323FA02F0F8
:103670007047004207D54FEA4001B1F1FE4F02D238
:103680004FF00000704710B500F0D5F84992248043
:10369000002070476FEA20007047000010F00041E2
:1036A00048BF4042B0FA80F310FA03F2C3F19D0321
:1036B0000BD051EAC35101EB1220530638BF7047BB
:1036C00000F1010008BF20F00100704750EA010C32
:1036D00000F113801CF5000F58BFBCF5000F01D49A
:1036E0008842704707D710F5000F58BF11F5000F3B
:1036F00015D488427047894270471CF5000F04D5E5
:10370000BCF5000FF7D5814270474FF0807C1CEB71
:10371000400F38BF1CEB410F01D28142704710B5FA
:1037200000F089F8922449004FF000504FF080518A
:10373000FFF7C6BE4FF47F0C1CEAD0121EBF1CEA76
:10374000D11392EA0C0F93EA0C0F00F0478090EA35
:10375000010F48BF42F480724FF0004C4CEA002049
:103760004CEA012102EB0302A0FB0113A2F50002C7
:10377000002918BF43F001035B0028BF4FEA330361
:1037800042EB22425FEA132C4CEBC2502EBFBCEB43
:10379000436FB2F57C0F70474FEA036CBCF1004FEA
:1037A00008BF20F00100B2F57C0F38BF70470BD581
:1037B00082F0FF0212F5803FC8BF704700F1C040A1
:1037C000D8BF00F00040704700F5000C5FEA4C0CD9
:1037D00048BF7047B0F1C04000F073B890EA010FE5
:1037E0000CEAD11348BF42F48072624538BF63458A
:1037F00004D280EA010000F00040704710B500F0EC
:103800001AF800BF8900013E00F007B800F009B8BF
:103810005FEA410C5FEA1C6C08D080EA010000F00E
:1038200050B85FEA400C5FEA1C6CF6D14FF00040E4
:10383000A0F5800070470EF1020E2EF0030E5EF828
:10384000044B244204D44FEA4102B2F17F4F11D815
:103850004FEA4003B3F17F4F0CD80ED14FEAD07C32
:10386000B2F17F4F0CEB4C0C0CF1020C08BF4CEB8F
:10387000D17C04E04FF0080C01E04FEAD17C0CEB66
:103880004C0324FA03F404F00704B4F1040C06D248
:103890000EEB840CBDE810404CF0010C6047DFE8F3
:1038A0000CF0070802024FF00040A0F5800010BDA8
:1038B0000846420018BFD2F1807288BF00F0004075
:1038C00010BDFF2141EAD050C005704751EA000CFD
:1038D00000F113801CF5000F58BFBCF5000F01D498
:1038E0008142704707D711F5000F58BF10F5000F40
:1038F00015D481427047894270471CF5000F04D5EA
:10390000BCF5000FF7D5884270474FF0807C1CEB68
:10391000410F38BF1CEB400F01D28842704780EA4C
:10392000010081EA000180EA0100FFF7F8BE000013
:1039300090EA010F48BF81F000413FF566AD421AA1
:1039400004D882F00042A0EB020011444FEAD052AA
:103950004FF07F4C1CEA410FA2EBD15318BF9CEAF9
:10396000026F4AD04FF0004C4CEA00204CEA012193
:1039700021FA03FCB0EB0C0C0FD412F0FE0F36D082
:103980005FEA4C001DD5001240EBC25038BF7047B3
:103990001CF03F0F18BF70470BE0A2F101025FEA75
:1039A0001C2040EBC25038BF70471CF07F0F18BF7F
:1039B0007047C3F12003994014BF401E20F001005E
:1039C000704780084FEA122308BF7047B0FA80FCA6
:1039D000A2EB0C02CCF1280C60FA0CF093EA122F47
:1039E00004BF00EBC25070474FEAC3707047130A20
:1039F0005FEADC1008BF7047F6E79CEA026F04D06C
:103A000010EA5C0F08BF0020704710B5FFF713FFE6
:103A100040DFF63E81F000407047FCF720BD00001B
:103A200002400000000000A000000000054000006F
:103A3000000000C8000000000C4000000000409C96
:103A400000000000194000000020BCBE0000000083
:103A500034400000BFC91B8E00000004B5400000C8
:103A6000504BCFD06607E2CF010000006C41000050
:103A70003E8251AADFEEA73401000000D9420000C7
:103A8000DCB5A0E23A301F97FFFFFFFFB44500000E
:103A9000FD25A0C8E9A3C14FFFFFFFFFFF3F0000C6
:103AA0000000008000000000FF3F000000000080D8
:103AB00000000000F03A0008000000207C00000038
:103AC0006C0100086C3B00087C000020C40600006C
:103AD000880100081C00000043000000F8FFFFFF01
:103AE0000C0000000E0000000F0000002E0000007F
:103AF00000A24A04000000000000000001020304CC
:103B00000607080900000000000000000000000097
:103B1000000001020304010203040607080902046D
:103B20000608000000000000000000000000000087
:103B30000000000000000000000000000000000085
:103B40000000000000000000000000000000000075
:103B50000000000000000000000000000100010063
:0C3B600000000000000000000000000059
:04000005080001E509
:00000001FF
