:020000040800F2
:1000000020080020E50100084D1600086D140008C6
:10001000491600088B110008A32900080000000001
:10002000000000000000000000000000811800082F
:100030001912000800000000691700080D1A0008D6
:10004000FF010008FF010008FF010008FF01000890
:10005000FF010008FF010008FF010008FF01000880
:10006000FF010008FF010008FF010008FF01000870
:10007000FF010008FF010008FF010008FF01000860
:10008000FF010008FF010008FF010008FF01000850
:10009000FF010008FF010008FF010008FF01000840
:1000A000FF010008FF010008FF010008FF01000830
:1000B000611D0008FF010008FF010008FF010008A2
:1000C000FF010008FF010008FF010008FF01000810
:1000D000FF0100084D250008D5250008FF01000894
:1000E000FF010008FF010008FF010008FF010008F0
:1000F000FF010008FF010008FF010008FF010008E0
:10010000FF010008FF010008FF010008FF010008CF
:10011000FF010008FF010008FF010008FF010008BF
:10012000FF010008FF010008FF010008FF010008AF
:1001300000F002F800F047F80AA090E8000C8244B2
:100140008344AAF10107DA4501D100F03CF8AFF28F
:10015000090EBAE80F0013F0010F18BFFB1A43F0A5
:1001600001031847D8560000F8560000103A24BF83
:1001700078C878C1FAD8520724BF30C830C144BF0C
:1001800004680C607047000000230024002500264E
:10019000103A28BF78C1FBD8520728BF30C148BFEA
:1001A0000B607047662905F03C82002070471FB540
:1001B00000F0A8FA04000020002104F049F9E060F2
:1001C0001FBD10B510BD00F0B9FB1146FFF7EFFFE2
:1001D00003F06EF800F0D7FB03B4FFF7F2FF03BCA7
:1001E00002F0D4FC0948804709480047FEE7FEE7D3
:1001F000FEE7FEE7FEE7FEE7FEE7FEE7FEE7FEE7D7
:1002000004480549054A064B70470000111A0008CA
:1002100031010008200200202008002020040020D6
:1002200020040020704700000FB4044910B503AA51
:10023000029800F055FA10BC5DF814FB5000002045
:100240002DE9F0410E460446002020622046E16878
:10025000884730B3252805D0D4E901219047206A8A
:10026000401CF2E7E168204600278847050018D0C7
:10027000A5F14100192802D820354FF40067324615
:10028000294620462760FFF78DFF40B1012804D0A2
:10029000F61D26F007060836D8E7361DD6E72846AD
:1002A000DAE7206ABDE8F081704770477047704711
:1002B00010B500F02BFA006810BD10B5044600F030
:1002C00025FA046010BD70472DE9FF4F0C461E460D
:1002D0004FF0FF378BB0D2E90001DDF860800A9063
:1002E0008A46C1F30A5505B93D46002108464FF03C
:1002F0000000BAF1000F00F4400005DA00EB8000C6
:100300004FF4400101EA50004FEA9059B9F1010F52
:1003100000DDB9460A9850EA4A000ED044F6105063
:10032000A5F2FF3545432F14B8F1000F1ED07542DA
:10033000291E1EDDC9F100021CE0B8F1010F4FF0CB
:10034000000001D0302103E0F24305E02154401CBD
:10035000B042FBDB30460022002121540B99C1F84A
:100360000880C1E900200FB0BDE8F08FBD1B6D1CF7
:10037000DEE74A4600DA694206A800F069FA06ABF1
:1003800093E8070003AB83E8070050460A9900F0A2
:1003900041FB8DE80700A0F500501F38009003983E
:1003A000002D09DD42F21F014A46084403A90390CB
:1003B000684600F0A0FD08E0A0F500504A461F384E
:1003C00003A90390684600F0AAFD8DE80700000429
:1003D000000C03D04FF0FF30410800E01046B8F1A8
:1003E000000F03D00022009215461EE0751E05D4B2
:1003F00000F090F9303262556D1EF9D5B3460122F6
:10040000084302D000227F1C04E02078302801D16C
:1004100000227F1E002A099786D01DE0112D07DAE1
:1004200000F078F9303262556D1C50EA0102F5D1C6
:10043000084302D00098C8B10EE00021681E05E014
:10044000235C625C63542254401E491C8142F7DBEA
:10045000AB46A81B401E0990002004F80B000B9827
:10046000099AC0F80880C0E9002B7CE711264FF0FC
:10047000000859E72DE9F04F88460446D21D22F0C6
:10048000070191B0D1E90001CDE90A0102F0F4FAC7
:1004900002460B98C00F01D02D2007E0206881078D
:1004A00001D52B2002E0202101EAC000032A099097
:1004B00001D0072A05DB03464146204600F088F9B3
:1004C0000BE12078800601D5E06900E00620B8F154
:1004D000650F814606D0B8F1660F18D0B8F1670FE6
:1004E00070D131E00020B9F1110F009001DB112330
:1004F00001E009F101030AAA01A90CA8FFF7E4FE33
:10050000DDE90C70002609F10105834647E0012072
:100510004B4600904FF000470AAA01A90CA8FFF72C
:10052000D3FEDDE90DB00C995D46002610B909F146
:1005300001000D18B9EB050003D4C0F1FF3609F135
:100540000105A5EB09002BE0B9F1010F01DA4FF02D
:1005500001090020B9F1110F0090484601DD112377
:1005600000E003460AAA01A90CA8FFF7ADFEDDE9E9
:100570000C704D4600268346207800070AD4AB4510
:1005800000DA5D4601A8012D04DD411911F8011CB6
:10059000302907D04F4502DA17F1040F04DA0120A1
:1005A00082460FE06D1EEEE7002F02DCED1B3E449D
:1005B00003E0781CA84200DD7D1CB81B00F1010A95
:1005C0004FF000472078000703D4AA4501DB4FF025
:1005D000FF3A0021B7F1004F0DF143088DF84310A9
:1005E00024D002202B23002F01DA7F422D230A2161
:1005F000021EA0F1010000DC5FB197FBF1FC97FB4C
:10060000F1F201FB1C7C17460CF1300C08F801CD0F
:10061000EEE7A8F1010003702188090501D5452105
:1006200000E06521A0F1010800F8011C09980FA95C
:10063000A1EB0807FF1D00B10120411901EBEA7091
:10064000A1693844081A401EA0612078C00602D46F
:100650002046AFF30080099828B1D4E901219047E2
:10066000206A401C20622078C00622D52046AFF3C5
:1006700000801EE0002E04DBB34502DD01A8805D92
:1006800000E03020D4E901219047206A401C20621C
:10069000761CAAF101005FEA000A0AD100F032F8E4
:1006A000C0680168405CD4E901219047206A401C81
:1006B0002062281EA5F10105DCDC07E0D4E9012158
:1006C00018F8010B9047206A401C2062381EA7F1E1
:1006D0000107F3DC2046AFF30080032011B043E6AE
:1006E000074B70B50D467B4400F05FF80446284682
:1006F00000F01CF910B14FF0FF3070BD204670BD06
:10070000AB2B000000487047E00100200048704714
:10071000C001002030B5B0F10A024FEA900E71F12D
:1007200000034EEA817EB0EB0E0061EB91014FEACF
:10073000101E4EEA017E10EB0E0041EB11114FEA44
:10074000102E4EEA016E10EB0E0041EB11214FEA24
:10075000104E4EEA014E10EB0E0041EB11414018D5
:1007600041F100014FEAD00040EA41704FEAD10167
:1007700010EB80054FEA810444EA907444EB0104D5
:100780006D1944EB0404521BA3414FF0000348BF12
:100790000A3200D530BD401C41F1000130BD0000DF
:1007A00001694A1C02610878704700B58FB0CDE935
:1007B00001310021059105497944CDE90310114625
:1007C0006846FFF73DFD0FB000BD0000E5FFFFFFED
:1007D0002DE9F0411F46044603260168072A01F46B
:1007E000006004DB08B116A505E016A503E008B11A
:1007F00015A500E015A521F010002060A069C01E1D
:10080000A0610FB1401EA0612046AFF300804FB140
:10081000D4E9012138469047206A401C2062C01C60
:10082000206206E0206AFAE7D4E9012115F8010BFD
:100830009047761EF8D22046AFF30080BDE8F081E5
:100840004E414E006E616E00494E4600696E660074
:100850002DE9F047814616468AB0334878440DC8E2
:100860008DE80D0030487844801C03AC0DC884E846
:100870000D0041F69B300844372190FBF1F290FBCC
:10088000F1F5A5F1800501FB12041B3C02D5644281
:10089000012000E00020DFF890A080460027FA4405
:1008A000AAF1BE0A0DE0E00709D03246684607EB20
:1008B00047010AEB810100F032FB8DE8070064106C
:1008C0007F1C002CEFD1184F7F44AC3F18E0E807A5
:1008D00014D007EB04100DF1180A90E80E008AE816
:1008E0000E00C068F04201D198190890324606A95E
:1008F00003A800F014FB03AB83E807006D10641C31
:10090000002DE4D132466946B8F1000F03A802D0A9
:1009100000F0F1FA01E000F002FBC9E90001C9F8BA
:1009200008200AB0BDE8F087C44F0000007B00F04B
:100930008000704700487047C00100207546FFF7EF
:10094000F9FFAE4605006946534620F0070085468C
:1009500018B020B5FFF754FCBDE820404FF000066A
:100960004FF000074FF000084FF0000B21F0070197
:10097000AC46ACE8C009ACE8C009ACE8C009ACE8DA
:10098000C0098D4670470446AFF300802046FFF74C
:1009900023FC00004FF0013C50F8042B51F8043BBD
:1009A0009A4221D1A2EB0C03934313EACC1317D143
:1009B00050F8042B51F8043B9A4215D1A2EB0C03DA
:1009C000934313EACC130BD150F8042B51F8043B9A
:1009D0009A4209D1A2EB0C03934313EACC13DBD068
:1009E0004FF00000704700BFD01A01BAB1FA81F190
:1009F00001F0180122FA01F0CB40C1F12001DBB275
:100A0000C0B2C01A2CFA01F3D11A914311EAC311F2
:100A1000E6D170475FEA400C08BF91F0000F4FEA43
:100A20008C234FEAC12243EA51514FEA1C5018BFB0
:100A300000F5F0404FEA300018BF41F000415FEA96
:100A40006C5C00F02980BCF1FF3F08BF40F08040A3
:100A50007047130C06BF12044FF0100C4FF0000C3F
:100A6000130E04BF12020CF1080C130F04BF120185
:100A70000CF1040C930F04BF92000CF1020CD30F85
:100A800004BF52000CF1010C11464FF00002A0F11E
:100A90001F00A0EB0C00704711F0004F08BF70471B
:100AA00031F000413FF4D5AF0B0C06BF09044FF005
:100AB000100C4FF0000C0B0E04BF09020CF1080CD7
:100AC0000B0F04BF09010CF1040C8B0F04BF89004C
:100AD0000CF1020CCB0F04BF49000CF1010CCCF15E
:100AE0002003A0EB0C0022FA03F302FA0CF241EA15
:100AF000030100F10100704720F07F4C80EA030001
:100B000023F07F47ACEB070303F57C5300F0004074
:100B100003F1FF032DE980494FEA154B09B44FEA71
:100B2000144325EA0B4E24EA03480FF2042606EB91
:100B3000132749083E785FEA320203FB0667C7F5D0
:100B4000000707FB06F64FEA54374FEAD64606F190
:100B5000020607FB066CCCF1005C4FEA1C472CEA4E
:100B6000074C07FB06F40CFB06F504EB15464FEAB1
:100B7000961634BF00204FF000404FEAD13706FBF5
:100B800007FC4FEA1C4C0CFB0BF7D21B03FB0CF7CA
:100B900061EB07010CFB0EF7B0EB074072EB17425D
:100BA0000CFB08F734BFA2EB0742B2EB074261EB44
:100BB00017414FEA0C444FEA910706FB07FC4FEA46
:100BC0001C4C0CFB0BF7B0EBC74072EB573203FB2E
:100BD0000CF734BFA2EBC742B2EBC74261EB57310F
:100BE0000CFB0EF7B0EBC70072EB57720CFB08F76B
:100BF00034BFA2EBC702B2EBC70261EB5771039F90
:100C00004FEA816141EA921104EBCC044FEAD137FB
:100C10004FEA826206FB07FC42EA90124FEA8060CC
:100C20004FEA1C4C0CFB0BF7D21B03FB0CF761EBE0
:100C300007010CFB0EF7B0EB074072EB17420CFB01
:100C400008F734BFA2EB0742B2EB074261EB174152
:100C50004FEA8C554FEA910704EB9C2406FB07FCF6
:100C60004FEA1C4C0CFB0BF7B0EBC74072EB573252
:100C700003FB0CF734BFA2EBC742B2EBC74261EBF8
:100C800057310CFB0EF7B0EBC70072EB57720CFB41
:100C900008F734BFA2EBC702B2EBC70261EB577192
:100CA00015EB4C254FEA816141EA92114FEA8262CD
:100CB0004FEAD13742EA901206FB07FC44F10004E8
:100CC0004FEA80604FEA1C4C0CFB0BF7D21B03FB76
:100CD0000CF761EB07010CFB0EF7B0EB074072EB72
:100CE00017420CFB08F734BFA2EB0742B2EB0742F6
:100CF00061EB174115EB1C154FEA813141EA924136
:100D00004FEA823242EA90424FEA80304FEA0C7654
:100D100044F1000448EA03434EEA0B484FF0000E4A
:100D2000B2EB080C71EB030724BF624639464EEB69
:100D30000E0E4FF0000B0018524149414BEB0B0BCC
:100D4000B2EB080C71EB03077BF1000B24BF62468A
:100D500039464EEB0E0E4FF0000B00185241494140
:100D60004BEB0B0BB2EB080C71EB03077BF1000BA9
:100D700024BF624639464EEB0E0E51EA020718BFF9
:100D800046F0010616EB0E7655F1000254F1000113
:100D900003D5BDE88901BDE80088BDE88901BDE84B
:100DA0000048B619524141EB0101A3F1010370471C
:100DB00080807F7E7D7C7B7A797877767675747398
:100DC000727171706F6E6E6D6C6C6B6A6A69686857
:100DD000676666656464636362616160605F5F5EED
:100DE0005E5D5D5C5C5B5B5A5A5959585857575663
:100DF00056555555545453535252525151505050C8
:100E00004F4F4F4E4E4D4D4D4C4C4C4B4B4B4A4A19
:100E10004A4949494848484747474746464645455D
:100E20004544444444434343434242424241414196
:100E3000002B26D4770021D01CB54FEA370703B426
:100E40004FF010004FF010014FF000000FBCBDE854
:100E500010400BF1010BBBF1010F08BF5FEA170750
:100E600022BF12F1010211F101014FF0004143F1E3
:100E7000000300F0004043EA00007047F9D3570830
:100E8000DAE746EA064613F1400F4FEA16461FDD41
:100E900013F1200FDFBF16430A46002120335B42C7
:100EA000C8D0C3F1200746EA064602FA07F74FEA20
:100EB000164646EA0706C3F1200722FA03F201FAB2
:100EC00007F721FA03F14FF0000342EA0702B1E706
:100ED00046EA020646EA06464FEA164646EA010692
:100EE000BCBF46EA0646360C4FF000034FF0000246
:100EF0004FF000019EE72DE9C048934630B491E8D9
:100F0000380007C831EA400C48BF34EA430C03D527
:100F1000FFF7F2FDFFF78CFFF0BCBDE800882DE97C
:100F2000C048934630B491E8380007C810F0804FAD
:100F300008BF13F0804F03D100F005F8FFF778FFEA
:100F4000F0BCBDE8008820F07F4780EA030023F072
:100F50007F4C07EB0C03A3F57C5300F00040A3F19A
:100F6000FE0392F0000F00F0B38095F0000F00F048
:100F700077802DE901494FEA11404FEA144621EAF2
:100F8000004800FB06FC24EA064708FB06F607FBC0
:100F900008F800FB07F718EB06484CEB164C4FEA35
:100FA000124B18EB07484FEA15464CEB174022EA64
:100FB0000B4E0BFB06FC25EA06470EFB06F607FB6D
:100FC0000EFE0BFB07F71EEB064E4CEB164C4FF0DC
:100FD00000061EEB074E4CEB174B18EB0B0840F1CD
:100FE000000018EB0E0B58EB000840F100008F1AC0
:100FF0004FF000013CBFC943661B14BFB5EB040CA6
:1010000000213CBFC943F61B4FEA17444EEA8E0E3F
:1010100027EA04454FEA1C4704FB07622CEA074C09
:1010200005FB07F70CFB05F604FB0CFC16EB07466B
:1010300042EB174216EB0C4642EB1C421BEB06063A
:1010400058EB0202414146EA9E0601D5BDE80189FE
:10105000B619524141EB0101A3F10103BDE8018939
:101060004FEA14454FEA114724EA054621EA074CA6
:1010700005FB07F406FB07F70CFB06F105FB0CFC70
:1010800011EB074144EB17444FEA124711EB0C41B7
:1010900044EB1C4422EA074C05FB07F206FB07F76A
:1010A0000CFB06F605FB0CFC16EB074642EB174261
:1010B00016EB0C4642EB1C456A1854F1000148BF80
:1010C0007047B619524141EB0101A3F1010370478A
:1010D00095F0000F37D04FEA11424FEA144721EA4A
:1010E000024624EA074C02FB07F106FB07F70CFB5C
:1010F00006F402FB0CFC14EB074441EB17414FEAEA
:10110000154714EB0C4441EB1C4125EA074C02FB4C
:1011100007F506FB07F70CFB06F602FB0CFC16EBCB
:10112000074645EB174516EB0C4645EB1C421219DA
:1011300051F1000148BF7047B619524141EB01011E
:10114000A3F1010370474FEA14454FEA114724EA1F
:10115000054621EA074C05FB07F106FB07F70CFBE8
:1011600006F24FF0000605FB0CFC12EB074241EBC8
:10117000174112EB0C4251EB1C4148BF70479218CB
:1011800041EB0101A3F10103704700BFFEE700003E
:101190002DE9F04105460C4601F0FCFC0E480068C4
:1011A00004F080F880464146284600F093FA06464F
:1011B0000A48006804F076F880464146204600F070
:1011C00089FA074606F2DC500549088007F5BE603B
:1011D000091F0880BDE8F081800000208400002005
:1011E0004004004010B500BF00F0D6F800210848C8
:1011F000006804F007F807D00120064908604FF4A2
:10120000FA6001F0FBFF00E0EEE700BF10BD000058
:101210006C000020B48121427047000010B54FF4EB
:101220007A70144908804FF47F70091D0880091DE9
:1012300008804FF4FA60091D0880801001F0DEFF7D
:1012400040F2DC500B49088040F21450091D088020
:101250004FF4BE60091D088040F2DC50091D088073
:101260004FF47A7001F0CAFF4FF47A7001F0C6FFB4
:1012700010BD0000340400402DE9F0410246002575
:101280000026002000230024002791F803C00CF062
:101290000F0591F803C00CF0100CBCF1000F03D047
:1012A00091F802C04CEA050591F800C0BCF1000FAE
:1012B00031D0146800202BE04FF0010C0CFA00F341
:1012C000B1F800C00CEA03069E4220D183004FF023
:1012D0000F0C0CFA03F7BC4305FA03FC4CEA0404B8
:1012E00091F803C0BCF1280F06D14FF0010C0CFAA5
:1012F00000FCC2F814C00AE091F803C0BCF1480F2A
:1013000005D14FF0010C0CFA00FCC2F810C0401CD3
:101310000828D1D31460B1F800C0BCF1FF0F34DD50
:10132000546800202EE000F1080C4FF0010808FA84
:101330000CF3B1F800C00CEA03069E4221D18300F1
:101340004FF00F0C0CFA03F7BC4305FA03FC4CEA10
:10135000040491F803C0BCF1280F05D100F1080C7A
:1013600008FA0CF8C2F8148091F803C0BCF1480FD9
:1013700007D100F1080C4FF0010808FA0CF8C2F888
:101380001080401C0828CED35460BDE8F081416134
:1013900070470161704700002DE9FF4700F0E6FA51
:1013A000142001F02BFF2948007800F0800000286D
:1013B00033D02648007800F03F004FEAE078074637
:1013C0004FF4803300203946A1FB035608FB03622B
:1013D00007FB00282F461E4800883F1848F10008E8
:1013E0003846414603F0D6FA00224FF08043CDE95B
:1013F000000103F031F905460022164B03F02CF9E9
:1014000081460022144B03F053FBCDE9020103F0A7
:1014100035F8044600200D4908704FF08041204601
:1014200003F058FF06D20021204604F053F801D201
:101430000A4804600948006803F04AFE05462A4647
:101440000B4607A0FEF7F0FEBDE8FF877000002006
:101450007200002080842E41004075406C00002006
:10146000686967683A25660D0A00000000BFFEE75C
:1014700070B504460D46FFF78FFF2946204600F061
:1014800029F9064606F5C8600B4908800846008819
:1014900040F26C71884204DD40F2A4600649088085
:1014A00008E005480088B0F5966F03DA4FF49660BF
:1014B0000149088070BD00003804004008B50121D2
:1014C000082000F063F94FF48040ADF800001020D0
:1014D0008DF8030003208DF8020069460348FFF7EA
:1014E000CBFE20210148FFF754FF08BD000C01404E
:1014F00008B50121082000F049F94FF44050ADF83B
:10150000000010208DF8030003208DF802006946CA
:101510001948FFF7B1FE4FF480511748FFF739FF24
:101520004FF400511448FFF734FF4FF47A7001F084
:1015300065FE4FF480511048FFF729FF4FF400512A
:101540000D48FFF724FF4FF47A7001F057FE4FF477
:1015500080510948FFF71DFF4FF400510648FFF77F
:1015600018FF4FF47A7001F049FE0020034908602B
:101570000349C1F8B00108BD000C0140B48121420B
:10158000008021422DE9F04704464FF0000AFFF7A2
:1015900003FFC82001F032FE25480068E06023E028
:1015A0002448006800B12AE0FFF7F6FE0021E06859
:1015B00003F090FF0BD2E06803F08AFD07461E4A55
:1015C0001E4B03F09BFC054602F058FFE0601848F4
:1015D0000168204600F07EF8814609F5C860184988
:1015E00008800A2001F00AFE1148006803F070FD2F
:1015F00005464FF03332134B03F058FBD0D300BFF6
:101600000BE00C48006800B10BE00D4800880A3878
:101610000B490880642001F0F1FD40F24C40824506
:10162000EFDC00BF4FF47F7005490880BDE8F0870C
:101630006C000020300000209A9999999999B93F3F
:10164000380400403333D33F00BFFEE7704700004B
:1016500070B5002100230F22C47804B3154C246810
:1016600004F4E064C4F5E064210AC1F10403CA4053
:10167000447804FA03F184781440214309010E4CA4
:101680000678A155047804F01F050124AC400578C4
:101690006D11AD0005F1E025C5F8004109E00478C1
:1016A00004F01F050124AC40044D0678761145F87E
:1016B000264070BD0CED00E000E400E080E100E0B9
:1016C00002490143024A1160704700000000FA0518
:1016D0000CED00E02DE9FC5F04460E4600250027D6
:1016E000A8463146E06803F027FF054628462169F1
:1016F00003F022FF07462946606903F015FD60618B
:101700003946A06803F01AFE01906169606803F031
:1017100015FE83462946206803F010FE59460090C6
:1017200003F002FD8246019903F0FEFC814603F0BE
:101730009DFD804625614046BDE8FC9F2DE9F047B0
:1017400004460D4616461F46DDE9089800206061F4
:10175000C4F80C90A6602560676020614146204671
:10176000FFF7B8FFBDE8F0877047000029B1064ACF
:10177000D2690243044BDA6104E0034AD26982432E
:10178000014BDA61704700000010024029B1064A9F
:1017900092690243044B9A6104E0034A92698243CE
:1017A000014B9A61704700000010024030B50021E3
:1017B0000022002400232D4D6D6805F00C0121B19D
:1017C000042905D0082923D105E0294D056022E030
:1017D000274D05601FE0254D6D6805F47012234DFF
:1017E0006D6805F48034022505EB92421CB9214D49
:1017F000554305600BE01D4D6D6805F400351DB1C6
:101800001C4D5543056002E0194D5543056002E04B
:10181000174D056000BF00BF144D6D6805F0F00165
:101820000909154D6B5C0568DD4045600F4D6D681D
:1018300005F4E061090A104D6B5C4568DD40856088
:101840000A4D6D6805F46051C90A0B4D6B5C456823
:10185000DD40C560054D6D6805F44041890B074DBD
:101860006B5CC568B5FBF3F5056130BD0010024047
:1018700000127A0000093D0056000020660000209A
:10188000704710B500F002F810BD00000CB5002044
:10189000019000903348006840F48030314908607E
:1018A00000BF3048006800F4003000900198401CF0
:1018B0000190009818B90198B0F5A06FF1D12948AE
:1018C000006800F4003010B10120009001E0002019
:1018D00000900098012843D12348006840F0100090
:1018E000214908600846006820F0030008600846A7
:1018F000006840F0020008601A48406819494860D2
:101900000846406848600846406840F48060486087
:101910000846406820F47C1048600846406840F45F
:10192000E81048600846006840F08070086000BF1A
:101930000C48006800F000700028F9D009484068A1
:1019400020F00300074948600846406840F0020064
:10195000486000BF0348406800F00C000828F9D137
:101960000CBD0000001002400020024010B54FF4F2
:1019700000410A48FFF70BFD0A2001F065FC4FF417
:1019800000410648FFF705FD0A2001F05DFC4FF419
:1019900000410248FFF7FBFC10BD000000100140B1
:1019A00010B501F0F7F80C4800685A2802DD012054
:1019B0000A490860084800685A280BDA0748006896
:1019C000012807D100200549086005480068401C2F
:1019D0000349086010BD0000900000207400002042
:1019E00078000020042808D14FF0E021096941F077
:1019F00004014FF0E022116107E04FF0E021096996
:101A000021F004014FF0E02211617047704700009F
:101A100010B51348006840F00100114908600846FD
:101A20004068104908400E494860084600680E4961
:101A300008400B4908600846006820F480200860D0
:101A40000846406820F4FE0048604FF41F0088609C
:101A5000FFF717FF4FF000600449086010BD000059
:101A6000001002400000FFF8FFFFF6FE08ED00E066
:101A7000F0B50C46154600220021068C4FF6FE7785
:101A80003E400684028B018C4FF60C7632407E1C61
:101A900006EA03162E433243104EB0420ED0104ECB
:101AA000B0420BD0B0F1804F08D00E4EB04205D0FE
:101AB0000D4EB04202D00D4EB04206D14FF6FD762B
:101AC000314044F00106314305E04FF6F5763140F0
:101AD00044F00106314302830184F0BD002C014033
:101AE000003401400004004000080040000C0040A9
:101AF000F0B50C461546002200210026078C4FF653
:101B0000EF7C07EA0C070784028B018C4FF6FF7706
:101B100007EA041640F6FF473A404FF6FF7707EA18
:101B200003373A434FF6FF7707EA05273A43114F49
:101B3000B8420ED0104FB8420BD0B0F1804F08D051
:101B40000E4FB84205D00E4FB84202D00D4FB842EA
:101B500006D14FF6DF77394046F01007394305E0EC
:101B60004FF65F77394044F0100739430283018410
:101B7000F0BD0000002C0140003401400004004092
:101B800000080040000C0040F0B50C46154600224D
:101B900000210026078C4FF6FF6C07EA0C0707842C
:101BA000828B018C4FF6FF7707EA04264FF60C77FD
:101BB0003A404FF6FF7707EA03172F433A43114F96
:101BC000B8420ED0104FB8420BD0B0F1804F08D0C1
:101BD0000E4FB84205D00E4FB84202D00D4FB8425A
:101BE00006D14FF6FF57394046F48077394305E078
:101BF0004FF2FF57394044F48077394382830184A0
:101C0000F0BD0000002C0140003401400004004001
:101C100000080040000C0040F0B50C4615460022BC
:101C200000210026078C4EF6FF7C07EA0C0707848C
:101C3000828B018C4FF6FF7707EA043640F6FF47A8
:101C40003A404FF6FF7707EA05273A434FF6FF770A
:101C500007EA03373A43114FB8420ED0104FB8424B
:101C60000BD0B0F1804F08D00E4FB84205D00E4FC8
:101C7000B84202D00D4FB84206D14DF6FF77394039
:101C800046F48057394305E047F6FF57394044F49E
:101C90008057394382830184F0BD0000002C01404D
:101CA000003401400004004000080040000C0040E7
:101CB00030B589B005460C460121C802FFF766FD24
:101CC00001210520FFF762FD4FF40060ADF8200010
:101CD00018208DF8230003208DF8220008A91E4843
:101CE000FFF7CAFAA8B2ADF81800A0B2ADF8140018
:101CF0000020ADF81A00ADF8160005A9174800F04D
:101D00004BFB6020ADF804000120ADF80600002078
:101D1000ADF80A00ADF80C0001A9104800F0C0FAB7
:101D200001210E4800F01DF908210C4800F0E8F9E7
:101D300001210A4800F0FAF80121084800F005F9ED
:101D40000021064800F0F7FA40F2FA51034800F08B
:101D5000F2FA09B030BD000000080140002C01403B
:101D600010B53248007800F08000002858D10121D9
:101D7000880700F008F9D0B12C48007800F0400046
:101D8000A8B12A48007800F03F003F280AD1274830
:101D9000007840F08000254908704FF6FF70244914
:101DA000088004E021480078401C20490870042184
:101DB000080700F0E8F898B31C48007800F04000ED
:101DC00088B11A48007840F08000184908704FF038
:101DD000804000F0D5F81649088000214FF080407F
:101DE00000F0EAF91CE00020104908701049088052
:101DF00000214FF0804000F0A8F800214FF0804013
:101E000000F09CFA0121880700F09FF8074800784D
:101E100040F04000054908700221480700F0CCF965
:101E20000521880700F08EF810BD0000700000202A
:101E30007200002030B589B005460C460121022011
:101E4000FFF794FC01210D20FFF7A0FCC020ADF8A6
:101E5000200018208DF8230003208DF8220008A907
:101E60002F48FFF709FA0320ADF8200008A92D48F4
:101E7000FFF702FAA8B2ADF81800A0B2ADF814004E
:101E80000020ADF81600ADF81A0005A9264800F0AC
:101E900083FA6020ADF804000020ADF80C000120AA
:101EA000ADF806000020ADF80A0001A91E4800F0B8
:101EB000DBF801A91C4800F02DF901A91A4800F02F
:101EC00095F901A9184800F0EBF90821164800F02F
:101ED00017F90821144800F07CF90821124800F095
:101EE000D5F90821104800F019FA01210E4800F038
:101EF0001DF801210C4800F028F84FF4BE600A4993
:101F00003C31088040F2DC50091D0880064934311C
:101F100008804FF47F70091D088009B030BD0000B3
:101F200000080140000C01400004004021B102887B
:101F300042F08002028004E002884FF67F731A406C
:101F400002807047CA430282704721B1028842F082
:101F50000102028004E002884FF6FE731A400280FC
:101F6000704731B1B0F8442042F40042A0F8442058
:101F700005E0B0F84420C2F30E02A0F844207047F8
:101F80000146088F704730B5024600200023002428
:101F9000158A05EA0103958905EA010413B10CB11C
:101FA000012000E0002030BD70B505460C462448F5
:101FB00085420ED0234885420BD0B5F1804F08D022
:101FC0002148854205D02148854202D020488542DB
:101FD00000D100E000BF208850B92389A288618821
:101FE0002846FFF745FDE188284600F0A9F925E0DD
:101FF000208804280AD12389A28861882846FFF70F
:1020000077FDE188284600F0A4F917E02088082829
:102010000AD12389A28861882846FFF7B5FDE188A7
:10202000284600F0A3F909E02389A28861882846A0
:10203000FFF7F2FDE188284600F0A1F970BD00002D
:10204000002C014000340140000400400008004022
:10205000000C00401AB183890B43838102E083891D
:102060008B4383817047000070B500240022002359
:10207000058C4FF6FE7635400584028C8388048BF0
:102080004FF68F752C40B51E2C400D882C43751EC5
:102090002A400D892A434D882A43144DA8420BD06B
:1020A000134DA84208D0134DA84205D0124DA842A6
:1020B00002D0124DA84213D14FF6F7752A404D8930
:1020C0002A434FF6FB752A408D882A434FF6FF6559
:1020D0002B404FF6FF552B408D892B43CD892B4349
:1020E00083800483CD888586028470BD002C0140E6
:1020F00000340140004001400044014000480140DC
:102100000A460021018B4FF6F773194011430183F2
:102110007047000070B5002400220023058C4FF6A4
:10212000EF7635400584028C8388048B48F6FF7572
:102130002C404FF6FF452C400D884FF6FF7606EAFF
:1021400005252C434FF6DF752A400D8906EA051553
:102150002A434D8806EA05152A43154DA84202D0A8
:10216000144DA8421DD14FF67F752A404D894FF678
:10217000FF7606EA05152A434FF6BF752A408D887B
:1021800006EA05152A434FF6FF352B404FF2FF753F
:102190002B408D8906EA85052B43CD8906EA850506
:1021A0002B4383800483CD880587028470BD0000A3
:1021B000002C0140003401400A460021018C4FF6FA
:1021C000DF7319404FF6FF7303EA021319430184CA
:1021D00070470A460021018B4FF2FF7319404FF6FA
:1021E000FF7303EA022319430183704770B500248B
:1021F00000220023058C4FF6FF6635400584028CD3
:102200008388848B4FF68F752C404FF6FC752C40DD
:102210000D882C434FF6FF552A400D894FF6FF7667
:1022200006EA05252A434D8806EA05252A43154D69
:10223000A84202D0144DA8421DD14FF2FF752A408A
:102240004D894FF6FF7606EA05252A434FF6FF35FE
:102250002A408D8806EA05252A434EF6FF752B4055
:102260004DF6FF752B408D8906EA05152B43CD8968
:1022700006EA05152B4383808483CD8885870284F5
:1022800070BD0000002C0140003401400A460021CE
:10229000818B4FF6F773194011438183704700001B
:1022A00070B5002200230024058C4EF6FF763540E1
:1022B0000584038C8488828B48F6FF752A404FF68C
:1022C000FF452A400D884FF6FF7606EA05252A438A
:1022D0004DF6FF752B400D8906EA05352B434D88D9
:1022E00006EA05352B430B4DA84202D00A4DA84201
:1022F00008D14BF6FF752C408D894FF6FF7606EA24
:1023000085152C4384808283CD88A0F840500384B7
:1023100070BD0000002C0140003401400A4600213D
:10232000818B4FF2FF7319404FF6FF7303EA0223CC
:10233000194381837047A0F840107047818470472B
:10234000028B4FF6F3731A400283028B0A43028317
:102350007047028B4FF2FF331A400283028B4FF615
:10236000FF7303EA01231A4302837047828B4FF6FF
:10237000F3731A408283828B0A4382837047828B75
:102380004FF2FF331A408283828B4FF6FF7303EACA
:1023900001231A4382837047002202881D4B984212
:1023A0000ED01D4B98420BD0B0F1804F08D01B4B84
:1023B000984205D01A4B984202D01A4B984204D149
:1023C0004FF68F731A404B881A43174B984207D029
:1023D000164B984204D04FF6FF431A40CB881A435D
:1023E00002808B8883850B8803850A4B98420BD02B
:1023F000094B984208D00E4B984205D00D4B98429D
:1024000002D00D4B984201D10B7A038601238382BF
:1024100070470000002C01400034014000040040DF
:1024200000080040000C0040001000400014004074
:102430000040014000440140004801402DE9F047C0
:1024400004464FF0000806E0FEF7A6FF142000F057
:10245000D5FE08F10108B8F1320FF5DB1D48006820
:10246000E06028E0FEF798FFE06802F031FE0646E3
:102470000022194B02F0E0FA0BD2E06802F028FECD
:102480000646164A164B02F02BF8814601F0F6FF7D
:10249000E060104801682046FFF71CF9054605F585
:1024A000C860104908801048006808B1BDE8F0878E
:1024B0000A2000F0A3FE0748006802F009FE064665
:1024C0000022054B02F0B8FACCD34FF07C50E0600C
:1024D00000BFEBE76C0000200000E03F7B14AE473C
:1024E000E17A843F38040040300000202DE9F047B5
:1024F00005468946144600F04DFB1148006802F07D
:10250000D1FE804641462846FFF7E4F806460D48CE
:10251000006802F0C7FE804641462046FFF7DAF821
:10252000074606F2DC500849088040F22260091F85
:10253000088007F2DC5004490C390880BDE8F087B8
:1025400088000020940000204004004010B540F2B4
:1025500025511D4800F064F910B31B4800F01CFA27
:10256000C4B21A48008800F40040C8B9174800886F
:1025700000F4804060B10A2C03D000201349088089
:1025800020E01248008840F400401049088019E01B
:102590000D2C06D10D48008840F480400B4908807E
:1025A00010E00A480088C0F30D0009490C540748A0
:1025B0000088401C0549088008460088C72801DDBE
:1025C0000020088010BD00000038014054000020A9
:1025D000F800002070B540F225517B4800F020F94A
:1025E00000287DD0784800F0D7F9C4B2A4F150009B
:1025F000052818D2DFE800F01303070B0F000120B5
:10260000724908600FE00220704908600BE0032067
:102610006E49086007E004206C49086003E0002070
:102620006A49086000BF00BF412C06D167480068B6
:10263000042802D1012066490860422C06D1634873
:102640000068042802D1012062490860432C06D1A9
:102650005E480068042802D101205F490860442CCC
:1026600006D15A480068042802D101205B4908605D
:10267000452C06D155480068042802D1012058494C
:102680000860462C06D151480068042802D1012078
:1026900054490860472C06D14C480068042802D1F0
:1026A000012051490860482C06D148480068042898
:1026B00002D101204D490860492C06D143480068E9
:1026C000042802D101204A490860402C06D13F4825
:1026D0000068042802D1012046490860302C00E03F
:1026E00071E002D1012044490860012C0FD1434917
:1026F0000868434902F018FD40490860086802F084
:10270000E7FC05462A460B463EA0FDF78DFD022C50
:1027100010D13A4948684FF07E5102F005FD374923
:102720004860486802F0D4FC05462A460B4635A0AE
:10273000FDF77AFD032C0FD130498868304902F04B
:10274000F3FC2E498860886802F0C2FC05462A46E0
:102750000B462CA0FDF768FD042C0FD12749086813
:10276000274902F0E9FE25490860086802F0B0FC3C
:1027700005462A460B4623A0FDF756FD052C10D131
:102780001E4948684FF07E5102F0D6FE1B49486052
:10279000486802F09DFC05462A460B4619A0FDF745
:1027A00043FD062C0FD115498868154902F0C4FE77
:1027B00012498860886802F08BFC05462A460B4661
:1027C00010A0FDF731FD70BD004400400000002066
:1027D0000C00002010000020140000201800002031
:1027E00024000020280000201C00002020000020E1
:1027F000340000202C00002030000020E0000020E9
:10280000000020412566000021B1828942F4005277
:10281000828104E082894DF6FF731A4082817047FD
:1028200070B50246002400230025002040F66A16F9
:10283000B14200D100BFC1F3421501F01F030126D0
:1028400006FA03F3012D02D19689334006E0022DEA
:1028500002D1168A334001E0968A33400C120126D9
:1028600006FA04F41688344013B10CB1012000E0DC
:10287000002070BDF0B5034600240026002500208E
:1028800040F66A17B94200D100BF1846C1F342149E
:1028900001F01F06012707FA06F5012C01D10C30C3
:1028A00004E0022C01D1103000E014301AB10768A6
:1028B0002F43076002E00768AF430760F0BD0000E8
:1028C0002DE9F04786B005460E460024A24600BF1B
:1028D000A1460027B08900B100BF2F462C8A4CF6D4
:1028E000FF700440F08804432C82AC894EF6F3104C
:1028F0000440B08831890843718908430443AC819E
:10290000AC8A4FF6FF400440B0890443AC8201A872
:10291000FEF74CFF1F48874202D1DDF810A001E00E
:10292000DDF80CA0A88900F4004040B10AEBCA0011
:1029300000EB0A1031684900B0FBF1F807E00AEB40
:10294000CA0000EB0A1031688900B0FBF1F864207E
:10295000B8FBF0F004012009642101FB1089A8896B
:1029600000F4004040B1322000EBC900B0FBF1F0B0
:1029700000F00700044308E0322000EB0910642156
:10298000B0FBF1F000F00F0004432C8106B0BDE86D
:10299000F08700000038014001468888C0F3080035
:1029A000704700BFFEE7000030B589B005460C4611
:1029B00001211820FEF7EAFE01210846FEF7D6FEA7
:1029C00010208DF81700C002ADF8140003208DF818
:1029D000160005A92648FEF74FFC28208DF81700A1
:1029E0000220ADF8140003208DF8160005A9214837
:1029F000FEF742FC02211F48FEF7C9FCADF8085063
:102A0000ADF804400020ADF80A00ADF8060001A9B9
:102A10004FF08040FFF7C0FC0420ADF81800002004
:102A2000ADF81A000120ADF81C000020ADF81E0022
:102A3000ADF8200006A94FF08040FFF7B5FA1C2042
:102A40008DF8100005208DF811008DF8120001207E
:102A50008DF8130004A8FEF7FBFD0122052188076D
:102A6000FFF7F8FA01218807FFF76FFA09B030BDC8
:102A70000010014000080140490050EAC12018BF81
:102A800004204A0D18BF40F0010040F2FF72B2EB83
:102A9000515F08BF40F00200012808BF05207047C1
:102AA0002DE9F0414F1E00EBC7010446D1E90001BA
:102AB00015461E4637F006020DD02A46334601F071
:102AC000F7FF7F1E04EBC703D3E9002301F008FDE5
:102AD00037F00602F1D1022F25D0042F13D0062F94
:102AE00018BFBDE8F0812A46334601F0E1FFD4E982
:102AF0000A2301F0F5FC2A46334601F0D9FFD4E958
:102B0000082301F0EDFC2A46334601F0D1FFD4E959
:102B1000062301F0E5FC2A46334601F0C9FFD4E95B
:102B2000042301F0DDFC2A46334601F0C1FFD4E95D
:102B3000022301F0D5FC2A46334601F0B9FFD4E95F
:102B40000023BDE8F04101F0CBBC00000022134699
:102B50001046014901F080BD0000F03F01F0C0BC0B
:102B6000002213461046114601F076BD40F20132B4
:102B700000204FF0E04102F088BD0000024A002032
:102B8000110702F082BD000001FDFFFF014600BFFA
:102B9000704700002DE9F04F8FB00024A0460025BB
:102BA00000260027A1464FF0010A4FF0010B01203B
:102BB0000D900C9000200B900A9009900890F74817
:102BC0000078012802D10FB0BDE8F08FF4480088EA
:102BD00000F40040002879D0F2480078632808D13A
:102BE0000120F14908700020EC490870EF49087095
:102BF0001CE0EC4800784E2802D0EA48007848B93A
:102C00000020E94908700120E44908700020E749E4
:102C10000870D8E7E34800786C2807D10020E24923
:102C20000870DE4908700120E0490870DE4800782D
:102C300001286ED1DC4908700020D8490870DB49B2
:102C40000870DB490860DB490860D5480088C0F39C
:102C50000D08012413E0D348005D782803D0D14843
:102C6000005D582800D1E5B2CE48005D792803D038
:102C7000CC48005D592800D1E6B2601C84B24445BE
:102C8000E9DBB54243DA01241CE0C648005D2D387B
:102C900010B94FF0FF3A13E0C248005D2E3820B95A
:102CA000601C281AC0B20B900AE0BE48005D3038A4
:102CB000BF49096801EB810100EB4100BC49086094
:102CC000601C84B2AC42E0DB6C1C1DE064E2B548E1
:102CD000005D2D3810B94FF0FF3B13E0B148005DA7
:102CE0002E3820B9601C301AC0B20A900AE0AD48F4
:102CF000005D3038AF49096801EB810100EB41000C
:102D0000AC490860601C84B2B442E0DB42E00124BC
:102D10001DE095E0A348005D2D3810B94FF0FF3B52
:102D200013E0A048005D2E3820B9601C301AC0B2F4
:102D30000A900AE09B48005D30389E49096801EB23
:102D4000810100EB41009B490860601C84B2B442E1
:102D5000E0DB741C1CE09348005D2D3810B94FF087
:102D6000FF3A13E08F48005D2E3820B9601C281A06
:102D7000C0B20B900AE08B48005D30388C4909687E
:102D800001EB810100EB410089490860601C84B2BD
:102D9000AC42E0DB0B98404201F0E5FD02460B46F9
:102DA000CDE900010020844900F0AEFDCDE9040129
:102DB0007F4909680AFB01F001F0D5FDCDE9020168
:102DC000DDE9042301F074FECDE9060101F09CFD6C
:102DD000774908600A98404201F0C5FD02460B465B
:102DE000CDE900010020744900F08EFDCDE9040119
:102DF000704909680BFB01F001F0B5FDCDE9020156
:102E0000DDE9042301F054FECDE9060101F07CFD6B
:102E10006849086066480068A02802DC64480068C9
:102E200010B950206249086062480068782803DCC5
:102E300060480068002802D13C205E49086090E1AB
:102E40005A4800780128FAD10020574908705349A0
:102E500008700120554908700020584908605849F9
:102E6000086058490860584908604D480088C0F318
:102E70000D08012426E04B48005D782803D049481E
:102E8000005D582800D1E5B24648005D792803D09E
:102E90004448005D592800D1E6B24248005D7728D9
:102EA00003D04048005D572800D1E7B23D48005D9F
:102EB000612803D03B48005D412801D104F0FF099F
:102EC000601C84B24445D6DBB5427FDA4F457DDADB
:102ED00001241CE03348005D2D3810B94FF0FF3A53
:102EE00013E03048005D2E3820B9601C281AC0B2AB
:102EF0000B900AE02B48005D30383049096801EB3F
:102F0000810100EB41002D490860601C84B2AC4295
:102F1000E0DB6C1C1CE02348005D2D3810B94FF03D
:102F2000FF3B13E01F48005D2E3820B9601C301AAB
:102F3000C0B20A900AE01B48005D30382049096899
:102F400001EB810100EB41001D490860601C84B267
:102F5000B442E0DB741C1DE01248005D2D3818B946
:102F60004FF0FF300D9013E00E48005D2E3820B971
:102F7000601C381AC0B209900AE00A48005D303877
:102F80001049096801EB810100EB41000D4908601F
:102F9000601C84B2BC42DFDB7C1C37E07E0000207A
:102FA00054000020F80000207C0000207D0000205C
:102FB00080000020840000200000244088000020C1
:102FC0008C000020900000209400002020E0734836
:102FD000005D2D3818B94FF0FF300C9014E06F48A9
:102FE000005D2E3828B9601CA9EB0000C0B2089023
:102FF0000AE06A48005D30386949096801EB8101DF
:1030000000EB410066490860601C84B24C45DEDB81
:103010000B98404201F0A7FC02460B46CDE90001A7
:103020000020604900F070FCCDE904015E490968A8
:103030000AFB01F001F097FCCDE90201DDE9042370
:1030400001F036FDCDE9060101F05EFC564908604D
:103050000A98404201F087FC02460B46CDE9000188
:103060000020504900F050FCCDE904014F490968A7
:103070000BFB01F001F077FCCDE90201DDE904234F
:1030800001F016FDCDE9060101F03EFC474908605C
:103090000998404201F067FC02460B46CDE9000169
:1030A0000020404900F030FCCDE90401404A0D9970
:1030B000126801FB02F001F056FCCDE90201DDE9E6
:1030C000042301F0F5FCCDE9060101F01DFC3849AF
:1030D00008600898404201F046FC02460B46CDE9E4
:1030E000000100202F4900F00FFCCDE904012C4A1B
:1030F0000C99126801FB02F001F035FCCDE90201E8
:10310000DDE9042301F0D4FCCDE9060101F0FCFB6C
:103110002349086024480068A02802DC224800688F
:1031200010B950202049086020480068782802DC47
:103130001E48006810B93C201C4908601C48006803
:10314000A02802DD00201A49086015480068B4284C
:1031500004DC1348006810F1B40F02DA00201049B3
:103160000860002404E030200C490855601C84B23B
:103170004445F8DB002500260027A9464FF0010A48
:103180004FF0010B01200D900C9000200B900A9045
:10319000099008900749088000BF14E5F800002056
:1031A0009400002000002440880000208C000020B3
:1031B000900000205400002010B56FF00400FEF7CE
:1031C00011FC0A4800680A49B0FBF1F0094908708F
:1031D0000846007800EB4001C1EBC0104FF6FF71CC
:1031E00001EAC0000449088010BD0000380000203A
:1031F00000127A004C0000204E0000200146114AC7
:1032000012884A434FF0E0235A6100229A611A461D
:10321000126942F001021A6100BF4FF0E02210690A
:1032200000F001021AB100F48032002AF5D04FF00C
:10323000E022126922F001024FF0E0231A6100221D
:103240009A6170474E0000200146114A12784A43A5
:103250004FF0E0235A6100229A611A46126942F047
:1032600001021A6100BF4FF0E022106900F0010274
:103270001AB100F48032002AF5D04FF0E022126932
:1032800022F001024FF0E0231A6100229A61704798
:103290004C00002000BF054A128802F04002002ABC
:1032A000F9D0C2B2014B1B1D1A8070470044004088
:1032B0001CB500244FF4A060FEF702FAFFF77CFF74
:1032C0004FF4E13001F022F84FF4165001F06EF89F
:1032D000472144F61F60FEF7ADFD472144F61F600D
:1032E000FEF7E6FC47214FF6FF70FFF75DFBFEF7A8
:1032F000E5F8FEF7FDF8FDF775FFF84800684FF0B8
:103300007C5100231A46CDE90010F549F548FEF737
:1033100015FA0120F44908600020F449C1F8B4010D
:10332000F14908310860DBE2F148006870B14FF400
:103330007F70F04908800020EF490860EC49086080
:103340000120EE4908600020ED490860EA48006865
:10335000012825D1E44908310860E8480068C8B16F
:10336000FDF75CFFDF48FFF769F80020E3490860DC
:1033700000240CE0D9480168DA48FEF779F83C20CF
:10338000FFF73CFFDA48006800B102E0641C642CDF
:10339000F0DB00BFD1480168D248FEF769F866E269
:1033A000D5480068022875D10020CF49083108604F
:1033B000D2480068C8B1FDF731FFCA48FFF73EF8B0
:1033C0000020CE49086000240CE0C4480168C548CC
:1033D000FEF74EF83C20FFF711FFC548006800B12A
:1033E00002E0641C642CF0DB00BFBC480168BD48EF
:1033F000FEF73EF8C348007828B1C34AC349C44821
:10340000FFF774F80DE0C348007820B1BF49C04809
:10341000FDF7BEFE05E0C048007810B10120B849B4
:103420000860BC480078F0B1BC48006850380528F6
:1034300019DABB4800683C38052814DA0120B04985
:10344000086000240CE0A5480168A648FEF710F8C3
:103450001420FFF7D3FEA648006800B102E0641C08
:10346000642CF0DB00BFA6480068002897D09D4878
:10347000FEF788F80120A14908600020A0490860F3
:10348000A54908709C4908600120974908310860E7
:10349000EDE1FFE79848006803286FD100209249CA
:1034A0000831086095480068C8B1FDF7B7FE8D483F
:1034B000FEF7C4FF00209149086000240CE0874813
:1034C00001688848FDF7D4FF3C20FFF797FE884845
:1034D000006800B102E0641C642CF0DB00BFFEF762
:1034E0005FFA9048006818B18E480068022803DD32
:1034F0008D487C49C86007E08A480068022803D1EB
:103500004FF07F507749C860744801687548FDF7EF
:10351000AFFF7C48007828B17B4A7C497C48FEF7A5
:10352000E5FF0DE07B48007820B178497848FDF749
:103530002FFE05E07848007810B10120704908603E
:1035400074480078F8B175480068503805281ADAD0
:10355000734800683C38052815DA0120684908607E
:1035600000240DE05D4801685E48FDF781FF1420EE
:10357000FFF744FE5E48006808B103E01CE0641CED
:10358000642CEFDB00BF5E480068002813D055486C
:10359000FDF7F8FF012059490860002058490860EC
:1035A0005D4908705449086001204F49083108609E
:1035B00000205C4908605AE14F4800680428FAD1AD
:1035C0005A48006820B1FDF729FE002057490860DD
:1035D0005748006868B14748008840F2E471884263
:1035E00007DA444800880A304249088000205049E0
:1035F00008605048006860B13E480088B0F57F7FA1
:1036000007DD3C4800880A383A49088000204949CB
:10361000086049480068B8B136480830008840F270
:103620004651884207DD3348083000883238314936
:103630000831088004E040F246502E4908310880E5
:1036400000203D4908600DE02A480830008840F21B
:10365000DC51884206DA274808300088401C25499A
:103660000831088035480068B8B122480830008821
:1036700040F27261884207DA1E4808300088323012
:103680001C490831088004E040F272601949083191
:1036900008800020294908600DE01648083000889D
:1036A00040F2DC51884206DD124808300088401E96
:1036B0001049083108802248006870B10D48001D8B
:1036C000008840F2726188423CDA0A48001D008896
:1036D00032300849091D088038E03BE06C000020CA
:1036E00000004843E0000020B081214200802142D8
:1036F00030000020380400400000002004000020BA
:10370000080000207D000020C8000020B00000203C
:10371000980000207C0000207E0000208000002017
:1037200084000020780000209A99193F340000207E
:103730001C000020200000201400002018000020A1
:103740000C00002040F27260664908800020664943
:10375000086009E063480088B0F5BE6F04DD614889
:103760000088401E5F4908806048006898B15D4845
:10377000008840F24651884205DD5A4800883238B8
:103780005849088003E040F246505649088000201E
:103790005649086009E053480088B0F5BE6F04DA66
:1037A00050480088401C4F49088051480068B8B113
:1037B0004C480838008840F24651884207DD4948A5
:1037C00008380088323847490839088004E040F258
:1037D00046504449083908800020454908600DE0FA
:1037E00040480838008840F2DC51884206DA3D48FB
:1037F00008380088401C3B49083908803D4800686B
:10380000B8B138480838008840F27261884207DA57
:10381000344808380088323032490839088004E0DA
:1038200040F272602F490839088000203149086051
:103830000DE02C480838008840F2DC51884206DD53
:10384000284808380088401E2649083908802A4838
:10385000006860B140F2DC502249083908804FF41A
:10386000BE602049088040F2DC50091D08802348D2
:103870000068E0B940F2DC501A49083908804FF47A
:10388000BE601849088040F2DC50091D08801548C8
:10389000001F0088B0F57F7F06DD1248001F0088FA
:1038A0000A381049091F08800A20FFF7A7FC0A2CD4
:1038B00012DB1348006808B9012000E0002010491D
:1038C00008601048D0F8B40108B9012000E00020D9
:1038D0000B49091D08600024641C3220FFF78EFC90
:1038E00022E500003C0400400C00002010000020F5
:1038F00024000020280000202C00002000000020D0
:10390000B0812142008021422DE9F04D16460F463C
:1039100094B01C4621F0004123F00042002814BF5F
:103920004FF0010C4FF0000C0CEB470CFE4B0CEB76
:1039300003054FEA630C65452BD3350018BF0125FD
:1039400005EB44051D44F94B9D4222D3F84B52EA46
:10395000060C02D09F4205D148B914B00020194688
:10396000BDE8F08D002808BF4FF0000C01D04FF0EB
:10397000010C0CEB470313F5001F0AD8002E14BFEF
:103980004FF0010C4FF0000C0CEB440313F5001F3B
:1039900007D914B0324623463946BDE8F04DFFF74B
:1039A000DDB8DFF890834FF0000A002FB8BF424522
:1039B00023DAE14B9A42A8BF4FF0020A1DDADC4B32
:1039C00093421ADCDD4B03EB2253142B08DDC3F1C9
:1039D000340C26FA0CF303FA0CFCB4450DD108E0C4
:1039E0005EB9C3F1140C22FA0CF303FA0CFC9445F3
:1039F00003D103F00103C3F1020A51EA00031BD112
:103A0000002C19DA002F18BFBAF1020F02D0BAF158
:103A1000010F07D00220FCF750FC14B0BDE8F04DB8
:103A2000FFF794B80220FCF748FCFFF78FF814B0BA
:103A300081F00041BDE8F08D330070D1424525D1C1
:103A400007F1804212F5801201BF00280020B8491A
:103A500014B008BFBDE8F08DB548884207DC002CE3
:103A6000A1BF1846214614B0BDE8F08D07E0002C38
:103A7000BFBF184684F0004114B0BDE8F08DB049D6
:103A80007944D1E9000114B0BDE8F08DDFF8A0C29F
:103A900062452AD1002C24DA39B1414517D10028DA
:103AA00004BF002002461CD106E040B10220FCF712
:103AB00004FCFFF75BF80A46394600F0D7BA9D4A86
:103AC000394614B0002062F31E01BDE8F08D08DA1B
:103AD00014B03B46BDE8F04D02460020614600F0C0
:103AE000BBBD14B03946BDE8F08D414517DAB4F1DD
:103AF000804F0CD0A4F10053B3F1FF530FD13B1E04
:103B00000DDB14B01946BDE8F04D00F0D9BB3B46C3
:103B100014B00246BDE8F04D194600F0C9BF0500DB
:103B200027F000433AD1E1B1414537D1002F06DDFE
:103B3000002CA1BF0020414614B0BDE8F08D002F3D
:103B400001DD002C1FDB002F16DA002C14DBBAF18C
:103B5000010F4FF0000014BF76497A4914B0BDE858
:103B6000F08DBAF1020F18BF002F0CD0BAF1010F7F
:103B700009D1002F07DA0BE0002FB8BF002C0DDAB7
:103B8000BAF1010F04D0002014B00146BDE8F08D59
:103B900014B000204FF00041BDE8F08D4FF0010857
:103BA00008EBE77CCDF814C05CEA0A0C0DD0DFF816
:103BB00098C162457EDDDFF894C1654B624512DD38
:103BC0008B420ADB002C18DB23E00120FCF775FB9D
:103BD00014B0BDE8F04DFEF7C3BF554A8A4202DC7F
:103BE000002C0ADC15E0994202DA002C11DA04E01C
:103BF0004F4B994219DD002C0BDD0220FCF75DFBD9
:103C0000FEF7B4FF4B4A14B061F31E021146BDE843
:103C1000F08D0220FCF751FBFEF7B0FF444A14B0D0
:103C200061F31E021146BDE8F08D0022394601F015
:103C300065F907460D466FF0010201F026FD4FF0D1
:103C40005532444B01F068F83A462B4600F030FFFD
:103C50000022414B01F060F880468B463A462B46E5
:103C60001046194600F024FF42465B4600F020FF54
:103C700088460E904FF0C042384B3846294600F037
:103C800017FF83460091364A344B41460E9800F0A8
:103C90000FFF80460191334A334B3846294600F0E6
:103CA00007FF4246019B01F029F90D4602460B46EB
:103CB0000C9000E011E05846009900F011FC00273C
:103CC00088465A463846009B01F018F92B460C9A54
:103CD00001F022F8024600F079B90020B1F5801F0A
:103CE00007DA35222846194601F0CFFC05466FF069
:103CF000340000EB2150A0F2FF300190C1F313001B
:103D000040F07F6141F04051029118498842D8BF8C
:103D10004FF0000B35DD16498142C8BF4FF0010B53
:103D20002FDC4FF0000B25E0FFFF1F00FFFF0F000F
:103D30000000F03F0000F07F0000404301FCFFFF67
:103D40001C1D00000000F0FF0000E0410000F043F7
:103D5000FFFFEF3F5555D53F0000E03F4715F73FC8
:103D6000FE822B6544DF5DF80BAE543E8E98030057
:103D70007AB60B000198401C01900298A0F58010C3
:103D80000290FF480299784400EBCB000991D0E9FA
:103D9000002328460B93129201F0B0F800910A908C
:103DA00028460B9B129A099900F09AFB02460B4693
:103DB0000020F44900F050FCCDE90C010B4602460E
:103DC00000990A9800F074FE0690EF488846002794
:103DD00078440299006810904FF0005040EA61006A
:103DE00000EB8B4000F5002102910B9B129A10987A
:103DF00001F084F82A46099B00F08EFF3A464346BC
:103E000000F056FE0891129038464146029B109AE7
:103E100000F04EFE009B0A9A00F07EFF089B129A6B
:103E200001F06CF8DDE90C2300F042FE0B91069ADC
:103E3000129043461046194600F03AFE05460246E7
:103E4000D2480B460A9106217844FEF729FE0A9BC8
:103E50002A46089102901046194600F029FE089B58
:103E6000029A00F025FE0546099143463846194658
:103E7000069A00F035FB0B9B129A00F019FE2A46B9
:103E8000099B00F02DFBCDE908013A464346104658
:103E9000194600F00DFE0A910022BD4B009000F083
:103EA0001FFBDDE9082300F01BFB0D463A46B84B2B
:103EB000384601F023F80A9B009A01F01FF8DDE96B
:103EC000082300F029FFCDE908013A462B461046A9
:103ED000414600F0EDFD00910A90DDE908014346FE
:103EE000069A00F0E5FD069088462B463A460B9967
:103EF000129800F0DDFD4346069A00F0F1FA804684
:103F00000B4602460D9100990A9800F0E9FA00204C
:103F10000F460546009B0A9A00F0F0FF42460D9BB3
:103F200000F0FAFE88460E904FF06042994B28460A
:103F3000394600F0BDFD02910090974A954B4146ED
:103F40000E9800F0B5FD80460391944A944B2846A4
:103F5000394600F0ADFD4246039B00F0C1FA914A9C
:103F60007A4402EBCB03D3E9002300F0B9FA05460B
:103F70000791019800F0F7FC0C9003912A46079BEB
:103F80000299009800F0ACFA874A7A4402EBCB031E
:103F9000D3E900239346019300F0A2FA039B0C9A05
:103FA00000F09EFA002788463846039B0C9A00F0E2
:103FB000A5FF5A46019B00F0A1FF029B009A00F06A
:103FC0009DFF2A46079B00F0A7FE024600200690B0
:103FD00005986C4DAAF10103184301D1734D069069
:103FE00000200B4604903046214600F061FD8246D9
:103FF0008B46234630461946049A00F07FFF3A4626
:10400000434600F055FD52465B4600F069FA06460D
:104010008A463A4643462146049800F049FD044644
:104020000F463246534600F05BFA614A8B46914296
:1040300021DBABEB020353EA000210D122463B46E0
:1040400000F05CFF804603915A4A5B4B3046514674
:1040500000F046FA4246039B00F028FE27D20220D9
:10406000FCF72BF9FEF782FD0A46294614B062F3ED
:104070001E01BDE8F08D514B2BF000429A4216D341
:104080004F4A0BEB020353EA000208D122463B469B
:1040900000F034FF3246534600F008FE07D80220F5
:1040A000FCF70BF9FEF76AFD0A462946DEE72BF01E
:1040B00000404449444A01EB20514FF0000882423D
:1040C00023DA481C4FF4801121FA00F058443F4A8B
:1040D000C0F30A517A443E4BA1F2FF31CB4020EAB3
:1040E0000303C0F3130040F4801CC1F114001268F4
:1040F0002CFA00F8BBF1000FB8BFC8F10008204649
:10410000394600F0FBFE04460F4622463B46304649
:10411000514600F0E5F94FF0000B5A462D4B58463A
:10412000039100F0C5FC00910A902B4A2B4B584696
:10413000039900F0BDFC0491029022463B4658468C
:10414000039900F0DBFE3246534600F0E5FD244AB9
:10415000244B00F0ADFC049B029A00F0C1F9074625
:104160008A46009B0A9A00F0BBF904460E46009B63
:104170000A9A00F0C3FE3A46534600F0CDFD33E004
:104180008E1900000000F03FCC190000FC18000060
:104190000000084009C7EE3FFD033ADCF5015B145F
:1041A000E02F3EBED41700009A1700000000F0BFB9
:1041B00000009040FE822B654715973C00CC904054
:1041C00000346F3F01FCFFFF0000E03FC816000015
:1041D000FFFF0F00432EE63F396CA80C615C20BE48
:1041E000EF39FAFE422EE63F0746224633460F914C
:1041F0001046194600F05CFC834602462E488A466B
:104200000B4605217844FEF74BFC5A46534600F016
:104210004FFC2246334600F07FFD82468B463A46ED
:10422000204631460F9B00F043FC3A460F9B00F0BE
:1042300057F90F460A9000224FF0804350465946E6
:1042400000F05CFE0391009052465B4620463146EA
:1042500000F02EFC039B009A00F0FEF93B460A9A00
:1042600000F04CFE2246334600F048FE0022134B7D
:1042700000F052FD0E46044601EB085108150028D7
:1042800010DC42462046314601F0FFF9FEF7F4FB10
:10429000042808BFFEF772FC42462046314601F072
:1042A000F4F9044606980B4614B022462946BDE8A8
:1042B000F04D00F0FDBB0000701500000000F03F65
:1042C0002DE9F04106460F4600F032FD04000D4690
:1042D00018BF0120284320F00040C0F17F6000F1AA
:1042E000E040C00F0ED0301C18BF0120384320F032
:1042F0000040C0F17F6000F1E040C00F04BF01202A
:10430000FBF7DBFF20462946BDE8F08110B586B0FB
:104310000446012144F20400FDF738FA4FF400701E
:10432000ADF8140003208DF8160018208DF8170042
:1043300005A91C48FCF7A0FF4FF48060ADF81400FD
:1043400004208DF8170005A91648FCF795FF2520D5
:104350008DF8000003208DF801008DF80200012087
:104360008DF803006846FDF773F901940020ADF85D
:104370000800ADF80A00ADF80C00ADF810000C20F4
:10438000ADF80E0001A90848FEF79AFA012240F2A2
:1043900025510548FEF76EFA01210348FEF734FA6D
:1043A00006B010BD000801400038014010B586B0CD
:1043B000044601210420FDF7E9F901214804FDF735
:1043C000D5F90420ADF8140003208DF8160018204C
:1043D0008DF8170005A91C48FCF74EFF0820ADF822
:1043E000140004208DF8170005A91748FCF744FFB6
:1043F00026208DF8000003208DF801008DF80200C2
:1044000001208DF803006846FDF722F90194002091
:10441000ADF80800ADF80A00ADF80C00ADF81000DA
:104420000C20ADF80E0001A90848FEF749FA012258
:1044300040F225510548FEF71DFA01210348FEF719
:10444000E3F906B010BD0000000801400044004040
:1044500010B500290AD00878002807D0054878440C
:10446000FCF798FA002801D0002010BD02487844DB
:1044700010BD0000FE130000F613000021F0004202
:10448000A2F16052B2F5801F01F0004328BFD2F1C3
:104490007F6C0BD95FEA001C43EAC20242EB50700A
:1044A00018BF704728BF20F001007047B2F5801F89
:1044B000BCBF184670474FEA410C1CF5001F02D2E2
:1044C000084601F002B870B500F09CFB00000089BE
:1044D000FFF7F6BF4FF00040A0F5800070470000E6
:1044E00010B591EA030F48BF83F0004300F10E8539
:1044F000841A71EB030C05D2121943EB0C03001B59
:1045000061EB0C01DFF824E14FEA1154A4EB135CDA
:104510001EEA430F18BF9EEA445F73D023EA0E03DE
:10452000DCF1200E21EA045143F4801332D322FA45
:104530000CFE10EB0E0023FA0CFE41EB0E01CCF149
:10454000200E03FA0EFE10EB0E0051F10001B1F542
:10455000801FCCF1200E32D201EB045112FA0EF280
:10456000BDE8104058BF7047401C38BF5FEA4202A8
:1045700018BF7047002814BF20F0010041F100016E
:104580004FEA410313F5001F38BF7047A1F1C04146
:1045900000F086BB012A43EB0302ACF1200CDCF1F6
:1045A0001F0E32BF4FF0000E23FA0CF310EB030086
:1045B00041EB0451B4EB115FD0D0A1EB045101F5F4
:1045C000801149085FEA300001EB04510ED350F12D
:1045D000000038BF12FA0EFE08D1BDE81040C9E74E
:1045E000401C38BF5FEA4202CAD1C3E7BDE81040B1
:1045F0004FEA410313F5001F38BF7047A1F1C041D6
:1046000000F04EBB9EEA445F08D011EA5E0FBDE8A1
:10461000104004BF01F0004100207047BDE8104089
:1046200070B500F0EFFA00BF64FBBE3E0000E0FF93
:1046300002494FF0000000F0F6BF00BF0000F87F15
:10464000491058BFC1F140415B1058BFC3F140430E
:104650008B42EFF3008070472DE9C04130B4DFF8A2
:10466000A0C23CEA111418BF3CEA131400F0EC801D
:1046700081EA03051CEA111444EAD57418BF1CEA48
:10468000131500F0C780A4EB05044FF0004545EA80
:10469000C12145EAC32341EA505143EA525304F190
:1046A0007F74994204F500344FEAC0204FEAC222D9
:1046B00008BF904200F09C804FEA13650FF240164D
:1046C000765D4FEA134506FB05F7C7F1807706FBD9
:1046D00007F74FEAD737A7FB03687642C8F580385B
:1046E000A7FB06CE38BFA8F1010807FB08E64FF08C
:1046F000000EA6FB028CE6FB03CEDCF1000CCEF133
:10470000004E38BFAEF1010EA6FB0C584FF000076B
:104710004FF00005E6FB0E87A1FB08C6A0FB07CE05
:1047200016EB0E0645F10005E1FB076515F1E04EBD
:104730007EBFA4F580345FEA46066D4116F180071E
:1047400045F100054FEA17274FEA066647EA056775
:10475000A6F1DE46B6F1805F4FEA15251FD938462F
:1047600024F0010C05EBC471BCF1FE6F01EB0C11E0
:1047700002D8F0BCBDE8008124425CBF01F5801E78
:104780009EEAC47F02D4F0BCBDE80081244238D444
:10479000F0BCA1F1C041BDE8004100F081BA4FEA90
:1047A000D22242EA43524FEAD323A7FB02864FEAC2
:1047B000D02040EA415007FB03661EEA0E0F4FEA85
:1047C000D12105FB026658BFA6EB0056B6EB00569A
:1047D0004FEA520E4EEAC37E18EB0E0E56EB530E06
:1047E000BDD518EB02085E417F1C55F10005B6E708
:1047F0004FF480154FF000074FF000064FF000080F
:10480000ADE7F0BC4FF0000001F1C04101F0004104
:10481000BDE8008111EA0C1F0CEA131500D00CE072
:1048200013EA0C1F00F025804FF00000F0BC81EA75
:10483000030101F00041BDE80081F0BCBDE800418A
:1048400081EA030100F02CBAF0BCBDE8004170B56C
:1048500000F0D8F9097EFC3E00F007B881EA0301B8
:104860004FF0000001F00041704781EA030100F0C1
:1048700017BAF0BCBDE800414FF000002149704775
:10488000FFFDFBF9F7F5F4F2F0EEEDEBE9E8E6E415
:10489000E3E1E0DEDDDBDAD8D7D5D4D3D1D0CFCD9C
:1048A000CCCBCAC8C7C6C5C4C2C1C0BFBEBDBCBBD5
:1048B000BAB9B8B7B6B5B4B3B2B1B0AFAEADACABD0
:1048C000AAA9A8A8A7A6A5A4A3A3A2A1A09F9F9EAA
:1048D0009D9C9C9B9A99999897979695959493935C
:1048E000929191908F8F8E8E8D8C8C8B8B8A8989F3
:1048F0008888878786858584848383828281818076
:104900000000FF070000F87F4FEA41034FEA5353CE
:10491000A3F58063D3F11E03C8BFD3F1210C0CDDD6
:104920004FF0004242EAC12242EA505232FA03FCFE
:104930008CEAE17CACEBE1707047102BC4BF002027
:10494000704703F5787CBCF1FF3F04D06FF0004264
:1049500082EA2100704770B500F054F94992248032
:1049600000207047F2E710F0004248BF4042B0FA22
:1049700080F310FA03F10AD0C3F11D0303F580633D
:104980004FEA415002EB035202EBD12170474FF046
:10499000000070477FEAE17202D1101A62EB010158
:1049A000B1FA81F30B3B24D3994012D1B0FA80F3D2
:1049B00010FA03F108BF7047C3F11D0303F540630C
:1049C00003EBC2234FEAD1224FEA415002EB0351DD
:1049D0007047C3F1200C20FA0CFC9840C3F132035D
:1049E00003F5406303EBC22341EA0C0101EB0351E1
:1049F000704710B5C3F1320CC3F10004C4F1200EAE
:104A00000CF5406C0CEBC22201FA0EFC21FA04F109
:104A100000FA0EF3E040BDE8104040EA0C0001EB64
:104A2000025138BF7047401C41F100015B0008BFD4
:104A300020F001007047000051EA030C17D41CF568
:104A4000801F58BFBCF5801F00F10680994218BF37
:104A5000704708BF9042704707D711F5801F58BFB5
:104A600013F5801F19D499427047894270471CF58D
:104A7000801F08D5BCF5801FF7D58B4218BF704743
:104A800008BF824270474FF4001C1CEB410F38BF37
:104A90001CEB430F01D28B42704770B500F0B2F8A7
:104AA000922449004FF000514FF08053FFF7C8BDEA
:104AB000DFF848C170B51CEA111E1EBF1CEA1315B1
:104AC0009EEA0C0F95EA0C0F00F06F8081EA030458
:104AD00023EA4C134EEAD47E21EA4C1141F48011B2
:104AE00043F48013AE44A1FB024CA0FB0365AEF17E
:104AF0007F7E361955EB0C05A1FB034C4CF10003EE
:104B0000A0FB021C16EB0C06654153F100030942A1
:104B100018BF46F0010613F4007F0BD14FEA0331B2
:104B20004FEA0530340341EA155140EA16506FF060
:104B300003020AE04FEAC3214FEAC520F40241EA2A
:104B4000555140EA56506FF0020202EB2E4201EB43
:104B5000025585EACE710AD05FEA440C18BF24F0F2
:104B6000004450F1000041F1000120EAD47040F20D
:104B7000FE7C624500D270BDA84214BF4FF0804455
:104B80004FF04044002E08BF0024BEF1806FA8BF44
:104B9000A1F1C041BDE8704080F282804FF000007A
:104BA00001F1C04101F0004170479EEA0C0F0CEA90
:104BB000131518BF95EA0C0F06D04FF0000081EADC
:104BC000030E0EF0004170BD00F01CF88900013E9C
:104BD00000F007B800F009B84FEA430C5FEA5C5CEC
:104BE00008D081EA030100F05BB84FEA410C5FEAAC
:104BF0005C5CF6D14FF00000014970470000FF07F0
:104C00000000F87F0EF1020E2EF0030E5EF8046B2A
:104C1000364205D4012A43EB030515F5001F12D8CF
:104C2000012841EB010C1CF5001F0CD80ED14FEAF6
:104C3000D17C15F5001F0CEB4C0C0CF1020C08BFDD
:104C40004CEBD37C04E04FF0080C01E04FEAD37C3E
:104C50000CEB4C0526FA05F606F00706B6F1040C37
:104C600006D20EEB860CBDE870404CF0010C60479C
:104C7000DFE80CF0090B02024FF000414FF000009A
:104C8000A1F5002170BD19461046012851EB010421
:104C900018BFD4F5001484BF002001F0004170BD9E
:104CA0000808A0F500114FEA3101704753EA010CE2
:104CB00017D41CF5801F58BFBCF5801F00F106807B
:104CC0008B4218BF704708BF8242704707D713F561
:104CD000801F58BF11F5801F19D48B4270479B422B
:104CE00070471CF5801F08D5BCF5801FF7D5994289
:104CF00018BF704708BF904270474FF4001C1CEB70
:104D0000430F38BF1CEB410F01D2994270470FB4DB
:104D10000CBC03BCFFF7C1BE91EA030F10B581F0D4
:104D200000413FF5E5AB83F0004300F0EFB8000031
:104D30002DE9F04101F5801CBCF5001FC0F2C380D5
:104D40004FEA115C21EA0C510CF1FD0C41F4801189
:104D50005FEA5C0C0CF5C07C01D3400049413DA4E6
:104D6000890241EA905187028E0E0A0CA45D04FB71
:104D700004F602FB06F6C6F14046A4FB0662F60DF9
:104D800046EA422606FB06F4A4FB01235242C3F185
:104D9000404338BF5B1EA6FB02420024E6FB03240F
:104DA000D20B42EA4446A6FB0623A1FB02E2A3FB88
:104DB00007E4A4184FF0000252F10002E3FB0142A5
:104DC0006442C2F1404E38BFAEF1010EA6FB04238F
:104DD0004FF00002E6FB0E32A2FB03464FF0000448
:104DE000B61954F10004E2FB0264A1FB06E6A4FB41
:104DF00007E816EB08064FF0000858F10008E4FB3E
:104E000001687642C8F1405838BFA8F10108A2FBFA
:104E100006E4A3FB08E52D194FF0000454F100044B
:104E2000E2FB0854A1FB05E6A7FB04E818EB060823
:104E30004FF0000656F10006E1FB048618F120054C
:104E400056F10006A809A8F11B08B10908F03F08AF
:104E5000B8F10A0F40EA86601CD901EB0C51BDE89D
:104E6000F08100BFFCF5EEE8E2DDD8D3CFCBC7C3BD
:104E7000C0BDB9B6B4B1AEACA9A7A5A3A19F9D9B77
:104E80009A9896959392908F8D8C8B89888786853A
:104E900084838281A0FB006800FB01F208EB4208DA
:104EA000B8EB872807D5341858EB0104D5D5401C3A
:104EB00051F10001D1E7341A78EB0104CDD4401E42
:104EC00071F10001C9E75FEA4C0C5FEA9C5C0DD10F
:104ED00005D34FF0000001F00041BDE8F081BDE8CE
:104EE000F04170B5FFF78EFE6DDBFFBEBDE8F0410F
:104EF0004FF00000004970470000F87F10B591EABC
:104F0000030F48BF83F000433FF5F2AA841A71EB08
:104F1000030C07D212198CF0004C43EB0C03001B5E
:104F200061EB0C01DFF8A4E14FEA1154A4EB135C30
:104F30001EEA430F18BF9EEA445F00F0B08023EAE8
:104F40006E03524221EA0451C3EB6E0338BF5B1E6D
:104F5000DCF1200E25D322FA0CFE10EB0E0043FAF2
:104F60000CFE41EB0E01CCF1200E03FA0EFE10EB0D
:104F70000E0051F10001CCF1200E29D412FA0EF2EC
:104F800001EB0451BDE8104058BF7047401C1CBFE6
:104F9000B2F1004F704700280CBF491C20F00100FF
:104FA000704712EB020E43EB030218BF4FF0010EE5
:104FB0004EEA4202ACF1200CDCF11E0E54D943FA49
:104FC0000CFE10EB0E0051F1FF31CCF11E0ED5D5C9
:104FD0000EF1010E12FA0EFE404141EB010101EB10
:104FE000445C5FEA5C5C10D910EBDE7001EB0451AD
:104FF00038BFBEF1004FBDE8104018BF7047002811
:105000000CBF491C20F00100704730D24FEAD42C6D
:1050100011F5001124F400641BD0B1FA81F20B3AAF
:10502000A41AA41ED2F12003914030FA03F31943CD
:10503000904001EBCC71002C01EB0451BDE8104015
:10504000A8BF704701F1C0414FF0000001F00041DE
:105050007047B0FA80F310FA03F100D110BDE41AE2
:10506000173C4805C90AE4E701EB045110BD49109B
:1050700001EB0451BDE810404FEA300002E04FF070
:10508000000170474A0008BF0042F8D0B2F5001F87
:1050900028BF704701F000414FF0000070479EEAC2
:1050A000445F07D011EA5E0FBDE8104004BF002145
:1050B00000207047BDE8104070B5FFF7A3FD00BFAA
:1050C00040DFF63E83F00041104670470000E0FFED
:1050D00043004FEAD30C4FEA3C0C43401FBF40074C
:1050E0000CF1605113F0FE4F70471CF0006F03D1BC
:1050F00000200CF0004170470CF0004343EA507070
:1051000010B540EACC0000F09AF900BF0000009210
:105110004FEA0001FFF7C4BD4FF000414FF000001F
:10512000A1F500217047000090EA010F48BF81F00F
:10513000004100F10882421A3CBF801A89184FEAE8
:10514000D0524FF07F4C1CEA410FA2EBD15318BF55
:105150009CEA026F00F03B804FF0004C4CEA0020CC
:105160004CEA012121FA03FC10EB0C0C1ED202F1D7
:10517000FF325FEA1C2040EBC25038BF70471CF082
:105180007F0F4FEA400C18BFBCF17F4F38BF70470C
:10519000C3F12003994008BF20F00100BCF17F4F0C
:1051A00038BF7047A0F1C04000F08FB94FEA3C0013
:1051B000000A40EBC25028BF1CF0FF0F4FEA400C22
:1051C000E6D018BFBCF17F4F38BF7047EAE79CEAD2
:1051D000026F05D010EA5C0F08BF00F00040704776
:1051E00010B500F02CF900BF64FBBE3E401058BF64
:1051F000C0F14040491058BFC1F140418142EFF336
:105200000080704750EA010C00F113801CF5000F7C
:1052100058BFBCF5000F01D48842704707D710F57E
:10522000000F58BF11F5000F15D48842704789420E
:1052300070471CF5000F04D5BCF5000FF7D581426F
:1052400070474FF0807C1CEB400F38BF1CEB410FC8
:1052500001D28142704710B500F0F1F89224490064
:105260004FF000504FF08051FFF7C0BF41000B0ED0
:10527000D3F19E0208D950F400034FEA032323FA26
:1052800002F048BF4042704710B500F0D8F800BFA8
:1052900049922480002070476FF0004282EA20008B
:1052A0007047000010F0004148BF4042B0FA80F360
:1052B00010FA03F2C3F19D030BD051EAC35101EB85
:1052C0001220530638BF704700F1010008BF20F0DC
:1052D0000100704750EA010C00F113801CF5000F2B
:1052E00058BFBCF5000F01D48842704707D710F5AE
:1052F000000F58BF11F5000F15D48842704789423E
:1053000070471CF5000F04D5BCF5000FF7D581429E
:1053100070474FF0807C1CEB400F38BF1CEB410FF7
:1053200001D28142704710B500F089F892244900FB
:105330004FF000504FF08051FFF758BF4FF47F0CF3
:105340001CEAD0121EBF1CEAD11392EA0C0F93EA9A
:105350000C0F00F0478090EA010F48BF42F48072C2
:105360004FF0004C4CEA00204CEA012102EB030212
:10537000A0FB0113A2F50002002918BF43F00103AE
:105380005B0028BF4FEA330342EB22425FEA132C53
:105390004CEBC2502EBFBCEB436FB2F57C0F704795
:1053A0004FEA036CBCF1004F08BF20F00100B2F5DA
:1053B0007C0F38BF70470BD582F0FF0212F5803F9B
:1053C000C8BF704700F1C040D8BF00F00040704730
:1053D00000F5000C5FEA4C0C48BF7047B0F1C040CC
:1053E00000F073B890EA010F0CEAD11348BF42F401
:1053F0008072624538BF634504D280EA010000F044
:105400000040704710B500F01AF800BF8900013E57
:1054100000F007B800F009B85FEA410C5FEA1C6CC5
:1054200008D080EA010000F050B85FEA400C5FEA63
:105430001C6CF6D14FF00040A0F5800070470EF1D3
:10544000020E2EF0030E5EF8044B244204D44FEA01
:105450004102B2F17F4F11D84FEA4003B3F17F4FC1
:105460000CD80ED14FEAD07CB2F17F4F0CEB4C0C34
:105470000CF1020C08BF4CEBD17C04E04FF0080C9F
:1054800001E04FEAD17C0CEB4C0324FA03F404F066
:105490000704B4F1040C06D20EEB840CBDE81040F6
:1054A0004CF0010C6047DFE80CF0070802024FF0F7
:1054B0000040A0F5800010BD0846420018BFD2F1A0
:1054C000807288BF00F0004010BDFF2141EAD0503B
:1054D000C005704751EA000C00F113801CF5000F65
:1054E00058BFBCF5000F01D48142704707D711F5B2
:1054F000000F58BF10F5000F15D481427047894244
:1055000070471CF5000F04D5BCF5000FF7D5884295
:1055100070474FF0807C1CEB410F38BF1CEB400FF5
:1055200001D28842704780EA010081EA000180EAE6
:105530000100FFF7F8BE000090EA010F48BF81F0BC
:1055400000413FF5F8AD421A04D882F00042A0EBCA
:10555000020011444FEAD0524FF07F4C1CEA410F39
:10556000A2EBD15318BF9CEA026F4AD04FF0004C17
:105570004CEA00204CEA012121FA03FCB0EB0C0CB0
:105580000FD412F0FE0F36D05FEA4C001DD500128A
:1055900040EBC25038BF70471CF03F0F18BF704738
:1055A0000BE0A2F101025FEA1C2040EBC25038BFC1
:1055B00070471CF07F0F18BF7047C3F1200399405C
:1055C00014BF401E20F00100704780084FEA1223EC
:1055D00008BF7047B0FA80FCA2EB0C02CCF1280C9B
:1055E00060FA0CF093EA122F04BF00EBC250704730
:1055F0004FEAC3707047130A5FEADC1008BF7047B8
:10560000F6E79CEA026F04D010EA5C0F08BF0020A6
:10561000704710B5FFF713FF40DFF63E81F0004002
:105620007047FAF727BF0CF00F03092B08BF0820BB
:1056300000F059800A2B0BD0082B18BF704708BF09
:105640001CF0400F0AD04FF000004FF000017047EF
:105650001CF0400F18BF4FF0004070471CF0100FB7
:1056600008D020F0704300F07F4242EAD3014FEAB5
:105670004370704700F0604021F07F4242EA000230
:1056800001F07F4040EA727070474FF0FF0C4CF41D
:10569000E06C1CEA11531CBF9CEA030C9445C2BF8A
:1056A000DA4201EB02517047002B0DD0BCF1000F24
:1056B0000FD0002A01F00041A4BF41F0E04141F0C9
:1056C0007F614FF00000704701F000414FF0000093
:1056D000704750EA01334FF09B0C18BF4CF0806CC0
:1056E0007EF4A6AF70471CF4801F11D01CF4E02F8D
:1056F00003D06FEACC31490070474FF04050EFF3D0
:10570000008222F0704242EA000282F30088704771
:105710004FF0000070470000000000000000F03F64
:10572000000000000000F83F000000000000000042
:105730000000004003B8E23F00000000000000004D
:1057400006D0CF43EBFD4C3E033333333333E33FDB
:10575000FFAB6FDBB66DDB3F4D268F515555D53F07
:1057600001411DA96074D13F65DBC9934A86CD3FD5
:10577000EF4E454A287ECA3F3E5555555555C53FC3
:1057800093BDBE166CC166BF2CDE25AF6A56113FB5
:10579000F16BD2C541BDBBBED0A4BE726937663EB7
:1057A000000000000000000002400000000000A017
:1057B0000000000005400000000000C800000000DC
:1057C0000C4000000000409C000000001940000058
:1057D0000020BCBE0000000034400000BFC91B8E8A
:1057E00000000004B5400000504BCFD06607E2CF68
:1057F000010000006C4100003E8251AADFEEA73498
:1058000001000000D9420000DCB5A0E23A301F9749
:10581000FFFFFFFFB4450000FD25A0C8E9A3C14F6D
:10582000FFFFFFFFFF3F00000000008000000000BE
:10583000FF3F0000000000800000000078580008D2
:1058400000000020980000006C01000810590008BA
:105850009800002088070000880100081C00000054
:1058600043000000F8FFFFFF0C0000000E000000E6
:105870000F0000002E0000000000000001000000EA
:105880000000000000000000000000000000000018
:105890000000000000000000000000000000000008
:1058A00000000000000000000000000000000000F8
:1058B00000A24A04000000000000000001020304EE
:1058C00006070809000000000000000000000000BA
:1058D0000000010203040102030406070809020490
:1058E00006080000000000000000000000000000AA
:1058F00000000000000000000000000000000000A8
:105900000000000000000000000000000000000097
:04000005080001E509
:00000001FF
