:020000040800F2
:10000000D0070020ED010008D71D00088717000861
:10001000D31D0008BF150008C3270008000000001A
:100020000000000000000000000000001521000892
:10003000C3150008000000005D1E000859230008D9
:10004000070200080702000807020008070200086C
:10005000070200080702000807020008070200085C
:10006000070200080702000807020008070200084C
:10007000070200080702000807020008070200083C
:10008000070200080702000807020008070200082C
:10009000070200080702000807020008070200081C
:1000A000070200080702000807020008070200080C
:1000B00007020008BD230008070200080702000825
:1000C00007020008070200080702000807020008EC
:1000D00007020008A125000807020008070200081F
:1000E00007020008070200080702000807020008CC
:1000F00007020008070200080702000807020008BC
:1001000007020008070200080702000807020008AB
:10011000070200080702000807020008070200089B
:10012000070200080702000807020008070200088B
:1001300000F002F800F04AF80AA090E8000C8244AF
:100140008344AAF10107DA4501D100F03FF8AFF28C
:10015000090EBAE80F0013F0010F18BFFB1A43F0A5
:1001600001031847E07A0000007B0000103A24BF2A
:1001700078C878C1FAD8520724BF30C830C144BF0C
:1001800004680C607047000000230024002500264E
:10019000103A28BF78C1FBD8520728BF30C148BFEA
:1001A0000B607047662906F0BC85642900F07080FA
:1001B000002070471FB500F097FC040000200021CC
:1001C00005F03EFCE0601FBD10B510BD00F0D0FD95
:1001D0001146FFF7EFFF04F001F900F0EEFD03B464
:1001E000FFF7F2FF03BC02F072FB000009488047F2
:1001F00009480047FEE7FEE7FEE7FEE7FEE7FEE709
:10020000FEE7FEE7FEE7FEE704480549054A064B20
:10021000704700005D23000831010008D001002074
:10022000D0070020D0030020D0030020704710B575
:100230004C1084EA530404D54042C1F1000138BF98
:10024000491E1B4204D55242C3F1000338BF5B1E56
:1002500000F02EF914F0804F04D04042C1F10001AB
:1002600038BF491E14F0004F04D05242C3F10003BE
:1002700038BF5B1E10BD00000FB4044910B503AABF
:10028000029800F0FDFB10BC5DF814FB4400002058
:100290002DE9F0410646002410687529314616A55F
:1002A00010D0AFF30080002802DA404213A507E027
:1002B00031688A0701D512A502E0490704D511A5C6
:1002C000012401E0AFF3008000210A2206F1240797
:1002D00009E0B0FBF2FCB0FBF2F302FB1C00303093
:1002E00078541846491C0028F3D123462A46304644
:1002F000BDE8F04100F05EB9000000002D000000F4
:100300002B000000200000002DE9F05F8946044624
:100310004FF0000ADFF824B1FB44C0F820A02046CB
:10032000E168884700287DD0252806D0D4E901213E
:100330009047206A401C2062F1E700255F46204676
:10034000E16888472028064607DB312E05D2B81918
:1003500010F8200C08B10543F1E7A80701D525F0F6
:100360000405C4F81CA00027C4F818A02A2E09D040
:10037000304602F0A5FA38B304EB8708303EC8F8DF
:10038000186019E059F8041B204604EB87029161BC
:10039000E1688847012F064618D1E069002820DA75
:1003A00025F020051DE0D8F8180000EB800006EBD2
:1003B00040003038C8F818002046E16888470646F3
:1003C00002F07EFA0028EED1012F0AD02E2E08D19D
:1003D0002046E16888477F1C0646022F45F020052D
:1003E000C4DBA069002803DA404245F00105A061A2
:1003F000E80701D025F01005A6B1A6F141001928A3
:1004000002D8203645F400654A463146204625602C
:100410004D46FFF7C7FE60B1012807D0ED1D25F05E
:10042000070000E007E000F1080978E705F104099A
:1004300075E730467AE7206ABDE8F09F4277000012
:1004400040EA010310B59B070FD1042A0DD310C851
:1004500008C9121F9C42F8D020BA19BA884201D9A3
:10046000012010BD4FF0FF3010BD1AB1D30703D0EB
:10047000521C07E0002010BD10F8013B11F8014BA1
:100480001B1B07D110F8013B11F8014B1B1B01D1BD
:10049000921EF1D1184610BD02F0FF0343EA032279
:1004A00042EA024200F000BB704770477047704755
:1004B00053EA020C00F069802DE9F04B4FF0000682
:1004C000002B1FBFB3FA83F503FA05F424FA05F6EF
:1004D0005E4012BF1643B2FA82F502FA05F4C5F186
:1004E00020051EBF22FA05FC44EA0C04203556EA1A
:1004F000044C4FEA144418BF641C4FF000084FF03E
:100500000009904271EB030C39D3002919BFB1FAED
:1005100081F701FA07F6B0FA80F700FA07F6C7F19B
:1005200020071EBF20FA07FC46EA0C062037B6FB60
:10053000F4FCA7EB0507103F07F01F0BCBF12006DB
:100540000CFA0BFB2CFA06F644BFB3460026202F0C
:10055000A4BF5E464FF0000B5BEA060C08BF4FF0ED
:10056000010B19EB0B09ABFB027C48EB0608C01B27
:1005700006FB02CC0BFB03CC71EB0C01C1E70B4675
:10058000024641464846BDE8F08B13B54FF00000E7
:100590004FF00001AFF30080BDE81C40704710B57C
:1005A00000F0A6FA006810BD10B5044600F0A0FAED
:1005B000046010BD2DE9F0470D4699469246044669
:1005C00000F124080168880604D5E06921F01001D3
:1005D000216000E00120A84201DD471B00E0002768
:1005E000A1697A1902EB0900081AA0612078C006F7
:1005F00002D42046AFF30080002608E0D4E90121B0
:100600001AF806009047206A401C761C20624E456E
:10061000F4DB2078C0060AD52046AFF3008006E060
:10062000D4E9012130209047206A401C2062381E06
:10063000A7F10107F4DC07E0D4E9012118F805006F
:100640009047206A401C2062281EA5F10105F3DCBA
:100650002046AFF300802078000602D50220BDE8D6
:10066000F0870120FBE770472DE9FF4F0C461E463F
:100670004FF0FF378BB0D2E90001DDF860800A90BF
:100680008A46C1F30A5505B93D46002108464FF098
:100690000000BAF1000F00F4400005DA00EB800022
:1006A0004FF4400101EA50004FEA9059B9F1010FAF
:1006B00000DDB9460A9850EA4A000ED044F61050C0
:1006C000A5F2FF3545432F14B8F1000F1ED0754237
:1006D000291E1EDDC9F100021CE0B8F1010F4FF028
:1006E000000001D0302103E0F24305E02154401C1A
:1006F000B042FBDB30460022002121540B99C1F8A7
:100700000880C1E900200FB0BDE8F08FBD1B6D1C53
:10071000DEE74A4600DA694206A800F08BFA06AB2B
:1007200093E8070003AB83E8070050460A9900F0FE
:100730008BFB8DE80700A0F500501F380090039850
:10074000002D09DD42F21F014A46084403A9039027
:10075000684600F0EAFD08E0A0F500504A461F3860
:1007600003A90390684600F0F4FD8DE8070000043B
:10077000000C03D04FF0FF30410800E01046B8F104
:10078000000F03D00022009215461EE0751E05D40E
:1007900000F0B2F9303262556D1EF9D5B346012230
:1007A000084302D000227F1C04E02078302801D1C9
:1007B00000227F1E002A099786D01DE0112D07DA3E
:1007C00000F09AF9303262556D1C50EA0102F5D101
:1007D000084302D00098C8B10EE00021681E05E071
:1007E000235C625C63542254401E491C8142F7DB47
:1007F000AB46A81B401E0990002004F80B000B9884
:10080000099AC0F80880C0E9002B7CE711264FF058
:10081000000859E72DE9F04F88460446D21D22F022
:10082000070191B0D1E90001CDE90A0101F0CBFF48
:1008300002460B98C00F01D02D2007E020688107E9
:1008400001D52B2002E0202101EAC000032A0990F3
:1008500001D0072A05DB03464146204600F0AAF9ED
:100860000BE12078800601D5E06900E00620B8F1B0
:10087000650F814606D0B8F1660F18D0B8F1670F42
:1008800070D131E00020B9F1110F009001DB11238C
:1008900001E009F101030AAA01A90CA8FFF7E4FE8F
:1008A000DDE90C70002609F10105834647E00120CF
:1008B0004B4600904FF000470AAA01A90CA8FFF789
:1008C000D3FEDDE90DB00C995D46002610B909F1A3
:1008D00001000D18B9EB050003D4C0F1FF3609F192
:1008E0000105A5EB09002BE0B9F1010F01DA4FF08A
:1008F00001090020B9F1110F0090484601DD1123D4
:1009000000E003460AAA01A90CA8FFF7ADFEDDE945
:100910000C704D4600268346207800070AD4AB456C
:1009200000DA5D4601A8012D04DD411911F8011C12
:10093000302907D04F4502DA17F1040F04DA0120FD
:1009400082460FE06D1EEEE7002F02DCED1B3E44F9
:1009500003E0781CA84200DD7D1CB81B00F1010AF1
:100960004FF000472078000703D4AA4501DB4FF081
:10097000FF3A0021B7F1004F0DF143088DF8431005
:1009800024D002202B23002F01DA7F422D230A21BD
:10099000021EA0F1010000DC5FB197FBF1FC97FBA8
:1009A000F1F201FB1C7C17460CF1300C08F801CD6C
:1009B000EEE7A8F1010003702188090501D5452162
:1009C00000E06521A0F1010800F8011C09980FA9B9
:1009D000A1EB0807FF1D00B10120411901EBEA70EE
:1009E000A1693844081A401EA0612078C00602D4CC
:1009F0002046AFF30080099828B1D4E9012190473F
:100A0000206A401C20622078C00622D52046AFF321
:100A100000801EE0002E04DBB34502DD01A8805DEE
:100A200000E03020D4E901219047206A401C206278
:100A3000761CAAF101005FEA000A0AD100F054F81E
:100A4000C0680168405CD4E901219047206A401CDD
:100A50002062281EA5F10105DCDC07E0D4E90121B4
:100A600018F8010B9047206A401C2062381EA7F13D
:100A70000107F3DC2046AFF30080032011B043E60A
:100A8000074B70B50D467B4400F081F804462846BC
:100A900000F03EF910B14FF0FF3070BD204670BD40
:100AA000F73100004FF000020429C0F0128010F06E
:100AB000030C00F03381CCF1040CBCF1020F18BF21
:100AC00000F8012BA8BF20F8022BA1EB0C0100F0CD
:100AD00025B95FEAC17C24BF00F8012B00F8012B87
:100AE00048BF00F8012B7047004870479001002074
:100AF000004870477001002030B5B0F10A024FEA9B
:100B0000900E71F100034EEA817EB0EB0E0061EBB6
:100B100091014FEA101E4EEA017E10EB0E0041EBF0
:100B200011114FEA102E4EEA016E10EB0E0041EB50
:100B300011214FEA104E4EEA014E10EB0E0041EB30
:100B40001141401841F100014FEAD00040EA4170E4
:100B50004FEAD10110EB80054FEA810444EA90741A
:100B600044EB01046D1944EB0404521BA3414FF004
:100B7000000348BF0A3200D530BD401C41F10001DE
:100B800030BD000001694A1C02610878704700B559
:100B90008FB0CDE901310021059105497944CDE9B6
:100BA000031011466846FFF7AFFB0FB000BD000011
:100BB000E5FFFFFF2DE9F0411F46044603260168CB
:100BC000072A01F4006004DB08B116A505E016A5AC
:100BD00003E008B115A500E015A521F01000206084
:100BE000A069C01EA0610FB1401EA0612046AFF3F6
:100BF00000804FB1D4E9012138469047206A401C5B
:100C00002062C01C206206E0206AFAE7D4E90121D4
:100C100015F8010B9047761EF8D22046AFF30080FE
:100C2000BDE8F0814E414E006E616E00494E4600B7
:100C3000696E66002DE9F047814616468AB0334852
:100C400078440DC88DE80D0030487844801C03AC12
:100C50000DC884E80D0041F69B300844372190FB15
:100C6000F1F290FBF1F5A5F1800501FB12041B3CAC
:100C700002D56442012000E00020DFF890A0804609
:100C80000027FA44AAF1BE0A0DE0E00709D0324677
:100C9000684607EB47010AEB810100F05AFB8DE83B
:100CA000070064107F1C002CEFD1184F7F44AC3F2D
:100CB00018E0E80714D007EB04100DF1180A90E8CB
:100CC0000E008AE80E00C068F04201D19819089021
:100CD000324606A903A800F03CFB03AB83E80700FB
:100CE0006D10641C002DE4D132466946B8F1000F46
:100CF00003A802D000F019FB01E000F02AFBC9E9CB
:100D00000001C9F808200AB0BDE8F087986F00001C
:100D1000007B00F0800070474FF0000200B51346E2
:100D200094469646203922BFA0E80C50A0E80C500B
:100D3000B1F12001BFF4F7AF090728BFA0E80C50BC
:100D400048BF0CC05DF804EB890028BF40F8042BB5
:100D500008BF704748BF20F8022B11F0804F18BF22
:100D600000F8012B70470000004870477001002018
:100D70007546FFF7F9FFAE4605006946534620F079
:100D80000700854618B020B5FFF73EFABDE82040C1
:100D90004FF000064FF000074FF000084FF0000B37
:100DA00021F00701AC46ACE8C009ACE8C009ACE8EA
:100DB000C009ACE8C0098D4670470446AFF3008017
:100DC0002046FFF70CFA00004FF0013C50F8042BCE
:100DD00051F8043B9A4221D1A2EB0C03934313EA4E
:100DE000CC1317D150F8042B51F8043B9A4215D17B
:100DF000A2EB0C03934313EACC130BD150F8042B52
:100E000051F8043B9A4209D1A2EB0C03934313EA35
:100E1000CC13DBD04FF00000704700BFD01A01BAEE
:100E2000B1FA81F101F0180122FA01F0CB40C1F1D1
:100E30002001DBB2C0B2C01A2CFA01F3D11A9143DF
:100E400011EAC311E6D170475FEA400C08BF91F088
:100E5000000F4FEA8C234FEAC12243EA51514FEA77
:100E60001C5018BF00F5F0404FEA300018BF41F0A9
:100E700000415FEA6C5C00F02980BCF1FF3F08BFD5
:100E800040F080407047130C06BF12044FF0100C66
:100E90004FF0000C130E04BF12020CF1080C130FDC
:100EA00004BF12010CF1040C930F04BF92000CF16B
:100EB000020CD30F04BF52000CF1010C11464FF08D
:100EC0000002A0F11F00A0EB0C00704711F0004FD2
:100ED00008BF704731F000413FF4D5AF0B0C06BF9F
:100EE00009044FF0100C4FF0000C0B0E04BF090268
:100EF0000CF1080C0B0F04BF09010CF1040C8B0F53
:100F000004BF89000CF1020CCB0F04BF49000CF1A7
:100F1000010CCCF12003A0EB0C0022FA03F302FA3F
:100F20000CF241EA030100F10100704720F07F4C10
:100F300080EA030023F07F47ACEB070303F57C5303
:100F400000F0004003F1FF032DE980494FEA154B03
:100F500009B44FEA144325EA0B4E24EA03480FF282
:100F6000042606EB132749083E785FEA320203FBAA
:100F70000667C7F5000707FB06F64FEA54374FEA46
:100F8000D64606F1020607FB066CCCF1005C4FEA80
:100F90001C472CEA074C07FB06F40CFB06F504EB98
:100FA00015464FEA961634BF00204FF000404FEA36
:100FB000D13706FB07FC4FEA1C4C0CFB0BF7D21B8E
:100FC00003FB0CF761EB07010CFB0EF7B0EB0740DE
:100FD00072EB17420CFB08F734BFA2EB0742B2EBEF
:100FE000074261EB17414FEA0C444FEA910706FBB9
:100FF00007FC4FEA1C4C0CFB0BF7B0EBC74072EB45
:10100000573203FB0CF734BFA2EBC742B2EBC74227
:1010100061EB57310CFB0EF7B0EBC70072EB577268
:101020000CFB08F734BFA2EBC702B2EBC70261EBBF
:101030005771039F4FEA816141EA921104EBCC049E
:101040004FEAD1374FEA826206FB07FC42EA901270
:101050004FEA80604FEA1C4C0CFB0BF7D21B03FBE2
:101060000CF761EB07010CFB0EF7B0EB074072EBDE
:1010700017420CFB08F734BFA2EB0742B2EB074262
:1010800061EB17414FEA8C554FEA910704EB9C2422
:1010900006FB07FC4FEA1C4C0CFB0BF7B0EBC74000
:1010A00072EB573203FB0CF734BFA2EBC742B2EB33
:1010B000C74261EB57310CFB0EF7B0EBC70072EB88
:1010C00057720CFB08F734BFA2EBC702B2EBC702A2
:1010D00061EB577115EB4C254FEA816141EA9211A2
:1010E0004FEA82624FEAD13742EA901206FB07FCD0
:1010F00044F100044FEA80604FEA1C4C0CFB0BF7F4
:10110000D21B03FB0CF761EB07010CFB0EF7B0EBF6
:10111000074072EB17420CFB08F734BFA2EB074203
:10112000B2EB074261EB174115EB1C154FEA813119
:1011300041EA92414FEA823242EA90424FEA8030DD
:101140004FEA0C7644F1000448EA03434EEA0B48A8
:101150004FF0000EB2EB080C71EB030724BF6246A0
:1011600039464EEB0E0E4FF0000B0018524149412C
:101170004BEB0B0BB2EB080C71EB03077BF1000B95
:1011800024BF624639464EEB0E0E4FF0000B00189E
:10119000524149414BEB0B0BB2EB080C71EB0307CF
:1011A0007BF1000B24BF624639464EEB0E0E51EA2E
:1011B000020718BF46F0010616EB0E7655F1000245
:1011C00054F1000103D5BDE88901BDE80088BDE800
:1011D0008901BDE80048B619524141EB0101A3F174
:1011E0000103704780807F7E7D7C7B7A797877767B
:1011F00076757473727171706F6E6E6D6C6C6B6AF4
:101200006A69686867666665646463636261616091
:10121000605F5F5E5E5D5D5C5C5B5B5A5A5959580E
:101220005857575656555555545453535252525178
:10123000515050504F4F4F4E4E4D4D4D4C4C4C4BCE
:101240004B4B4A4A4A494949484848474747474615
:101250004646454545444444444343434342424251
:1012600042414141002B26D4770021D01CB54FEAE2
:10127000370703B44FF010004FF010014FF000009B
:101280000FBCBDE810400BF1010BBBF1010F08BF13
:101290005FEA170722BF12F1010211F101014FF0BD
:1012A000004143F1000300F0004043EA00007047B2
:1012B000F9D35708DAE746EA064613F1400F4FEA3A
:1012C00016461FDD13F1200FDFBF16430A4600212B
:1012D00020335B42C8D0C3F1200746EA064602FA33
:1012E00007F74FEA164646EA0706C3F1200722FA37
:1012F00003F201FA07F721FA03F14FF0000342EA83
:101300000702B1E746EA020646EA06464FEA1646F3
:1013100046EA0106BCBF46EA0646360C4FF000031B
:101320004FF000024FF000019EE72DE9C0489346C0
:1013300030B491E8380007C831EA400C48BF34EABD
:10134000430C03D5FFF7F2FDFFF78CFFF0BCBDE8BF
:1013500000882DE9C048934630B491E8380007C8AA
:1013600010F0804F08BF13F0804F03D100F005F854
:10137000FFF778FFF0BCBDE8008820F07F4780EAE7
:10138000030023F07F4C07EB0C03A3F57C5300F024
:101390000040A3F1FE0392F0000F00F0B38095F03F
:1013A000000F00F077802DE901494FEA11404FEA24
:1013B000144621EA004800FB06FC24EA064708FB25
:1013C00006F607FB08F800FB07F718EB06484CEB9E
:1013D000164C4FEA124B18EB07484FEA15464CEBF8
:1013E000174022EA0B4E0BFB06FC25EA06470EFBD4
:1013F00006F607FB0EFE0BFB07F71EEB064E4CEB4B
:10140000164C4FF000061EEB074E4CEB174B18EB3B
:101410000B0840F1000018EB0E0B58EB000840F1F0
:1014200000008F1A4FF000013CBFC943661B14BF78
:10143000B5EB040C00213CBFC943F61B4FEA17442F
:101440004EEA8E0E27EA04454FEA1C4704FB07626A
:101450002CEA074C05FB07F70CFB05F604FB0CFC1C
:1014600016EB074642EB174216EB0C4642EB1C42CA
:101470001BEB060658EB0202414146EA9E0601D5E7
:10148000BDE80189B619524141EB0101A3F1010305
:10149000BDE801894FEA14454FEA114724EA0546A1
:1014A00021EA074C05FB07F406FB07F70CFB06F1E6
:1014B00005FB0CFC11EB074144EB17444FEA1247C4
:1014C00011EB0C4144EB1C4422EA074C05FB07F2EC
:1014D00006FB07F70CFB06F605FB0CFC16EB0746B4
:1014E00042EB174216EB0C4642EB1C456A1854F1CE
:1014F000000148BF7047B619524141EB0101A3F109
:101500000103704795F0000F37D04FEA11424FEAC0
:10151000144721EA024624EA074C02FB07F106FBC6
:1015200007F70CFB06F402FB0CFC14EB074441EB41
:1015300017414FEA154714EB0C4441EB1C4125EAD7
:10154000074C02FB07F506FB07F70CFB06F602FB50
:101550000CFC16EB074645EB174516EB0C4645EB26
:101560001C42121951F1000148BF7047B61952418F
:1015700041EB0101A3F1010370474FEA14454FEA23
:10158000114724EA054621EA074C05FB07F106FB53
:1015900007F70CFB06F24FF0000605FB0CFC12EB04
:1015A000074241EB174112EB0C4251EB1C4148BF83
:1015B0007047921841EB0101A3F10103704700BF8E
:1015C000FEE770472DE9F041024600250026002085
:1015D00000230024002791F803C00CF00F0591F8B8
:1015E00003C00CF0100CBCF1000F03D091F802C046
:1015F0004CEA050591F800C0BCF1000F31D0146829
:1016000000202BE04FF0010C0CFA00F3B1F800C001
:101610000CEA03069E4220D183004FF00F0C0CFA17
:1016200003F7BC4305FA03FC4CEA040491F803C039
:10163000BCF1280F06D14FF0010C0CFA00FCC2F8E7
:1016400014C00AE091F803C0BCF1480F05D14FF077
:10165000010C0CFA00FCC2F810C0401C0828D1D3C1
:101660001460B1F800C0BCF1FF0F34DD54680020F5
:101670002EE000F1080C4FF0010808FA0CF3B1F865
:1016800000C00CEA03069E4221D183004FF00F0CEC
:101690000CFA03F7BC4305FA03FC4CEA040491F886
:1016A00003C0BCF1280F05D100F1080C08FA0CF8B2
:1016B000C2F8148091F803C0BCF1480F07D100F1C3
:1016C000080C4FF0010808FA0CF8C2F81080401C12
:1016D0000828CED35460BDE8F0810000F0B50A467A
:1016E000002300240021002500F00046B6F1004F41
:1016F00002D11D4EF16901E01B4E7168C0F3034534
:1017000083B200F44016B6F5401F08D121F0706195
:10171000154E766826F07066134F7E6012E000F476
:101720008016B6F5801F06D1032606FA05F4A143FC
:1017300041F0706106E0460D360103FA06F6B1434A
:1017400041F0706122B1460D360103FA06F63143CD
:1017500000F00046B6F1004F02D1034EF16101E006
:10176000014E7160F0BD0000000001400246002003
:1017700093680B400BB1012000E0002070474161ED
:1017800070470161704700BFFEE72DE9FC41044648
:101790000D4616466B4606223B21682000F043FAB0
:1017A0000746BFB99DF801009DF8001040EA0120EE
:1017B00000B220809DF803009DF8021040EA01204D
:1017C00000B228809DF805009DF8041040EA012031
:1017D00000B230803846BDE8FC812DE9FC4104466A
:1017E0000D4616466B4606224321682000F01BFA80
:1017F0000746BFB99DF801009DF8001040EA01209E
:1018000000B220809DF803009DF8021040EA0120FC
:1018100000B228809DF805009DF8041040EA0120E0
:1018200000B230803846BDE8FC8100002DE9F84F59
:101830006B4602224121682000F0F5F99DF8010075
:101840009DF8001040EA01200FFA80FA504604F09B
:1018500053FB804600220B4B04F0F6F906460A4A79
:101860000A4B04F035F9044604F000F983460849B0
:10187000584605F0E3F8044605F044F800B2BDE828
:10188000F88F000000407540A4703D0AD7434240E5
:101890000000C84210B500200E4908600E480068DC
:1018A00020F0F0000C4908600846006840F0300065
:1018B000086000200949C1F8A40100F011F80120D6
:1018C0000449086000F00CF800200449C1F8A001A8
:1018D00010BD0000A0812142040C01400080214283
:1018E00010B5022001F0CCFB10BD000008B50121AD
:1018F000082000F0C5FA4FF44070ADF80000102049
:101900008DF8030003208DF8020069460448FFF7B4
:1019100059FE4FF440710248FFF733FF08BD000045
:10192000000C014010B500200E4908600E48006808
:1019300020F0F0000C4908600846006840F03000D4
:10194000086001200949C1F8A401FFF7C9FF01207F
:1019500004490860FFF7C4FF00200449C1F8A00152
:1019600010BD0000A0812142040C014000802142F2
:1019700070B5054600241648006820F0F0001449B0
:1019800008600846006840F080000860002614E007
:10199000002010490860FFF7A3FF01200E49C1F89D
:1019A000A0016006040E0B487C38006808B1601C7A
:1019B000C4B2FFF795FF701CC6B2082EE8DB15B95C
:1019C000FFF7B0FF01E0FFF765FF204670BD0000A4
:1019D000040C0140A08121420080214270B50446E0
:1019E0001248006820F0F0001049086008460068BE
:1019F00040F03000086000200D490860002512E02A
:101A0000E0090B49091D08606006040E0120094920
:101A1000C1F8A001FFF764FF002005490860FFF747
:101A20005FFF681CC5B2082DEADB70BD040C0140E5
:101A3000A08121420080214210B50E48006820F0AC
:101A4000F0000C4908600846006840F0300008606B
:101A50000120094908600949C1F8A001FFF740FFCA
:101A6000002005490860FFF73BFF00200349C1F84B
:101A7000A00110BD040C0140A4812142008021423C
:101A800010B50E48006820F0F0000C4908600846C8
:101A9000006840F0300008600020094908600949EA
:101AA000C1F8A401FFF71CFF0120054908600549A2
:101AB000C1F8A401FFF714FF10BD0000040C0140A1
:101AC000A08121420080214210B500241448006802
:101AD00020F0F000124908600846006840F08000DD
:101AE000086001200F490860FFF7FAFE01200E4947
:101AF000C1F8A001FFF7F4FE07E0601CC4B2FA2CA5
:101B000003DDFFF7BDFF012010BD064880380068E7
:101B10000028F2D10349091F086000BFF4E7000064
:101B2000040C0140A48121420080214238B50121EA
:101B3000084600F0A5F90121042000F0A1F94FF4B6
:101B40000040ADF8000010208DF8030003208DF850
:101B5000020069462248FFF735FD01212148FFF7C1
:101B6000BDFD002020490860FFF7C0FE80216B20EA
:101B700000F0DDF8642001F05DFA00216B2000F038
:101B8000D6F8032000F091F8002000F086F832200B
:101B900000F0B0F80021382000F0C9F800216A20D8
:101BA00000F0C5F80021232000F0C1F88021372083
:101BB00000F0BDF8752000F019F80446682C0BD130
:101BC00001216B2000F0B3F800216C2000F0AFF889
:101BD000322000F08FF801E0012038BD0020FCE742
:101BE0000008014000023000BC01214270B50446EB
:101BF000FFF722FFD020FFF7F1FEFFF765FF204639
:101C0000FFF7ECFEFFF760FFFFF716FFD120FFF7AD
:101C1000E5FEFFF759FF0020FFF7AAFE0546FFF794
:101C20002FFF284670BD2DE9F04106460F461446A9
:101C30001D46FFF701FF002141EA4601C8B2FFF748
:101C4000CDFEFFF741FF20B1FFF71AFF0120BDE8ED
:101C5000F0813846FFF7C2FEFFF736FFFFF7ECFED4
:101C6000012101EB4601C8B2FFF7B8FEFFF72CFFD8
:101C70000DE0012C04D10020FFF77AFE287003E06C
:101C80000120FFF775FE2870601EC4B26D1C002C89
:101C9000EFD1FFF7F5FE0020D9E710B50446E006C6
:101CA000010E1C2000F043F810BD10B50446E006FC
:101CB000010E1B2000F03BF810BD70B50446002556
:101CC000BC2C01DB012510E0622C01DB02250CE0BD
:101CD0002A2C01DB032508E0142C01DB042504E099
:101CE0000A2C01DB052500E0062529461A2000F014
:101CF0001EF870BD70B50446B4F57A7F01DD4FF46F
:101D00007A74042C00DA04244FF47A7090FBF4F017
:101D1000401EC5B22946192000F009F8054626469E
:101D200004EBD671C1F34F00FFF7C7FF70BD70B56C
:101D300005460C46FFF780FED020FFF74FFEFFF769
:101D4000C3FE18B1FFF79CFE012070BD2846FFF7C7
:101D500045FEFFF7B9FE2046FFF740FEFFF7B4FE51
:101D600018B1FFF78DFE0120EFE7FFF789FE002095
:101D7000EBE72DE9F04105460E4617469846FFF77A
:101D80005BFE002141EA4501C8B2FFF727FEFFF7DD
:101D90009BFE20B1FFF774FE0120BDE8F0813046C4
:101DA000FFF71CFEFFF790FE00240CE018F804007B
:101DB000FFF714FEFFF788FE18B1FFF761FE012060
:101DC000EBE7601CC4B2BC42F0DBFFF759FE002019
:101DD000E3E700BFFEE7704770B5002100230F2244
:101DE000C47804B3154C246804F4E064C4F5E064DA
:101DF000210AC1F10403CA40447804FA03F184784B
:101E00001440214309010E4C0678A155047804F0D2
:101E10001F050124AC4005786D11AD0005F1E025EA
:101E2000C5F8004109E0047804F01F050124AC4026
:101E3000044D0678761145F8264070BD0CED00E0A3
:101E400000E400E080E100E002490143024A116041
:101E5000704700000000FA050CED00E0704700003C
:101E600029B1064AD2690243044BDA6104E0034A0D
:101E7000D2698243014BDA617047000000100240D2
:101E800029B1064A92690243044B9A6104E0034A6D
:101E900092698243014B9A61704700000010024032
:101EA00030B500210022002400232D4D6D6805F07F
:101EB0000C0121B1042905D0082923D105E0294DC1
:101EC000056022E0274D05601FE0254D6D6805F493
:101ED0007012234D6D6805F48034022505EB9242A3
:101EE0001CB9214D554305600BE01D4D6D6805F48F
:101EF00000351DB11C4D5543056002E0194D554399
:101F0000056002E0174D056000BF00BF144D6D680D
:101F100005F0F0010909154D6B5C0568DD40456071
:101F20000F4D6D6805F4E061090A104D6B5C456862
:101F3000DD4085600A4D6D6805F46051C90A0B4D9E
:101F40006B5C4568DD40C560054D6D6805F440413A
:101F5000890B074D6B5CC568B5FBF3F5056130BDBA
:101F60000010024000127A0000093D004A000020E3
:101F70005A00002008B501210420FFF781FF182036
:101F8000ADF8000003208DF8020014208DF8030046
:101F900069460648FFF716FB10210448FFF7F1FBDE
:101FA00008210248FFF7EDFB08BD000000080140D2
:101FB00070B50446002610211C48FFF7E0FB0821FD
:101FC0001A48FFF7DCFB00251DE004F0800020B17B
:101FD00008211648FFF7D5FB03E008211348FFF757
:101FE000CEFB10211148FFF7CCFB502003F03EFC44
:101FF00010210E48FFF7C3FB502003F037FC6006AA
:10200000040E681CC5B2082DDFDB10210748FFF75E
:10201000B8FB08210548FFF7A9FB00B101261021F4
:102020000248FFF7ACFB304670BD000000080140DD
:1020300070B5044610211C48FFF7A1FB08211A487F
:10204000FFF79DFB00251DE004F0800020B1082172
:102050001548FFF796FB03E008211348FFF78FFBB5
:1020600010211148FFF78DFB502003F0FFFB1021DA
:102070000D48FFF784FB502003F0F8FB6006040EC8
:10208000681CC5B2082DDFDB10210748FFF779FB7C
:102090000A2003F0EBFB10210348FFF770FB0A2036
:1020A00003F0E4FB70BD00000008014070B500249F
:1020B000002512E06006040E10210A48FFF761FBBC
:1020C00008210848FFF752FB08B1601CC4B2102178
:1020D0000448FFF754FB681CC5B2082DEADB204614
:1020E00070BD00000008014010B508210848FFF746
:1020F00046FB10210648FFF744FB1E2003F0B6FB09
:1021000008210348FFF73DFB1E2003F0AFFB10BD85
:1021100000080140704710B500F002F810BD000043
:102120000CB50020019000903348006840F48030E6
:102130003149086000BF3048006800F4003000906A
:102140000198401C0190009818B90198B0F5A06F53
:10215000F1D12948006800F4003010B1012000904E
:1021600001E0002000900098012843D12348006836
:1021700040F01000214908600846006820F0030084
:1021800008600846006840F0020008601A4840688D
:10219000194948600846406848600846406840F46D
:1021A000806048600846406820F47C10486008461B
:1021B000406840F4E81048600846006840F08070CD
:1021C000086000BF0C48006800F000700028F9D0DB
:1021D0000948406820F00300074948600846406805
:1021E00040F00200486000BF0348406800F00C0067
:1021F0000828F9D10CBD0000001002400020024068
:1022000070B53349B1F90010324AB2F90020881A8A
:1022100003F072FE21F00041044600222E4B03F031
:10222000CFFF21D32D49B1F900102D4AB2F900207A
:10223000881A03F061FE21F0004104460022264B7B
:1022400003F0BEFF10D32749B1F90010264AB2F9B6
:102250000020881A03F050FE21F0004104460022BD
:102260001D4B03F0ADFF05D2002020490860204936
:10227000088005E01E480088401C00B21C49088008
:102280001B48B0F90000642805DD012017490860EB
:102290000020174908800F48008840B9104800887E
:1022A00028B91148008810B9002010490860094871
:1022B000B0F90000064908800948B0F90000074954
:1022C00008800948B0F900000649088070BD000088
:1022D000260000200C00002000408F402800002035
:1022E0000E0000202A000020100000202000002006
:1022F0002400002010B5502003F0B8FA08210B4844
:10230000FFF73FFA10210948FFF73BFA1E2003F0C0
:10231000ADFA08210548FFF732FA10210348FFF70C
:102320002EFA1E2003F0A2FA10BD000000080140A2
:10233000042808D14FF0E021096941F004014FF071
:10234000E022116107E04FF0E021096921F004016A
:102350004FF0E022116170477047000010B513483C
:10236000006840F0010011490860084640681049C3
:1023700008400E494860084600680E4908400B496D
:1023800008600846006820F480200860084640681D
:1023900020F4FE0048604FF41F008860FFF7BBFE8A
:1023A0004FF000600449086010BD000000100240BA
:1023B0000000FFF8FFFFF6FE08ED00E0FEB501218A
:1023C000174800F080F830B31648006808B90120BB
:1023D00000E00020134908601348D0F8840108B9D0
:1023E000012000E000200F49091D08600F48006827
:1023F00004F0F8F804460D460D48006804F0F2F8C1
:1024000006460C48006832460B46CDE9004502906E
:1024100009A0FDF731FF0121014800F045F8FEBD9C
:102420000004004080812142008021421C000020E5
:102430001800002020000020252E3266543B252E57
:102440003266483B25644D0D0A0000007FB5054605
:102450000C4601210220FFF703FDADF80850ADF84E
:1024600004400020ADF80A00ADF8060001A90D48AF
:1024700000F044F8012211460A4800F035F81D200A
:102480008DF8000001208DF801008DF802008DF814
:1024900003006846FFF7A0FC0121024800F007F89E
:1024A0007FBD000000040040CA430282704721B192
:1024B000028842F00102028004E002884FF6FE73B7
:1024C0001A400280704730B50246002000230024E5
:1024D000158A05EA0103958905EA010413B10CB1D7
:1024E000012000E0002030BD1AB183890B438381B5
:1024F00002E083898B4383817047000000220288B9
:102500001D4B98420ED01D4B98420BD0B0F1804F1E
:1025100008D01B4B984205D01A4B984202D01A4B58
:10252000984204D14FF68F731A404B881A43174BC9
:10253000984207D0164B984204D04FF6FF431A40FA
:10254000CB881A4302808B8883850B8803850A4BCE
:1025500098420BD0094B984208D00E4B984205D0B8
:102560000D4B984202D00D4B984201D10B7A038655
:102570000123838270470000002C01400034014099
:102580000004004000080040000C00400010004023
:102590000014004000400140004401400048014058
:1025A00010B540F225511D4800F04AF810B31B4801
:1025B00000F002F9C4B21A48008800F40040C8B91B
:1025C0001748008800F4804060B10A2C03D0002036
:1025D0001349088020E01248008840F40040104968
:1025E000088019E00D2C06D10D48008840F4804089
:1025F0000B49088010E00A480088C0F30D00094923
:102600000C5407480088401C05490880084600888B
:10261000C72801DD0020088010BD000000380140FF
:10262000480000209800002021B1828942F4005225
:10263000828104E082894DF6FF731A4082817047DF
:1026400070B50246002400230025002040F66A16DB
:10265000B14200D100BFC1F3421501F01F030126B2
:1026600006FA03F3012D02D19689334006E0022DCC
:1026700002D1168A334001E0968A33400C120126BB
:1026800006FA04F41688344013B10CB1012000E0BE
:10269000002070BDF0B50346002400260025002070
:1026A00040F66A17B94200D100BF1846C1F3421480
:1026B00001F01F06012707FA06F5012C01D10C30A5
:1026C00004E0022C01D1103000E014301AB1076888
:1026D0002F43076002E00768AF430760F0BD0000CA
:1026E0002DE9F04786B005460E460024A24600BFFD
:1026F000A1460027B08900B100BF2F462C8A4CF6B6
:10270000FF700440F08804432C82AC894EF6F3102D
:102710000440B08831890843718908430443AC817F
:10272000AC8A4FF6FF400440B0890443AC8201A854
:10273000FFF7B6FB1F48874202D1DDF810A001E089
:10274000DDF80CA0A88900F4004040B10AEBCA00F3
:1027500000EB0A1031684900B0FBF1F807E00AEB22
:10276000CA0000EB0A1031688900B0FBF1F8642060
:10277000B8FBF0F004012009642101FB1089A8894D
:1027800000F4004040B1322000EBC900B0FBF1F092
:1027900000F00700044308E0322000EB0910642138
:1027A000B0FBF1F000F00F0004432C8106B0BDE84F
:1027B000F08700000038014001468888C0F3080017
:1027C000704700BFFEE7490050EAC12018BF04204F
:1027D0004A0D18BF40F0010040F2FF72B2EB515FAA
:1027E00008BF40F00200012808BF052070472DE90E
:1027F000F0414F1E00EBC7010446D1E90001154628
:102800001E4637F006020DD02A46334603F0DAFBA7
:102810007F1E04EBC703D3E9002303F059F937F017
:102820000602F1D1022F25D0042F13D0062F18BF96
:10283000BDE8F0812A46334603F0C4FBD4E90A23FD
:1028400003F046F92A46334603F0BCFBD4E90823DB
:1028500003F03EF92A46334603F0B4FBD4E90623DD
:1028600003F036F92A46334603F0ACFBD4E90423DF
:1028700003F02EF92A46334603F0A4FBD4E90223E1
:1028800003F026F92A46334603F09CFBD4E90023E3
:10289000BDE8F04103F01CB9012204F076BA03F060
:1028A00017B9002213461046114603F0CDB90000B7
:1028B000024A0020110704F068BA000001FDFFFF82
:1028C00030380A2801D201207047002070470146A5
:1028D00000BF70472DE9FE4F06460F4600256846AB
:1028E00001F0DCF9002442E056F8240057F82410E7
:1028F000A0EB010ABAF1000F01DB514601E0CAF179
:102900000001084604F03AF883464FF08F4103F087
:1029100003FF80465DF82400002103F0BFFF16D0BE
:102920005DF82410404603F0F7FE82464FF07E51DA
:1029300004F082F9814629F0004A0F48416A504666
:1029400004F048F912D20120A04005430EE00A48E5
:10295000C169404604F03EF805D30748016A404685
:1029600004F038F902D20120A0400543641C032C76
:10297000BADB2846BDE8FE8F406E00082DE9F04D19
:102980008D4F21F0004A86B005460C46BA452ADB39
:10299000AAEB070028430AD08848824501DC1AD1F7
:1029A000CDB106B02846BDE8F04DFFF775BF844AAB
:1029B000844B284603F006FB07460E46824A834BAB
:1029C0002846214603F0FEFA06B03A463346BDE8F3
:1029D000F04D03F07DB80120FDF7E6FD06B0BDE83F
:1029E000F04DFFF75EBF7A48824542DABAF1795F6F
:1029F0000BDA2846FFF7E7FE042808BFFFF758FF69
:102A0000284606B02146BDE8F08D2A460B46104602
:102A100003F0D8FA834602466E480E460B4606215E
:102A20007844FFF7E4FE5A46334603F0CBFA80467B
:102A300069488A465A46334604217844FFF7D7FE50
:102A40005A46334603F0BEFA00223B4603F040F8F4
:102A500002460B464046514603F0F6F82A46234606
:102A600003F0B0FA06B02A462346BDE8F04D03F065
:102A70002FB8284624F0004100223D463B4603F093
:102A8000D5FB4FF0FF3204F080F90646024653486A
:102A90000F460B4606217844FFF7A9FE32463B4617
:102AA00003F090FACDE900014D4832463B4604213F
:102AB0007844FFF79CFE32463B4603F083FA00223F
:102AC0002B4603F005F8834602913046394602F062
:102AD000DCFE804643480D46504517DCDDE9000129
:102AE0005A46029B03F0B0F842462B4603F06AFABE
:102AF00042462B4602F0ECFF012204F046F9304A30
:102B0000304B03F085FC304A304B4CE04FF0000A6C
:102B100052460B46404602F0DBFFCDE90310524619
:102B20002B461046194603F04DFA32463B4603F059
:102B30007DFBDDE9033203F087F806460F46DDE949
:102B400000015A46029B03F07FF883460091012260
:102B50003046394604F019F9194A1A4B03F066FB5E
:102B600006460F4601224046294604F00EF95A4611
:102B7000009B03F027FA32463B4603F049FC064629
:102B80000F4601225046294604F0FFF80E4DDFF8AB
:102B900058802A46434603F049FB32463B4603F041
:102BA00045FB2A46434603F041FB002CD8BF81F089
:102BB000004106B0BDE8F08D0000F03F0000F07F5E
:102BC000075C143326A6913C182D4454FB21F93F91
:102BD0000000E03F4C50000062500000D64F000063
:102BE000EC4F00003333EF3FFB21E93F2DE9F84F75
:102BF00004460D4621F0004000917349814211DCEA
:102C00007249884201DC06D12CB120462946BDE834
:102C1000F84FFFF741BE6E48002DCCBF6D496E499D
:102C2000BDE8F88F6D49814211DD6D498142D8BF01
:102C30004FF0FF366DDD20462946FFF7C4FD04281E
:102C400008BFFFF735FE20462946BDE8F88F6549E5
:102C5000654F25F00045814233DD6449814219DD2D
:102C6000002632464FF080432046294602F030FFCE
:102C700080468A4601222046294604F086F8002232
:102C80003B4603F0C5FB4246534602F0DDFF0446D7
:102C90000D463EE001260022BA463B462046294624
:102CA00002F016FF80460F46002253462046294672
:102CB00003F0AEFB42463B4602F0C6FF04460D461B
:102CC00027E04B4981421BDDDFF828A102260022C4
:102CD00053462046294603F075F900223B4602F090
:102CE000F7FE80460F46002253462046294603F051
:102CF0008FFB42463B4602F0A7FF04460D4608E024
:102D0000032622462B4600203B4902F09DFF044645
:102D10000D4622462B461046194603F053F98B46C2
:102D2000824602460B4603F04DF9074602463348F9
:102D300088460B4606217844FFF759FD52465B460C
:102D400003F040F982462E488B463A464346052119
:102D50007844FFF74CFD3A46434603F033F9024608
:102D60000B46002E504659460CDA02F0B1FE2246C0
:102D70002B4603F027F901B022462B46BDE8F04F61
:102D800003F054BA02F0A4FE22462B4603F01AF9CF
:102D90001C4A7A4402EBC603D3E9002303F038FB54
:102DA00022462B4603F034FB174A7A4402EBC60353
:102DB000D3E9002303F03AFA009A002AB8BF81F061
:102DC0000041BDE8F88F0000000010440000F07FD3
:102DD000182D4454FB21F93FFB21F9BF0000DC3FD3
:102DE0000000203E0000F33F0000F03F0000E63FFF
:102DF000008003400000F83F0000F0BFEE4D0000EF
:102E0000AC4D00004A4D0000124D00002DE9F04D80
:102E10009446CCF1000423F000464CEA0404524FDF
:102E200046EAD4749A46884621F00042BC4206D84D
:102E3000454240EA050442EAD474BC4204D9BDE8E4
:102E4000F04D6246FFF72BBDAAF14055A5F17F6515
:102E500055EA0C040BD0022404EAAA74434DDFF8AF
:102E600010E144EAD87452EA000B04D00CE0BDE84B
:102E7000F04DFFF7BBBE002C14BF012CBDE8F08D58
:102E8000022C30D0032C32D056EA0C0B0AD0BE42B2
:102E900020D1BA4209D126F0804622F08042334642
:102EA000114617E000291ADB25E0DFF8C8B0FB4423
:102EB000002C04BFDBE90001BDE8F08D012C02BF4E
:102EC000DBE9000181F00041BDE8F08D022C0AD061
:102ED000032C0CD0BA4212D1B8F1000F0BDA234800
:102EE0002549BDE8F08D28462449BDE8F08D2846E7
:102EF0007146BDE8F08D1D482149BDE8F08D921B5B
:102F000012153C2AC4BF19481D490EDCBAF1000F46
:102F1000BEBF12F13C0F0020014606DB624602F004
:102F200093FE21F00041FFF761FE002C08BFBDE8D1
:102F3000F08D012C04BF81F00041BDE8F08D114AF5
:102F4000114B022C07D003F063FA2A46BDE8F04D7E
:102F50000A4B03F05DBA03F05BFA2A46BDE8F04D78
:102F6000064B03F063B900000000F07F182D4454B5
:102F7000FB2109C0A64C0000FB21F9BFFB21094041
:102F8000FB21F93F075C143326A6A13C2DE9F04153
:102F90000446E07800F0C006E07800F03F05607875
:102FA00000F0010098B1EF102846E91705EB5171C8
:102FB000C910A5EBC101491C01F0FF080B480068CE
:102FC00020B10A48414602683846904700BF607801
:102FD00000F0080030B10548406818B1B011034A4C
:102FE000516888470020BDE8F081000060010020A2
:102FF00010B56FF00400FFF79BF90A4800680A4912
:10300000B0FBF1F0094908700846007800EB400178
:10301000C1EBC0104FF6FF7101EAC00004490880FF
:1030200010BD00002C00002000127A00400000209B
:10303000420000200146114A12884A434FF0E02323
:103040005A6100229A611A46126942F001021A611D
:1030500000BF4FF0E022106900F001021AB100F445
:103060008032002AF5D04FF0E022126922F00102EE
:103070004FF0E0231A6100229A617047420000205D
:103080000146114A12784A434FF0E0235A61002268
:103090009A611A46126942F001021A6100BF4FF0AC
:1030A000E022106900F001021AB100F48032002A17
:1030B000F5D04FF0E022126922F001024FF0E02338
:1030C0001A6100229A6170474000002038B504461A
:1030D00064B120208DF8000028208DF801003020F8
:1030E0008DF8020038208DF8030004E0A3220421AB
:1030F0006846FDF7D1F96A46042140F69E2002F0A9
:10310000E3FA01F0CDFE38BD3EB5044602208DF84D
:103110000000CA208DF80100E3208DF8020009208C
:103120008DF803006A460421682002F0CDFAA3203E
:103130008DF8000004F0400048B1C0208DF8010077
:10314000C8208DF80200C2208DF8030006E0A320FD
:103150008DF801008DF802008DF8030004F4C070B2
:1031600048B1C4208DF80400CC208DF80500C6209D
:103170008DF8060006E0A3208DF804008DF8050008
:103180008DF80600A3208DF807008DF808008DF853
:1031900009006A460A2140F6A72002F095FA04F0D9
:1031A000030018B120208DF8000002E0D8208DF82F
:1031B00000006A46012140F6B62002F085FA04F0CC
:1031C000200018B1012000F0ADF802E0002000F06E
:1031D000A9F804F4C07008B304F4807060B1B220A0
:1031E0008DF800008B208DF80100B6208DF80200CC
:1031F0009B208DF803000BE0B0208DF800008020AC
:103200008DF80100B4208DF8020090208DF80300A5
:103210006A46042140F6A22002F056FA04F00100AA
:1032200020B3F8208DF800006A4601214FF40B60AE
:1032300002F04AFAFA21072000F02CFC072000F0E7
:10324000F3FB012000F013FC642000F0F3FC4FF4CA
:10325000FA7000F002FDC821304800F0A3FB2820DE
:1032600000F0BCFB0A2000F0CCFB08E0D8208DF871
:1032700000006A4601214FF40B6002F025FA04F0C9
:10328000020018B1D9208DF8000002E0D8208DF896
:1032900000006A46012140F23D7002F015FA04F088
:1032A000040018B1012000F069F802E0002000F0ED
:1032B00065F804F0100018B10120FFF707FF02E0E5
:1032C0000020FFF703FF44F008001549488101F092
:1032D000E7FD00201249887304F0400018B1084649
:1032E000807B801D887304F4C07020B10C48807B03
:1032F000801D0B49887304F0140020B10848807BBE
:1033000010300749887304F0030020B10448807B23
:10331000001D0349887300203EBD000009E3CA0276
:10332000600100203EB504466CB10EA1D1E9002039
:103330008968CDE9002002916A4609214FF497601F
:1033400002F0C2F93EBD0AA2D2E900109268CDE9AE
:10335000010200916A4609214FF4976002F0B4F926
:10336000F0E70000B8AAB38DB4980D355D000000F9
:10337000B8AAAAAAB088C3C5C700000038B50446D9
:1033800064B1C0208DF80000C2208DF80100C42077
:103390008DF80200C6208DF8030004E08B22042182
:1033A0006846FDF779F86A46042140F6982002F055
:1033B0008BF901F075FD38BD10B5C8234FF480625C
:1033C000024940F6F63001F0FFFB10BD686E0008C0
:1033D0002DE9F04F8DB00746884615469946DDE940
:1033E000166B0024002030806B49887B5A4605A963
:1033F00001F0B6FC18B1601E0DB0BDE8F08F664854
:10340000807A00F01400002867D09DF814000006B0
:103410009DF8151040EA01409DF8161040EA012081
:103420009DF81710084328609DF8180000069DF8C5
:10343000191040EA01409DF81A1040EA01209DF859
:103440001B10084368609DF81C0000069DF81D10C5
:1034500040EA01409DF81E1040EA01209DF81F102F
:103460000843A8609DF8200000069DF8211040EA5E
:1034700001409DF8221040EA01209DF823100843E6
:10348000E86004F11000C4B2286800140190686874
:1034900000140290A86800140390E86800140490D7
:1034A00001984043029901FB0100039901FB0100CF
:1034B000049901FB010ABAF1706F02DBBAF1885F6F
:1034C00005DD01F0EDFC00203080401E94E7B6F9E8
:1034D000000040F48070308000BF2F48807A00F0F8
:1034E000400020B305A9601C085C095D40EA01208A
:1034F00000B2A8F8000005A9E01C095C05AAA01C00
:10350000105C41EA002000B2A8F8020005A9601D85
:10351000095C201D105C41EA002000B2A8F80400FC
:10352000A01DC4B2B6F9000040F0080030801A486F
:10353000408900F4C07008B305A9601C085C095DEF
:1035400040EA012000B2388005A9E01C095C05AA08
:10355000A01C105C41EA002000B2788005A9601D23
:10356000095C201D105C41EA002000B2B880A01D5B
:10357000C4B2B6F9000040F0700030800648807A8E
:1035800000F0030018B105A90819FFF7FFFC484631
:1035900000F0ACFF00202FE76001002070B588B07C
:1035A000064601A801F064F9BDF804000021C90332
:1035B00041EA5045C4034448007A00F0030056F83D
:1035C000200005904048007A00F0040010B10598F2
:1035D000404205903C48007AC0F3C10056F82000F4
:1035E00006903948007A00F0200010B10698404259
:1035F00006903548007AC0F3811056F820000790F5
:103600003148008900F4807010B10798404207905B
:103610000598C117A0FB042301FB043100FB051032
:10362000810041EA927005900698C117A0FB04231F
:1036300001FB043100FB0510810041EA9270069005
:103640000798C117A0FB042301FB043100FB051000
:10365000810041EA927007900598000E8DF80800ED
:103660000598000C8DF809000598000A8DF80A00ED
:103670000598C0B28DF80B000698000E8DF80C006E
:103680000698000C8DF80D000698000A8DF80E00C3
:103690000698C0B28DF80F000798000E8DF8100044
:1036A0000798000C8DF811000798000A8DF8120099
:1036B0000798C0B28DF8130002AA0C214FF42570B0
:1036C00002F002F808B070BD6001002030B585B08E
:1036D000044616A207CA02AB07C3C82C03DD4FF08D
:1036E000FF3005B030BDC82090FBF4F0401E85B21D
:1036F000280A8DF80000E8B28DF801006A46022120
:1037000040F2162001F0E0FF10B14FF0FF30E8E783
:1037100002AA0C2140F6C12001F0D6FF10B14FF0F3
:10372000FF30DEE7044884810020DAE7FEF2ABC414
:10373000AAF1DFDFBBAFDFDF600100201FB5044669
:103740004848007A00F0030054F8200001904548F2
:10375000007A00F0040010B1019840420190414805
:10376000007AC0F3C10054F8200002903D48007A6E
:1037700000F0200010B10298404202903948007ACF
:10378000C0F3811054F8200003903648008900F4FB
:10379000807010B10398404203903349019880FB38
:1037A0000101800F40EA810001902F49029880FBBF
:1037B0000110820042EA917002902B49039880FB2D
:1037C0000110820042EA917003900198000E8DF87A
:1037D00000000198000C8DF801000198000A8DF896
:1037E00002000198C0B28DF803006A4604214FF42C
:1037F000747001F069FF18B14FF0FF3004B010BDD4
:103800000298000E8DF800000298000C8DF801005F
:103810000298000A8DF802000298C0B28DF80300E9
:103820006A4604214FF4757001F04EFF10B14FF05D
:10383000FF30E3E70398000E8DF800000398000CBA
:103840008DF801000398000A8DF802000398C0B2B9
:103850008DF803006A4604214FF4767001F034FFBE
:10386000CCE700006001002009E3CA0210B586B071
:10387000044647A00068039046A00068029046A056
:103880000068019045A00068009004F0030003A9BF
:10389000085C8DF8140003A8C4F3C101405C8DF8E6
:1038A000150003A8C4F38111405C8DF8160004F0E4
:1038B000030002A9085C8DF8100002A8C4F3C1013E
:1038C000405C8DF8110002A8C4F38111405C8DF8B2
:1038D000120005AA032140F2264001F0F5FE18B1BE
:1038E0004FF0FF3006B010BD04AA032140F22A4079
:1038F00001F0EAFE10B14FF0FF30F3E701980590B8
:103900000098049004F0040058B19DF8140040F0B1
:1039100001008DF814009DF8100040F001008DF8B2
:10392000100004F0200058B19DF8150040F001008F
:103930008DF815009DF8110040F001008DF8110080
:1039400004F4807058B19DF8160040F001008DF825
:1039500016009DF8120040F001008DF8120005AA33
:1039600003214FF4886001F0AFFE10B14FF0FF303B
:10397000B8E704AA032140F2314001F0A5FE10B1DE
:103980004FF0FF30AEE7064804810020AAE70000B0
:103990004CCD6C000CC92C003656760026466600CD
:1039A00060010020F8B505460E464FF47A7095FB8D
:1039B000F0F000FB06F4200E8DF80000200C8DF8CE
:1039C0000100200A8DF80200E0B28DF803006A467B
:1039D00004214FF4AE7001F077FEF8BD38B504460F
:1039E000052094FBF0F084B220128DF80000E0B2C4
:1039F0008DF801006A4602214FF4AD7001F064FEBB
:103A000038BD38B50446052094FBF0F084B220128E
:103A10008DF80000E0B28DF801006A4602214FF4F3
:103A2000AC7001F051FE38BD38B50446002000905E
:103A300004F0010020B19DF8000040F0300000903B
:103A400004F0020020B19DF8000040F00C0000904E
:103A500004F0040020B19DF8000040F00300009045
:103A60006A4601214FF4A47001F02EFE38BD38B52E
:103A70000446012C01DA012402E0042C00DD0424B8
:103A8000601EC0B200906A46012140F24F1001F062
:103A90001BFE38BD2DE9FC4706460F4606F0070021
:103AA00010B1B7F5C86F03DD4FF0FF30BDE8FC87FC
:103AB000384602F07BFF8146594902F02DFE8046D0
:103AC000684600F0AFFE9DF80000022806D00428EA
:103AD00016D0082826D0102848D135E04FF08D4167
:103AE000404602F0ABFF814602F028FF84B24D4908
:103AF000404602F0A3FF814602F020FF85B238E085
:103B00004FF08C41404602F099FF814602F016FFCB
:103B100084B24549404602F091FF814602F00EFF13
:103B200085B226E04FF08B41404602F087FF814688
:103B300002F004FF84B23D49404602F07FFF814617
:103B400002F0FCFE85B214E04FF08A41404602F0DC
:103B500075FF814602F0F2FE84B23549404602F01C
:103B60006DFF814602F0EAFE85B202E04FF0FF30C1
:103B70009CE700BF20128DF80400E0B28DF805002C
:103B800028128DF80600E8B28DF8070006F0010053
:103B9000A0B101AA02214FF4EA7001F095FD10B125
:103BA0004FF0FF3082E70DF1060202214FF49270D0
:103BB00001F08AFD10B14FF0FF3077E706F0020008
:103BC000A0B101AA02214FF4EC7001F07DFD10B10B
:103BD0004FF0FF306AE70DF1060202214FF49470B6
:103BE00001F072FD10B14FF0FF305FE706F0040006
:103BF000A0B101AA02214FF4EE7001F065FD10B1F1
:103C00004FF0FF3052E70DF1060202214FF496709B
:103C100001F05AFD10B14FF0FF3047E7002045E7B3
:103C200000004843000040460000C04500004045F9
:103C30000000C04438B50446052094FBF0F085B27E
:103C400028128DF80000E8B28DF801006A460221C2
:103C50004FF4EF7001F038FD38BD38B5044605204B
:103C600094FBF0F085B228128DF80000E8B28DF8D0
:103C700001006A4602214FF4ED7001F025FD38BDC8
:103C800000BF054A128802F04002002AF9D0C2B2F1
:103C9000014B1B1D1A807047003801407CB505465A
:103CA00028494968087801AB04220D21FDF7BBFFC4
:103CB00008B107207CBD9DF80700C0F301109DF8F6
:103CC000041001F0E00140EAE1008DF800009DF8E9
:103CD0000700C0F381009DF8051001F0E00140EA03
:103CE000E1008DF801009DF8070000F003009DF849
:103CF000061001F0E00140EAE1008DF80200002426
:103D00001CE01DF8040018B9002045F8240013E059
:103D10000D4845F8240006E055F824000B4902F050
:103D20008DFE45F824001DF80400401EC0B20DF8B9
:103D300004000028F0D100BF601CC4B2032CE0DBFB
:103D40000020B7E7600000207B14AE3E1D5A843F80
:103D50002DE9F04F87B005460C46914601208DF8BD
:103D6000100000208DF81100FE4A1268917CFD4A77
:103D70005268107804AB0222FDF7FBFF20B14FF030
:103D8000FF3007B0BDE8F08FC820FFF753F90020DF
:103D90008DF81000F34A1268D17BF24A526810780D
:103DA00004AB0122FDF7E5FF10B14FF0FF30E8E76B
:103DB000EC4A12685179EB4A5268107804AB012240
:103DC000FDF7D7FF10B14FF0FF30DAE7E54A126890
:103DD000917CE44A5268107804AB0122FDF7C9FFD8
:103DE00010B14FF0FF30CCE7DE4A1268D17DDD4ADA
:103DF0005268107804AB0122FDF7BBFF10B14FF001
:103E0000FF30BEE7D74A12681179D64A5268107857
:103E100004AB0122FDF7ADFF10B14FF0FF30B0E76A
:103E20000C208DF81000CF4A12681179CD4A5268E3
:103E3000107804AB0122FDF79CFF10B14FF0FF306A
:103E40009FE70F20FFF7F6F8C648806A407A8DF8A2
:103E50001000C44A12689178C24A5268107804ABC4
:103E60000122FDF786FF10B14FF0FF3089E7BD4812
:103E7000806A007A8DF81000BA4A12685178B94AFF
:103E80005268107804AB0122FDF773FF10B14FF0B8
:103E9000FF3076E7B9F1000F07D0B248806A807A28
:103EA00040F0E0008DF8100004E0AE48806A807AAF
:103EB0008DF81000AB4A12689179AA4A52681078BE
:103EC00004AB0122FDF755FF10B14FF0FF3058E76A
:103ED000B9F1000F07D0A348806AC07A40F0E00033
:103EE0008DF8100003E0A048C07A8DF810009D4ABC
:103EF0001268D1799B4A5268107804AB0122FDF711
:103F000038FF10B14FF0FF303BE7B9F1000F02D09E
:103F1000C820FFF78FF840208DF81000914A1268F2
:103F20001179904A5268107804AB0122FDF721FF05
:103F300010B14FF0FF3024E778208DF81000894A47
:103F400012685179874A5268107804AB0122FDF754
:103F500010FF10B14FF0FF3013E783498889FFF756
:103F600069F800208DF810007E4A126851797D4A68
:103F70005268107804AB0122FDF7FBFE10B14FF040
:103F8000FF30FEE6774A1268917A764A52681078D6
:103F900004AB0222FDF747FE10B14FF0FF30F0E610
:103FA0009DF811009DF8101040EA012B0C209BFB9E
:103FB000F0F0C6B20020A86068602860A060606071
:103FC0002060824665E0674A1268D17A654A526885
:103FD000107804AB0C22FDF726FE10B14FF0FF3035
:103FE000CFE69DF811009DF8101040EA012000B2C4
:103FF000ADF808009DF813009DF8121040EA01206A
:1040000000B2ADF80A009DF815009DF8141040EAC2
:10401000012000B2ADF80C00BDF90810206808447A
:104020002060BDF90A10606808446060BDF90C109A
:10403000A0680844A0609DF817009DF8161040EA9B
:10404000012000B2ADF800009DF819009DF818108D
:1040500040EA012000B2ADF802009DF81B009DF877
:104060001A1040EA012000B2ADF80400BDF90010BA
:10407000286808442860BDF9021068680844686030
:10408000BDF90410A8680844A8600AF1010000F016
:10409000FF0AB24597DB3448D0F800C02868C11742
:1040A000090441EA10410704624600233846FCF740
:1040B000BEF832460023CDE90201FCF7B8F82860CB
:1040C0002948D0F800C06868C117090441EA1041C6
:1040D0000704624600233846FCF7A9F8324600235D
:1040E000CDE90201FCF7A3F868601F48D0F800C0D2
:1040F000A868C117090441EA104107046246002379
:104100003846FCF794F832460023CDE90201FCF76B
:104110008EF8A8601448D0F804C02168C8170004BD
:1041200040EA11480F046246002338464146FCF736
:104130007EF832460023CDE90201FCF778F82060D2
:104140000948D0F804C06068C117090441EA104169
:104150000704624600233846FCF769F8324600231C
:1041600004E0000060000020406E0008CDE902017C
:10417000FCF75DF860601148D0F804C0A068C11772
:10418000090441EA10410704624600233846FCF75F
:104190004EF832460023CDE90201FCF748F8A06052
:1041A000A068002804DDA068A0F58030A06003E0CE
:1041B000A06800F58030A0600020E2E5406E0008B5
:1041C0002DE9FC5F06460F4600253D494968087801
:1041D00001AB03220D21FDF726FD10B10720BDE83C
:1041E000FC9F9DF8040000F01F008DF804009DF86E
:1041F000050000F01F008DF805009DF8060000F096
:104200001F008DF80600002456E056F8240057F8E9
:104210002410A0EB010BBBF1000F01DB594601E0BC
:10422000CBF10001084602F0A9FB4FF08F4100904E
:1042300002F072FA814601A8005D68B3214908685E
:1042400002F0B4FB834659461F4802F065FA8046E7
:1042500004E01E49404602F0F1FB804601A8005DE3
:10426000401EC0B201A908550028F2D14146484677
:1042700002F052FA83464FF07E5102F0DDFC824696
:104280002AF0004B0F488169584602F0A3FC12D275
:104290000120A04005430EE00A480169484602F0AB
:1042A00099FB05D307484169484602F093FC02D2C6
:1042B0000120A0400543641C032CA6DB28468EE7A2
:1042C00060000020406E000800B04C4554E3853F7C
:1042D00010B5002400F004F80446204610BD00008C
:1042E0002DE9FC5F0024FEF705F88020FDF7A0FE15
:1042F000F520FDF79DFE00BF142001F0B7FAFDF791
:10430000F9FF8120FDF754FE0546012DF4D0FDF79D
:10431000CDFE8146FDF7CAFE8246FDF7E5FE44EA82
:1043200009000AEB00244FF6FC700440204601F01F
:10433000FAFD094A094BCDE9000101F043FE0746A9
:1043400001F094FB06460649304602F075FC8346B0
:104350005846BDE8FC9F00007644CF7701405F3FA0
:104360000000C04010B50446204600F00FF8034698
:10437000E01C00F00BF843EAC00083B2A01D00F07F
:1043800005F843EA801083B2184610BD014691F942
:104390000020002A01DD00201EE091F90020002A03
:1043A00001DA042018E091F90120002A01DD012042
:1043B00012E091F90120002A01DA05200CE091F9C0
:1043C0000220002A01DD022006E091F90220002AE5
:1043D00001DA062000E0072070470000FEF708FE23
:1043E0004FF4A060FDF730FDFDF7C4FDFDF79EFB27
:1043F0004FF4165001F0D4FA05E029A0FBF73CFF7A
:104400003220FEF717FE00F0BDF90028F5D128A0F4
:10441000FBF732FFC820FEF70DFE10E0FDF706FAAD
:10442000044602F0ABFA26490860264A2649274886
:10443000FDF7ABF9264A27492748FDF7CEF9274A69
:104440002749284800F08CF80028E7D001F0A0FAAE
:104450001B490860FFF73CFF2349086041F61F41F4
:1044600042F20F70FDF7F2FF19E01C4A1C491D488B
:1044700000F076F848B9134A13491448FDF785F956
:10448000134A14491448FDF7A8F901F081FA0C49C0
:104490000860FFF71DFF14490860FDF7B1FEE4E76F
:1044A0004D50553630353020496E69740D0A000084
:1044B0004D505536303530204F4B210D0A0000004D
:1044C00018000020100000200E0000200C0000202A
:1044D0001600002014000020120000200800002018
:1044E00004000020000000201C0000207047000095
:1044F00070B50446002624F00104184890F8240002
:1045000008B1002070BD1548807A10B94FF0FF3017
:10451000F8E71248057C807A204010490874084664
:10452000007CA04202D04FF0FF3600E0002614B914
:104530000A48007D18B1012001F050F902E0002086
:1045400001F04CF93CB100F0ABFC20B1034805741C
:104550004FF0FF30D6E73046D4E70000600000207F
:104560002DE9F04F99B004460D4616464FF07E57A0
:104570004FF000084FF000094FF0000A12A813A9ED
:1045800018AB0EAACDE9001014A916A8FEF720FF5B
:1045900018B1012019B0BDE8F08FBDF84C0000F44F
:1045A000807000287ED00E9802F0E8F983464FF024
:1045B0009D4102F0B1F807460F9802F0DFF98346FB
:1045C0004FF09D4102F0A8F88046109802F0D6F90D
:1045D00083464FF09D4102F09FF88146119802F00A
:1045E000CDF983464FF09D4102F096F88246394658
:1045F0004FF0804002F022FA4946059002F01EFA80
:10460000414607904FF0404002F018FA514605909D
:1046100002F014FA0690079902F010F8834601F0B0
:10462000E1FFCDE90801FEF7A9F94FF06632544BDE
:10463000CDE90A0101F0C6FCCDE90C0101F016FA42
:10464000206049464FF0804002F0F8F94946029058
:1046500002F0F4F9414604904FF0404002F0EEF9C8
:104660004146029002F0EAF90390049902F0E4FA5C
:1046700083464FF07E5101F0E1FF059001F0B2FF5B
:10468000CDE9080139464FF0804002F0D7F94146A4
:10469000039002F0D3F9494604904FF0804002F0B5
:1046A000CDF900E068E05146039002F0C7F9834677
:1046B000049901F0C3FF059001F094FFCDE90601D4
:1046C000DDE90823FEF7A2FB4FF066322C4BCDE963
:1046D0000A0101F077FCCDE90C0101F0C7F928606F
:1046E0005146504602F0AAF949460490484602F065
:1046F000A5F941460390404602F0A0F939460190E1
:10470000384602F09BF90090019901F097FF029062
:10471000039902F091FA8346049902F08DFA05900C
:1047200001F060FFCDE908015146384602F086F9F4
:1047300049460490404602F081F90390049901F043
:104740007DFF4FF08041059002F078F9834601F03B
:1047500049FFCDE90601DDE90823FEF757FB4FF0DD
:104760006632074BCDE90A0101F02CFCCDE90C01C2
:1047700001F07CF9306001E002200BE7002009E73E
:1047800066A64C4070B50024FDF7B0F800F024F99F
:10479000002840D1782000F02FFFC4B20CB10120D6
:1047A00070BD7820FFF7A4FEC4B20CB10220F7E779
:1047B000642000F0D3FEC4B20CB10320F0E7FEF792
:1047C000FBFDC4B20CB10420EAE71548FFF7CAFDAF
:1047D0000546FFF74BF8C4B20CB10520E0E740F204
:1047E0007310FEF791FCC4B20CB10620D8E7642028
:1047F000FEF76CFFC4B20CB10720D1E700F0A4FFB4
:1048000004460CB10820CBE7012000F0A3FDC4B2A0
:104810001CB10920C4E70A20C2E70020C0E700005D
:104820008C00002001461148407A30B1012807D0A1
:10483000022808D003280CD108E0022008700BE001
:104840000420087008E00820087005E010200870B7
:1048500002E04FF0FF30704700BF0448C07C18B141
:1048600008784006000E08700020F4E76000002081
:1048700001461348407A30B1012808D002280AD0F6
:10488000032810D10BE04FF4804008800EE041F681
:104890009C7008800AE04FF48050088006E04FF4D6
:1048A0000060088002E04FF0FF30704700BF04480E
:1048B000C07C10B10888401008800020F5E7000097
:1048C0006000002001460248007C0870002070470C
:1048D0006000002001460F48007A30B1012807D05F
:1048E000022809D003280FD10AE0FA2008800EE040
:1048F0004FF4FA7008800AE04FF47A70088006E0FE
:104900004FF4FA60088002E00020088000BF00BF7A
:10491000002070476000002001460E48007A30B148
:10492000012807D0022808D003280CD108E00A4843
:1049300008600BE00948086008E00948086005E0E5
:104940000848086002E04FF0FF30704700BF0020C9
:10495000FBE70000600000200000034300008342EA
:10496000333303423333834101461248C07A082867
:1049700017D2DFE800F01704070A0D101318BC2047
:10498000088013E06220088010E02A2008800DE0F3
:10499000142008800AE00A20088007E0052008802B
:1049A00004E000BF00BF0020088000BF00BF00205F
:1049B00070470000600000200146064890F824007F
:1049C00010B14FF0FF3070470248C08908800020C6
:1049D000F9E70000600000201CB580208DF8000081
:1049E000654A1268917C644A526810786B460122CD
:1049F000FDF7BFF910B14FF0FF301CBD6420FEF78A
:104A000019FB00208DF800005B4A1268917C5A4A1D
:104A1000526810786B460122FDF7ABF910B14FF0E8
:104A2000FF30EAE7544A1268917D534A5268107881
:104A30006B460622FDF7F7F810B14FF0FF30DCE7C8
:104A40009DF80500C007400F9DF8031001F001011B
:104A500040EA41009DF8011001F0010140EA010423
:104A600094B1012C03D101214348C17431E0022CDF
:104A700003D100214048C1742BE021463FA0FBF741
:104A8000FBFB4FF0FF30B8E73B4A1268D1783A4A57
:104A9000526810786B460122FDF7C5F810B14FF04F
:104AA000FF30AAE79DF8000000F00F042CB93D4844
:104AB000FBF7E2FB4FF0FF309FE7042C06D13AA052
:104AC000FBF7DAFB01212C48C17402E000212A48DF
:104AD000C174FF2128488172FF2027490872FF21F5
:104AE00025484172C1724FF6FF71C181FF210174E7
:104AF00081740121017380F82210002180F82310B5
:104B0000417501751630016041608160163880F88A
:104B1000241080F82510C1844FF4FA6000F062FC84
:104B200010B14FF0FF3068E7022000F02BFB10B10E
:104B30004FF0FF3061E72A2000F0CEFC10B14FF0BB
:104B4000FF305AE7322000F009FD10B14FF0FF307E
:104B500053E70020FFF7CCFC10B14FF0FF304CE7DB
:104B6000002000F051FB10B14FF0FF3045E700206E
:104B700000F042FD002040E760000020556E737594
:104B800070706F7274656420736F6674776172659C
:104B90002070726F64756374207265762025642EB0
:104BA0000A000000F47B000848616C662073656EA3
:104BB0007369746976697479207061727420666FA4
:104BC000756E642E0A0000002DE9F04385B005469D
:104BD0000E4690469946294890F8250020B14FF09E
:104BE000FF3005B0BDE8F08316B94FF0FF30F8E7AD
:104BF000002423E0281B102801DD102000E0281BE2
:104C000087B232193946204600F05EFD10B14FF0F0
:104C1000FF30E6E701AA3946204600F001F910B15D
:104C20004FF0FF30DDE730193A4601A9FBF708FCE9
:104C300010B16FF00100D4E7E01984B2AC42D9DBC7
:104C40004FEA28208DF8000008F0FF008DF80100E1
:104C50000A4A1268917E094A526810786B4602220D
:104C6000FDF787F810B14FF0FF30BAE70121034894
:104C700080F82510A0F826900020B2E76000002000
:104C800038B50446282C02DD4FF0FF3038BDDCB9C2
:104C9000002000F0EBFB00208DF8000007208DF8CD
:104CA00001002E4A1268917C2C4A526810786B469B
:104CB0000222FDF75EF810B14FF0FF30E6E7002169
:104CC000264801750020E1E7012000F0CFFB2020FD
:104CD0008DF80000012C06D100208DF80100052080
:104CE00000F0FAFB17E0052C06DC01208DF801002E
:104CF000052000F0F1FB0EE0142C06DC02208DF8FC
:104D000001000A2000F0E8FB05E003208DF8010017
:104D1000142000F0E1FB9DF80100072101EB801059
:104D2000C0B28DF801000D4A1268917C0B4A52689E
:104D300010786B460222FDF71CF810B14FF0FF30DF
:104D4000A4E7082105488172002101730121017542
:104D50000020FFF7CDFB002098E700006000002056
:104D6000F8B504460F4616462C4890F8240010B9B2
:104D70004FF0FF30F8BD2948807A10B94FF0FF306E
:104D8000F8E7264A1268917A244A526810786B46EE
:104D90000222FCF748FF10B14FF0FF30EAE79DF820
:104DA00001009DF8001040EA0125A54203DA002029
:104DB0003070401EDEE7194840684088B5EB600F50
:104DC00017DD164A1268517C144A526810786B46F7
:104DD0000122FCF728FF10B14FF0FF30CAE79DF821
:104DE000000000F0100020B100F05AF86FF0010050
:104DF000C0E7E2B2094B1B68D97A084B5B681878A8
:104E00003B46FCF710FF10B14FF0FF30B2E795FBC7
:104E1000F4F0401E30700020ACE70000600000207D
:104E2000F8B504460D46164616B94FF0FF30F8BDEA
:104E30001A48807A10B94FF0FF30F8E720128DF849
:104E40000000E0B28DF801009DF8010028441349EC
:104E500049684989884202DD4FF0FF30E7E70F4A91
:104E60001268117E0D4A526810786B460222FCF7D8
:104E700080FF10B14FF0FF30D9E7EAB2074B1B6853
:104E8000597D064B5B6818783346FCF7CCFE10B1B1
:104E90004FF0FF30CBE70020C9E7000060000020A2
:104EA00008B57048807A10B94FF0FF3008BD002077
:104EB00000906C4A1268D17B6A4A526810786B463F
:104EC0000122FCF756FF10B14FF0FF30EEE7654AC4
:104ED00012685179634A526810786B460122FCF7D8
:104EE00048FF10B14FF0FF30E0E75E4A12681179D9
:104EF0005C4A526810786B460122FCF73AFF10B109
:104F00004FF0FF30D2E7574890F82400002853D0E4
:104F10000C200090534A12681179524A5268107856
:104F20006B460122FCF725FF10B14FF0FF30BDE7C3
:104F30003220FEF77FF8C02000904A48807A00F0C7
:104F4000010020B19DF8000040F020000090454A8B
:104F500012681179434A526810786B460122FCF7B7
:104F600008FF10B14FF0FF30A0E73E48407C10B181
:104F70000220009001E0002000903A4A1268D17BA4
:104F8000384A526810786B460122FCF7F2FE10B1E5
:104F90004FF0FF308AE700200090324A12685179C2
:104FA000304A526810786B460122FCF7E2FE002876
:104FB00055D04FF0FF3079E704200090294A12685D
:104FC0001179284A526810786B460122FCF7D1FE0D
:104FD00010B14FF0FF3069E72248807C20B92148AA
:104FE000807A00F0010010B94020009001E06020BC
:104FF00000901C4A126811791A4A526810786B4660
:105000000122FCF7B6FE10B14FF0FF304EE7322020
:10501000FEF710F81348407C10B10120009001E029
:10502000002000900F4A1268D17B0E4A5268107817
:105030006B460122FCF79DFE10B14FF0FF3035E7C3
:10504000084A12685179074A52681078054B1033A4
:105050000122FCF78EFE10B14FF0FF3026E7002052
:1050600024E70000600000202DE9F04F8DB083465A
:105070000F4602200C90424890F8240020B10020F6
:1050800000F068F9012600E0002603A8FFF722FCE3
:1050900005A8FFF7C7FB01A8FFF766FC02A8FFF70A
:1050A0008BFC374890F80AA004A8FFF70BFC0024FB
:1050B00007E0002239465846FEF74AFE00B902E0F2
:1050C000641C022CF5DB00BF022C01D1002528E076
:1050D000002407E0012206A909A8FEF739FE00B95D
:1050E00002E0641C022CF5DB00BF022C01D100257C
:1050F00017E006A93846FDF7EDFB00F0FF0809A907
:105100005846FFF75DF800F0FF090025B9F1000FE0
:1051100001D145F00105B8F1000F01D145F00205BC
:1051200000BFFF2016490872FF2115484172C17265
:105130004FF6FF71C181FF2181720174012101735A
:10514000BDF80C0000F04EF99DF8140000F01AF8BC
:10515000BDF8040000F0C0F9BDF8080000F0FEF949
:10516000504600F049FA9DF81000FFF7C1F916B15A
:10517000012000F0EFF828460DB0BDE8F08F0000E8
:105180006000002038B504461E48807A10B94FF000
:10519000FF3038BD022C06D0042C07D0082C08D0D4
:1051A000102C0CD108E0002000900BE008200090AB
:1051B00008E01020009005E01820009002E04FF079
:1051C000FF30E6E700BF0F48407A9DF80010B0EBD3
:1051D000E10F01D10020DCE70A4A1268D179094ABF
:1051E000526810786B460122FCF7C3FD10B14FF0F6
:1051F000FF30CEE79DF80000C11002484172002048
:10520000C7E700006000002038B504465048807CA5
:10521000A04201D1002038BD002C46D04C4A126873
:1052200011794B4A526810786B460122FCF7FBFC5F
:1052300010B14FF0FF30EEE79DF8000020F02000A5
:105240000090434A12681179414A526810786B46BF
:105250000122FCF78EFD10B14FF0FF30DBE7032099
:10526000FDF7E8FE02200090394890F8220020B1B6
:105270009DF8000040F080000090354890F8230031
:1052800020B19DF8000040F030000090304A1268D4
:10529000117D2F4A526810786B460122FCF769FD98
:1052A000002851D04FF0FF30B5E7294A1268117934
:1052B000274A526810786B460122FCF7B4FC10B103
:1052C0004FF0FF30A7E72248807A00F0010028B1B4
:1052D0009DF8000040F02000009004E09DF80000E0
:1052E00020F0200000901A4A12681179184A52687A
:1052F00010786B460122FCF73CFD10B14FF0FF30F7
:1053000089E70320FDF796FE114890F8220010B1BE
:105310008020009001E0002000900D4890F82300CC
:1053200020B19DF8000040F030000090084A12685B
:10533000117D074A526810786B460122FCF719FD6F
:1053400010B14FF0FF3066E701488474002062E737
:105350006000002038B50446214890F82400A0429F
:1053600001D1002038BD24B31D4890F8250010B9A4
:105370004FF0FF30F6E7002000F030FA0020FFF792
:1053800043FF1749C88C00F0E9F800200090144949
:10539000496808786B4601222321FCF7EAFC0121C9
:1053A0000F4880F82410012000F018FAFFF778FD6C
:1053B00013E0002000F012FA0948007C0090084930
:1053C000496808786B4601222321FCF7D2FC0021B2
:1053D000034880F82410FFF763FD0020C2E70000B7
:1053E0006000002038B504461F48807A10B94FF09D
:1053F000FF3038BDFA2C09D0B4F5FA7F09D0B4F5E6
:105400007A7F09D0B4F5FA6F0CD108E00020009043
:105410000BE00820009008E01020009005E0182024
:10542000009002E04FF0FF30E3E700BF0E48007A43
:105430009DF80010B0EBE10F01D10020D9E70A4A36
:1054400012689179084A526810786B460122FCF77D
:1054500090FC10B14FF0FF30CBE79DF80000C0107A
:10546000014908720020C4E76000002038B50446F6
:10547000184890F82300A04201D1002038BD14B193
:105480003020009001E0002000901248807C20B184
:105490009DF8000040F0020000900E4890F82200B5
:1054A00020B19DF8000040F080000090094A126889
:1054B000117D084A526810786B460122FCF759FCAE
:1054C00010B14FF0FF30D9E7024880F823400020A8
:1054D000D4E700006000002038B504461E48807AFA
:1054E00010B94FF0FF3038BDBC2C02DB012000901A
:1054F00015E0622C02DB0220009010E02A2C02DB77
:10550000032000900BE0142C02DB0420009006E046
:105510000A2C02DB0520009001E0062000900E48D6
:10552000C07A9DF80010884201D10020DBE70A4ACA
:1055300012689178084A526810786B460122FCF78D
:1055400018FC10B14FF0FF30CDE79DF80010024875
:10555000C1720020C7E700006000002038B5044693
:105560002448807A10B94FF0FF3038BD214890F8B8
:10557000240010B14FF0FF30F7E71E48007D50B116
:1055800034B1282C04DCE0B2FFF77AFB0020ECE712
:105590000020FFF775FB042C01DA042404E0B4F5C5
:1055A0007A7F01DD4FF47A744FF47A7090FBF4F057
:1055B000401EC0B200900F4A126851780D4A5268DE
:1055C00010786B460122FCF7D4FB10B14FF0FF308E
:1055D000CBE79DF80000401C4FF47A7191FBF0F08E
:1055E00081B20448C1810146C9894810FFF774FFA0
:1055F0000020BAE76000002038B5044604F07000CF
:1056000010B10120009005E014B10020009001E0ED
:10561000402000902B4A1268917C2A4A52681078E8
:105620006B460122FCF7A5FB20B1002125488172C1
:10563000481E38BD9DF8000020F04001214801734C
:105640000020009004F0400020B99DF8000040F0D8
:105650000400009004F0200020B99DF8000040F004
:105660000200009004F0100020B99DF8000040F006
:105670000100009004F0080020B99DF8000040F0FF
:10568000380000900F4A1268D17C0E4A5268107898
:105690006B460122FCF76DFB20B1002109488172A5
:1056A000481EC6E724B1082C02D00020FFF7DEFE1A
:1056B00004488472002101753220FDF7BBFC0020F4
:1056C000B7E7000060000020F8B504460D46164616
:1056D00016B94FF0FF30F8BD1A48807A10B94FF074
:1056E000FF30F8E720128DF80000E0B28DF80100DD
:1056F0009DF801002844134949684989884202DD20
:105700004FF0FF30E7E70F4A1268117E0D4A5268EA
:1057100010786B460222FCF72CFB10B14FF0FF30E3
:10572000D9E7EAB2074B1B68597D064B5B681878CE
:105730003346FCF71EFB10B14FF0FF30CBE70020E3
:10574000C9E700006000002070B588B002A905A874
:10575000FFF78AFC0446032C3ED101A8FFF7DCF8D2
:10576000059801F00BF90646019901F067F9054625
:1057700001F0C8F80590069801F000F90646019975
:1057800001F05CF9054601F0BDF80690079801F0BC
:10579000F5F80646019901F051F9054601F0B2F815
:1057A000079005A8FDF7CAFF6846FFF761F8BDF846
:1057B0000010029848430290BDF800100398484337
:1057C0000390BDF8001004984843049002A8FDF728
:1057D000E5FE002008B070BD0120FBE738B50446A7
:1057E000214890F82400C0B114B10220009001E0DB
:1057F000002000901C4A1268D17B1B4A5268107826
:105800006B460122FCF7B5FA10B14FF0FF3038BDFE
:105810009DF800101448417423E01348807A10B9B1
:105820004FF0FF30F3E724B10F48407C08B100206F
:10583000EDE714B10120009001E0002000900A4A39
:105840001268D17B084A526810786B460122FCF737
:1058500090FA10B14FF0FF30D9E79DF800100248E0
:1058600041740020D3E7000060000020014606E0FC
:10587000002002E000BF421CD0B26428FADB0A001C
:10588000A1F10103D9B2F3D170472DE9F0410646E9
:105890000F4600F0D7FC04000D4618BF0120284336
:1058A00020F00040C0F17F6000F1E040C00F0ED05A
:1058B000301C18BF0120384320F00040C0F17F6049
:1058C00000F1E040C00F04BF0120FAF76DFE204652
:1058D0002946BDE8F08100002DE9FF5F0024FCF7B8
:1058E00009FD8020FCF7A4FBF320FCF7A1FB00BF1F
:1058F0001420FFF7BBFFFCF7FDFC8120FCF758FBF1
:105900000546012DF4D01420FFF7B0FF1420FFF757
:10591000ADFFFCF7CBFB82461420FFF7A7FFFCF797
:10592000C5FB8346FCF7E0FB44EA0A000BEB0024CE
:105930004FF6FC700440204600F0F5FA104A114B77
:10594000CDE9020100F03EFB074600F08FF88146EA
:10595000484600F047FE074600220B4B00F058FD7A
:1059600000220A4BCDE9000100F06EF9CDE90201F9
:1059700000F07CF80646304604B0BDE8F09F000019
:10598000C0B2D2A414749B3F00487D400000244064
:1059900010B50024FFF7A0FF0446204610BD00000C
:1059A00010B586B00446012144F20400FCF768FA01
:1059B0004FF40070ADF8140003208DF81600182085
:1059C0008DF8170005A91C48FBF7FCFD4FF480601B
:1059D000ADF8140004208DF8170005A91648FBF750
:1059E000F1FD25208DF8000003208DF801008DF8D1
:1059F000020001208DF803006846FCF7EDF90194E0
:105A00000020ADF80800ADF80A00ADF80C00ADF8C4
:105A100010000C20ADF80E0001A90848FCF760FE4C
:105A2000012240F225510548FCF734FE01210348CC
:105A3000FCF7FAFD06B010BD000801400038014037
:105A400010B500290AD00878002807D00548784406
:105A5000FBF7BAF9002801D0002010BD02487844B5
:105A600010BD0000162200000E22000021F00042AE
:105A7000A2F16052B2F5801F01F0004328BFD2F1BD
:105A80007F6C0BD95FEA001C43EAC20242EB507004
:105A900018BF704728BF20F001007047B2F5801F83
:105AA000BCBF184670474FEA410C1CF5001F02D2DC
:105AB000084601F08AB870B500F02EFB000000899E
:105AC000FFF7F6BF4FF00040A0F5800070470000E0
:105AD00010B591EA030F48BF83F0004300F1A084A2
