:020000040800F2
:1000000068070020D5010008D9120008E50B000898
:10001000FD110008E5070008E322000800000000C9
:100020000000000000000000000000002D16000885
:10003000C508000800000000C5140008D517000816
:10004000EF010008EF010008EF010008EF010008D0
:10005000EF010008EF010008EF010008EF010008C0
:10006000EF010008EF010008EF010008EF010008B0
:10007000EF010008EF010008EF010008EF010008A0
:10008000EF010008EF010008EF010008EF01000890
:10009000EF010008EF010008EF010008EF01000880
:1000A000EF010008EF010008EF010008EF01000870
:1000B000791A00084D1B0008211C0008EF010008F8
:1000C000EF010008EF010008EF010008EF01000850
:1000D000EF0100089D200008EF010008EF01000873
:1000E000EF010008EF010008EF010008EF01000830
:1000F000EF010008EF010008EF010008EF01000820
:10010000EF010008EF010008EF010008EF0100080F
:10011000EF010008EF010008EF010008EF010008FF
:10012000EF010008EF010008EF010008EF010008EF
:1001300000F002F800F03FF80AA090E8000C8244BA
:100140008344AAF10107DA4501D100F034F8AFF297
:10015000090EBAE80F0013F0010F18BFFB1A43F0A5
:10016000010318471C7300003C730000103A24BFC1
:1001700078C878C1FAD8520724BF30C830C144BF0C
:1001800004680C607047000000230024002500264E
:10019000103A28BF78C1FBD8520728BF30C148BFEA
:1001A0000B607047642900F06780002070471FB51E
:1001B0001FBD10B510BD00F0CAFA1146FFF7F7FFDA
:1001C00003F08AFE00F0E8FA03B4FFF7F2FF03BC85
:1001D00002F045F90948804709480047FEE7FEE775
:1001E000FEE7FEE7FEE7FEE7FEE7FEE7FEE7FEE7E7
:1001F00004480549054A064B70470000D917000816
:100200003101000868010020680700206803002011
:1002100068030020704710B54C1084EA530404D5DD
:100220004042C1F1000138BF491E1B4204D5524271
:10023000C3F1000338BF5B1E00F02EF914F0804FAD
:1002400004D04042C1F1000138BF491E14F0004FF4
:1002500004D05242C3F1000338BF5B1E10BD000042
:100260000FB4044910B503AA029800F0F1F910BCCC
:100270005DF814FB300000202DE9F0410646002413
:1002800010687529314616A510D0AFF300800028FC
:1002900002DA404213A507E031688A0701D512A5AA
:1002A00002E0490704D511A5012401E0AFF3008065
:1002B00000210A2206F1240709E0B0FBF2FCB0FBA2
:1002C000F2F302FB1C00303078541846491C002819
:1002D000F3D123462A463046BDE8F04100F05EB92E
:1002E000000000002D0000002B0000002000000096
:1002F0002DE9F05F894604464FF0000ADFF824B18B
:10030000FB44C0F820A02046E168884700287DD043
:10031000252806D0D4E901219047206A401C20629C
:10032000F1E700255F462046E16888472028064619
:1003300007DB312E05D2B81910F8200C08B105439F
:10034000F1E7A80701D525F00405C4F81CA0002793
:10035000C4F818A02A2E09D0304602F079F838B334
:1003600004EB8708303EC8F8186019E059F8041B00
:10037000204604EB87029161E1688847012F064619
:1003800018D1E069002820DA25F020051DE0D8F812
:10039000180000EB800006EB40003038C8F8180069
:1003A0002046E1688847064602F052F80028EED160
:1003B000012F0AD02E2E08D12046E16888477F1CE5
:1003C0000646022F45F02005C4DBA069002803DAA9
:1003D000404245F00105A061E80701D025F0100575
:1003E000A6B1A6F14100192802D8203645F40065CF
:1003F0004A463146204625604D46FFF7D3FE60B1A0
:10040000012807D0ED1D25F0070000E007E000F10E
:10041000080978E705F1040975E730467AE7206AAC
:10042000BDE8F09F2670000040EA010310B59B076D
:100430000FD1042A0DD310C808C9121F9C42F8D04E
:1004400020BA19BA884201D9012010BD4FF0FF30FF
:1004500010BD1AB1D30703D0521C07E0002010BD15
:1004600010F8013B11F8014B1B1B07D110F8013BA1
:1004700011F8014B1B1B01D1921EF1D1184610BD82
:1004800002F0FF0343EA032242EA024200F0F4B81A
:10049000704770477047704753EA020C00F069805C
:1004A0002DE9F04B4FF00006002B1FBFB3FA83F588
:1004B00003FA05F424FA05F65E4012BF1643B2FAB9
:1004C00082F502FA05F4C5F120051EBF22FA05FCEB
:1004D00044EA0C04203556EA044C4FEA144418BF91
:1004E000641C4FF000084FF00009904271EB030CC0
:1004F00039D3002919BFB1FA81F701FA07F6B0FA2A
:1005000080F700FA07F6C7F120071EBF20FA07FCA4
:1005100046EA0C062037B6FBF4FCA7EB0507103FB4
:1005200007F01F0BCBF120060CFA0BFB2CFA06F69A
:1005300044BFB3460026202FA4BF5E464FF0000BF9
:100540005BEA060C08BF4FF0010B19EB0B09ABFB84
:10055000027C48EB0608C01B06FB02CC0BFB03CC5D
:1005600071EB0C01C1E70B46024641464846BDE827
:10057000F08B13B54FF000004FF00001AFF3008097
:10058000BDE81C40704710B500F09AF8006810BD37
:1005900010B5044600F094F8046010BD2DE9F04752
:1005A0000D4699469246044600F1240801688806E3
:1005B00004D5E06921F01001216000E00120A8428B
:1005C00001DD471B00E00027A1697A1902EB090051
:1005D000081AA0612078C00602D42046AFF300803C
:1005E000002608E0D4E901211AF806009047206AA5
:1005F000401C761C20624E45F4DB2078C0060AD5EC
:100600002046AFF3008006E0D4E901213020904776
:10061000206A401C2062381EA7F10107F4DC07E0C5
:10062000D4E9012118F805009047206A401C206297
:10063000281EA5F10105F3DC2046AFF300802078E9
:10064000000602D50220BDE8F0870120FBE700008C
:10065000074B70B50D467B4400F03BF80446284636
:1006600000F04AF810B14FF0FF3070BD204670BD69
:10067000B73100004FF000020429C0F0128010F0E2
:10068000030C00F03F80CCF1040CBCF1020F18BF4A
:1006900000F8012BA8BF20F8022BA1EB0C0100F001
:1006A00031B85FEAC17C24BF00F8012B00F8012BB0
:1006B00048BF00F8012B7047004870470801002030
:1006C000004870470801002001694A1C026108784F
:1006D000704700B58FB0CDE9013100210591054982
:1006E0007944CDE9031011466846FFF701FE0FB0CB
:1006F00000BD0000E5FFFFFF007B00F080007047B9
:100700004FF0000200B5134694469646203922BFAA
:10071000A0E80C50A0E80C50B1F12001BFF4F7AFF5
:10072000090728BFA0E80C5048BF0CC05DF804EBD7
:10073000890028BF40F8042B08BF704748BF20F845
:10074000022B11F0804F18BF00F8012B704775463F
:10075000FFF7B2FFAE4605006946534620F007009A
:10076000854618B020B5FFF743FDBDE820404FF0A7
:1007700000064FF000074FF000084FF0000B21F08B
:100780000701AC46ACE8C009ACE8C009ACE8C00958
:10079000ACE8C0098D4670470446AFF300802046A0
:1007A000FFF712FD2DE9F05F04460D461646304670
:1007B000A16805F0ABFD82460949284605F0A4FE74
:1007C0008346216805F0A2FD8146514605F09EFB57
:1007D000804605F0FFFC07463846BDE8F09F000064
:1007E0000000404000BFFEE72DE9FC4105460F46F2
:1007F000144627482749284B284ACDE900102849A4
:10080000284800F0D3F9022000F0E8FE40422649D3
:100810000860042000F0E2FE244908601F48B0F997
:10082000000005F013FD064632461E4801682046CA
:10083000FFF7B8FF1E4908601C4802681A480168A3
:10084000284600F091FD1B490860194800680968B6
:10085000401A194909680844184908601448006892
:1008600014490968401A14490968401A1449086073
:1008700001F03AFD0B48006801F0E4FB28B910488C
:1008800001680E48006800F047FFBDE8FC810000E9
:100890001600002012000020100000200C00002094
:1008A0000800002004000020980000209C00002088
:1008B000A8000020AC000020B0000020A000002014
:1008C000A40000207047000000B587B00121084651
:1008D00000F0FAFD0121042000F006FE0320ADF82F
:1008E000000004208DF8030069461E4800F08AF8D5
:1008F00004A801F09DFB0020ADF810004FF6FF703A
:10090000ADF814000020ADF81600ADF8120004A9EF
:100910004FF0804001F03AFB00231A4603214FF0CC
:10092000804001F0B6F901A801F03EFA0A20ADF8C6
:100930000C0001A9400701F0E1F90121880701F04D
:1009400087F901221146900701F037FA00214FF094
:10095000804001F0EDFA0121880701F07FF907B02E
:1009600000BD00000008014000B587B0012104204F
:1009700000F0AAFD0121082000F0B6FDC020ADF86E
:10098000000004208DF8030069461C4800F03AF886
:1009900004A801F04DFB0020ADF810004FF6FF70E9
:1009A000ADF814000020ADF81600ADF8120004A94F
:1009B000134801F0EBFA00231A460321104801F016
:1009C00068F901A801F0F0F90A20ADF80C0001A9BE
:1009D0000B4801F093F90121094801F039F901228E
:1009E0001146074801F0E9F90021054801F0A0FA95
:1009F0000121034801F032F907B000BD000C0140AD
:100A0000000800402DE9F0410246002500260020A4
:100A100000230024002791F803C00CF00F0591F883
:100A200003C00CF0100CBCF1000F03D091F802C011
:100A30004CEA050591F800C0BCF1000F31D01468F4
:100A400000202BE04FF0010C0CFA00F3B1F800C0CD
:100A50000CEA03069E4220D183004FF00F0C0CFAE3
:100A600003F7BC4305FA03FC4CEA040491F803C005
:100A7000BCF1280F06D14FF0010C0CFA00FCC2F8B3
:100A800014C00AE091F803C0BCF1480F05D14FF043
:100A9000010C0CFA00FCC2F810C0401C0828D1D38D
:100AA0001460B1F800C0BCF1FF0F34DD54680020C1
:100AB0002EE000F1080C4FF0010808FA0CF3B1F831
:100AC00000C00CEA03069E4221D183004FF00F0CB8
:100AD0000CFA03F7BC4305FA03FC4CEA040491F852
:100AE00003C0BCF1280F05D100F1080C08FA0CF87E
:100AF000C2F8148091F803C0BCF1480F07D100F18F
:100B0000080C4FF0010808FA0CF8C2F81080401CDD
:100B10000828CED35460BDE8F0810000F0B50A4645
:100B2000002300240021002500F00046B6F1004F0C
:100B300002D11D4EF16901E01B4E7168C0F30345FF
:100B400083B200F44016B6F5401F08D121F0706161
:100B5000154E766826F07066134F7E6012E000F442
:100B60008016B6F5801F06D1032606FA05F4A143C8
:100B700041F0706106E0460D360103FA06F6B14316
:100B800041F0706122B1460D360103FA06F6314399
:100B900000F00046B6F1004F02D1034EF16101E0D2
:100BA000014E7160F0BD0000000001402DE9FE43E0
:100BB00004460D4616461F46DDE90A8909E04A4605
:100BC0006946404600F04CF83A4601A9304600F02C
:100BD0006FF82A46214602A803F016FA0028EED044
:100BE000BDE8FE8300BFFEE708B50121042000F048
:100BF0007BFC4FF41040ADF8000010208DF803008E
:100C000003208DF8020069461148FFF7FBFE012121
:100C10001048FFF783FF01200F4908600F49C1F812
:100C2000BC014FF47A7001F0CDFF00200A49086042
:100C30000A49C1F8BC014FF47A7001F0C3FF0120EA
:100C40000549086000200549C1F8BC0108BD000045
:100C50000008014000023000B001214200002142A2
:100C60002DE9FC4104460D4616466B4606223B2103
:100C7000682000F0EDF90746BFB99DF801009DF826
:100C8000001040EA012000B220809DF803009DF88A
:100C9000021040EA012000B228809DF805009DF86E
:100CA000041040EA012000B230803846BDE8FC81E3
:100CB0002DE9FC4104460D4616466B4606224321AB
:100CC000682000F0C5F90746BFB99DF801009DF8FE
:100CD000001040EA012000B220809DF803009DF83A
:100CE000021040EA012000B228809DF805009DF81E
:100CF000041040EA012000B230803846BDE8FC8193
:100D000010B500200E4908600E48006820F0F00081
:100D10000C4908600846006840F030000860002078
:100D20000949C1F8A40100F011F801200449086044
:100D300000F00CF800200449C1F8A00110BD00002B
:100D4000A0812142040C01400080214210B5022004
:100D500001F05EFF10BD000008B50121082000F081
:100D6000C3FB4FF44070ADF8000010208DF8030075
:100D700003208DF8020069460148FFF743FE08BDD5
:100D8000000C014010B500200E4908600E480068B4
:100D900020F0F0000C4908600846006840F0300080
:100DA000086001200949C1F8A401FFF7CFFF012025
:100DB00004490860FFF7CAFF00200449C1F8A001F8
:100DC00010BD0000A0812142040C0140008021429E
:100DD00070B5054600241648006820F0F00014495C
:100DE00008600846006840F080000860002614E0B3
:100DF000002010490860FFF7A9FF01200E49C1F843
:100E0000A0016006040E0B487C38006808B1601C25
:100E1000C4B2FFF79BFF701CC6B2082EE8DB15B901
:100E2000FFF7B0FF01E0FFF76BFF204670BD000049
:100E3000040C0140A08121420080214270B504468B
:100E40001248006820F0F000104908600846006869
:100E500040F03000086000200D490860002512E0D5
:100E6000E0090B49091D08606006040E01200949CC
:100E7000C1F8A001FFF76AFF002005490860FFF7ED
:100E800065FF681CC5B2082DEADB70BD040C01408B
:100E9000A08121420080214210B50E48006820F058
:100EA000F0000C4908600846006840F03000086017
:100EB0000120094908600949C1F8A001FFF746FF70
:100EC000002005490860FFF741FF00200349C1F8F1
:100ED000A00110BD040C0140A481214200802142E8
:100EE00010B50E48006820F0F0000C490860084674
:100EF000006840F030000860002009490860094996
:100F0000C1F8A401FFF722FF012005490860054947
:100F1000C1F8A401FFF71AFF10BD0000040C014046
:100F2000A08121420080214210B5002414480068AD
:100F300020F0F000124908600846006840F0800088
:100F4000086001200F490860FFF700FF01200E49EB
:100F5000C1F8A001FFF7FAFE07E0601CC4B2FA2C4A
:100F600003DDFFF7BDFF012010BD06488038006893
:100F70000028F2D10349091F086000BFF4E7000010
:100F8000040C0140A48121420080214210B50121BE
:100F9000084600F0A9FA0121042000F0A5FAFFF7A5
:100FA000DBFE80216B2000F0D7F8642001F00AFE00
:100FB00000216B2000F0D0F8032000F08BF8002017
:100FC00000F080F8322000F0AAF80021382000F06C
:100FD000C3F800216A2000F0BFF80021232000F0B0
:100FE000BBF88021372000F0B7F8752000F013F827
:100FF0000446682C0BD101216B2000F0ADF80021D4
:101000006C2000F0A9F8322000F089F801E00120FE
:1010100010BD0020FCE770B50446FFF73DFFD0206F
:10102000FFF70CFFFFF780FF2046FFF707FFFFF7F2
:101030007BFFFFF731FFD120FFF700FFFFF774FFC1
:101040000020FFF7C5FE0546FFF74AFF284670BDA2
:101050002DE9F04106460F4614461D46FFF71CFFDA
:10106000002141EA4601C8B2FFF7E8FEFFF75CFF46
:1010700020B1FFF735FF0120BDE8F0813846FFF7CA
:10108000DDFEFFF751FFFFF707FF012101EB4601EE
:10109000C8B2FFF7D3FEFFF747FF0DE0012C04D1E4
:1010A0000020FFF795FE287003E00120FFF790FE77
:1010B0002870601EC4B26D1C002CEFD1FFF710FF2A
:1010C0000020D9E710B50446E006010E1C2000F010
:1010D00043F810BD10B50446E006010E1B2000F0D9
:1010E0003BF810BD70B504460025BC2C01DB012582
:1010F00010E0622C01DB02250CE02A2C01DB032529
:1011000008E0142C01DB042504E00A2C01DB052592
:1011100000E0062529461A2000F01EF870BD70B5C3
:101120000446B4F57A7F01DD4FF47A74042C00DABA
:1011300004244FF47A7090FBF4F0401EC5B22946A7
:10114000192000F009F80546264604EBD671C1F3D4
:101150004F00FFF7C7FF70BD70B505460C46FFF79F
:101160009BFED020FFF76AFEFFF7DEFE18B1FFF707
:10117000B7FE012070BD2846FFF760FEFFF7D4FEE2
:101180002046FFF75BFEFFF7CFFE18B1FFF7A8FE82
:101190000120EFE7FFF7A4FE0020EBE72DE9F04187
:1011A00005460E4617469846FFF776FE002141EAAF
:1011B0004501C8B2FFF742FEFFF7B6FE20B1FFF7C8
:1011C0008FFE0120BDE8F0813046FFF737FEFFF7C4
:1011D000ABFE00240CE018F80400FFF72FFEFFF729
:1011E000A3FE18B1FFF77CFE0120EBE7601CC4B240
:1011F000BC42F0DBFFF774FE0020E3E700BFFEE730
:1012000008B50121082000F06FF94FF47040ADF8E7
:10121000000010208DF8030003208DF802006946BD
:101220000148FFF7EFFB08BD000C014030B589B065
:1012300005460C46FFF7E4FF0121C80200F054F90F
:101240000121042000F050F94FF41060ADF82000A7
:1012500018208DF8230003208DF8220008A91C48CF
:10126000FFF7D0FBADF81850ADF814400020ADF8F2
:101270001A00ADF8160005A9164800F087FE602098
:10128000ADF804000120ADF806000020ADF80A001A
:10129000ADF80C0001A90F4800F098FD01A90D4818
:1012A00000F0F6FD01210B4800F0E4FC082109489C
:1012B00000F0D8FD0821074800F028FE012105486C
:1012C00000F0BAFC0121034800F0C8FC09B030BDB1
:1012D00000080140002C01407047000070B500215B
:1012E00000230F22C47804B3154C246804F4E0648E
:1012F000C4F5E064210AC1F10403CA40447804FA49
:1013000003F184781440214309010E4C0678A1555D
:10131000047804F01F050124AC4005786D11AD0080
:1013200005F1E025C5F8004109E0047804F01F0547
:101330000124AC40044D0678761145F8264070BD76
:101340000CED00E000E400E080E100E00249014330
:10135000024A1160704700000000FA050CED00E041
:1013600001608360426070472DE9FF47044689466B
:1013700092464548006818B144484549086002E073
:1013800044484349086044480068012804D1404863
:101390000068424908600DE03F480068401C30B9D1
:1013A0003B48006880F000403C49086002E00020B3
:1013B0003A49086009EB0A01084604F047FF38493A
:1013C00008603848006804F075FD0746364A374B18
:1013D00004F096FA054604F013F8324908603048E4
:1013E000006804F067FD05462F4A314B04F088FA87
:1013F000074688462B48006804F05CFD3A464346A1
:10140000CDE9000104F02EF8CDE9020103F0F8FF68
:1014100024490860084601682648006804F076FD03
:10142000244908601D4801682248006805F06CF8EE
:101430002049086020491F48006805F033F802D2AF
:101440001D481C4908601D491A48006804F02AFF1D
:1014500002D21A481749086016486168006804F00B
:1014600055FF05460F482168006804F04FFF064607
:10147000294604F04BFD124908600846006804F054
:10148000A9FE04B0BDE8F0878800002000003442C7
:10149000C80000200000E6428C000020C0000020B0
:1014A000B8000020BC0000209A9999999999E93FC9
:1014B0009999C93FC400002000401C4600401CC64A
:1014C000B40000207047000029B1064AD2690243E7
:1014D000044BDA6104E0034AD2698243014BDA61CA
:1014E000704700000010024029B1064A9269024389
:1014F000044B9A6104E0034A92698243014B9A616A
:10150000704700000010024030B500210022002486
:1015100000232D4D6D6805F00C0121B1042905D083
:10152000082923D105E0294D056022E0274D0560FB
:101530001FE0254D6D6805F47012234D6D6805F4AC
:101540008034022505EB92421CB9214D55430560BC
:101550000BE01D4D6D6805F400351DB11C4D554364
:10156000056002E0194D5543056002E0174D056026
:1015700000BF00BF144D6D6805F0F0010909154D5D
:101580006B5C0568DD4045600F4D6D6805F4E061FA
:10159000090A104D6B5C4568DD4085600A4D6D6839
:1015A00005F46051C90A0B4D6B5C4568DD40C560B0
:1015B000054D6D6805F44041890B074D6B5CC568AE
:1015C000B5FBF3F5056130BD0010024000127A0052
:1015D00000093D0036000020460000200146022997
:1015E00004D003290BD0042917D10FE04FF080421B
:1015F000928C10B200224FF080439A840FE0094A87
:10160000128810B20022074B1A8008E0064A12889E
:1016100010B20022044B1A8001E0002000BF00BF7E
:10162000704700002404004024080040704710B5B3
:1016300000F002F810BD00000CB5002001900090F1
:101640003348006840F480303149086000BF3048BA
:10165000006800F4003000900198401C0190009850
:1016600018B90198B0F5A06FF1D12948006800F4CD
:10167000003010B10120009001E00020009000989F
:10168000012843D12348006840F010002149086038
:101690000846006820F0030008600846006840F033
:1016A000020008601A4840681949486008464068C6
:1016B00048600846406840F48060486008464068DA
:1016C00020F47C1048600846406840F4E810486008
:1016D0000846006840F08070086000BF0C48006851
:1016E00000F000700028F9D00948406820F003009D
:1016F000074948600846406840F00200486000BF63
:101700000348406800F00C000828F9D10CBD000027
:1017100000100240002002402DE9F04105460C4631
:10172000002D07DA01201E49086000201D49C1F87C
:10173000B40106E000201A49086001201949C1F8E7
:10174000B401284604F0C5F821F00041064604F033
:1017500091F80546A9B2144800F0E5FB002C08DA20
:1017600001200F490831086000200E49C1F8BC0172
:1017700007E000200A490831086001200949C1F842
:10178000BC01204604F0A5F821F00041064604F013
:1017900071F80446A1B2044800F0C7FBBDE8F0812F
:1017A000B081214200802142002C0140042808D150
:1017B0004FF0E021096941F004014FF0E02211618E
:1017C00007E04FF0E021096921F004014FF0E02229
:1017D000116170477047000010B51348006840F071
:1017E00001001149086008464068104908400E4948
:1017F0004860084600680E4908400B4908600846E2
:10180000006820F4802008600846406820F4FE004C
:1018100048604FF41F008860FFF709FF4FF0006039
:101820000449086010BD0000001002400000FFF8ED
:10183000FFFFF6FE08ED00E0F0B50C46154600226D
:101840000021068C4FF6FE773E400684028B018C09
:101850004FF60C7632407E1C06EA03162E433243C6
:10186000104EB0420ED0104EB0420BD0B0F1804FAF
:1018700008D00E4EB04205D00D4EB04202D00D4EF3
:10188000B04206D14FF6FD76314044F001063143B7
:1018900005E04FF6F576314044F00106314302830E
:1018A0000184F0BD002C01400034014000040040E0
:1018B00000080040000C0040F0B50C461546002220
:1018C00000210026078C4FF6EF7C07EA0C070784FF
:1018D000028B018C4FF6FF7707EA041640F6FF47AC
:1018E0003A404FF6FF7707EA03373A434FF6FF7760
:1018F00007EA05273A43114FB8420ED0104FB842BD
:101900000BD0B0F1804F08D00E4FB84205D00E4F2B
:10191000B84202D00D4FB84206D14FF6DF773940BA
:1019200046F01007394305E04FF65F77394044F041
:101930001007394302830184F0BD0000002C0140F0
:10194000003401400004004000080040000C00404A
:10195000F0B50C461546002200210026078C4FF6F4
:10196000FF6C07EA0C070784828B018C4FF6FF7728
:1019700007EA04264FF60C773A404FF6FF7707EA5E
:1019800003172F433A43114FB8420ED0104FB842BD
:101990000BD0B0F1804F08D00E4FB84205D00E4F9B
:1019A000B84202D00D4FB84206D14FF6FF5739402A
:1019B00046F48077394305E04FF2FF57394044F44D
:1019C0008077394382830184F0BD0000002C014000
:1019D000003401400004004000080040000C0040BA
:1019E000F0B50C461546002200210026078C4EF665
:1019F000FF7C07EA0C070784828B018C4FF6FF7788
:101A000007EA043640F6FF473A404FF6FF7707EA09
:101A100005273A434FF6FF7707EA03373A43114F5A
:101A2000B8420ED0104FB8420BD0B0F1804F08D062
:101A30000E4FB84205D00E4FB84202D00D4FB842FB
:101A400006D14DF6FF77394046F48057394305E01B
:101A500047F6FF57394044F4805739438283018465
:101A6000F0BD0000002C01400034014000040040A3
:101A700000080040000C00404FF08040008A4FF00A
:101A80008040008A20F001004FF0804108827047BA
:101A900030B585B005460C4601210220FFF714FD44
:101AA00001210820FFF720FD0120ADF810002820BB
:101AB0008DF8130004A92248FEF7A4FF0220ADF818
:101AC000100010208DF8130002208DF8120004A9D8
:101AD0001B48FEF797FFADF80850ADF80440002012
:101AE000ADF80A00ADF8060001A9164800F04EFA5C
:101AF00008201549088000204880012088800020A7
:101B0000C88008810F4800F0F9F81D208DF800000A
:101B100002208DF8010000208DF8020001208DF8D0
:101B200003006846FFF7DAFB01220921054800F0AF
:101B300044F90121034800F091F805B030BD0000E0
:101B4000000C014000040040EC00002010B53048BB
:101B5000007800F08000002854D101212D4800F0C9
:101B6000BCF8D0B12A48007800F04000A8B128485D
:101B7000007800F03F003F280AD12548008840F057
:101B80008000234908804FF6FF702349088004E055
:101B90001F480088401C1E49088008211D4800F08D
:101BA0009CF878B31A48007800F0400078B11848E3
:101BB000008840F0800016490880184800F08AF834
:101BC000154908800021134800F055F91AE000205B
:101BD0000F490880104908800D48008840F04000F7
:101BE0000B49088000210B4800F038F80021094813
:101BF00000F09EF90221074800F03DF90121054857
:101C000000F02CF80921034800F025F810BD000071
:101C10004A000020000400404C000020000C00405E
:101C2000044800880348008820F00100014908802A
:101C3000704700001008004021B1028842F0800285
:101C4000028004E002884FF67F731A4002807047DA
:101C5000CA4302827047CA430282704721B1028898
:101C600042F00102028004E002884FF6FE731A403F
:101C70000280704731B1B0F8442042F40042A0F82D
:101C8000442005E0B0F84420C2F30E02A0F844203E
:101C90007047F0B50C4615461E4600210022002371
:101CA0000189028B038C4FF6F877394021434FF6B8
:101CB000FC473A4040F201173A434FF6DD773B408C
:101CC0004FF6FF7707EA06172F433B430181028354
:101CD0000384F0BD0146888F704730B5024600206E
:101CE00000230024158A05EA0103958905EA010409
:101CF00013B10CB1012000E0002030BD70B50546E5
:101D00000C46244885420ED0234885420BD0B5F1BD
:101D1000804F08D02148854205D02148854202D015
:101D20002048854200D100E000BF208850B92389B7
:101D3000A28861882846FFF77FFDE188284600F0E9
:101D4000F9F825E0208804280AD12389A28861882F
:101D50002846FFF7B1FDE188284600F0F4F817E0C7
:101D6000208808280AD12389A28861882846FFF79D
:101D7000EFFDE188284600F0F3F809E02389A28806
:101D800061882846FFF72CFEE188284600F0F1F82C
:101D900070BD0000002C01400034014000040040F0
:101DA00000080040000C004000210180418001211A
:101DB00081800021C180018170471AB183890B4362
:101DC000838102E083898B438381704770B500244F
:101DD00000220023058C4FF6FE7635400584028CE8
:101DE0008388048B4FF68F752C40B51E2C400D88D0
:101DF0002C43751E2A400D892A434D882A43144DD1
:101E0000A8420BD0134DA84208D0134DA84205D0CC
:101E1000124DA84202D0124DA84213D14FF6F775C9
:101E20002A404D892A434FF6FB752A408D882A4364
:101E30004FF6FF652B404FF6FF552B408D892B4306
:101E4000CD892B4383800483CD888586028470BD31
:101E5000002C01400034014000400140004401409A
:101E6000004801400A460021018B4FF6F7731940E4
:101E70001143018370470A460021018C4FF6FF533E
:101E800019404FF6FF7303EA022319430184704798
:101E900070B5002200230024058C4EF6FF763540F5
:101EA0000584038C8488828B48F6FF752A404FF6A0
:101EB000FF452A400D884FF6FF7606EA05252A439E
:101EC0004DF6FF752B400D8906EA05352B434D88ED
:101ED00006EA05352B430B4DA84202D00A4DA84215
:101EE00008D14BF6FF752C408D894FF6FF7606EA38
:101EF00085152C4384808283CD88A0F840500384CC
:101F000070BD0000002C0140003401400A46002151
:101F1000818B4FF2FF7319404FF6FF7303EA0223E0
:101F200019438183704781867047A0F8401070473D
:101F300081847047028B4FF6F3731A400283028B41
:101F40000A4302837047028B4FF2FF331A40028329
:101F5000028B4FF6FF7303EA01231A430283704793
:101F6000828B4FF6F3731A408283828B0A438283FB
:101F70007047828B4FF2FF331A408283828B4FF679
:101F8000FF7303EA01231A43828370470022028809
:101F90001D4B98420ED01D4B98420BD0B0F1804F94
:101FA00008D01B4B984205D01A4B984202D01A4BCE
:101FB000984204D14FF68F731A404B881A43174B3F
:101FC000984207D0164B984204D04FF6FF431A4070
:101FD000CB881A4302808B8883850B8803850A4B44
:101FE00098420BD0094B984208D00E4B984205D02E
:101FF0000D4B984202D00D4B984201D10B7A0386CB
:102000000123838270470000002C0140003401400E
:102010000004004000080040000C00400010004098
:1020200000140040004001400044014000480140CD
:102030004FF6FF71818000210180C18041800172D3
:102040007047000070B505460F49284604F02AF98C
:1020500008D30E49284604F025FA03D30C4800782B
:1020600001280DD1012400200A4908600A49C1F85D
:10207000B0010849091D08600749C1F8BC0100E02A
:102080000024204670BD0000000020C20000204255
:1020900091000020B48121420080214210B540F21D
:1020A0002551214800F05CF800283BD01E4800F084
:1020B00013F9C4B2462C2AD006DC412C19D0422C8C
:1020C00020D0452C2DD118E0582C0BD0592C02D003
:1020D0005A2C26D11FE002201449087014A0FEF7E4
:1020E000BFF81EE001201149087013A0FEF7B8F8F0
:1020F00017E001201249086013E04FF0FF3010494B
:1021000008600EE04FF0FF300E49086009E0012042
:102110000C49086005E00020094908600949086089
:1021200000BF00BF10BD000000380140900000203B
:10213000486967680D0A00004C6F770D0A000000BF
:102140008C0000209400002021B1828942F40052CA
:10215000828104E082894DF6FF731A4082817047C4
:1021600070B50246002400230025002040F66A16C0
:10217000B14200D100BFC1F3421501F01F03012697
:1021800006FA03F3012D02D19689334006E0022DB1
:1021900002D1168A334001E0968A33400C120126A0
:1021A00006FA04F41688344013B10CB1012000E0A3
:1021B000002070BDF0B50346002400260025002055
:1021C00040F66A17B94200D100BF1846C1F3421465
:1021D00001F01F06012707FA06F5012C01D10C308A
:1021E00004E0022C01D1103000E014301AB107686D
:1021F0002F43076002E00768AF430760F0BD0000AF
:102200002DE9F04786B005460E460024A24600BFE1
:10221000A1460027B08900B100BF2F462C8A4CF69A
:10222000FF700440F08804432C82AC894EF6F31012
:102230000440B08831890843718908430443AC8164
:10224000AC8A4FF6FF400440B0890443AC8201A839
:10225000FFF75AF91F48874202D1DDF810A001E0CC
:10226000DDF80CA0A88900F4004040B10AEBCA00D8
:1022700000EB0A1031684900B0FBF1F807E00AEB07
:10228000CA0000EB0A1031688900B0FBF1F8642045
:10229000B8FBF0F004012009642101FB1089A88932
:1022A00000F4004040B1322000EBC900B0FBF1F077
:1022B00000F00700044308E0322000EB091064211D
:1022C000B0FBF1F000F00F0004432C8106B0BDE834
:1022D000F08700000038014001468888C0F30800FC
:1022E000704700BFFEE7000041F6F4201749096877
:1022F000012904D1164909686439154A1160134946
:102300000968491C21B9134909686431114A1160EF
:102310000F4909684242914202DA41420C4A116077
:102320000B490968814201DD0949086009490968CA
:102330004242914202DA4142064A11600549096867
:10234000814201DD03490860704700008C000020D5
:10235000A0000020A4000020490050EAC12018BFBE
:1023600004204A0D18BF40F0010040F2FF72B2EBAA
:10237000515F08BF40F00200012808BF05207047E8
:102380002DE9F0414F1E00EBC7010446D1E90001E1
:1023900015461E4637F006020DD02A46334603F096
:1023A000AFFA7F1E04EBC703D3E9002303F05AF80A
:1023B00037F00602F1D1022F25D0042F13D0062FBB
:1023C00018BFBDE8F0812A46334603F099FAD4E9F4
:1023D0000A2303F047F82A46334603F091FAD4E97A
:1023E000082303F03FF82A46334603F089FAD4E97C
:1023F000062303F037F82A46334603F081FAD4E97E
:10240000042303F02FF82A46334603F079FAD4E97F
:10241000022303F027F82A46334603F071FAD4E981
:102420000023BDE8F04103F01DB8012204F013B908
:1024300003F018B8002213461046114603F0C2B844
:10244000024A0020110704F006B9000001FDFFFF59
:1024500030380A2801D20120704700207047014619
:1024600000BF70472DE9FE4F06460F46002568461F
:1024700001F0DCF9002442E056F8240057F824105B
:10248000A0EB010ABAF1000F01DB514601E0CAF1ED
:102490000001084603F0DAFE83464FF08F4103F057
:1024A000A3FD80465DF82400002103F05FFE16D0F6
:1024B0005DF82410404603F097FD82464FF07E51B0
:1024C00004F022F8814629F0004A0F48416A50463C
:1024D00003F0E8FF12D20120A04005430EE00A48B5
:1024E000C169404603F0DEFE05D30748016A404655
:1024F00003F0D8FF02D20120A0400543641C032C46
:10250000BADB2846BDE8FE8F0C6700082DE9F04DC8
:102510008D4F21F0004A86B005460C46BA452ADBAD
:10252000AAEB070028430AD08848824501DC1AD16B
:10253000CDB106B02846BDE8F04DFFF776BF844A1E
:10254000844B284603F0DCF907460E46824A834B4B
:102550002846214603F0D4F906B03A463346BDE892
:10256000F04D02F07FBF0120FEF712F806B0BDE883
:10257000F04DFFF75FBF7A48824542DABAF1795FE2
:102580000BDA2846FFF7E8FE042808BFFFF758FFDC
:10259000284606B02146BDE8F08D2A460B46104677
:1025A00003F0AEF9834602466E480E460B460621FE
:1025B0007844FFF7E5FE5A46334603F0A1F980461A
:1025C00069488A465A46334604217844FFF7D8FEC4
:1025D0005A46334603F094F900223B4602F042FF8C
:1025E00002460B464046514602F0ECFF2A4623467F
:1025F00003F086F906B02A462346BDE8F04D02F006
:1026000031BF284624F0004100223D463B4603F0FE
:1026100075FA4FF0FF3204F01EF8064602465348A2
:102620000F460B4606217844FFF7AAFE32463B468A
:1026300003F066F9CDE900014D4832463B460421DE
:102640007844FFF79DFE32463B4603F059F90022DD
:102650002B4602F007FF834602913046394602F0CE
:1026600059FE804643480D46504517DCDDE9000120
:102670005A46029B02F0A6FF42462B4603F040F961
:1026800042462B4602F0EEFE012203F0E4FF304A00
:10269000304B03F025FB304A304B4CE04FF0000A42
:1026A00052460B46404602F0DDFECDE9031052468D
:1026B0002B461046194603F023F932463B4603F0F9
:1026C0001DFADDE9033202F07DFF06460F46DDE923
:1026D00000015A46029B02F075FF834600910122D9
:1026E0003046394603F0B7FF194A1A4B03F006FA91
:1026F00006460F4601224046294603F0ACFF5A46E3
:10270000009B03F0FDF832463B4603F0E9FA06462B
:102710000F4601225046294603F09DFF0E4DDFF87B
:1027200058802A46434603F0E9F932463B4603F017
:10273000E5F92A46434603F0E1F9002CD8BF81F0C1
:10274000004106B0BDE8F08D0000F03F0000F07FD2
:10275000075C143326A6913C182D4454FB21F93F05
:102760000000E03F8C4D0000A24D0000164D00001F
:102770002C4D00003333EF3FFB21E93F2DE9F84FAB
:1027800004460D4621F0004000917349814211DC5E
:102790007249884201DC06D12CB120462946BDE8A9
:1027A000F84FFFF742BE6E48002DCCBF6D496E4911
:1027B000BDE8F88F6D49814211DD6D498142D8BF76
:1027C0004FF0FF366DDD20462946FFF7C5FD042892
:1027D00008BFFFF735FE20462946BDE8F88F65495A
:1027E000654F25F00045814233DD6449814219DDA2
:1027F000002632464FF080432046294602F032FE42
:1028000080468A4601222046294603F024FF002202
:102810003B4603F065FA4246534602F0D3FE0446B7
:102820000D463EE001260022BA463B462046294698
:1028300002F018FE80460F460022534620462946E5
:1028400003F04EFA42463B4602F0BCFE04460D46FB
:1028500027E04B4981421BDDDFF828A10226002238
:1028600053462046294603F04BF800223B4602F02F
:10287000F9FD80460F46002253462046294603F0C4
:102880002FFA42463B4602F09DFE04460D4608E004
:10289000032622462B4600203B4902F093FE0446C5
:1028A0000D4622462B461046194603F029F88B4662
:1028B000824602460B4603F023F807460246334899
:1028C00088460B4606217844FFF75AFD52465B4680
:1028D00003F016F882462E488B463A4643460521B9
:1028E0007844FFF74DFD3A46434603F009F80246A7
:1028F0000B46002E504659460CDA02F0B3FD224634
:102900002B4602F0FDFF01B022462B46BDE8F04FFA
:1029100003F0F4B802F0A6FD22462B4602F0F0FFC9
:102920001C4A7A4402EBC603D3E9002303F0D8F92A
:1029300022462B4603F0D4F9174A7A4402EBC60329
:10294000D3E9002303F0DAF8009A002AB8BF81F037
:102950000041BDE8F88F0000000010440000F07F47
:10296000182D4454FB21F93FFB21F9BF0000DC3F47
:102970000000203E0000F33F0000F03F0000E63F73
:10298000008003400000F83F0000F0BF2E4B000025
:10299000EC4A00008A4A0000524A00002DE9F04D3E
:1029A0009446CCF1000423F000464CEA0404524F54
:1029B00046EAD4749A46884621F00042BC4206D8C2
:1029C000454240EA050442EAD474BC4204D9BDE859
:1029D000F04D6246FFF72CBDAAF14055A5F17F6589
:1029E00055EA0C040BD0022404EAAA74434DDFF824
:1029F00010E144EAD87452EA000B04D00CE0BDE8C0
:102A0000F04DFFF7BBBE002C14BF012CBDE8F08DCC
:102A1000022C30D0032C32D056EA0C0B0AD0BE4226
:102A200020D1BA4209D126F0804622F080423346B6
:102A3000114617E000291ADB25E0DFF8C8B0FB4497
:102A4000002C04BFDBE90001BDE8F08D012C02BFC2
:102A5000DBE9000181F00041BDE8F08D022C0AD0D5
:102A6000032C0CD0BA4212D1B8F1000F0BDA234874
:102A70002549BDE8F08D28462449BDE8F08D28465B
:102A80007146BDE8F08D1D482149BDE8F08D921BCF
:102A900012153C2AC4BF19481D490EDCBAF1000FBB
:102AA000BEBF12F13C0F0020014606DB624602F079
:102AB00089FD21F00041FFF761FE002C08BFBDE851
:102AC000F08D012C04BF81F00041BDE8F08D114A6A
:102AD000114B022C07D003F003F92A46BDE8F04D54
:102AE0000A4B03F0FDB803F0FBF82A46BDE8F04DB1
:102AF000064B03F003B800000000F07F182D44548B
:102B0000FB2109C0E6490000FB21F9BFFB21094078
:102B1000FB21F93F075C143326A6A13C2DE9F041C7
:102B20000446E07800F0C006E07800F03F056078E9
:102B300000F0010098B1EF102846E91705EB51713C
:102B4000C910A5EBC101491C01F0FF080B48006842
:102B500020B10A48414602683846904700BF607875
:102B600000F0080030B10548406818B1B011034AC0
:102B7000516888470020BDE8F0810000F80000207F
:102B800010B56FF00400FEF711FE0A4800680A490C
:102B9000B0FBF1F0094908700846007800EB4001ED
:102BA000C1EBC0104FF6FF7101EAC0000449088074
:102BB00010BD00001800002000127A002C00002038
:102BC0002E0000200146114A12884A434FF0E023AC
:102BD0005A6100229A611A46126942F001021A6192
:102BE00000BF4FF0E022106900F001021AB100F4BA
:102BF0008032002AF5D04FF0E022126922F0010263
:102C00004FF0E0231A6100229A6170472E000020E5
:102C10000146114A12784A434FF0E0235A610022DC
:102C20009A611A46126942F001021A6100BF4FF020
:102C3000E022106900F001021AB100F48032002A8B
:102C4000F5D04FF0E022126922F001024FF0E023AC
:102C50001A6100229A6170472C00002038B50446A2
:102C600064B120208DF8000028208DF8010030206C
:102C70008DF8020038208DF8030004E0A32204211F
:102C80006846FDF7FDFB6A46042140F69E2002F0EF
:102C90006FFA01F059FE38BD3EB5044602208DF8AA
:102CA0000000CA208DF80100E3208DF80200092001
:102CB0008DF803006A460421682002F059FAA32027
:102CC0008DF8000004F0400048B1C0208DF80100EC
:102CD000C8208DF80200C2208DF8030006E0A32072
:102CE0008DF801008DF802008DF8030004F4C07027
:102CF00048B1C4208DF80400CC208DF80500C62012
:102D00008DF8060006E0A3208DF804008DF805007C
:102D10008DF80600A3208DF807008DF808008DF8C7
:102D200009006A460A2140F6A72002F021FA04F0C1
:102D3000030018B120208DF8000002E0D8208DF8A3
:102D400000006A46012140F6B62002F011FA04F0B4
:102D5000200018B1012000F0ADF802E0002000F0E2
:102D6000A9F804F4C07008B304F4807060B1B22014
:102D70008DF800008B208DF80100B6208DF8020040
:102D80009B208DF803000BE0B0208DF80000802020
:102D90008DF80100B4208DF8020090208DF803001A
:102DA0006A46042140F6A22002F0E2F904F0010094
:102DB00020B3F8208DF800006A4601214FF40B6023
:102DC00002F0D6F9FA21072000F02CFC072000F0D1
:102DD000F3FB012000F013FC642000F0F3FC4FF43F
:102DE000FA7000F002FDC821304800F0A3FB282053
:102DF00000F0BCFB0A2000F0CCFB08E0D8208DF8E6
:102E000000006A4601214FF40B6002F0B1F904F0B2
:102E1000020018B1D9208DF8000002E0D8208DF80A
:102E200000006A46012140F23D7002F0A1F904F071
:102E3000040018B1012000F069F802E0002000F061
:102E400065F804F0100018B10120FFF707FF02E059
:102E50000020FFF703FF44F008001549488101F006
:102E600073FD00201249887304F0400018B1084631
:102E7000807B801D887304F4C07020B10C48807B77
:102E8000801D0B49887304F0140020B10848807B32
:102E900010300749887304F0030020B10448807B98
:102EA000001D0349887300203EBD000009E3CA02EB
:102EB000F80000203EB504466CB10EA1D1E9002017
:102EC0008968CDE9002002916A4609214FF4976094
:102ED00002F04EF93EBD0AA2D2E900109268CDE997
:102EE000010200916A4609214FF4976002F040F90F
:102EF000F0E70000B8AAB38DB4980D355D0000006E
:102F0000B8AAAAAAB088C3C5C700000038B504464D
:102F100064B1C0208DF80000C2208DF80100C420EB
:102F20008DF80200C6208DF8030004E08B220421F6
:102F30006846FDF7A5FA6A46042140F6982002F09B
:102F400017F901F001FD38BD10B5C8234FF48062B8
:102F5000024940F6F63001F08BFB10BD34670008E3
:102F60002DE9F04F8DB00746884615469946DDE9B4
:102F7000166B0024002030806B49887B5A4605A9D7
:102F800001F042FC18B1601E0DB0BDE8F08F66483C
:102F9000807A00F01400002867D09DF81400000625
:102FA0009DF8151040EA01409DF8161040EA0120F6
:102FB0009DF81710084328609DF8180000069DF83A
:102FC000191040EA01409DF81A1040EA01209DF8CE
:102FD0001B10084368609DF81C0000069DF81D103A
:102FE00040EA01409DF81E1040EA01209DF81F10A4
:102FF0000843A8609DF8200000069DF8211040EAD3
:1030000001409DF8221040EA01209DF8231008435A
:10301000E86004F11000C4B22868001401906868E8
:1030200000140290A86800140390E868001404904B
:1030300001984043029901FB0100039901FB010043
:10304000049901FB010ABAF1706F02DBBAF1885FE3
:1030500005DD01F079FC00203080401E94E7B6F9D0
:10306000000040F48070308000BF2F48807A00F06C
:10307000400020B305A9601C085C095D40EA0120FE
:1030800000B2A8F8000005A9E01C095C05AAA01C74
:10309000105C41EA002000B2A8F8020005A9601DFA
:1030A000095C201D105C41EA002000B2A8F8040071
:1030B000A01DC4B2B6F9000040F0080030801A48E4
:1030C000408900F4C07008B305A9601C085C095D64
:1030D00040EA012000B2388005A9E01C095C05AA7D
:1030E000A01C105C41EA002000B2788005A9601D98
:1030F000095C201D105C41EA002000B2B880A01DD0
:10310000C4B2B6F9000040F0700030800648807A02
:1031100000F0030018B105A90819FFF7FFFC4846A5
:1031200000F038FF00202FE7F800002070B588B0CD
:10313000064601A801F0F0F8BDF804000021C9031B
:1031400041EA5045C4034448007A00F0030056F8B1
:10315000200005904048007A00F0040010B1059866
:10316000404205903C48007AC0F3C10056F8200068
:1031700006903948007A00F0200010B106984042CD
:1031800006903548007AC0F3811056F82000079069
:103190003148008900F4807010B1079840420790D0
:1031A0000598C117A0FB042301FB043100FB0510A7
:1031B000810041EA927005900698C117A0FB042394
:1031C00001FB043100FB0510810041EA927006907A
:1031D0000798C117A0FB042301FB043100FB051075
:1031E000810041EA927007900598000E8DF8080062
:1031F0000598000C8DF809000598000A8DF80A0062
:103200000598C0B28DF80B000698000E8DF80C00E2
:103210000698000C8DF80D000698000A8DF80E0037
:103220000698C0B28DF80F000798000E8DF81000B8
:103230000798000C8DF811000798000A8DF812000D
:103240000798C0B28DF8130002AA0C214FF4257024
:1032500001F08EFF08B070BDF800002030B585B0D9
:10326000044616A207CA02AB07C3C82C03DD4FF001
:10327000FF3005B030BDC82090FBF4F0401E85B291
:10328000280A8DF80000E8B28DF801006A46022194
:1032900040F2162001F06CFF10B14FF0FF30E8E76C
:1032A00002AA0C2140F6C12001F062FF10B14FF0DC
:1032B000FF30DEE7044884810020DAE7FEF2ABC489
:1032C000AAF1DFDFBBAFDFDFF80000201FB5044647
:1032D0004848007A00F0030054F820000190454867
:1032E000007A00F0040010B101984042019041487A
:1032F000007AC0F3C10054F8200002903D48007AE3
:1033000000F0200010B10298404202903948007A43
:10331000C0F3811054F8200003903648008900F46F
:10332000807010B10398404203903349019880FBAC
:103330000101800F40EA810001902F49029880FB33
:103340000110820042EA917002902B49039880FBA1
:103350000110820042EA917003900198000E8DF8EE
:1033600000000198000C8DF801000198000A8DF80A
:1033700002000198C0B28DF803006A4604214FF4A0
:10338000747001F0F5FE18B14FF0FF3004B010BDBD
:103390000298000E8DF800000298000C8DF80100D4
:1033A0000298000A8DF802000298C0B28DF803005E
:1033B0006A4604214FF4757001F0DAFE10B14FF047
:1033C000FF30E3E70398000E8DF800000398000C2F
:1033D0008DF801000398000A8DF802000398C0B22E
:1033E0008DF803006A4604214FF4767001F0C0FEA8
:1033F000CCE70000F800002009E3CA0210B586B04F
:10340000044647A00068039046A00068029046A0CA
:103410000068019045A00068009004F0030003A933
:10342000085C8DF8140003A8C4F3C101405C8DF85A
:10343000150003A8C4F38111405C8DF8160004F058
:10344000030002A9085C8DF8100002A8C4F3C101B2
:10345000405C8DF8110002A8C4F38111405C8DF826
:10346000120005AA032140F2264001F081FE18B1A6
:103470004FF0FF3006B010BD04AA032140F22A40ED
:1034800001F076FE10B14FF0FF30F3E701980590A0
:103490000098049004F0040058B19DF8140040F026
:1034A00001008DF814009DF8100040F001008DF827
:1034B000100004F0200058B19DF8150040F0010004
:1034C0008DF815009DF8110040F001008DF81100F5
:1034D00004F4807058B19DF8160040F001008DF89A
:1034E00016009DF8120040F001008DF8120005AAA8
:1034F00003214FF4886001F03BFE10B14FF0FF3024
:10350000B8E704AA032140F2314001F031FE10B1C6
:103510004FF0FF30AEE7064804810020AAE7000024
:103520004CCD6C000CC92C00365676002646660041
:10353000F8000020F8B505460E464FF47A7095FB6A
:10354000F0F000FB06F4200E8DF80000200C8DF842
:103550000100200A8DF80200E0B28DF803006A46EF
:1035600004214FF4AE7001F003FEF8BD38B50446F7
:10357000052094FBF0F084B220128DF80000E0B238
:103580008DF801006A4602214FF4AD7001F0F0FDA4
:1035900038BD38B50446052094FBF0F084B2201203
:1035A0008DF80000E0B28DF801006A4602214FF468
:1035B000AC7001F0DDFD38BD38B504460020009048
:1035C00004F0010020B19DF8000040F030000090B0
:1035D00004F0020020B19DF8000040F00C000090C3
:1035E00004F0040020B19DF8000040F003000090BA
:1035F0006A4601214FF4A47001F0BAFD38BD38B518
:103600000446012C01DA012402E0042C00DD04242C
:10361000601EC0B200906A46012140F24F1001F0D6
:10362000A7FD38BD2DE9FC4706460F4606F007000A
:1036300010B1B7F5C86F03DD4FF0FF30BDE8FC8770
:10364000384602F01BFE8146594902F0CDFC804607
:10365000684600F03BFE9DF80000022806D00428D2
:1036600016D0082826D0102848D135E04FF08D41DB
:10367000404602F04BFE814602F0C8FD84B24D493F
:10368000404602F043FE814602F0C0FD85B238E0BC
:103690004FF08C41404602F039FE814602F0B6FD03
:1036A00084B24549404602F031FE814602F0AEFD4B
:1036B00085B226E04FF08B41404602F027FE81465E
:1036C00002F0A4FD84B23D49404602F01FFE81464F
:1036D00002F09CFD85B214E04FF08A41404602F0B2
:1036E00015FE814602F092FD84B23549404602F053
:1036F0000DFE814602F08AFD85B202E04FF0FF30F8
:103700009CE700BF20128DF80400E0B28DF80500A0
:1037100028128DF80600E8B28DF8070006F00100C7
:10372000A0B101AA02214FF4EA7001F021FD10B10D
:103730004FF0FF3082E70DF1060202214FF4927044
:1037400001F016FD10B14FF0FF3077E706F00200F0
:10375000A0B101AA02214FF4EC7001F009FD10B1F3
:103760004FF0FF306AE70DF1060202214FF494702A
:1037700001F0FEFC10B14FF0FF305FE706F00400EF
:10378000A0B101AA02214FF4EE7001F0F1FC10B1DA
:103790004FF0FF3052E70DF1060202214FF4967010
:1037A00001F0E6FC10B14FF0FF3047E7002045E79D
:1037B00000004843000040460000C045000040456E
:1037C0000000C04438B50446052094FBF0F085B2F3
:1037D00028128DF80000E8B28DF801006A46022137
:1037E0004FF4EF7001F0C4FC38BD38B50446052035
:1037F00094FBF0F085B228128DF80000E8B28DF845
:1038000001006A4602214FF4ED7001F0B1FC38BDB1
:1038100000BF054A128802F04002002AF9D0C2B265
:10382000014B1B1D1A807047003801407CB50546CE
:1038300028494968087801AB04220D21FDF708FCEE
:1038400008B107207CBD9DF80700C0F301109DF86A
:10385000041001F0E00140EAE1008DF800009DF85D
:103860000700C0F381009DF8051001F0E00140EA77
:10387000E1008DF801009DF8070000F003009DF8BD
:10388000061001F0E00140EAE1008DF8020000249A
:103890001CE01DF8040018B9002045F8240013E0CE
:1038A0000D4845F8240006E055F824000B4902F0C5
:1038B0002DFD45F824001DF80400401EC0B20DF88F
:1038C00004000028F0D100BF601CC4B2032CE0DB70
:1038D0000020B7E7500000207B14AE3E1D5A843F05
:1038E0002DE9F04F87B005460C46914601208DF832
:1038F000100000208DF81100FE4A1268917CFD4AEC
:103900005268107804AB0222FDF748FC20B14FF05A
:10391000FF3007B0BDE8F08FC820FFF753F9002053
:103920008DF81000F34A1268D17BF24A5268107881
:1039300004AB0122FDF732FC10B14FF0FF30E8E795
:10394000EC4A12685179EB4A5268107804AB0122B4
:10395000FDF724FC10B14FF0FF30DAE7E54A1268BA
:10396000917CE44A5268107804AB0122FDF716FC02
:1039700010B14FF0FF30CCE7DE4A1268D17DDD4A4E
:103980005268107804AB0122FDF708FC10B14FF02B
:10399000FF30BEE7D74A12681179D64A52681078CC
:1039A00004AB0122FDF7FAFB10B14FF0FF30B0E796
:1039B0000C208DF81000CF4A12681179CD4A526858
:1039C000107804AB0122FDF7E9FB10B14FF0FF3096
:1039D0009FE70F20FFF7F6F8C648806A407A8DF817
:1039E0001000C44A12689178C24A5268107804AB39
:1039F0000122FDF7D3FB10B14FF0FF3089E7BD483E
:103A0000806A007A8DF81000BA4A12685178B94A73
:103A10005268107804AB0122FDF7C0FB10B14FF0E3
:103A2000FF3076E7B9F1000F07D0B248806A807A9C
:103A300040F0E0008DF8100004E0AE48806A807A23
:103A40008DF81000AB4A12689179AA4A5268107832
:103A500004AB0122FDF7A2FB10B14FF0FF3058E795
:103A6000B9F1000F07D0A348806AC07A40F0E000A7
:103A70008DF8100003E0A048C07A8DF810009D4A30
:103A80001268D1799B4A5268107804AB0122FDF785
:103A900085FB10B14FF0FF303BE7B9F1000F02D0CA
:103AA000C820FFF78FF840208DF81000914A126867
:103AB0001179904A5268107804AB0122FDF76EFB31
:103AC00010B14FF0FF3024E778208DF81000894ABC
:103AD00012685179874A5268107804AB0122FDF7C9
:103AE0005DFB10B14FF0FF3013E783498889FFF782
:103AF00069F800208DF810007E4A126851797D4ADD
:103B00005268107804AB0122FDF748FB10B14FF06A
:103B1000FF30FEE6774A1268917A764A526810784A
:103B200004AB0222FDF794FA10B14FF0FF30F0E63B
:103B30009DF811009DF8101040EA012B0C209BFB12
:103B4000F0F0C6B20020A86068602860A0606060E5
:103B50002060824665E0674A1268D17A654A5268F9
:103B6000107804AB0C22FDF773FA10B14FF0FF3060
:103B7000CFE69DF811009DF8101040EA012000B238
:103B8000ADF808009DF813009DF8121040EA0120DE
:103B900000B2ADF80A009DF815009DF8141040EA37
:103BA000012000B2ADF80C00BDF9081020680844EF
:103BB0002060BDF90A10606808446060BDF90C100F
:103BC000A0680844A0609DF817009DF8161040EA10
:103BD000012000B2ADF800009DF819009DF8181002
:103BE00040EA012000B2ADF802009DF81B009DF8EC
:103BF0001A1040EA012000B2ADF80400BDF900102F
:103C0000286808442860BDF90210686808446860A4
:103C1000BDF90410A8680844A8600AF1010000F08A
:103C2000FF0AB24597DB3448D0F800C02868C117B6
:103C3000090441EA10410704624600233846FCF7B4
:103C4000EAFA32460023CDE90201FCF7E4FA2860E3
:103C50002948D0F800C06868C117090441EA10413A
:103C60000704624600233846FCF7D5FA32460023A3
:103C7000CDE90201FCF7CFFA68601F48D0F800C018
:103C8000A868C117090441EA1041070462460023ED
:103C90003846FCF7C0FA32460023CDE90201FCF7B2
:103CA000BAFAA8601448D0F804C02168C817000404
:103CB00040EA11480F046246002338464146FCF7AB
:103CC000AAFA32460023CDE90201FCF7A4FA2060EB
:103CD0000948D0F804C06068C117090441EA1041DE
:103CE0000704624600233846FCF795FA3246002363
:103CF00004E00000500000200C670008CDE902013C
:103D0000FCF789FA60601148D0F804C0A068C117B8
:103D1000090441EA10410704624600233846FCF7D3
:103D20007AFA32460023CDE90201FCF774FAA0606A
:103D3000A068002804DDA068A0F58030A06003E042
:103D4000A06800F58030A0600020E2E50C67000864
:103D50002DE9FC5F06460F4600253D494968087875
:103D600001AB03220D21FDF773F910B10720BDE867
:103D7000FC9F9DF8040000F01F008DF804009DF8E2
:103D8000050000F01F008DF805009DF8060000F00A
:103D90001F008DF80600002456E056F8240057F85E
:103DA0002410A0EB010BBBF1000F01DB594601E031
:103DB000CBF10001084602F049FA4FF08F41009024
:103DC00002F012F9814601A8005D68B32149086834
:103DD00002F054FA834659461F4802F005F980461E
:103DE00004E01E49404602F091FA804601A8005DB9
:103DF000401EC0B201A908550028F2D141464846EC
:103E000002F0F2F883464FF07E5102F07DFB8246CD
:103E10002AF0004B0F488169584602F043FB12D24A
:103E20000120A04005430EE00A480169484602F01F
:103E300039FA05D307484169484602F033FB02D2FC
:103E40000120A0400543641C032CA6DB28468EE716
:103E5000500000200C67000800B04C4554E3853F3B
:103E600010B50446204600F00FF80346E01C00F0B1
:103E70000BF843EAC00083B2A01D00F005F843EA46
:103E8000801083B2184610BD014691F90020002A27
:103E900001DD00201EE091F90020002A01DA042053
:103EA00018E091F90120002A01DD012012E091F9CA
:103EB0000120002A01DA05200CE091F90220002AF5
:103EC00001DD022006E091F90220002A01DA062035
:103ED00000E00720704700008AB000244FF4A06083
:103EE000FDF734FAFEF74CFE4FF4165001F038FAA5
:103EF000FCF77AFE002141F61F40FDF797F9FCF729
:103F0000E3FCFCF731FDFDF741F800BF00F08EF94E
:103F10000028FBD10023194A194907A8FDF720FA08
:103F20004FF07E530022174904A8FDF719FA002329
:103F30001A46154901A8FDF713FA47214FF6FF70FD
:103F4000FDF7A6FD18E0322C11DD1048006808B915
:103F5000012000E000200D4908600D48D0F8BC01A8
:103F600008B9012000E0002008490C31086004AACB
:103F700001A907A8FCF738FCE5E70000CDCCCC3E52
:103F80000000A0420000964300002842B0012142F8
:103F9000000021427047000070B50446002624F05E
:103FA0000104184890F8240008B1002070BD15489D
:103FB000807A10B94FF0FF30F8E71248057C807A1C
:103FC0002040104908740846007CA04202D04FF0FF
:103FD000FF3600E0002614B90A48007D18B1012020
:103FE00001F050F902E0002001F04CF93CB100F082
:103FF000ABFC20B1034805744FF0FF30D6E73046E4
:10400000D4E70000500000202DE9F04F99B004469D
:104010000D4616464FF07E574FF000084FF000094E
:104020004FF0000A12A813A918AB0EAACDE9001090
:1040300014A916A8FEF794FF18B1012019B0BDE825
:10404000F08FBDF84C0000F4807000287ED00E98F0
:1040500002F0FCF883464FF09D4101F0C5FF074692
:104060000F9802F0F3F883464FF09D4101F0BCFF3A
:104070008046109802F0EAF883464FF09D4101F027
:10408000B3FF8146119802F0E1F883464FF09D415D
:1040900001F0AAFF824639464FF0804002F036F91F
:1040A0004946059002F032F9414607904FF04040F2
:1040B00002F02CF95146059002F028F90690079974
:1040C00001F024FF834601F0F5FECDE90801FEF77B
:1040D0001DFA4FF06632544BCDE90A0101F010FC95
:1040E000CDE90C0101F08CF9206049464FF0804089
:1040F00002F00CF94946029002F008F9414604909A
:104100004FF0404002F002F94146029002F0FEF802
:104110000390049902F0F8F983464FF07E5101F0C4
:10412000F5FE059001F0C6FECDE9080139464FF0D5
:10413000804002F0EBF84146039002F0E7F8494670
:1041400004904FF0804002F0E1F800E068E0514652
:10415000039002F0DBF88346049901F0D7FE059046
:1041600001F0A8FECDE90601DDE90823FEF716FC03
:104170004FF066322C4BCDE90A0101F0C1FBCDE9CD
:104180000C0101F03DF928605146504602F0BEF89E
:1041900049460490484602F0B9F84146039040462B
:1041A00002F0B4F839460190384602F0AFF80090BA
:1041B000019901F0ABFE0290039902F0A5F9834644
:1041C000049902F0A1F9059001F074FECDE908010F
:1041D0005146384602F09AF849460490404602F0AB
:1041E00095F80390049901F091FE4FF080410590FD
:1041F00002F08CF8834601F05DFECDE90601DDE9B1
:104200000823FEF7CBFB4FF06632074BCDE90A01DE
:1042100001F076FBCDE90C0101F0F2F8306001E02D
:1042200002200BE7002009E766A64C4070B5002489
:10423000FCF792FD00F024F9002840D1782000F02E
:104240002FFFC4B20CB1012070BD7820FFF7A4FE8F
:10425000C4B20CB10220F7E7642000F0D3FEC4B270
:104260000CB10320F0E7FEF76FFEC4B20CB10420DE
:10427000EAE71548FFF7F4FD0546FFF7BFF8C4B2BB
:104280000CB10520E0E740F27310FEF705FDC4B263
:104290000CB10620D8E76420FEF7E0FFC4B20CB1F1
:1042A0000720D1E700F0A4FF04460CB10820CBE7BB
:1042B000012000F0A3FDC4B21CB10920C4E70A200C
:1042C000C2E70020C0E700007C0000200146114842
:1042D000407A30B1012807D0022808D003280CD139
:1042E00008E0022008700BE00420087008E00820B5
:1042F000087005E01020087002E04FF0FF307047B2
:1043000000BF0448C07C18B108784006000E087051
:104310000020F4E75000002001461348407A30B1F5
:10432000012808D002280AD0032810D10BE04FF44E
:10433000804008800EE041F69C7008800AE04FF44F
:104340008050088006E04FF40060088002E04FF0E3
:10435000FF30704700BF0448C07C10B1088840108F
:1043600008800020F5E700005000002001460248C8
:10437000007C0870002070475000002001460F4864
:10438000007A30B1012807D0022809D003280FD1C4
:104390000AE0FA2008800EE04FF4FA7008800AE084
:1043A0004FF47A70088006E04FF4FA60088002E06B
:1043B0000020088000BF00BF002070475000002090
:1043C00001460E48007A30B1012807D0022808D0F3
:1043D00003280CD108E00A4808600BE0094808608F
:1043E00008E00948086005E00848086002E04FF06E
:1043F000FF30704700BF0020FBE7000050000020A6
:1044000000000343000083423333034233338341CC
:1044100001461248C07A082817D2DFE800F01704D6
:10442000070A0D101318BC20088013E062200880D2
:1044300010E02A2008800DE0142008800AE00A20FD
:10444000088007E00520088004E000BF00BF0020CE
:10445000088000BF00BF002070470000500000200F
:104460000146064890F8240010B14FF0FF30704725
:104470000248C08908800020F9E7000050000020B1
:104480001CB580208DF80000654A1268917C644A52
:10449000526810786B460122FCF780FE10B14FF095
:1044A000FF301CBD6420FEF78DFB00208DF800005E
:1044B0005B4A1268917C5A4A526810786B46012216
:1044C000FCF76CFE10B14FF0FF30EAE7544A126877
:1044D000917D534A526810786B460622FCF7B8FD6E
:1044E00010B14FF0FF30DCE79DF80500C007400F2A
:1044F0009DF8031001F0010140EA41009DF8011010
:1045000001F0010140EA010494B1012C03D1012121
:104510004348C17431E0022C03D100214048C174EA
:104520002BE021463FA0FBF79BFE4FF0FF30B8E7A2
:104530003B4A1268D1783A4A526810786B46012299
:10454000FCF786FD10B14FF0FF30AAE79DF80000A0
:1045500000F00F042CB93D48FBF782FE4FF0FF300E
:104560009FE7042C06D13AA0FBF77AFE01212C48E4
:10457000C17402E000212A48C174FF2128488172D9
:10458000FF2027490872FF2125484172C1724FF66A
:10459000FF71C181FF21017481740121017380F8D1
:1045A0002210002180F8231041750175163001603A
:1045B00041608160163880F8241080F82510C1848D
:1045C0004FF4FA6000F062FC10B14FF0FF3068E782
:1045D000022000F02BFB10B14FF0FF3061E72A20E2
:1045E00000F0CEFC10B14FF0FF305AE7322000F05F
:1045F00009FD10B14FF0FF3053E70020FFF7CCFC6E
:1046000010B14FF0FF304CE7002000F051FB10B12B
:104610004FF0FF3045E7002000F042FD002040E76A
:1046200050000020556E737570706F727465642051
:10463000736F6674776172652070726F64756374EE
:10464000207265762025642E0A0000003074000870
:1046500048616C662073656E7369746976697479F4
:10466000207061727420666F756E642E0A000000FF
:104670002DE9F04385B005460E46904699462948F7
:1046800090F8250020B14FF0FF3005B0BDE8F08371
:1046900016B94FF0FF30F8E7002423E0281B10285C
:1046A00001DD102000E0281B87B232193946204670
:1046B00000F05EFD10B14FF0FF30E6E701AA394689
:1046C000204600F001F910B14FF0FF30DDE730195E
:1046D0003A4601A9FBF7A8FE10B16FF00100D4E73C
:1046E000E01984B2AC42D9DB4FEA28208DF80000F3
:1046F00008F0FF008DF801000A4A1268917E094A0D
:10470000526810786B460222FCF748FD10B14FF05A
:10471000FF30BAE70121034880F82510A0F8269061
:104720000020B2E75000002038B50446282C02DDF6
:104730004FF0FF3038BDDCB9002000F0EBFB00206B
:104740008DF8000007208DF801002E4A1268917C38
:104750002C4A526810786B460222FCF71FFD10B1FC
:104760004FF0FF30E6E70021264801750020E1E721
:10477000012000F0CFFB20208DF80000012C06D195
:1047800000208DF80100052000F0FAFB17E0052C51
:1047900006DC01208DF80100052000F0F1FB0EE0A1
:1047A000142C06DC02208DF801000A2000F0E8FB42
:1047B00005E003208DF80100142000F0E1FB9DF8D6
:1047C0000100072101EB8010C0B28DF801000D4AF5
:1047D0001268917C0B4A526810786B460222FCF7F3
:1047E000DDFC10B14FF0FF30A4E7082105488172CD
:1047F00000210173012101750020FFF7CDFB00208E
:1048000098E7000050000020F8B504460F46164611
:104810002C4890F8240010B94FF0FF30F8BD29481B
:10482000807A10B94FF0FF30F8E7264A1268917A83
:10483000244A526810786B460222FCF709FC10B13A
:104840004FF0FF30EAE79DF801009DF8001040EAC4
:104850000125A54203DA00203070401EDEE719482A
:1048600040684088B5EB600F17DD164A1268517C2E
:10487000144A526810786B460122FCF7E9FB10B12C
:104880004FF0FF30CAE79DF8000000F0100020B1A3
:1048900000F05AF86FF00100C0E7E2B2094B1B6864
:1048A000D97A084B5B6818783B46FCF7D1FB10B10E
:1048B0004FF0FF30B2E795FBF4F0401E307000205F
:1048C000ACE7000050000020F8B504460D4616463F
:1048D00016B94FF0FF30F8BD1A48807A10B94FF082
:1048E000FF30F8E720128DF80000E0B28DF80100EB
:1048F0009DF801002844134949684989884202DD2E
:104900004FF0FF30E7E70F4A1268117E0D4A5268F8
:1049100010786B460222FCF741FC10B14FF0FF30DB
:10492000D9E7EAB2074B1B68597D064B5B681878DC
:104930003346FCF78DFB10B14FF0FF30CBE7002082
:10494000C9E700005000002008B57048807A10B90F
:104950004FF0FF3008BD002000906C4A1268D17BF8
:104960006A4A526810786B460122FCF717FC10B1B6
:104970004FF0FF30EEE7654A12685179634A52689A
:1049800010786B460122FCF709FC10B14FF0FF30A4
:10499000E0E75E4A126811795C4A526810786B460B
:1049A0000122FCF7FBFB10B14FF0FF30D2E7574874
:1049B00090F82400002853D00C200090534A12682D
:1049C0001179524A526810786B460122FCF7E6FBD7
:1049D00010B14FF0FF30BDE73220FEF7F3F8C020F2
:1049E00000904A48807A00F0010020B19DF8000054
:1049F00040F020000090454A12681179434A5268FD
:104A000010786B460122FCF7C9FB10B14FF0FF3064
:104A1000A0E73E48407C10B10220009001E0002059
:104A200000903A4A1268D17B384A526810786B4637
:104A30000122FCF7B3FB10B14FF0FF308AE70020F2
:104A40000090324A12685179304A526810786B46A9
:104A50000122FCF7A3FB002855D04FF0FF3079E787
:104A600004200090294A12681179284A5268107867
:104A70006B460122FCF792FB10B14FF0FF3069E763
:104A80002248807C20B92148807A00F0010010B9CA
:104A90004020009001E0602000901C4A12681179CB
:104AA0001A4A526810786B460122FCF777FB10B166
:104AB0004FF0FF304EE73220FEF784F81348407C79
:104AC00010B10120009001E0002000900F4A126810
:104AD000D17B0E4A526810786B460122FCF75EFBD0
:104AE00010B14FF0FF3035E7084A12685179074A94
:104AF00052681078054B10330122FCF74FFB10B1C0
:104B00004FF0FF3026E7002024E70000500000208F
:104B10002DE9F04F8DB083460F4602200C9042489D
:104B200090F8240020B1002000F068F9012600E090
:104B3000002603A8FFF722FC05A8FFF7C7FB01A882
:104B4000FFF766FC02A8FFF78BFC374890F80AA035
:104B500004A8FFF70BFC002407E000223946584662
:104B6000FEF7BEFE00B902E0641C022CF5DB00BFBC
:104B7000022C01D1002528E0002407E0012206A92B
:104B800009A8FEF7ADFE00B902E0641C022CF5DBBB
:104B900000BF022C01D1002517E006A93846FDF719
:104BA00061FC00F0FF0809A95846FFF7D1F800F0B2
:104BB000FF090025B9F1000F01D145F00105B8F159
:104BC000000F01D145F0020500BFFF201649087211
:104BD000FF2115484172C1724FF6FF71C181FF215B
:104BE0008172017401210173BDF80C0000F04EF9CF
:104BF0009DF8140000F01AF8BDF8040000F0C0F9A8
:104C0000BDF8080000F0FEF9504600F049FA9DF8A2
:104C10001000FFF7C1F916B1012000F0EFF82846A7
:104C20000DB0BDE8F08F00005000002038B50446FC
:104C30001E48807A10B94FF0FF3038BD022C06D0E4
:104C4000042C07D0082C08D0102C0CD108E0002030
:104C500000900BE00820009008E01020009005E094
:104C60001820009002E04FF0FF30E6E700BF0F4849
:104C7000407A9DF80010B0EBE10F01D10020DCE795
:104C80000A4A1268D179094A526810786B460122A3
:104C9000FCF784FA10B14FF0FF30CEE79DF800002A
:104CA000C110024841720020C7E7000050000020F8
:104CB00038B504465048807CA04201D1002038BD60
:104CC000002C46D04C4A126811794B4A5268107831
:104CD0006B460122FCF7BCF910B14FF0FF30EEE754
:104CE0009DF8000020F020000090434A12681179DE
:104CF000414A526810786B460122FCF74FFA10B116
:104D00004FF0FF30DBE70320FDF75CFF022000904F
:104D1000394890F8220020B19DF8000040F0800052
:104D20000090354890F8230020B19DF8000040F035
:104D300030000090304A1268117D2F4A5268107876
:104D40006B460122FCF72AFA002851D04FF0FF30C1
:104D5000B5E7294A12681179274A526810786B46DC
:104D60000122FCF775F910B14FF0FF30A7E7224898
:104D7000807A00F0010028B19DF8000040F020008A
:104D8000009004E09DF8000020F0200000901A4AF6
:104D900012681179184A526810786B460122FCF7A4
:104DA000FDF910B14FF0FF3089E70320FDF70AFF4E
:104DB000114890F8220010B18020009001E00020FE
:104DC00000900D4890F8230020B19DF8000040F0BD
:104DD00030000090084A1268117D074A5268107826
:104DE0006B460122FCF7DAF910B14FF0FF3066E7AD
:104DF00001488474002062E75000002038B5044662
:104E0000214890F82400A04201D1002038BD24B3ED
:104E10001D4890F8250010B94FF0FF30F6E700204C
:104E200000F030FA0020FFF743FF1749C88C00F06C
:104E3000E9F8002000901449496808786B4601227F
:104E40002321FCF7ABF901210F4880F82410012041
:104E500000F018FAFFF778FD13E0002000F012FAD6
:104E60000948007C00900849496808786B4601228F
:104E70002321FCF793F90021034880F82410FFF761
:104E800063FD0020C2E700005000002038B5044652
:104E90001F48807A10B94FF0FF3038BDFA2C09D086
:104EA000B4F5FA7F09D0B4F57A7F09D0B4F5FA6F7A
:104EB0000CD108E0002000900BE00820009008E0F2
:104EC0001020009005E01820009002E04FF0FF3025
:104ED000E3E700BF0E48007A9DF80010B0EBE10F49
:104EE00001D10020D9E70A4A12689179084A52682C
:104EF00010786B460122FCF751F910B14FF0FF30EA
:104F0000CBE79DF80000C010014908720020C4E7FB
:104F10005000002038B50446184890F82300A042FD
:104F200001D1002038BD14B13020009001E00020F4
:104F300000901248807C20B19DF8000040F00200F3
:104F400000900E4890F8220020B19DF8000040F03B
:104F500080000090094A1268117D084A5268107852
:104F60006B460122FCF71AF910B14FF0FF30D9E778
:104F7000024880F823400020D4E7000050000020C1
:104F800038B504461E48807A10B94FF0FF3038BD5E
:104F9000BC2C02DB0120009015E0622C02DB022019
:104FA000009010E02A2C02DB032000900BE0142C70
:104FB00002DB0420009006E00A2C02DB05200090B2
:104FC00001E0062000900E48C07A9DF8001088424B
:104FD00001D10020DBE70A4A12689178084A52683A
:104FE00010786B460122FCF7D9F810B14FF0FF3072
:104FF000CDE79DF800100248C1720020C7E700000D
:105000005000002038B504462448807A10B94FF08B
:10501000FF3038BD214890F8240010B14FF0FF3028
:10502000F7E71E48007D50B134B1282C04DCE0B213
:10503000FFF77AFB0020ECE70020FFF775FB042C5C
:1050400001DA042404E0B4F57A7F01DD4FF47A74C8
:105050004FF47A7090FBF4F0401EC0B200900F4AFB
:10506000126851780D4A526810786B460122FCF79D
:1050700095F810B14FF0FF30CBE79DF80000401CD1
:105080004FF47A7191FBF0F081B20448C18101467E
:10509000C9894810FFF774FF0020BAE750000020CC
:1050A00038B5044604F0700010B10120009005E00E
:1050B00014B10020009001E0402000902B4A1268BB
:1050C000917C2A4A526810786B460122FCF766F8F8
:1050D00020B1002125488172481E38BD9DF800008E
:1050E00020F04001214801730020009004F04000AE
:1050F00020B99DF8000040F00400009004F020006A
:1051000020B99DF8000040F00200009004F010006B
:1051100020B99DF8000040F00100009004F0080064
:1051200020B99DF8000040F0380000900F4A126846
:10513000D17C0E4A526810786B460122FCF72EF89B
:1051400020B1002109488172481EC6E724B1082C0D
:1051500002D00020FFF7DEFE0448847200210175B2
:105160003220FDF72FFD0020B7E70000500000209F
:10517000F8B504460D46164616B94FF0FF30F8BD97
:105180001A48807A10B94FF0FF30F8E720128DF8F6
:105190000000E0B28DF801009DF801002844134999
:1051A00049684989884202DD4FF0FF30E7E70F4A3E
:1051B0001268117E0D4A526810786B460222FBF786
:1051C000EDFF10B14FF0FF30D9E7EAB2074B1B6893
:1051D000597D064B5B6818783346FBF7DFFF10B14B
:1051E0004FF0FF30CBE70020C9E70000500000205F
:1051F00070B588B002A905A8FFF78AFC0446032C05
:105200003ED101A8FFF7DCF8059801F01FF806462B
:10521000019901F07BF8054600F0DCFF0590069847
:1052200001F014F80646019901F070F8054600F007
:10523000D1FF0690079801F009F80646019901F0A0
:1052400065F8054600F0C6FF079005A8FEF73EF892
:105250006846FFF761F8BDF80010029848430290D5
:10526000BDF80010039848430390BDF8001004985F
:105270004843049002A8FDF759FF002008B070BD14
:105280000120FBE738B50446214890F82400C0B15E
:1052900014B10220009001E0002000901C4A126826
:1052A000D17B1B4A526810786B460122FBF776FFD0
:1052B00010B14FF0FF3038BD9DF800101448417414
:1052C00023E01348807A10B94FF0FF30F3E724B1A0
:1052D0000F48407C08B10020EDE714B10120009098
:1052E00001E0002000900A4A1268D17B084A526807
:1052F00010786B460122FBF751FF10B14FF0FF30E1
:10530000D9E79DF80010024841740020D3E700005F
:10531000500000202DE9F04106460F4600F0FAFB50
:1053200004000D4618BF0120284320F00040C0F1C2
:105330007F6000F1E040C00F0ED0301C18BF01208C
:10534000384320F00040C0F17F6000F1E040C00F22
:1053500004BF0120FBF71CF920462946BDE8F08177
:1053600010B586B00446012144F20400FCF7BCF8F5
:105370004FF40070ADF8140003208DF816001820CB
:105380008DF8170005A91C48FBF73CFB4FF4806023
:10539000ADF8140004208DF8170005A91648FBF796
:1053A00031FB25208DF8000003208DF801008DF8D9
:1053B000020001208DF803006846FBF78FFF01947F
:1053C0000020ADF80800ADF80A00ADF80C00ADF80B
:1053D00010000C20ADF80E0001A90848FCF710FFE2
:1053E000012240F225510548FCF7E4FE0121034863
:1053F000FCF7AAFE06B010BD0008014000380140CD
:1054000021F00042A2F16052B2F5801F01F000438A
:1054100028BFD2F17F6C0BD95FEA001C43EAC202BD
:1054200042EB507018BF704728BF20F00100704752
:10543000B2F5801FBCBF184670474FEA410C1CF5FF
:10544000001F02D2084601F028B870B500F002FB38
:1054500000000089FFF7F6BF4FF00040A0F5800084
:105460007047000010B591EA030F48BF83F0004376
:1054700000F13E84841A71EB030C05D2121943EB40
:105480000C03001B61EB0C01DFF824E14FEA11541F
:10549000A4EB135C1EEA430F18BF9EEA445F73D06F
:1054A00023EA0E03DCF1200E21EA045143F48013B9
:1054B00032D322FA0CFE10EB0E0023FA0CFE41EB65
:1054C0000E01CCF1200E03FA0EFE10EB0E0051F18E
:1054D0000001B1F5801FCCF1200E32D201EB045156
:1054E00012FA0EF2BDE8104058BF7047401C38BF9A
:1054F0005FEA420218BF7047002814BF20F0010085
:1055000041F100014FEA410313F5001F38BF704716
:10551000A1F1C04100F0ECBA012A43EB0302ACF167
:10552000200CDCF11F0E32BF4FF0000E23FA0CF3FB
:1055300010EB030041EB0451B4EB115FD0D0A1EBB1
:10554000045101F5801149085FEA300001EB045174
:105550000ED350F1000038BF12FA0EFE08D1BDE89C
:105560001040C9E7401C38BF5FEA4202CAD1C3E716
:10557000BDE810404FEA410313F5001F38BF7047E4
:10558000A1F1C04100F0B4BA9EEA445F08D011EA2C
:105590005E0FBDE8104004BF01F0004100207047DD
:1055A000BDE8104070B500F055FA00BF64FBBE3E88
:1055B0000000E0FF02494FF0000001F01AB800BF00
:1055C0000000F87F2DE9C04130B4DFF8A0C23CEA0A
:1055D000111418BF3CEA131400F0EC8081EA0305B3
:1055E0001CEA111444EAD57418BF1CEA131500F024
:1055F000C780A4EB05044FF0004545EAC12145EA08
:10560000C32341EA505143EA525304F17F74994253
:1056100004F500344FEAC0204FEAC22208BF90428E
:1056200000F09C804FEA13650FF24016765D4FEA5A
:10563000134506FB05F7C7F1807706FB07F74FEA2E
:10564000D737A7FB03687642C8F58038A7FB06CE9C
:1056500038BFA8F1010807FB08E64FF0000EA6FBD3
:10566000028CE6FB03CEDCF1000CCEF1004E38BF1D
:10567000AEF1010EA6FB0C584FF000074FF00005ED
:10568000E6FB0E87A1FB08C6A0FB07CE16EB0E06B5
:1056900045F10005E1FB076515F1E04E7EBFA4F57D
:1056A00080345FEA46066D4116F1800745F100053A
:1056B0004FEA17274FEA066647EA0567A6F1DE4676
:1056C000B6F1805F4FEA15251FD9384624F0010C4A
:1056D00005EBC471BCF1FE6F01EB0C1102D8F0BCFC
:1056E000BDE8008124425CBF01F5801E9EEAC47FB4
:1056F00002D4F0BCBDE80081244238D4F0BCA1F152
:10570000C041BDE8004100F0F3B94FEAD22242EABD
:1057100043524FEAD323A7FB02864FEAD02040EA48
:10572000415007FB03661EEA0E0F4FEAD12105FB2D
:10573000026658BFA6EB0056B6EB00564FEA520E73
:105740004EEAC37E18EB0E0E56EB530EBDD518EB8A
:1057500002085E417F1C55F10005B6E74FF4801545
:105760004FF000074FF000064FF00008ADE7F0BC27
:105770004FF0000001F1C04101F00041BDE800819F
:1057800011EA0C1F0CEA131500D00CE013EA0C1FF1
:1057900000F025804FF00000F0BC81EA030101F029
:1057A0000041BDE80081F0BCBDE8004181EA030191
:1057B00000F09EB9F0BCBDE8004170B500F04AF9B8
:1057C000097EFC3E00F007B881EA03014FF00000BB
:1057D00001F00041704781EA030100F089B9F0BC93
:1057E000BDE800414FF0000021497047FFFDFBF983
:1057F000F7F5F4F2F0EEEDEBE9E8E6E4E3E1E0DE04
:10580000DDDBDAD8D7D5D4D3D1D0CFCDCCCBCAC875
:10581000C7C6C5C4C2C1C0BFBEBDBCBBBAB9B8B79C
:10582000B6B5B4B3B2B1B0AFAEADACABAAA9A8A88F
:10583000A7A6A5A4A3A3A2A1A09F9F9E9D9C9C9B5D
:105840009A99999897979695959493939291919008
:105850008F8F8E8E8D8C8C8B8B8A89898888878799
:105860008685858484838382828181800000FF070E
:105870000000F87F4FEA41034FEA5353A3F58063DA
:10588000D3F11E03C8BFD3F1210C0CDD4FF0004251
:1058900042EAC12242EA505232FA03FC8CEAE17C2D
:1058A000ACEBE1707047102BC4BF0020704703F5CC
:1058B000787CBCF1FF3F04D06FF0004282EA210007
:1058C000704770B500F0C6F84992248000207047F8
:1058D000F2E710F0004248BF4042B0FA80F310FAFD
:1058E00003F10AD0C3F11D0303F580634FEA415071
:1058F00002EB035202EBD12170474FF000007047DA
:10590000DFF848C170B51CEA111E1EBF1CEA131552
:105910009EEA0C0F95EA0C0F00F06F8081EA0304F9
:1059200023EA4C134EEAD47E21EA4C1141F4801153
:1059300043F48013AE44A1FB024CA0FB0365AEF11F
:105940007F7E361955EB0C05A1FB034C4CF100038F
:10595000A0FB021C16EB0C06654153F10003094243
:1059600018BF46F0010613F4007F0BD14FEA033154
:105970004FEA0530340341EA155140EA16506FF002
:1059800003020AE04FEAC3214FEAC520F40241EACC
:10599000555140EA56506FF0020202EB2E4201EBE5
:1059A000025585EACE710AD05FEA440C18BF24F094
:1059B000004450F1000041F1000120EAD47040F2AF
:1059C000FE7C624500D270BDA84214BF4FF08044F7
:1059D0004FF04044002E08BF0024BEF1806FA8BFE6
:1059E000A1F1C041BDE8704080F282804FF000001C
:1059F00001F1C04101F0004170479EEA0C0F0CEA32
:105A0000131518BF95EA0C0F06D04FF0000081EA7D
:105A1000030E0EF0004170BD00F01CF88900013E3D
:105A200000F007B800F009B84FEA430C5FEA5C5C8D
:105A300008D081EA030100F05BB84FEA410C5FEA4D
:105A40005C5CF6D14FF00000014970470000FF0791
:105A50000000F87F0EF1020E2EF0030E5EF8046BCC
:105A6000364205D4012A43EB030515F5001F12D871
:105A7000012841EB010C1CF5001F0CD80ED14FEA98
:105A8000D17C15F5001F0CEB4C0C0CF1020C08BF7F
:105A90004CEBD37C04E04FF0080C01E04FEAD37CE0
:105AA0000CEB4C0526FA05F606F00706B6F1040CD9
:105AB00006D20EEB860CBDE870404CF0010C60473E
:105AC000DFE80CF0090B02024FF000414FF000003C
:105AD000A1F5002170BD19461046012851EB0104C3
